{
	"contracts/4_SmartGTFX.sol": {
		"GTFX": {
			"abi": [
				{
					"inputs": [
						{
							"internalType": "address",
							"name": "account",
							"type": "address"
						}
					],
					"payable": false,
					"stateMutability": "nonpayable",
					"type": "constructor"
				},
				{
					"anonymous": false,
					"inputs": [
						{
							"indexed": true,
							"internalType": "address",
							"name": "owner",
							"type": "address"
						},
						{
							"indexed": true,
							"internalType": "address",
							"name": "spender",
							"type": "address"
						},
						{
							"indexed": false,
							"internalType": "uint256",
							"name": "amount",
							"type": "uint256"
						}
					],
					"name": "Approval",
					"type": "event"
				},
				{
					"anonymous": false,
					"inputs": [
						{
							"indexed": true,
							"internalType": "address",
							"name": "delegator",
							"type": "address"
						},
						{
							"indexed": true,
							"internalType": "address",
							"name": "fromDelegate",
							"type": "address"
						},
						{
							"indexed": true,
							"internalType": "address",
							"name": "toDelegate",
							"type": "address"
						}
					],
					"name": "DelegateChanged",
					"type": "event"
				},
				{
					"anonymous": false,
					"inputs": [
						{
							"indexed": true,
							"internalType": "address",
							"name": "delegate",
							"type": "address"
						},
						{
							"indexed": false,
							"internalType": "uint256",
							"name": "previousBalance",
							"type": "uint256"
						},
						{
							"indexed": false,
							"internalType": "uint256",
							"name": "newBalance",
							"type": "uint256"
						}
					],
					"name": "DelegateVotesChanged",
					"type": "event"
				},
				{
					"anonymous": false,
					"inputs": [],
					"name": "Freezed",
					"type": "event"
				},
				{
					"anonymous": false,
					"inputs": [
						{
							"indexed": true,
							"internalType": "address",
							"name": "who",
							"type": "address"
						}
					],
					"name": "LockUser",
					"type": "event"
				},
				{
					"anonymous": false,
					"inputs": [
						{
							"indexed": true,
							"internalType": "address",
							"name": "previousOwner",
							"type": "address"
						},
						{
							"indexed": true,
							"internalType": "address",
							"name": "newOwner",
							"type": "address"
						}
					],
					"name": "OwnershipTransferred",
					"type": "event"
				},
				{
					"anonymous": false,
					"inputs": [
						{
							"indexed": true,
							"internalType": "address",
							"name": "from",
							"type": "address"
						},
						{
							"indexed": true,
							"internalType": "address",
							"name": "to",
							"type": "address"
						},
						{
							"indexed": false,
							"internalType": "uint256",
							"name": "amount",
							"type": "uint256"
						}
					],
					"name": "Transfer",
					"type": "event"
				},
				{
					"anonymous": false,
					"inputs": [],
					"name": "UnFreezed",
					"type": "event"
				},
				{
					"anonymous": false,
					"inputs": [
						{
							"indexed": true,
							"internalType": "address",
							"name": "who",
							"type": "address"
						}
					],
					"name": "UnlockUser",
					"type": "event"
				},
				{
					"constant": true,
					"inputs": [],
					"name": "DELEGATION_TYPEHASH",
					"outputs": [
						{
							"internalType": "bytes32",
							"name": "",
							"type": "bytes32"
						}
					],
					"payable": false,
					"stateMutability": "view",
					"type": "function"
				},
				{
					"constant": true,
					"inputs": [],
					"name": "DOMAIN_TYPEHASH",
					"outputs": [
						{
							"internalType": "bytes32",
							"name": "",
							"type": "bytes32"
						}
					],
					"payable": false,
					"stateMutability": "view",
					"type": "function"
				},
				{
					"constant": true,
					"inputs": [
						{
							"internalType": "address",
							"name": "owner",
							"type": "address"
						},
						{
							"internalType": "address",
							"name": "spender",
							"type": "address"
						}
					],
					"name": "allowance",
					"outputs": [
						{
							"internalType": "uint256",
							"name": "",
							"type": "uint256"
						}
					],
					"payable": false,
					"stateMutability": "view",
					"type": "function"
				},
				{
					"constant": false,
					"inputs": [
						{
							"internalType": "address",
							"name": "spender",
							"type": "address"
						},
						{
							"internalType": "uint256",
							"name": "amount",
							"type": "uint256"
						}
					],
					"name": "approve",
					"outputs": [
						{
							"internalType": "bool",
							"name": "",
							"type": "bool"
						}
					],
					"payable": false,
					"stateMutability": "nonpayable",
					"type": "function"
				},
				{
					"constant": false,
					"inputs": [
						{
							"internalType": "address",
							"name": "spender",
							"type": "address"
						},
						{
							"internalType": "uint256",
							"name": "amount",
							"type": "uint256"
						},
						{
							"internalType": "bytes",
							"name": "data",
							"type": "bytes"
						}
					],
					"name": "approveAndCall",
					"outputs": [
						{
							"internalType": "bool",
							"name": "",
							"type": "bool"
						}
					],
					"payable": false,
					"stateMutability": "nonpayable",
					"type": "function"
				},
				{
					"constant": true,
					"inputs": [
						{
							"internalType": "address",
							"name": "account",
							"type": "address"
						}
					],
					"name": "balanceOf",
					"outputs": [
						{
							"internalType": "uint256",
							"name": "",
							"type": "uint256"
						}
					],
					"payable": false,
					"stateMutability": "view",
					"type": "function"
				},
				{
					"constant": false,
					"inputs": [
						{
							"internalType": "uint256",
							"name": "amount",
							"type": "uint256"
						}
					],
					"name": "burn",
					"outputs": [
						{
							"internalType": "bool",
							"name": "",
							"type": "bool"
						}
					],
					"payable": false,
					"stateMutability": "nonpayable",
					"type": "function"
				},
				{
					"constant": true,
					"inputs": [
						{
							"internalType": "address",
							"name": "",
							"type": "address"
						},
						{
							"internalType": "uint32",
							"name": "",
							"type": "uint32"
						}
					],
					"name": "checkpoints",
					"outputs": [
						{
							"internalType": "uint32",
							"name": "fromBlock",
							"type": "uint32"
						},
						{
							"internalType": "uint256",
							"name": "votes",
							"type": "uint256"
						}
					],
					"payable": false,
					"stateMutability": "view",
					"type": "function"
				},
				{
					"constant": true,
					"inputs": [],
					"name": "decimals",
					"outputs": [
						{
							"internalType": "uint8",
							"name": "",
							"type": "uint8"
						}
					],
					"payable": false,
					"stateMutability": "view",
					"type": "function"
				},
				{
					"constant": false,
					"inputs": [
						{
							"internalType": "address",
							"name": "spender",
							"type": "address"
						},
						{
							"internalType": "uint256",
							"name": "subtractedValue",
							"type": "uint256"
						}
					],
					"name": "decreaseAllowance",
					"outputs": [
						{
							"internalType": "bool",
							"name": "",
							"type": "bool"
						}
					],
					"payable": false,
					"stateMutability": "nonpayable",
					"type": "function"
				},
				{
					"constant": false,
					"inputs": [
						{
							"internalType": "address",
							"name": "delegatee",
							"type": "address"
						}
					],
					"name": "delegate",
					"outputs": [],
					"payable": false,
					"stateMutability": "nonpayable",
					"type": "function"
				},
				{
					"constant": false,
					"inputs": [
						{
							"internalType": "address",
							"name": "delegatee",
							"type": "address"
						},
						{
							"internalType": "uint256",
							"name": "nonce",
							"type": "uint256"
						},
						{
							"internalType": "uint256",
							"name": "expiry",
							"type": "uint256"
						},
						{
							"internalType": "uint8",
							"name": "v",
							"type": "uint8"
						},
						{
							"internalType": "bytes32",
							"name": "r",
							"type": "bytes32"
						},
						{
							"internalType": "bytes32",
							"name": "s",
							"type": "bytes32"
						}
					],
					"name": "delegateBySig",
					"outputs": [],
					"payable": false,
					"stateMutability": "nonpayable",
					"type": "function"
				},
				{
					"constant": true,
					"inputs": [
						{
							"internalType": "address",
							"name": "",
							"type": "address"
						}
					],
					"name": "delegates",
					"outputs": [
						{
							"internalType": "address",
							"name": "",
							"type": "address"
						}
					],
					"payable": false,
					"stateMutability": "view",
					"type": "function"
				},
				{
					"constant": false,
					"inputs": [],
					"name": "freeze",
					"outputs": [],
					"payable": false,
					"stateMutability": "nonpayable",
					"type": "function"
				},
				{
					"constant": true,
					"inputs": [
						{
							"internalType": "address",
							"name": "account",
							"type": "address"
						}
					],
					"name": "getCurrentVotes",
					"outputs": [
						{
							"internalType": "uint96",
							"name": "",
							"type": "uint96"
						}
					],
					"payable": false,
					"stateMutability": "view",
					"type": "function"
				},
				{
					"constant": true,
					"inputs": [],
					"name": "getOwner",
					"outputs": [
						{
							"internalType": "address",
							"name": "",
							"type": "address"
						}
					],
					"payable": false,
					"stateMutability": "view",
					"type": "function"
				},
				{
					"constant": true,
					"inputs": [
						{
							"internalType": "address",
							"name": "account",
							"type": "address"
						},
						{
							"internalType": "uint256",
							"name": "blockNumber",
							"type": "uint256"
						}
					],
					"name": "getPriorVotes",
					"outputs": [
						{
							"internalType": "uint96",
							"name": "",
							"type": "uint96"
						}
					],
					"payable": false,
					"stateMutability": "view",
					"type": "function"
				},
				{
					"constant": false,
					"inputs": [
						{
							"internalType": "address",
							"name": "spender",
							"type": "address"
						},
						{
							"internalType": "uint256",
							"name": "addedValue",
							"type": "uint256"
						}
					],
					"name": "increaseAllowance",
					"outputs": [
						{
							"internalType": "bool",
							"name": "",
							"type": "bool"
						}
					],
					"payable": false,
					"stateMutability": "nonpayable",
					"type": "function"
				},
				{
					"constant": false,
					"inputs": [
						{
							"internalType": "address",
							"name": "who",
							"type": "address"
						}
					],
					"name": "lockUser",
					"outputs": [],
					"payable": false,
					"stateMutability": "nonpayable",
					"type": "function"
				},
				{
					"constant": true,
					"inputs": [],
					"name": "name",
					"outputs": [
						{
							"internalType": "string",
							"name": "",
							"type": "string"
						}
					],
					"payable": false,
					"stateMutability": "view",
					"type": "function"
				},
				{
					"constant": true,
					"inputs": [
						{
							"internalType": "address",
							"name": "",
							"type": "address"
						}
					],
					"name": "nonces",
					"outputs": [
						{
							"internalType": "uint256",
							"name": "",
							"type": "uint256"
						}
					],
					"payable": false,
					"stateMutability": "view",
					"type": "function"
				},
				{
					"constant": true,
					"inputs": [
						{
							"internalType": "address",
							"name": "",
							"type": "address"
						}
					],
					"name": "numCheckpoints",
					"outputs": [
						{
							"internalType": "uint32",
							"name": "",
							"type": "uint32"
						}
					],
					"payable": false,
					"stateMutability": "view",
					"type": "function"
				},
				{
					"constant": true,
					"inputs": [],
					"name": "owner",
					"outputs": [
						{
							"internalType": "address",
							"name": "",
							"type": "address"
						}
					],
					"payable": false,
					"stateMutability": "view",
					"type": "function"
				},
				{
					"constant": false,
					"inputs": [],
					"name": "renounceOwnership",
					"outputs": [],
					"payable": false,
					"stateMutability": "nonpayable",
					"type": "function"
				},
				{
					"constant": true,
					"inputs": [],
					"name": "symbol",
					"outputs": [
						{
							"internalType": "string",
							"name": "",
							"type": "string"
						}
					],
					"payable": false,
					"stateMutability": "view",
					"type": "function"
				},
				{
					"constant": true,
					"inputs": [],
					"name": "totalSupply",
					"outputs": [
						{
							"internalType": "uint256",
							"name": "",
							"type": "uint256"
						}
					],
					"payable": false,
					"stateMutability": "view",
					"type": "function"
				},
				{
					"constant": false,
					"inputs": [
						{
							"internalType": "address",
							"name": "recipient",
							"type": "address"
						},
						{
							"internalType": "uint256",
							"name": "amount",
							"type": "uint256"
						}
					],
					"name": "transfer",
					"outputs": [
						{
							"internalType": "bool",
							"name": "",
							"type": "bool"
						}
					],
					"payable": false,
					"stateMutability": "nonpayable",
					"type": "function"
				},
				{
					"constant": false,
					"inputs": [
						{
							"internalType": "address",
							"name": "sender",
							"type": "address"
						},
						{
							"internalType": "address",
							"name": "recipient",
							"type": "address"
						},
						{
							"internalType": "uint256",
							"name": "amount",
							"type": "uint256"
						}
					],
					"name": "transferFrom",
					"outputs": [
						{
							"internalType": "bool",
							"name": "",
							"type": "bool"
						}
					],
					"payable": false,
					"stateMutability": "nonpayable",
					"type": "function"
				},
				{
					"constant": false,
					"inputs": [
						{
							"internalType": "address",
							"name": "newOwner",
							"type": "address"
						}
					],
					"name": "transferOwnership",
					"outputs": [],
					"payable": false,
					"stateMutability": "nonpayable",
					"type": "function"
				},
				{
					"constant": false,
					"inputs": [],
					"name": "unfreeze",
					"outputs": [],
					"payable": false,
					"stateMutability": "nonpayable",
					"type": "function"
				},
				{
					"constant": false,
					"inputs": [
						{
							"internalType": "address",
							"name": "who",
							"type": "address"
						}
					],
					"name": "unlockUser",
					"outputs": [],
					"payable": false,
					"stateMutability": "nonpayable",
					"type": "function"
				}
			],
			"devdoc": {
				"methods": {
					"allowance(address,address)": {
						"params": {
							"owner": "The address of the account holding the funds",
							"spender": "The address of the account spending the funds"
						},
						"return": "The number of tokens approved"
					},
					"approve(address,uint256)": {
						"details": "This will overwrite the approval amount for `spender`",
						"params": {
							"amount": "The number of tokens that are approved (2^256-1 means infinite)",
							"spender": "The address of the account which may transfer tokens"
						},
						"return": "Whether or not the approval succeeded"
					},
					"approveAndCall(address,uint256,bytes)": {
						"details": "receiveApproval(...) is executed.",
						"params": {
							"amount": "The number of tokens that are approved",
							"data": "The data to pass to receiveApproval(...)"
						},
						"return": "true"
					},
					"balanceOf(address)": {
						"params": {
							"account": "The address of the account to get the balance of"
						},
						"return": "The number of tokens held"
					},
					"burn(uint256)": {
						"details": "The amount must be greater than balance, total supply.",
						"params": {
							"amount": "The number of tokens that are burnt"
						},
						"return": "true"
					},
					"constructor": {
						"params": {
							"account": "The initial account to grant all the tokens"
						}
					},
					"decimals()": {
						"details": "Returns the token decimals."
					},
					"decreaseAllowance(address,uint256)": {
						"details": "This is an alternative to {approve} that can be used as a mitigation for problems described in {BEP20-approve}.",
						"params": {
							"spender": "The address of the account which may transfer tokens",
							"subtractedValue": "The subtractional number of tokens to allow which may be spent"
						},
						"return": "Whether or not the approval succeeded"
					},
					"delegate(address)": {
						"params": {
							"delegatee": "The address to delegate votes to"
						}
					},
					"delegateBySig(address,uint256,uint256,uint8,bytes32,bytes32)": {
						"params": {
							"delegatee": "The address to delegate votes to",
							"expiry": "The time at which to expire the signature",
							"nonce": "The contract state required to match the signature",
							"r": "Half of the ECDSA signature pair",
							"s": "Half of the ECDSA signature pair",
							"v": "The recovery byte of the signature"
						}
					},
					"getCurrentVotes(address)": {
						"params": {
							"account": "The address to get votes balance"
						},
						"return": "The number of current votes for `account`"
					},
					"getOwner()": {
						"details": "Returns the bep token owner."
					},
					"getPriorVotes(address,uint256)": {
						"details": "Block number must be a finalized block or else this function will revert to prevent misinformation.",
						"params": {
							"account": "The address of the account to check",
							"blockNumber": "The block number to get the vote balance at"
						},
						"return": "The number of votes the account had as of the given block"
					},
					"increaseAllowance(address,uint256)": {
						"details": "This is an alternative to {approve} that can be used as a mitigation for problems described in {BEP20-approve}.",
						"params": {
							"addedValue": "The additional number of tokens to allow which may be spent",
							"spender": "The address of the account which may transfer tokens"
						},
						"return": "Whether or not the approval succeeded"
					},
					"name()": {
						"details": "Returns the token name."
					},
					"owner()": {
						"details": "Returns the address of the current owner."
					},
					"renounceOwnership()": {
						"details": "Leaves the contract without owner. It will not be possible to call `onlyOwner` functions anymore. Can only be called by the current owner.   * NOTE: Renouncing ownership will leave the contract without an owner, thereby removing any functionality that is only available to the owner."
					},
					"symbol()": {
						"details": "Returns the token symbol."
					},
					"totalSupply()": {
						"details": "Returns the total supply."
					},
					"transfer(address,uint256)": {
						"params": {
							"amount": "The number of tokens to transfer",
							"recipient": "The address of the destination account"
						},
						"return": "Whether or not the transfer succeeded"
					},
					"transferFrom(address,address,uint256)": {
						"params": {
							"amount": "The number of tokens to transfer",
							"recipient": "The address of the destination account",
							"sender": "The address of the source account"
						},
						"return": "Whether or not the transfer succeeded"
					},
					"transferOwnership(address)": {
						"details": "Transfers ownership of the contract to a new account (`newOwner`). Can only be called by the current owner."
					}
				}
			},
			"evm": {
				"assembly": "    /* \"contracts/4_SmartGTFX.sol\":13479:29084  contract GTFX is BEP20Interface, Tokenlock, UserLock {... */\n  mstore(0x40, 0x80)\n    /* \"contracts/4_SmartGTFX.sol\":11988:11989  0 */\n  0x00\n    /* \"contracts/4_SmartGTFX.sol\":11971:11989  uint8 isLocked = 0 */\n  dup1\n  sload\n  not(shl(0xa0, 0xff))\n  and\n  swap1\n  sstore\n    /* \"contracts/4_SmartGTFX.sol\":15970:16246  constructor(address account) public {... */\n  callvalue\n    /* \"--CODEGEN--\":5:7   */\n  dup1\n  iszero\n  tag_1\n  jumpi\n    /* \"--CODEGEN--\":30:31   */\n  0x00\n    /* \"--CODEGEN--\":27:28   */\n  dup1\n    /* \"--CODEGEN--\":20:32   */\n  revert\n    /* \"--CODEGEN--\":5:7   */\ntag_1:\n    /* \"contracts/4_SmartGTFX.sol\":15970:16246  constructor(address account) public {... */\n  pop\n  mload(0x40)\n  sub(codesize, bytecodeSize)\n  dup1\n  bytecodeSize\n  dup4\n  codecopy\n  dup2\n  dup2\n  add\n  0x40\n  mstore\n    /* \"--CODEGEN--\":13:15   */\n  0x20\n    /* \"--CODEGEN--\":8:11   */\n  dup2\n    /* \"--CODEGEN--\":5:16   */\n  lt\n    /* \"--CODEGEN--\":2:4   */\n  iszero\n  tag_2\n  jumpi\n    /* \"--CODEGEN--\":29:30   */\n  0x00\n    /* \"--CODEGEN--\":26:27   */\n  dup1\n    /* \"--CODEGEN--\":19:31   */\n  revert\n    /* \"--CODEGEN--\":2:4   */\ntag_2:\n  pop\n    /* \"contracts/4_SmartGTFX.sol\":15970:16246  constructor(address account) public {... */\n  mload\n    /* \"contracts/4_SmartGTFX.sol\":7573:7590  address msgSender */\n  0x00\n    /* \"contracts/4_SmartGTFX.sol\":7593:7605  _msgSender() */\n  tag_8\n  sub(shl(0xe0, 0x01), 0x01)\n    /* \"contracts/4_SmartGTFX.sol\":7593:7603  _msgSender */\n  tag_9\n    /* \"contracts/4_SmartGTFX.sol\":7593:7605  _msgSender() */\n  and\n  jump\t// in\ntag_8:\n    /* \"contracts/4_SmartGTFX.sol\":7611:7617  _owner */\n  0x00\n    /* \"contracts/4_SmartGTFX.sol\":7611:7629  _owner = msgSender */\n  dup1\n  sload\n  not(sub(shl(0xa0, 0x01), 0x01))\n  and\n  sub(shl(0xa0, 0x01), 0x01)\n  dup4\n  and\n  swap1\n  dup2\n  or\n  dup3\n  sstore\n    /* \"contracts/4_SmartGTFX.sol\":7640:7683  OwnershipTransferred(address(0), msgSender) */\n  mload(0x40)\n    /* \"contracts/4_SmartGTFX.sol\":7611:7629  _owner = msgSender */\n  swap3\n  swap4\n  pop\n  swap2\n    /* \"contracts/4_SmartGTFX.sol\":7640:7683  OwnershipTransferred(address(0), msgSender) */\n  0x8be0079c531659141344cd1fd0a4f28419497f9722a3daafe3b4186f6b6457e0\n  swap1\n    /* \"contracts/4_SmartGTFX.sol\":7611:7617  _owner */\n  dup3\n  swap1\n    /* \"contracts/4_SmartGTFX.sol\":7640:7683  OwnershipTransferred(address(0), msgSender) */\n  log3\n  pop\n    /* \"contracts/4_SmartGTFX.sol\":16016:16050  _name = \"Gitshock Finance Testnet\" */\n  0x40\n  dup1\n  mload\n  dup1\n  dup3\n  add\n  swap1\n  swap2\n  mstore\n  0x18\n  dup1\n  dup3\n  mstore\n  0x47697473686f636b2046696e616e636520546573746e65740000000000000000\n  0x20\n  swap1\n  swap3\n  add\n  swap2\n  dup3\n  mstore\n  tag_11\n  swap2\n    /* \"contracts/4_SmartGTFX.sol\":16016:16021  _name */\n  0x07\n  swap2\n    /* \"contracts/4_SmartGTFX.sol\":16016:16050  _name = \"Gitshock Finance Testnet\" */\n  tag_12\n  jump\t// in\ntag_11:\n  pop\n    /* \"contracts/4_SmartGTFX.sol\":16060:16077  _symbol = \"tGTFX\" */\n  0x40\n  dup1\n  mload\n  dup1\n  dup3\n  add\n  swap1\n  swap2\n  mstore\n  0x05\n  dup1\n  dup3\n  mstore\n  shl(0xdb, 0x0e88ea88cb)\n  0x20\n  swap1\n  swap3\n  add\n  swap2\n  dup3\n  mstore\n  tag_13\n  swap2\n    /* \"contracts/4_SmartGTFX.sol\":16060:16067  _symbol */\n  0x06\n  swap2\n    /* \"contracts/4_SmartGTFX.sol\":16060:16077  _symbol = \"tGTFX\" */\n  tag_12\n  jump\t// in\ntag_13:\n  pop\n    /* \"contracts/4_SmartGTFX.sol\":16087:16096  _decimals */\n  0x05\n    /* \"contracts/4_SmartGTFX.sol\":16087:16101  _decimals = 18 */\n  dup1\n  sload\n  not(0xff)\n  and\n    /* \"contracts/4_SmartGTFX.sol\":16099:16101  18 */\n  0x12\n    /* \"contracts/4_SmartGTFX.sol\":16087:16101  _decimals = 18 */\n  or\n  swap1\n  sstore\n    /* \"contracts/4_SmartGTFX.sol\":16126:16137  50000000e18 */\n  0x295be96e64066972000000\n    /* \"contracts/4_SmartGTFX.sol\":16111:16123  _totalSupply */\n  0x04\n    /* \"contracts/4_SmartGTFX.sol\":16111:16137  _totalSupply = 50000000e18 */\n  dup2\n  swap1\n  sstore\n  sub(shl(0xa0, 0x01), 0x01)\n    /* \"contracts/4_SmartGTFX.sol\":16147:16165  _balances[account] */\n  dup3\n  and\n    /* \"contracts/4_SmartGTFX.sol\":16087:16096  _decimals */\n  0x00\n    /* \"contracts/4_SmartGTFX.sol\":16147:16165  _balances[account] */\n  dup2\n  dup2\n  mstore\n    /* \"contracts/4_SmartGTFX.sol\":16147:16156  _balances */\n  0x02\n    /* \"contracts/4_SmartGTFX.sol\":16147:16165  _balances[account] */\n  0x20\n  swap1\n  dup2\n  mstore\n  0x40\n  dup1\n  dup4\n  keccak256\n    /* \"contracts/4_SmartGTFX.sol\":16147:16180  _balances[account] = _totalSupply */\n  dup6\n  swap1\n  sstore\n    /* \"contracts/4_SmartGTFX.sol\":16196:16239  Transfer(address(0), account, _totalSupply) */\n  dup1\n  mload\n  swap5\n  dup6\n  mstore\n  mload\n    /* \"contracts/4_SmartGTFX.sol\":16147:16165  _balances[account] */\n  swap3\n  swap4\n    /* \"contracts/4_SmartGTFX.sol\":16087:16096  _decimals */\n  swap2\n  swap3\n    /* \"contracts/4_SmartGTFX.sol\":16196:16239  Transfer(address(0), account, _totalSupply) */\n  0xddf252ad1be2c89b69c2b068fc378daa952ba7f163c4a11628f55a4df523b3ef\n  swap3\n  dup2\n  swap1\n  sub\n  swap1\n  swap2\n  add\n  swap1\n  log3\n    /* \"contracts/4_SmartGTFX.sol\":15970:16246  constructor(address account) public {... */\n  pop\n    /* \"contracts/4_SmartGTFX.sol\":13479:29084  contract GTFX is BEP20Interface, Tokenlock, UserLock {... */\n  jump(tag_14)\n    /* \"contracts/4_SmartGTFX.sol\":6501:6591  function _msgSender() internal view returns (address payable) {... */\ntag_9:\n    /* \"contracts/4_SmartGTFX.sol\":6576:6586  msg.sender */\n  caller\n    /* \"contracts/4_SmartGTFX.sol\":6501:6591  function _msgSender() internal view returns (address payable) {... */\ntag_15:\n  swap1\n  jump\t// out\n    /* \"contracts/4_SmartGTFX.sol\":13479:29084  contract GTFX is BEP20Interface, Tokenlock, UserLock {... */\ntag_12:\n  dup3\n  dup1\n  sload\n  0x01\n  dup2\n  0x01\n  and\n  iszero\n  0x0100\n  mul\n  sub\n  and\n  0x02\n  swap1\n  div\n  swap1\n  0x00\n  mstore\n  keccak256(0x00, 0x20)\n  swap1\n  0x1f\n  add\n  0x20\n  swap1\n  div\n  dup2\n  add\n  swap3\n  dup3\n  0x1f\n  lt\n  tag_17\n  jumpi\n  dup1\n  mload\n  not(0xff)\n  and\n  dup4\n  dup1\n  add\n  or\n  dup6\n  sstore\n  jump(tag_19)\ntag_17:\n  dup3\n  dup1\n  add\n  0x01\n  add\n  dup6\n  sstore\n  dup3\n  iszero\n  tag_19\n  jumpi\n  swap2\n  dup3\n  add\ntag_18:\n  dup3\n  dup2\n  gt\n  iszero\n  tag_19\n  jumpi\n  dup3\n  mload\n  dup3\n  sstore\n  swap2\n  0x20\n  add\n  swap2\n  swap1\n  0x01\n  add\n  swap1\n  jump(tag_18)\ntag_19:\n  pop\n  tag_20\n  swap3\n  swap2\n  pop\n  tag_21\n  jump\t// in\ntag_20:\n  pop\n  swap1\n  jump\t// out\ntag_21:\n  tag_15\n  swap2\n  swap1\ntag_23:\n  dup1\n  dup3\n  gt\n  iszero\n  tag_20\n  jumpi\n  0x00\n  dup2\n  sstore\n  0x01\n  add\n  jump(tag_23)\ntag_14:\n  dataSize(sub_0)\n  dup1\n  dataOffset(sub_0)\n  0x00\n  codecopy\n  0x00\n  return\nstop\n\nsub_0: assembly {\n        /* \"contracts/4_SmartGTFX.sol\":13479:29084  contract GTFX is BEP20Interface, Tokenlock, UserLock {... */\n      mstore(0x40, 0x80)\n      callvalue\n        /* \"--CODEGEN--\":8:17   */\n      dup1\n        /* \"--CODEGEN--\":5:7   */\n      iszero\n      tag_1\n      jumpi\n        /* \"--CODEGEN--\":30:31   */\n      0x00\n        /* \"--CODEGEN--\":27:28   */\n      dup1\n        /* \"--CODEGEN--\":20:32   */\n      revert\n        /* \"--CODEGEN--\":5:7   */\n    tag_1:\n        /* \"contracts/4_SmartGTFX.sol\":13479:29084  contract GTFX is BEP20Interface, Tokenlock, UserLock {... */\n      pop\n      jumpi(tag_2, lt(calldatasize, 0x04))\n      shr(0xe0, calldataload(0x00))\n      dup1\n      0x782d6fe1\n      gt\n      tag_34\n      jumpi\n      dup1\n      0xbd1870a3\n      gt\n      tag_35\n      jumpi\n      dup1\n      0xdd62ed3e\n      gt\n      tag_36\n      jumpi\n      dup1\n      0xdd62ed3e\n      eq\n      tag_30\n      jumpi\n      dup1\n      0xe7a324dc\n      eq\n      tag_31\n      jumpi\n      dup1\n      0xf1127ed8\n      eq\n      tag_32\n      jumpi\n      dup1\n      0xf2fde38b\n      eq\n      tag_33\n      jumpi\n      jump(tag_2)\n    tag_36:\n      dup1\n      0xbd1870a3\n      eq\n      tag_26\n      jumpi\n      dup1\n      0xc3cda520\n      eq\n      tag_27\n      jumpi\n      dup1\n      0xcae9ca51\n      eq\n      tag_28\n      jumpi\n      dup1\n      0xd7972580\n      eq\n      tag_29\n      jumpi\n      jump(tag_2)\n    tag_35:\n      dup1\n      0x95d89b41\n      gt\n      tag_37\n      jumpi\n      dup1\n      0x95d89b41\n      eq\n      tag_22\n      jumpi\n      dup1\n      0xa457c2d7\n      eq\n      tag_23\n      jumpi\n      dup1\n      0xa9059cbb\n      eq\n      tag_24\n      jumpi\n      dup1\n      0xb4b5ea57\n      eq\n      tag_25\n      jumpi\n      jump(tag_2)\n    tag_37:\n      dup1\n      0x782d6fe1\n      eq\n      tag_18\n      jumpi\n      dup1\n      0x7ecebe00\n      eq\n      tag_19\n      jumpi\n      dup1\n      0x893d20e8\n      eq\n      tag_20\n      jumpi\n      dup1\n      0x8da5cb5b\n      eq\n      tag_21\n      jumpi\n      jump(tag_2)\n    tag_34:\n      dup1\n      0x42966c68\n      gt\n      tag_38\n      jumpi\n      dup1\n      0x6a28f000\n      gt\n      tag_39\n      jumpi\n      dup1\n      0x6a28f000\n      eq\n      tag_14\n      jumpi\n      dup1\n      0x6fcfff45\n      eq\n      tag_15\n      jumpi\n      dup1\n      0x70a08231\n      eq\n      tag_16\n      jumpi\n      dup1\n      0x715018a6\n      eq\n      tag_17\n      jumpi\n      jump(tag_2)\n    tag_39:\n      dup1\n      0x42966c68\n      eq\n      tag_10\n      jumpi\n      dup1\n      0x587cde1e\n      eq\n      tag_11\n      jumpi\n      dup1\n      0x5c19a95c\n      eq\n      tag_12\n      jumpi\n      dup1\n      0x62a5af3b\n      eq\n      tag_13\n      jumpi\n      jump(tag_2)\n    tag_38:\n      dup1\n      0x20606b70\n      gt\n      tag_40\n      jumpi\n      dup1\n      0x20606b70\n      eq\n      tag_6\n      jumpi\n      dup1\n      0x23b872dd\n      eq\n      tag_7\n      jumpi\n      dup1\n      0x313ce567\n      eq\n      tag_8\n      jumpi\n      dup1\n      0x39509351\n      eq\n      tag_9\n      jumpi\n      jump(tag_2)\n    tag_40:\n      dup1\n      0x06fdde03\n      eq\n      tag_3\n      jumpi\n      dup1\n      0x095ea7b3\n      eq\n      tag_4\n      jumpi\n      dup1\n      0x18160ddd\n      eq\n      tag_5\n      jumpi\n    tag_2:\n      0x00\n      dup1\n      revert\n        /* \"contracts/4_SmartGTFX.sol\":16738:16821  function name() external view returns (string memory) {... */\n    tag_3:\n      tag_41\n      tag_42\n      jump\t// in\n    tag_41:\n      0x40\n      dup1\n      mload\n      0x20\n      dup1\n      dup3\n      mstore\n      dup4\n      mload\n      dup2\n      dup4\n      add\n      mstore\n      dup4\n      mload\n      swap2\n      swap3\n      dup4\n      swap3\n      swap1\n      dup4\n      add\n      swap2\n      dup6\n      add\n      swap1\n      dup1\n      dup4\n      dup4\n      0x00\n        /* \"--CODEGEN--\":8:108   */\n    tag_43:\n        /* \"--CODEGEN--\":33:36   */\n      dup4\n        /* \"--CODEGEN--\":30:31   */\n      dup2\n        /* \"--CODEGEN--\":27:37   */\n      lt\n        /* \"--CODEGEN--\":8:108   */\n      iszero\n      tag_45\n      jumpi\n        /* \"--CODEGEN--\":90:101   */\n      dup2\n      dup2\n      add\n        /* \"--CODEGEN--\":84:102   */\n      mload\n        /* \"--CODEGEN--\":71:82   */\n      dup4\n      dup3\n      add\n        /* \"--CODEGEN--\":64:103   */\n      mstore\n        /* \"--CODEGEN--\":52:54   */\n      0x20\n        /* \"--CODEGEN--\":45:55   */\n      add\n        /* \"--CODEGEN--\":8:108   */\n      jump(tag_43)\n    tag_45:\n        /* \"--CODEGEN--\":12:26   */\n      pop\n        /* \"contracts/4_SmartGTFX.sol\":16738:16821  function name() external view returns (string memory) {... */\n      pop\n      pop\n      pop\n      swap1\n      pop\n      swap1\n      dup2\n      add\n      swap1\n      0x1f\n      and\n      dup1\n      iszero\n      tag_46\n      jumpi\n      dup1\n      dup3\n      sub\n      dup1\n      mload\n      0x01\n      dup4\n      0x20\n      sub\n      0x0100\n      exp\n      sub\n      not\n      and\n      dup2\n      mstore\n      0x20\n      add\n      swap2\n      pop\n    tag_46:\n      pop\n      swap3\n      pop\n      pop\n      pop\n      mload(0x40)\n      dup1\n      swap2\n      sub\n      swap1\n      return\n        /* \"contracts/4_SmartGTFX.sol\":18519:18696  function approve(address spender, uint256 amount) external validLock permissionCheck returns (bool) {... */\n    tag_4:\n      tag_47\n      0x04\n      dup1\n      calldatasize\n      sub\n        /* \"--CODEGEN--\":13:15   */\n      0x40\n        /* \"--CODEGEN--\":8:11   */\n      dup2\n        /* \"--CODEGEN--\":5:16   */\n      lt\n        /* \"--CODEGEN--\":2:4   */\n      iszero\n      tag_48\n      jumpi\n        /* \"--CODEGEN--\":29:30   */\n      0x00\n        /* \"--CODEGEN--\":26:27   */\n      dup1\n        /* \"--CODEGEN--\":19:31   */\n      revert\n        /* \"--CODEGEN--\":2:4   */\n    tag_48:\n      pop\n      sub(shl(0xa0, 0x01), 0x01)\n        /* \"contracts/4_SmartGTFX.sol\":18519:18696  function approve(address spender, uint256 amount) external validLock permissionCheck returns (bool) {... */\n      dup2\n      calldataload\n      and\n      swap1\n      0x20\n      add\n      calldataload\n      tag_49\n      jump\t// in\n    tag_47:\n      0x40\n      dup1\n      mload\n      swap2\n      iszero\n      iszero\n      dup3\n      mstore\n      mload\n      swap1\n      dup2\n      swap1\n      sub\n      0x20\n      add\n      swap1\n      return\n        /* \"contracts/4_SmartGTFX.sol\":16880:16971  function totalSupply() external view returns (uint256) {... */\n    tag_5:\n      tag_50\n      tag_51\n      jump\t// in\n    tag_50:\n      0x40\n      dup1\n      mload\n      swap2\n      dup3\n      mstore\n      mload\n      swap1\n      dup2\n      swap1\n      sub\n      0x20\n      add\n      swap1\n      return\n        /* \"contracts/4_SmartGTFX.sol\":14736:14858  bytes32 public constant DOMAIN_TYPEHASH = keccak256(\"EIP712Domain(string name,uint256 chainId,address verifyingContract)\") */\n    tag_6:\n      tag_50\n      tag_53\n      jump\t// in\n        /* \"contracts/4_SmartGTFX.sol\":19585:20054  function transferFrom(address sender, address recipient, uint256 amount) external validLock permissionCheck returns (bool) {... */\n    tag_7:\n      tag_47\n      0x04\n      dup1\n      calldatasize\n      sub\n        /* \"--CODEGEN--\":13:15   */\n      0x60\n        /* \"--CODEGEN--\":8:11   */\n      dup2\n        /* \"--CODEGEN--\":5:16   */\n      lt\n        /* \"--CODEGEN--\":2:4   */\n      iszero\n      tag_55\n      jumpi\n        /* \"--CODEGEN--\":29:30   */\n      0x00\n        /* \"--CODEGEN--\":26:27   */\n      dup1\n        /* \"--CODEGEN--\":19:31   */\n      revert\n        /* \"--CODEGEN--\":2:4   */\n    tag_55:\n      pop\n      sub(shl(0xa0, 0x01), 0x01)\n        /* \"contracts/4_SmartGTFX.sol\":19585:20054  function transferFrom(address sender, address recipient, uint256 amount) external validLock permissionCheck returns (bool) {... */\n      dup2\n      calldataload\n      dup2\n      and\n      swap2\n      0x20\n      dup2\n      add\n      calldataload\n      swap1\n      swap2\n      and\n      swap1\n      0x40\n      add\n      calldataload\n      tag_56\n      jump\t// in\n        /* \"contracts/4_SmartGTFX.sol\":16452:16535  function decimals() external view returns (uint8) {... */\n    tag_8:\n      tag_57\n      tag_58\n      jump\t// in\n    tag_57:\n      0x40\n      dup1\n      mload\n      0xff\n      swap1\n      swap3\n      and\n      dup3\n      mstore\n      mload\n      swap1\n      dup2\n      swap1\n      sub\n      0x20\n      add\n      swap1\n      return\n        /* \"contracts/4_SmartGTFX.sol\":20505:20775  function increaseAllowance(address spender, uint256 addedValue) public validLock permissionCheck returns (bool) {... */\n    tag_9:\n      tag_47\n      0x04\n      dup1\n      calldatasize\n      sub\n        /* \"--CODEGEN--\":13:15   */\n      0x40\n        /* \"--CODEGEN--\":8:11   */\n      dup2\n        /* \"--CODEGEN--\":5:16   */\n      lt\n        /* \"--CODEGEN--\":2:4   */\n      iszero\n      tag_60\n      jumpi\n        /* \"--CODEGEN--\":29:30   */\n      0x00\n        /* \"--CODEGEN--\":26:27   */\n      dup1\n        /* \"--CODEGEN--\":19:31   */\n      revert\n        /* \"--CODEGEN--\":2:4   */\n    tag_60:\n      pop\n      sub(shl(0xa0, 0x01), 0x01)\n        /* \"contracts/4_SmartGTFX.sol\":20505:20775  function increaseAllowance(address spender, uint256 addedValue) public validLock permissionCheck returns (bool) {... */\n      dup2\n      calldataload\n      and\n      swap1\n      0x20\n      add\n      calldataload\n      tag_61\n      jump\t// in\n        /* \"contracts/4_SmartGTFX.sol\":21769:21912  function burn(uint256 amount) public validLock permissionCheck returns (bool) {... */\n    tag_10:\n      tag_47\n      0x04\n      dup1\n      calldatasize\n      sub\n        /* \"--CODEGEN--\":13:15   */\n      0x20\n        /* \"--CODEGEN--\":8:11   */\n      dup2\n        /* \"--CODEGEN--\":5:16   */\n      lt\n        /* \"--CODEGEN--\":2:4   */\n      iszero\n      tag_63\n      jumpi\n        /* \"--CODEGEN--\":29:30   */\n      0x00\n        /* \"--CODEGEN--\":26:27   */\n      dup1\n        /* \"--CODEGEN--\":19:31   */\n      revert\n        /* \"--CODEGEN--\":2:4   */\n    tag_63:\n      pop\n        /* \"contracts/4_SmartGTFX.sol\":21769:21912  function burn(uint256 amount) public validLock permissionCheck returns (bool) {... */\n      calldataload\n      tag_64\n      jump\t// in\n        /* \"contracts/4_SmartGTFX.sol\":14200:14245  mapping (address => address) public delegates */\n    tag_11:\n      tag_65\n      0x04\n      dup1\n      calldatasize\n      sub\n        /* \"--CODEGEN--\":13:15   */\n      0x20\n        /* \"--CODEGEN--\":8:11   */\n      dup2\n        /* \"--CODEGEN--\":5:16   */\n      lt\n        /* \"--CODEGEN--\":2:4   */\n      iszero\n      tag_66\n      jumpi\n        /* \"--CODEGEN--\":29:30   */\n      0x00\n        /* \"--CODEGEN--\":26:27   */\n      dup1\n        /* \"--CODEGEN--\":19:31   */\n      revert\n        /* \"--CODEGEN--\":2:4   */\n    tag_66:\n      pop\n        /* \"contracts/4_SmartGTFX.sol\":14200:14245  mapping (address => address) public delegates */\n      calldataload\n      sub(shl(0xa0, 0x01), 0x01)\n      and\n      tag_67\n      jump\t// in\n    tag_65:\n      0x40\n      dup1\n      mload\n      sub(shl(0xa0, 0x01), 0x01)\n      swap1\n      swap3\n      and\n      dup3\n      mstore\n      mload\n      swap1\n      dup2\n      swap1\n      sub\n      0x20\n      add\n      swap1\n      return\n        /* \"contracts/4_SmartGTFX.sol\":22054:22182  function delegate(address delegatee) public validLock permissionCheck {... */\n    tag_12:\n      tag_68\n      0x04\n      dup1\n      calldatasize\n      sub\n        /* \"--CODEGEN--\":13:15   */\n      0x20\n        /* \"--CODEGEN--\":8:11   */\n      dup2\n        /* \"--CODEGEN--\":5:16   */\n      lt\n        /* \"--CODEGEN--\":2:4   */\n      iszero\n      tag_69\n      jumpi\n        /* \"--CODEGEN--\":29:30   */\n      0x00\n        /* \"--CODEGEN--\":26:27   */\n      dup1\n        /* \"--CODEGEN--\":19:31   */\n      revert\n        /* \"--CODEGEN--\":2:4   */\n    tag_69:\n      pop\n        /* \"contracts/4_SmartGTFX.sol\":22054:22182  function delegate(address delegatee) public validLock permissionCheck {... */\n      calldataload\n      sub(shl(0xa0, 0x01), 0x01)\n      and\n      tag_70\n      jump\t// in\n    tag_68:\n      stop\n        /* \"contracts/4_SmartGTFX.sol\":12139:12236  function freeze() public onlyOwner {... */\n    tag_13:\n      tag_68\n      tag_72\n      jump\t// in\n        /* \"contracts/4_SmartGTFX.sol\":12242:12343  function unfreeze() public onlyOwner {... */\n    tag_14:\n      tag_68\n      tag_74\n      jump\t// in\n        /* \"contracts/4_SmartGTFX.sol\":14617:14666  mapping (address => uint32) public numCheckpoints */\n    tag_15:\n      tag_75\n      0x04\n      dup1\n      calldatasize\n      sub\n        /* \"--CODEGEN--\":13:15   */\n      0x20\n        /* \"--CODEGEN--\":8:11   */\n      dup2\n        /* \"--CODEGEN--\":5:16   */\n      lt\n        /* \"--CODEGEN--\":2:4   */\n      iszero\n      tag_76\n      jumpi\n        /* \"--CODEGEN--\":29:30   */\n      0x00\n        /* \"--CODEGEN--\":26:27   */\n      dup1\n        /* \"--CODEGEN--\":19:31   */\n      revert\n        /* \"--CODEGEN--\":2:4   */\n    tag_76:\n      pop\n        /* \"contracts/4_SmartGTFX.sol\":14617:14666  mapping (address => uint32) public numCheckpoints */\n      calldataload\n      sub(shl(0xa0, 0x01), 0x01)\n      and\n      tag_77\n      jump\t// in\n    tag_75:\n      0x40\n      dup1\n      mload\n      0xffffffff\n      swap1\n      swap3\n      and\n      dup3\n      mstore\n      mload\n      swap1\n      dup2\n      swap1\n      sub\n      0x20\n      add\n      swap1\n      return\n        /* \"contracts/4_SmartGTFX.sol\":17167:17277  function balanceOf(address account) external view returns (uint256) {... */\n    tag_16:\n      tag_50\n      0x04\n      dup1\n      calldatasize\n      sub\n        /* \"--CODEGEN--\":13:15   */\n      0x20\n        /* \"--CODEGEN--\":8:11   */\n      dup2\n        /* \"--CODEGEN--\":5:16   */\n      lt\n        /* \"--CODEGEN--\":2:4   */\n      iszero\n      tag_79\n      jumpi\n        /* \"--CODEGEN--\":29:30   */\n      0x00\n        /* \"--CODEGEN--\":26:27   */\n      dup1\n        /* \"--CODEGEN--\":19:31   */\n      revert\n        /* \"--CODEGEN--\":2:4   */\n    tag_79:\n      pop\n        /* \"contracts/4_SmartGTFX.sol\":17167:17277  function balanceOf(address account) external view returns (uint256) {... */\n      calldataload\n      sub(shl(0xa0, 0x01), 0x01)\n      and\n      tag_80\n      jump\t// in\n        /* \"contracts/4_SmartGTFX.sol\":8339:8466  function renounceOwnership() public onlyOwner {... */\n    tag_17:\n      tag_68\n      tag_82\n      jump\t// in\n        /* \"contracts/4_SmartGTFX.sol\":24202:25394  function getPriorVotes(address account, uint256 blockNumber) public view returns (uint96) {... */\n    tag_18:\n      tag_83\n      0x04\n      dup1\n      calldatasize\n      sub\n        /* \"--CODEGEN--\":13:15   */\n      0x40\n        /* \"--CODEGEN--\":8:11   */\n      dup2\n        /* \"--CODEGEN--\":5:16   */\n      lt\n        /* \"--CODEGEN--\":2:4   */\n      iszero\n      tag_84\n      jumpi\n        /* \"--CODEGEN--\":29:30   */\n      0x00\n        /* \"--CODEGEN--\":26:27   */\n      dup1\n        /* \"--CODEGEN--\":19:31   */\n      revert\n        /* \"--CODEGEN--\":2:4   */\n    tag_84:\n      pop\n      sub(shl(0xa0, 0x01), 0x01)\n        /* \"contracts/4_SmartGTFX.sol\":24202:25394  function getPriorVotes(address account, uint256 blockNumber) public view returns (uint96) {... */\n      dup2\n      calldataload\n      and\n      swap1\n      0x20\n      add\n      calldataload\n      tag_85\n      jump\t// in\n    tag_83:\n      0x40\n      dup1\n      mload\n      0xffffffffffffffffffffffff\n      swap1\n      swap3\n      and\n      dup3\n      mstore\n      mload\n      swap1\n      dup2\n      swap1\n      sub\n      0x20\n      add\n      swap1\n      return\n        /* \"contracts/4_SmartGTFX.sol\":15144:15186  mapping (address => uint256) public nonces */\n    tag_19:\n      tag_50\n      0x04\n      dup1\n      calldatasize\n      sub\n        /* \"--CODEGEN--\":13:15   */\n      0x20\n        /* \"--CODEGEN--\":8:11   */\n      dup2\n        /* \"--CODEGEN--\":5:16   */\n      lt\n        /* \"--CODEGEN--\":2:4   */\n      iszero\n      tag_87\n      jumpi\n        /* \"--CODEGEN--\":29:30   */\n      0x00\n        /* \"--CODEGEN--\":26:27   */\n      dup1\n        /* \"--CODEGEN--\":19:31   */\n      revert\n        /* \"--CODEGEN--\":2:4   */\n    tag_87:\n      pop\n        /* \"contracts/4_SmartGTFX.sol\":15144:15186  mapping (address => uint256) public nonces */\n      calldataload\n      sub(shl(0xa0, 0x01), 0x01)\n      and\n      tag_88\n      jump\t// in\n        /* \"contracts/4_SmartGTFX.sol\":16308:16391  function getOwner() external view returns (address) {... */\n    tag_20:\n      tag_65\n      tag_90\n      jump\t// in\n        /* \"contracts/4_SmartGTFX.sol\":7756:7827  function owner() public view returns (address) {... */\n    tag_21:\n      tag_65\n      tag_92\n      jump\t// in\n        /* \"contracts/4_SmartGTFX.sol\":16594:16681  function symbol() external view returns (string memory) {... */\n    tag_22:\n      tag_41\n      tag_94\n      jump\t// in\n        /* \"contracts/4_SmartGTFX.sol\":21234:21515  function decreaseAllowance(address spender, uint256 subtractedValue) public validLock permissionCheck returns (bool) {... */\n    tag_23:\n      tag_47\n      0x04\n      dup1\n      calldatasize\n      sub\n        /* \"--CODEGEN--\":13:15   */\n      0x40\n        /* \"--CODEGEN--\":8:11   */\n      dup2\n        /* \"--CODEGEN--\":5:16   */\n      lt\n        /* \"--CODEGEN--\":2:4   */\n      iszero\n      tag_100\n      jumpi\n        /* \"--CODEGEN--\":29:30   */\n      0x00\n        /* \"--CODEGEN--\":26:27   */\n      dup1\n        /* \"--CODEGEN--\":19:31   */\n      revert\n        /* \"--CODEGEN--\":2:4   */\n    tag_100:\n      pop\n      sub(shl(0xa0, 0x01), 0x01)\n        /* \"contracts/4_SmartGTFX.sol\":21234:21515  function decreaseAllowance(address spender, uint256 subtractedValue) public validLock permissionCheck returns (bool) {... */\n      dup2\n      calldataload\n      and\n      swap1\n      0x20\n      add\n      calldataload\n      tag_101\n      jump\t// in\n        /* \"contracts/4_SmartGTFX.sol\":17536:17719  function transfer(address recipient, uint256 amount) external validLock permissionCheck returns (bool) {... */\n    tag_24:\n      tag_47\n      0x04\n      dup1\n      calldatasize\n      sub\n        /* \"--CODEGEN--\":13:15   */\n      0x40\n        /* \"--CODEGEN--\":8:11   */\n      dup2\n        /* \"--CODEGEN--\":5:16   */\n      lt\n        /* \"--CODEGEN--\":2:4   */\n      iszero\n      tag_103\n      jumpi\n        /* \"--CODEGEN--\":29:30   */\n      0x00\n        /* \"--CODEGEN--\":26:27   */\n      dup1\n        /* \"--CODEGEN--\":19:31   */\n      revert\n        /* \"--CODEGEN--\":2:4   */\n    tag_103:\n      pop\n      sub(shl(0xa0, 0x01), 0x01)\n        /* \"contracts/4_SmartGTFX.sol\":17536:17719  function transfer(address recipient, uint256 amount) external validLock permissionCheck returns (bool) {... */\n      dup2\n      calldataload\n      and\n      swap1\n      0x20\n      add\n      calldataload\n      tag_104\n      jump\t// in\n        /* \"contracts/4_SmartGTFX.sol\":23553:23780  function getCurrentVotes(address account) external view returns (uint96) {... */\n    tag_25:\n      tag_83\n      0x04\n      dup1\n      calldatasize\n      sub\n        /* \"--CODEGEN--\":13:15   */\n      0x20\n        /* \"--CODEGEN--\":8:11   */\n      dup2\n        /* \"--CODEGEN--\":5:16   */\n      lt\n        /* \"--CODEGEN--\":2:4   */\n      iszero\n      tag_106\n      jumpi\n        /* \"--CODEGEN--\":29:30   */\n      0x00\n        /* \"--CODEGEN--\":26:27   */\n      dup1\n        /* \"--CODEGEN--\":19:31   */\n      revert\n        /* \"--CODEGEN--\":2:4   */\n    tag_106:\n      pop\n        /* \"contracts/4_SmartGTFX.sol\":23553:23780  function getCurrentVotes(address account) external view returns (uint96) {... */\n      calldataload\n      sub(shl(0xa0, 0x01), 0x01)\n      and\n      tag_107\n      jump\t// in\n        /* \"contracts/4_SmartGTFX.sol\":13347:13475  function unlockUser(address who) public onlyOwner {... */\n    tag_26:\n      tag_68\n      0x04\n      dup1\n      calldatasize\n      sub\n        /* \"--CODEGEN--\":13:15   */\n      0x20\n        /* \"--CODEGEN--\":8:11   */\n      dup2\n        /* \"--CODEGEN--\":5:16   */\n      lt\n        /* \"--CODEGEN--\":2:4   */\n      iszero\n      tag_109\n      jumpi\n        /* \"--CODEGEN--\":29:30   */\n      0x00\n        /* \"--CODEGEN--\":26:27   */\n      dup1\n        /* \"--CODEGEN--\":19:31   */\n      revert\n        /* \"--CODEGEN--\":2:4   */\n    tag_109:\n      pop\n        /* \"contracts/4_SmartGTFX.sol\":13347:13475  function unlockUser(address who) public onlyOwner {... */\n      calldataload\n      sub(shl(0xa0, 0x01), 0x01)\n      and\n      tag_110\n      jump\t// in\n        /* \"contracts/4_SmartGTFX.sol\":22605:23359  function delegateBySig(address delegatee, uint256 nonce, uint256 expiry, uint8 v, bytes32 r, bytes32 s) public validLock permissionCheck {... */\n    tag_27:\n      tag_68\n      0x04\n      dup1\n      calldatasize\n      sub\n        /* \"--CODEGEN--\":13:16   */\n      0xc0\n        /* \"--CODEGEN--\":8:11   */\n      dup2\n        /* \"--CODEGEN--\":5:17   */\n      lt\n        /* \"--CODEGEN--\":2:4   */\n      iszero\n      tag_112\n      jumpi\n        /* \"--CODEGEN--\":30:31   */\n      0x00\n        /* \"--CODEGEN--\":27:28   */\n      dup1\n        /* \"--CODEGEN--\":20:32   */\n      revert\n        /* \"--CODEGEN--\":2:4   */\n    tag_112:\n      pop\n      sub(shl(0xa0, 0x01), 0x01)\n        /* \"contracts/4_SmartGTFX.sol\":22605:23359  function delegateBySig(address delegatee, uint256 nonce, uint256 expiry, uint8 v, bytes32 r, bytes32 s) public validLock permissionCheck {... */\n      dup2\n      calldataload\n      and\n      swap1\n      0x20\n      dup2\n      add\n      calldataload\n      swap1\n      0x40\n      dup2\n      add\n      calldataload\n      swap1\n      0xff\n      0x60\n      dup3\n      add\n      calldataload\n      and\n      swap1\n      0x80\n      dup2\n      add\n      calldataload\n      swap1\n      0xa0\n      add\n      calldataload\n      tag_113\n      jump\t// in\n        /* \"contracts/4_SmartGTFX.sol\":18977:19278  function approveAndCall(address spender, uint256 amount, bytes memory data) public validLock permissionCheck returns (bool) {... */\n    tag_28:\n      tag_47\n      0x04\n      dup1\n      calldatasize\n      sub\n        /* \"--CODEGEN--\":13:15   */\n      0x60\n        /* \"--CODEGEN--\":8:11   */\n      dup2\n        /* \"--CODEGEN--\":5:16   */\n      lt\n        /* \"--CODEGEN--\":2:4   */\n      iszero\n      tag_115\n      jumpi\n        /* \"--CODEGEN--\":29:30   */\n      0x00\n        /* \"--CODEGEN--\":26:27   */\n      dup1\n        /* \"--CODEGEN--\":19:31   */\n      revert\n        /* \"--CODEGEN--\":2:4   */\n    tag_115:\n      sub(shl(0xa0, 0x01), 0x01)\n        /* \"contracts/4_SmartGTFX.sol\":18977:19278  function approveAndCall(address spender, uint256 amount, bytes memory data) public validLock permissionCheck returns (bool) {... */\n      dup3\n      calldataload\n      and\n      swap2\n      0x20\n      dup2\n      add\n      calldataload\n      swap2\n      dup2\n      add\n      swap1\n      0x60\n      dup2\n      add\n      0x40\n      dup3\n      add\n      calldataload\n        /* \"--CODEGEN--\":21:32   */\n      0x0100000000\n        /* \"--CODEGEN--\":5:33   */\n      dup2\n      gt\n        /* \"--CODEGEN--\":2:4   */\n      iszero\n      tag_116\n      jumpi\n        /* \"--CODEGEN--\":46:47   */\n      0x00\n        /* \"--CODEGEN--\":43:44   */\n      dup1\n        /* \"--CODEGEN--\":36:48   */\n      revert\n        /* \"--CODEGEN--\":2:4   */\n    tag_116:\n        /* \"contracts/4_SmartGTFX.sol\":18977:19278  function approveAndCall(address spender, uint256 amount, bytes memory data) public validLock permissionCheck returns (bool) {... */\n      dup3\n      add\n        /* \"--CODEGEN--\":35:44   */\n      dup4\n        /* \"--CODEGEN--\":28:32   */\n      0x20\n        /* \"--CODEGEN--\":12:26   */\n      dup3\n        /* \"--CODEGEN--\":8:33   */\n      add\n        /* \"--CODEGEN--\":5:45   */\n      gt\n        /* \"--CODEGEN--\":2:4   */\n      iszero\n      tag_117\n      jumpi\n        /* \"--CODEGEN--\":58:59   */\n      0x00\n        /* \"--CODEGEN--\":55:56   */\n      dup1\n        /* \"--CODEGEN--\":48:60   */\n      revert\n        /* \"--CODEGEN--\":2:4   */\n    tag_117:\n        /* \"contracts/4_SmartGTFX.sol\":18977:19278  function approveAndCall(address spender, uint256 amount, bytes memory data) public validLock permissionCheck returns (bool) {... */\n      dup1\n      calldataload\n      swap1\n      0x20\n      add\n      swap2\n        /* \"--CODEGEN--\":100:109   */\n      dup5\n        /* \"--CODEGEN--\":95:96   */\n      0x01\n        /* \"--CODEGEN--\":81:93   */\n      dup4\n        /* \"--CODEGEN--\":77:97   */\n      mul\n        /* \"--CODEGEN--\":67:75   */\n      dup5\n        /* \"--CODEGEN--\":63:98   */\n      add\n        /* \"--CODEGEN--\":60:110   */\n      gt\n        /* \"--CODEGEN--\":39:50   */\n      0x0100000000\n        /* \"--CODEGEN--\":25:37   */\n      dup4\n        /* \"--CODEGEN--\":22:51   */\n      gt\n        /* \"--CODEGEN--\":11:118   */\n      or\n        /* \"--CODEGEN--\":8:10   */\n      iszero\n      tag_118\n      jumpi\n        /* \"--CODEGEN--\":131:132   */\n      0x00\n        /* \"--CODEGEN--\":128:129   */\n      dup1\n        /* \"--CODEGEN--\":121:133   */\n      revert\n        /* \"--CODEGEN--\":8:10   */\n    tag_118:\n        /* \"contracts/4_SmartGTFX.sol\":18977:19278  function approveAndCall(address spender, uint256 amount, bytes memory data) public validLock permissionCheck returns (bool) {... */\n      swap2\n      swap1\n      dup1\n      dup1\n      0x1f\n      add\n      0x20\n      dup1\n      swap2\n      div\n      mul\n      0x20\n      add\n      mload(0x40)\n      swap1\n      dup2\n      add\n      0x40\n      mstore\n      dup1\n      swap4\n      swap3\n      swap2\n      swap1\n      dup2\n      dup2\n      mstore\n      0x20\n      add\n      dup4\n      dup4\n        /* \"--CODEGEN--\":30:33   */\n      dup1\n        /* \"--CODEGEN--\":22:28   */\n      dup3\n        /* \"--CODEGEN--\":14:20   */\n      dup5\n        /* \"--CODEGEN--\":1:34   */\n      calldatacopy\n        /* \"--CODEGEN--\":99:100   */\n      0x00\n        /* \"--CODEGEN--\":81:97   */\n      swap3\n      add\n        /* \"--CODEGEN--\":74:101   */\n      swap2\n      swap1\n      swap2\n      mstore\n      pop\n        /* \"contracts/4_SmartGTFX.sol\":18977:19278  function approveAndCall(address spender, uint256 amount, bytes memory data) public validLock permissionCheck returns (bool) {... */\n      swap3\n      swap6\n      pop\n      tag_119\n      swap5\n      pop\n      pop\n      pop\n      pop\n      pop\n      jump\t// in\n        /* \"contracts/4_SmartGTFX.sol\":13218:13341  function lockUser(address who) public onlyOwner {... */\n    tag_29:\n      tag_68\n      0x04\n      dup1\n      calldatasize\n      sub\n        /* \"--CODEGEN--\":13:15   */\n      0x20\n        /* \"--CODEGEN--\":8:11   */\n      dup2\n        /* \"--CODEGEN--\":5:16   */\n      lt\n        /* \"--CODEGEN--\":2:4   */\n      iszero\n      tag_121\n      jumpi\n        /* \"--CODEGEN--\":29:30   */\n      0x00\n        /* \"--CODEGEN--\":26:27   */\n      dup1\n        /* \"--CODEGEN--\":19:31   */\n      revert\n        /* \"--CODEGEN--\":2:4   */\n    tag_121:\n      pop\n        /* \"contracts/4_SmartGTFX.sol\":13218:13341  function lockUser(address who) public onlyOwner {... */\n      calldataload\n      sub(shl(0xa0, 0x01), 0x01)\n      and\n      tag_122\n      jump\t// in\n        /* \"contracts/4_SmartGTFX.sol\":18013:18147  function allowance(address owner, address spender) external view returns (uint256) {... */\n    tag_30:\n      tag_50\n      0x04\n      dup1\n      calldatasize\n      sub\n        /* \"--CODEGEN--\":13:15   */\n      0x40\n        /* \"--CODEGEN--\":8:11   */\n      dup2\n        /* \"--CODEGEN--\":5:16   */\n      lt\n        /* \"--CODEGEN--\":2:4   */\n      iszero\n      tag_124\n      jumpi\n        /* \"--CODEGEN--\":29:30   */\n      0x00\n        /* \"--CODEGEN--\":26:27   */\n      dup1\n        /* \"--CODEGEN--\":19:31   */\n      revert\n        /* \"--CODEGEN--\":2:4   */\n    tag_124:\n      pop\n      sub(shl(0xa0, 0x01), 0x01)\n        /* \"contracts/4_SmartGTFX.sol\":18013:18147  function allowance(address owner, address spender) external view returns (uint256) {... */\n      dup2\n      calldataload\n      dup2\n      and\n      swap2\n      0x20\n      add\n      calldataload\n      and\n      tag_125\n      jump\t// in\n        /* \"contracts/4_SmartGTFX.sol\":14949:15066  bytes32 public constant DELEGATION_TYPEHASH = keccak256(\"Delegation(address delegatee,uint256 nonce,uint256 expiry)\") */\n    tag_31:\n      tag_50\n      tag_127\n      jump\t// in\n        /* \"contracts/4_SmartGTFX.sol\":14481:14551  mapping (address => mapping (uint32 => Checkpoint)) public checkpoints */\n    tag_32:\n      tag_128\n      0x04\n      dup1\n      calldatasize\n      sub\n        /* \"--CODEGEN--\":13:15   */\n      0x40\n        /* \"--CODEGEN--\":8:11   */\n      dup2\n        /* \"--CODEGEN--\":5:16   */\n      lt\n        /* \"--CODEGEN--\":2:4   */\n      iszero\n      tag_129\n      jumpi\n        /* \"--CODEGEN--\":29:30   */\n      0x00\n        /* \"--CODEGEN--\":26:27   */\n      dup1\n        /* \"--CODEGEN--\":19:31   */\n      revert\n        /* \"--CODEGEN--\":2:4   */\n    tag_129:\n      pop\n        /* \"contracts/4_SmartGTFX.sol\":14481:14551  mapping (address => mapping (uint32 => Checkpoint)) public checkpoints */\n      dup1\n      calldataload\n      sub(shl(0xa0, 0x01), 0x01)\n      and\n      swap1\n      0x20\n      add\n      calldataload\n      0xffffffff\n      and\n      tag_130\n      jump\t// in\n    tag_128:\n      0x40\n      dup1\n      mload\n      0xffffffff\n      swap1\n      swap4\n      and\n      dup4\n      mstore\n      0x20\n      dup4\n      add\n      swap2\n      swap1\n      swap2\n      mstore\n      dup1\n      mload\n      swap2\n      dup3\n      swap1\n      sub\n      add\n      swap1\n      return\n        /* \"contracts/4_SmartGTFX.sol\":8605:8706  function transferOwnership(address newOwner) public onlyOwner {... */\n    tag_33:\n      tag_68\n      0x04\n      dup1\n      calldatasize\n      sub\n        /* \"--CODEGEN--\":13:15   */\n      0x20\n        /* \"--CODEGEN--\":8:11   */\n      dup2\n        /* \"--CODEGEN--\":5:16   */\n      lt\n        /* \"--CODEGEN--\":2:4   */\n      iszero\n      tag_132\n      jumpi\n        /* \"--CODEGEN--\":29:30   */\n      0x00\n        /* \"--CODEGEN--\":26:27   */\n      dup1\n        /* \"--CODEGEN--\":19:31   */\n      revert\n        /* \"--CODEGEN--\":2:4   */\n    tag_132:\n      pop\n        /* \"contracts/4_SmartGTFX.sol\":8605:8706  function transferOwnership(address newOwner) public onlyOwner {... */\n      calldataload\n      sub(shl(0xa0, 0x01), 0x01)\n      and\n      tag_133\n      jump\t// in\n        /* \"contracts/4_SmartGTFX.sol\":16738:16821  function name() external view returns (string memory) {... */\n    tag_42:\n        /* \"contracts/4_SmartGTFX.sol\":16809:16814  _name */\n      0x07\n        /* \"contracts/4_SmartGTFX.sol\":16802:16814  return _name */\n      dup1\n      sload\n      0x40\n      dup1\n      mload\n      0x20\n      0x1f\n      0x02\n      not(0x00)\n      0x0100\n      0x01\n      dup9\n      and\n      iszero\n      mul\n      add\n      swap1\n      swap6\n      and\n      swap5\n      swap1\n      swap5\n      div\n      swap4\n      dup5\n      add\n      dup2\n      swap1\n      div\n      dup2\n      mul\n      dup3\n      add\n      dup2\n      add\n      swap1\n      swap3\n      mstore\n      dup3\n      dup2\n      mstore\n        /* \"contracts/4_SmartGTFX.sol\":16777:16790  string memory */\n      0x60\n      swap4\n        /* \"contracts/4_SmartGTFX.sol\":16802:16814  return _name */\n      swap1\n      swap3\n        /* \"contracts/4_SmartGTFX.sol\":16809:16814  _name */\n      swap1\n      swap2\n        /* \"contracts/4_SmartGTFX.sol\":16802:16814  return _name */\n      dup4\n      add\n        /* \"contracts/4_SmartGTFX.sol\":16809:16814  _name */\n      dup3\n        /* \"contracts/4_SmartGTFX.sol\":16802:16814  return _name */\n      dup3\n      dup1\n      iszero\n      tag_135\n      jumpi\n      dup1\n      0x1f\n      lt\n      tag_136\n      jumpi\n      0x0100\n      dup1\n      dup4\n      sload\n      div\n      mul\n      dup4\n      mstore\n      swap2\n      0x20\n      add\n      swap2\n      jump(tag_135)\n    tag_136:\n      dup3\n      add\n      swap2\n      swap1\n      0x00\n      mstore\n      keccak256(0x00, 0x20)\n      swap1\n    tag_137:\n      dup2\n      sload\n      dup2\n      mstore\n      swap1\n      0x01\n      add\n      swap1\n      0x20\n      add\n      dup1\n      dup4\n      gt\n      tag_137\n      jumpi\n      dup3\n      swap1\n      sub\n      0x1f\n      and\n      dup3\n      add\n      swap2\n    tag_135:\n      pop\n      pop\n      pop\n      pop\n      pop\n      swap1\n      pop\n        /* \"contracts/4_SmartGTFX.sol\":16738:16821  function name() external view returns (string memory) {... */\n      swap1\n      jump\t// out\n        /* \"contracts/4_SmartGTFX.sol\":18519:18696  function approve(address spender, uint256 amount) external validLock permissionCheck returns (bool) {... */\n    tag_49:\n        /* \"contracts/4_SmartGTFX.sol\":18613:18617  bool */\n      0x00\n        /* \"contracts/4_SmartGTFX.sol\":12078:12086  isLocked */\n      dup1\n      sload\n      shl(0xa0, 0x01)\n      swap1\n      div\n      0xff\n      and\n        /* \"contracts/4_SmartGTFX.sol\":12078:12091  isLocked == 0 */\n      iszero\n        /* \"contracts/4_SmartGTFX.sol\":12070:12111  require(isLocked == 0, \"Token is locked\") */\n      tag_139\n      jumpi\n      0x40\n      dup1\n      mload\n      shl(0xe5, 0x461bcd)\n      dup2\n      mstore\n      0x20\n      0x04\n      dup3\n      add\n      mstore\n      0x0f\n      0x24\n      dup3\n      add\n      mstore\n      shl(0x8a, 0x151bdad95b881a5cc81b1bd8dad959)\n      0x44\n      dup3\n      add\n      mstore\n      swap1\n      mload\n      swap1\n      dup2\n      swap1\n      sub\n      0x64\n      add\n      swap1\n      revert\n    tag_139:\n        /* \"contracts/4_SmartGTFX.sol\":13162:13172  msg.sender */\n      caller\n        /* \"contracts/4_SmartGTFX.sol\":13152:13173  blacklist[msg.sender] */\n      0x00\n      swap1\n      dup2\n      mstore\n        /* \"contracts/4_SmartGTFX.sol\":13152:13161  blacklist */\n      0x01\n        /* \"contracts/4_SmartGTFX.sol\":13152:13173  blacklist[msg.sender] */\n      0x20\n      mstore\n      0x40\n      swap1\n      keccak256\n      sload\n      0xff\n      and\n        /* \"contracts/4_SmartGTFX.sol\":13151:13173  !blacklist[msg.sender] */\n      iszero\n        /* \"contracts/4_SmartGTFX.sol\":13143:13190  require(!blacklist[msg.sender], \"Blocked user\") */\n      tag_141\n      jumpi\n      0x40\n      dup1\n      mload\n      shl(0xe5, 0x461bcd)\n      dup2\n      mstore\n      0x20\n      0x04\n      dup3\n      add\n      mstore\n      0x0c\n      0x24\n      dup3\n      add\n      mstore\n      shl(0xa1, 0x213637b1b5b2b2103ab9b2b9)\n      0x44\n      dup3\n      add\n      mstore\n      swap1\n      mload\n      swap1\n      dup2\n      swap1\n      sub\n      0x64\n      add\n      swap1\n      revert\n    tag_141:\n        /* \"contracts/4_SmartGTFX.sol\":18629:18668  _approve(_msgSender(), spender, amount) */\n      tag_143\n        /* \"contracts/4_SmartGTFX.sol\":18638:18650  _msgSender() */\n      tag_144\n        /* \"contracts/4_SmartGTFX.sol\":18638:18648  _msgSender */\n      tag_145\n        /* \"contracts/4_SmartGTFX.sol\":18638:18650  _msgSender() */\n      jump\t// in\n    tag_144:\n        /* \"contracts/4_SmartGTFX.sol\":18652:18659  spender */\n      dup5\n        /* \"contracts/4_SmartGTFX.sol\":18661:18667  amount */\n      dup5\n        /* \"contracts/4_SmartGTFX.sol\":18629:18637  _approve */\n      tag_146\n        /* \"contracts/4_SmartGTFX.sol\":18629:18668  _approve(_msgSender(), spender, amount) */\n      jump\t// in\n    tag_143:\n      pop\n        /* \"contracts/4_SmartGTFX.sol\":18685:18689  true */\n      0x01\n        /* \"contracts/4_SmartGTFX.sol\":13200:13201  _ */\n    tag_142:\n        /* \"contracts/4_SmartGTFX.sol\":18519:18696  function approve(address spender, uint256 amount) external validLock permissionCheck returns (bool) {... */\n      swap3\n      swap2\n      pop\n      pop\n      jump\t// out\n        /* \"contracts/4_SmartGTFX.sol\":16880:16971  function totalSupply() external view returns (uint256) {... */\n    tag_51:\n        /* \"contracts/4_SmartGTFX.sol\":16952:16964  _totalSupply */\n      sload(0x04)\n        /* \"contracts/4_SmartGTFX.sol\":16880:16971  function totalSupply() external view returns (uint256) {... */\n      swap1\n      jump\t// out\n        /* \"contracts/4_SmartGTFX.sol\":14736:14858  bytes32 public constant DOMAIN_TYPEHASH = keccak256(\"EIP712Domain(string name,uint256 chainId,address verifyingContract)\") */\n    tag_53:\n        /* \"contracts/4_SmartGTFX.sol\":14778:14858  keccak256(\"EIP712Domain(string name,uint256 chainId,address verifyingContract)\") */\n      mload(0x40)\n      dup1\n      0x43\n      data_8cad95687ba82c2ce50e74f7b754645e5117c3a5bec8151c0726d5857980a866\n      dup3\n      codecopy\n      0x43\n      add\n      swap1\n      pop\n      mload(0x40)\n      dup1\n      swap2\n      sub\n      swap1\n      keccak256\n        /* \"contracts/4_SmartGTFX.sol\":14736:14858  bytes32 public constant DOMAIN_TYPEHASH = keccak256(\"EIP712Domain(string name,uint256 chainId,address verifyingContract)\") */\n      dup2\n      jump\t// out\n        /* \"contracts/4_SmartGTFX.sol\":19585:20054  function transferFrom(address sender, address recipient, uint256 amount) external validLock permissionCheck returns (bool) {... */\n    tag_56:\n        /* \"contracts/4_SmartGTFX.sol\":19702:19706  bool */\n      0x00\n        /* \"contracts/4_SmartGTFX.sol\":12078:12086  isLocked */\n      dup1\n      sload\n      shl(0xa0, 0x01)\n      swap1\n      div\n      0xff\n      and\n        /* \"contracts/4_SmartGTFX.sol\":12078:12091  isLocked == 0 */\n      iszero\n        /* \"contracts/4_SmartGTFX.sol\":12070:12111  require(isLocked == 0, \"Token is locked\") */\n      tag_149\n      jumpi\n      0x40\n      dup1\n      mload\n      shl(0xe5, 0x461bcd)\n      dup2\n      mstore\n      0x20\n      0x04\n      dup3\n      add\n      mstore\n      0x0f\n      0x24\n      dup3\n      add\n      mstore\n      shl(0x8a, 0x151bdad95b881a5cc81b1bd8dad959)\n      0x44\n      dup3\n      add\n      mstore\n      swap1\n      mload\n      swap1\n      dup2\n      swap1\n      sub\n      0x64\n      add\n      swap1\n      revert\n    tag_149:\n        /* \"contracts/4_SmartGTFX.sol\":13162:13172  msg.sender */\n      caller\n        /* \"contracts/4_SmartGTFX.sol\":13152:13173  blacklist[msg.sender] */\n      0x00\n      swap1\n      dup2\n      mstore\n        /* \"contracts/4_SmartGTFX.sol\":13152:13161  blacklist */\n      0x01\n        /* \"contracts/4_SmartGTFX.sol\":13152:13173  blacklist[msg.sender] */\n      0x20\n      mstore\n      0x40\n      swap1\n      keccak256\n      sload\n      0xff\n      and\n        /* \"contracts/4_SmartGTFX.sol\":13151:13173  !blacklist[msg.sender] */\n      iszero\n        /* \"contracts/4_SmartGTFX.sol\":13143:13190  require(!blacklist[msg.sender], \"Blocked user\") */\n      tag_151\n      jumpi\n      0x40\n      dup1\n      mload\n      shl(0xe5, 0x461bcd)\n      dup2\n      mstore\n      0x20\n      0x04\n      dup3\n      add\n      mstore\n      0x0c\n      0x24\n      dup3\n      add\n      mstore\n      shl(0xa1, 0x213637b1b5b2b2103ab9b2b9)\n      0x44\n      dup3\n      add\n      mstore\n      swap1\n      mload\n      swap1\n      dup2\n      swap1\n      sub\n      0x64\n      add\n      swap1\n      revert\n    tag_151:\n        /* \"contracts/4_SmartGTFX.sol\":19718:19754  _transfer(sender, recipient, amount) */\n      tag_153\n        /* \"contracts/4_SmartGTFX.sol\":19728:19734  sender */\n      dup5\n        /* \"contracts/4_SmartGTFX.sol\":19736:19745  recipient */\n      dup5\n        /* \"contracts/4_SmartGTFX.sol\":19747:19753  amount */\n      dup5\n        /* \"contracts/4_SmartGTFX.sol\":19718:19727  _transfer */\n      tag_154\n        /* \"contracts/4_SmartGTFX.sol\":19718:19754  _transfer(sender, recipient, amount) */\n      jump\t// in\n    tag_153:\n        /* \"contracts/4_SmartGTFX.sol\":19764:19779  address spender */\n      0x00\n        /* \"contracts/4_SmartGTFX.sol\":19782:19794  _msgSender() */\n      tag_155\n        /* \"contracts/4_SmartGTFX.sol\":19782:19792  _msgSender */\n      tag_145\n        /* \"contracts/4_SmartGTFX.sol\":19782:19794  _msgSender() */\n      jump\t// in\n    tag_155:\n      sub(shl(0xa0, 0x01), 0x01)\n        /* \"contracts/4_SmartGTFX.sol\":19831:19850  _allowances[sender] */\n      dup1\n      dup8\n      and\n        /* \"contracts/4_SmartGTFX.sol\":19804:19828  uint256 spenderAllowance */\n      0x00\n        /* \"contracts/4_SmartGTFX.sol\":19831:19850  _allowances[sender] */\n      swap1\n      dup2\n      mstore\n        /* \"contracts/4_SmartGTFX.sol\":19831:19842  _allowances */\n      0x03\n        /* \"contracts/4_SmartGTFX.sol\":19831:19850  _allowances[sender] */\n      0x20\n      swap1\n      dup2\n      mstore\n      0x40\n      dup1\n      dup4\n      keccak256\n        /* \"contracts/4_SmartGTFX.sol\":19831:19859  _allowances[sender][spender] */\n      swap4\n      dup6\n      and\n      dup4\n      mstore\n      swap3\n      swap1\n      mstore\n      keccak256\n      sload\n        /* \"contracts/4_SmartGTFX.sol\":19764:19794  address spender = _msgSender() */\n      swap1\n      swap2\n      pop\n      not(0x00)\n        /* \"contracts/4_SmartGTFX.sol\":19873:19904  spenderAllowance != uint256(-1) */\n      dup2\n      eq\n        /* \"contracts/4_SmartGTFX.sol\":19869:20027  if (spenderAllowance != uint256(-1)) {... */\n      tag_157\n      jumpi\n        /* \"contracts/4_SmartGTFX.sol\":19920:20016  _approve(sender, spender, spenderAllowance.sub(amount, \"The transfer amount exceeds allowance\")) */\n      tag_157\n        /* \"contracts/4_SmartGTFX.sol\":19929:19935  sender */\n      dup7\n        /* \"contracts/4_SmartGTFX.sol\":19937:19944  spender */\n      dup4\n        /* \"contracts/4_SmartGTFX.sol\":19946:20015  spenderAllowance.sub(amount, \"The transfer amount exceeds allowance\") */\n      tag_158\n        /* \"contracts/4_SmartGTFX.sol\":19967:19973  amount */\n      dup8\n        /* \"contracts/4_SmartGTFX.sol\":19946:20015  spenderAllowance.sub(amount, \"The transfer amount exceeds allowance\") */\n      mload(0x40)\n      dup1\n      0x60\n      add\n      0x40\n      mstore\n      dup1\n      0x25\n      dup2\n      mstore\n      0x20\n      add\n      data_5e83471b3a3d1fe92bff19912bab84dcc2c92190af741e7c33d886d7ec91f5d1\n      0x25\n      swap2\n      codecopy\n        /* \"contracts/4_SmartGTFX.sol\":19946:19962  spenderAllowance */\n      dup7\n      swap2\n        /* \"contracts/4_SmartGTFX.sol\":19946:20015  spenderAllowance.sub(amount, \"The transfer amount exceeds allowance\") */\n      swap1\n      0xffffffff\n        /* \"contracts/4_SmartGTFX.sol\":19946:19966  spenderAllowance.sub */\n      tag_159\n        /* \"contracts/4_SmartGTFX.sol\":19946:20015  spenderAllowance.sub(amount, \"The transfer amount exceeds allowance\") */\n      and\n      jump\t// in\n    tag_158:\n        /* \"contracts/4_SmartGTFX.sol\":19920:19928  _approve */\n      tag_146\n        /* \"contracts/4_SmartGTFX.sol\":19920:20016  _approve(sender, spender, spenderAllowance.sub(amount, \"The transfer amount exceeds allowance\")) */\n      jump\t// in\n    tag_157:\n      pop\n        /* \"contracts/4_SmartGTFX.sol\":20043:20047  true */\n      0x01\n      swap6\n        /* \"contracts/4_SmartGTFX.sol\":19585:20054  function transferFrom(address sender, address recipient, uint256 amount) external validLock permissionCheck returns (bool) {... */\n      swap5\n      pop\n      pop\n      pop\n      pop\n      pop\n      jump\t// out\n        /* \"contracts/4_SmartGTFX.sol\":16452:16535  function decimals() external view returns (uint8) {... */\n    tag_58:\n        /* \"contracts/4_SmartGTFX.sol\":16519:16528  _decimals */\n      and(0xff, sload(0x05))\n        /* \"contracts/4_SmartGTFX.sol\":16452:16535  function decimals() external view returns (uint8) {... */\n      swap1\n      jump\t// out\n        /* \"contracts/4_SmartGTFX.sol\":20505:20775  function increaseAllowance(address spender, uint256 addedValue) public validLock permissionCheck returns (bool) {... */\n    tag_61:\n        /* \"contracts/4_SmartGTFX.sol\":20611:20615  bool */\n      0x00\n        /* \"contracts/4_SmartGTFX.sol\":12078:12086  isLocked */\n      dup1\n      sload\n      shl(0xa0, 0x01)\n      swap1\n      div\n      0xff\n      and\n        /* \"contracts/4_SmartGTFX.sol\":12078:12091  isLocked == 0 */\n      iszero\n        /* \"contracts/4_SmartGTFX.sol\":12070:12111  require(isLocked == 0, \"Token is locked\") */\n      tag_162\n      jumpi\n      0x40\n      dup1\n      mload\n      shl(0xe5, 0x461bcd)\n      dup2\n      mstore\n      0x20\n      0x04\n      dup3\n      add\n      mstore\n      0x0f\n      0x24\n      dup3\n      add\n      mstore\n      shl(0x8a, 0x151bdad95b881a5cc81b1bd8dad959)\n      0x44\n      dup3\n      add\n      mstore\n      swap1\n      mload\n      swap1\n      dup2\n      swap1\n      sub\n      0x64\n      add\n      swap1\n      revert\n    tag_162:\n        /* \"contracts/4_SmartGTFX.sol\":13162:13172  msg.sender */\n      caller\n        /* \"contracts/4_SmartGTFX.sol\":13152:13173  blacklist[msg.sender] */\n      0x00\n      swap1\n      dup2\n      mstore\n        /* \"contracts/4_SmartGTFX.sol\":13152:13161  blacklist */\n      0x01\n        /* \"contracts/4_SmartGTFX.sol\":13152:13173  blacklist[msg.sender] */\n      0x20\n      mstore\n      0x40\n      swap1\n      keccak256\n      sload\n      0xff\n      and\n        /* \"contracts/4_SmartGTFX.sol\":13151:13173  !blacklist[msg.sender] */\n      iszero\n        /* \"contracts/4_SmartGTFX.sol\":13143:13190  require(!blacklist[msg.sender], \"Blocked user\") */\n      tag_164\n      jumpi\n      0x40\n      dup1\n      mload\n      shl(0xe5, 0x461bcd)\n      dup2\n      mstore\n      0x20\n      0x04\n      dup3\n      add\n      mstore\n      0x0c\n      0x24\n      dup3\n      add\n      mstore\n      shl(0xa1, 0x213637b1b5b2b2103ab9b2b9)\n      0x44\n      dup3\n      add\n      mstore\n      swap1\n      mload\n      swap1\n      dup2\n      swap1\n      sub\n      0x64\n      add\n      swap1\n      revert\n    tag_164:\n        /* \"contracts/4_SmartGTFX.sol\":20627:20747  _approve(_msgSender(), spender, _allowances[_msgSender()][spender].add(addedValue, \"The increased allowance overflows\")) */\n      tag_143\n        /* \"contracts/4_SmartGTFX.sol\":20636:20648  _msgSender() */\n      tag_167\n        /* \"contracts/4_SmartGTFX.sol\":20636:20646  _msgSender */\n      tag_145\n        /* \"contracts/4_SmartGTFX.sol\":20636:20648  _msgSender() */\n      jump\t// in\n    tag_167:\n        /* \"contracts/4_SmartGTFX.sol\":20650:20657  spender */\n      dup5\n        /* \"contracts/4_SmartGTFX.sol\":20659:20746  _allowances[_msgSender()][spender].add(addedValue, \"The increased allowance overflows\") */\n      tag_158\n        /* \"contracts/4_SmartGTFX.sol\":20698:20708  addedValue */\n      dup6\n        /* \"contracts/4_SmartGTFX.sol\":20659:20746  _allowances[_msgSender()][spender].add(addedValue, \"The increased allowance overflows\") */\n      mload(0x40)\n      dup1\n      0x60\n      add\n      0x40\n      mstore\n      dup1\n      0x21\n      dup2\n      mstore\n      0x20\n      add\n      data_0ac444b4635a35929a68a5c8fa43076f8fd9d5dd9c52546538d69b2042f34c77\n      0x21\n      swap2\n      codecopy\n        /* \"contracts/4_SmartGTFX.sol\":20659:20670  _allowances */\n      0x03\n        /* \"contracts/4_SmartGTFX.sol\":20659:20684  _allowances[_msgSender()] */\n      0x00\n        /* \"contracts/4_SmartGTFX.sol\":20671:20683  _msgSender() */\n      tag_169\n        /* \"contracts/4_SmartGTFX.sol\":20671:20681  _msgSender */\n      tag_145\n        /* \"contracts/4_SmartGTFX.sol\":20671:20683  _msgSender() */\n      jump\t// in\n    tag_169:\n      sub(shl(0xa0, 0x01), 0x01)\n        /* \"contracts/4_SmartGTFX.sol\":20659:20684  _allowances[_msgSender()] */\n      swap1\n      dup2\n      and\n      dup3\n      mstore\n      0x20\n      dup1\n      dup4\n      add\n      swap4\n      swap1\n      swap4\n      mstore\n      0x40\n      swap2\n      dup3\n      add\n      0x00\n      swap1\n      dup2\n      keccak256\n        /* \"contracts/4_SmartGTFX.sol\":20659:20693  _allowances[_msgSender()][spender] */\n      swap2\n      dup14\n      and\n      dup2\n      mstore\n      swap3\n      mstore\n      swap1\n      keccak256\n      sload\n      swap2\n        /* \"contracts/4_SmartGTFX.sol\":20659:20746  _allowances[_msgSender()][spender].add(addedValue, \"The increased allowance overflows\") */\n      swap1\n      0xffffffff\n        /* \"contracts/4_SmartGTFX.sol\":20659:20697  _allowances[_msgSender()][spender].add */\n      tag_170\n        /* \"contracts/4_SmartGTFX.sol\":20659:20746  _allowances[_msgSender()][spender].add(addedValue, \"The increased allowance overflows\") */\n      and\n      jump\t// in\n        /* \"contracts/4_SmartGTFX.sol\":21769:21912  function burn(uint256 amount) public validLock permissionCheck returns (bool) {... */\n    tag_64:\n        /* \"contracts/4_SmartGTFX.sol\":21841:21845  bool */\n      0x00\n        /* \"contracts/4_SmartGTFX.sol\":12078:12086  isLocked */\n      dup1\n      sload\n      shl(0xa0, 0x01)\n      swap1\n      div\n      0xff\n      and\n        /* \"contracts/4_SmartGTFX.sol\":12078:12091  isLocked == 0 */\n      iszero\n        /* \"contracts/4_SmartGTFX.sol\":12070:12111  require(isLocked == 0, \"Token is locked\") */\n      tag_172\n      jumpi\n      0x40\n      dup1\n      mload\n      shl(0xe5, 0x461bcd)\n      dup2\n      mstore\n      0x20\n      0x04\n      dup3\n      add\n      mstore\n      0x0f\n      0x24\n      dup3\n      add\n      mstore\n      shl(0x8a, 0x151bdad95b881a5cc81b1bd8dad959)\n      0x44\n      dup3\n      add\n      mstore\n      swap1\n      mload\n      swap1\n      dup2\n      swap1\n      sub\n      0x64\n      add\n      swap1\n      revert\n    tag_172:\n        /* \"contracts/4_SmartGTFX.sol\":13162:13172  msg.sender */\n      caller\n        /* \"contracts/4_SmartGTFX.sol\":13152:13173  blacklist[msg.sender] */\n      0x00\n      swap1\n      dup2\n      mstore\n        /* \"contracts/4_SmartGTFX.sol\":13152:13161  blacklist */\n      0x01\n        /* \"contracts/4_SmartGTFX.sol\":13152:13173  blacklist[msg.sender] */\n      0x20\n      mstore\n      0x40\n      swap1\n      keccak256\n      sload\n      0xff\n      and\n        /* \"contracts/4_SmartGTFX.sol\":13151:13173  !blacklist[msg.sender] */\n      iszero\n        /* \"contracts/4_SmartGTFX.sol\":13143:13190  require(!blacklist[msg.sender], \"Blocked user\") */\n      tag_174\n      jumpi\n      0x40\n      dup1\n      mload\n      shl(0xe5, 0x461bcd)\n      dup2\n      mstore\n      0x20\n      0x04\n      dup3\n      add\n      mstore\n      0x0c\n      0x24\n      dup3\n      add\n      mstore\n      shl(0xa1, 0x213637b1b5b2b2103ab9b2b9)\n      0x44\n      dup3\n      add\n      mstore\n      swap1\n      mload\n      swap1\n      dup2\n      swap1\n      sub\n      0x64\n      add\n      swap1\n      revert\n    tag_174:\n        /* \"contracts/4_SmartGTFX.sol\":21857:21884  _burn(_msgSender(), amount) */\n      tag_176\n        /* \"contracts/4_SmartGTFX.sol\":21863:21875  _msgSender() */\n      tag_177\n        /* \"contracts/4_SmartGTFX.sol\":21863:21873  _msgSender */\n      tag_145\n        /* \"contracts/4_SmartGTFX.sol\":21863:21875  _msgSender() */\n      jump\t// in\n    tag_177:\n        /* \"contracts/4_SmartGTFX.sol\":21877:21883  amount */\n      dup4\n        /* \"contracts/4_SmartGTFX.sol\":21857:21862  _burn */\n      tag_178\n        /* \"contracts/4_SmartGTFX.sol\":21857:21884  _burn(_msgSender(), amount) */\n      jump\t// in\n    tag_176:\n      pop\n        /* \"contracts/4_SmartGTFX.sol\":21901:21905  true */\n      0x01\n        /* \"contracts/4_SmartGTFX.sol\":13200:13201  _ */\n    tag_175:\n        /* \"contracts/4_SmartGTFX.sol\":21769:21912  function burn(uint256 amount) public validLock permissionCheck returns (bool) {... */\n      swap2\n      swap1\n      pop\n      jump\t// out\n        /* \"contracts/4_SmartGTFX.sol\":14200:14245  mapping (address => address) public delegates */\n    tag_67:\n      mstore(0x20, 0x08)\n      0x00\n      swap1\n      dup2\n      mstore\n      0x40\n      swap1\n      keccak256\n      sload\n      sub(shl(0xa0, 0x01), 0x01)\n      and\n      dup2\n      jump\t// out\n        /* \"contracts/4_SmartGTFX.sol\":22054:22182  function delegate(address delegatee) public validLock permissionCheck {... */\n    tag_70:\n        /* \"contracts/4_SmartGTFX.sol\":12078:12086  isLocked */\n      sload(0x00)\n      shl(0xa0, 0x01)\n      swap1\n      div\n      0xff\n      and\n        /* \"contracts/4_SmartGTFX.sol\":12078:12091  isLocked == 0 */\n      iszero\n        /* \"contracts/4_SmartGTFX.sol\":12070:12111  require(isLocked == 0, \"Token is locked\") */\n      tag_180\n      jumpi\n      0x40\n      dup1\n      mload\n      shl(0xe5, 0x461bcd)\n      dup2\n      mstore\n      0x20\n      0x04\n      dup3\n      add\n      mstore\n      0x0f\n      0x24\n      dup3\n      add\n      mstore\n      shl(0x8a, 0x151bdad95b881a5cc81b1bd8dad959)\n      0x44\n      dup3\n      add\n      mstore\n      swap1\n      mload\n      swap1\n      dup2\n      swap1\n      sub\n      0x64\n      add\n      swap1\n      revert\n    tag_180:\n        /* \"contracts/4_SmartGTFX.sol\":13162:13172  msg.sender */\n      caller\n        /* \"contracts/4_SmartGTFX.sol\":13152:13173  blacklist[msg.sender] */\n      0x00\n      swap1\n      dup2\n      mstore\n        /* \"contracts/4_SmartGTFX.sol\":13152:13161  blacklist */\n      0x01\n        /* \"contracts/4_SmartGTFX.sol\":13152:13173  blacklist[msg.sender] */\n      0x20\n      mstore\n      0x40\n      swap1\n      keccak256\n      sload\n      0xff\n      and\n        /* \"contracts/4_SmartGTFX.sol\":13151:13173  !blacklist[msg.sender] */\n      iszero\n        /* \"contracts/4_SmartGTFX.sol\":13143:13190  require(!blacklist[msg.sender], \"Blocked user\") */\n      tag_182\n      jumpi\n      0x40\n      dup1\n      mload\n      shl(0xe5, 0x461bcd)\n      dup2\n      mstore\n      0x20\n      0x04\n      dup3\n      add\n      mstore\n      0x0c\n      0x24\n      dup3\n      add\n      mstore\n      shl(0xa1, 0x213637b1b5b2b2103ab9b2b9)\n      0x44\n      dup3\n      add\n      mstore\n      swap1\n      mload\n      swap1\n      dup2\n      swap1\n      sub\n      0x64\n      add\n      swap1\n      revert\n    tag_182:\n        /* \"contracts/4_SmartGTFX.sol\":22141:22175  _delegate(_msgSender(), delegatee) */\n      tag_184\n        /* \"contracts/4_SmartGTFX.sol\":22151:22163  _msgSender() */\n      tag_185\n        /* \"contracts/4_SmartGTFX.sol\":22151:22161  _msgSender */\n      tag_145\n        /* \"contracts/4_SmartGTFX.sol\":22151:22163  _msgSender() */\n      jump\t// in\n    tag_185:\n        /* \"contracts/4_SmartGTFX.sol\":22165:22174  delegatee */\n      dup3\n        /* \"contracts/4_SmartGTFX.sol\":22141:22150  _delegate */\n      tag_186\n        /* \"contracts/4_SmartGTFX.sol\":22141:22175  _delegate(_msgSender(), delegatee) */\n      jump\t// in\n    tag_184:\n        /* \"contracts/4_SmartGTFX.sol\":22054:22182  function delegate(address delegatee) public validLock permissionCheck {... */\n      pop\n      jump\t// out\n        /* \"contracts/4_SmartGTFX.sol\":12139:12236  function freeze() public onlyOwner {... */\n    tag_72:\n        /* \"contracts/4_SmartGTFX.sol\":7952:7964  _msgSender() */\n      tag_188\n        /* \"contracts/4_SmartGTFX.sol\":7952:7962  _msgSender */\n      tag_145\n        /* \"contracts/4_SmartGTFX.sol\":7952:7964  _msgSender() */\n      jump\t// in\n    tag_188:\n        /* \"contracts/4_SmartGTFX.sol\":7942:7948  _owner */\n      sload(0x00)\n      sub(shl(0xa0, 0x01), 0x01)\n      swap1\n      dup2\n      and\n        /* \"contracts/4_SmartGTFX.sol\":7942:7964  _owner == _msgSender() */\n      swap2\n      and\n      eq\n        /* \"contracts/4_SmartGTFX.sol\":7934:8001  require(_owner == _msgSender(), \"Ownable: caller is not the owner\") */\n      tag_189\n      jumpi\n      0x40\n      dup1\n      mload\n      shl(0xe5, 0x461bcd)\n      dup2\n      mstore\n      0x20\n      0x04\n      dup3\n      add\n      dup2\n      swap1\n      mstore\n      0x24\n      dup3\n      add\n      mstore\n      0x00\n      dup1\n      mload\n      0x20\n      data_9924ebdf1add33d25d4ef888e16131f0a5687b0580a36c21b5c301a6c462effe\n      dup4\n      codecopy\n      dup2\n      mload\n      swap2\n      mstore\n      0x44\n      dup3\n      add\n      mstore\n      swap1\n      mload\n      swap1\n      dup2\n      swap1\n      sub\n      0x64\n      add\n      swap1\n      revert\n    tag_189:\n        /* \"contracts/4_SmartGTFX.sol\":12184:12192  isLocked */\n      0x00\n        /* \"contracts/4_SmartGTFX.sol\":12184:12196  isLocked = 1 */\n      dup1\n      sload\n      not(shl(0xa0, 0xff))\n      and\n      shl(0xa0, 0x01)\n      or\n      dup2\n      sstore\n        /* \"contracts/4_SmartGTFX.sol\":12220:12229  Freezed() */\n      mload(0x40)\n      0x962a6139ca22015759d0878e2cf5d770dcb8152e1d5ba08e46a969dd9b154a9c\n      swap2\n        /* \"contracts/4_SmartGTFX.sol\":12184:12192  isLocked */\n      swap1\n        /* \"contracts/4_SmartGTFX.sol\":12220:12229  Freezed() */\n      log1\n        /* \"contracts/4_SmartGTFX.sol\":12139:12236  function freeze() public onlyOwner {... */\n      jump\t// out\n        /* \"contracts/4_SmartGTFX.sol\":12242:12343  function unfreeze() public onlyOwner {... */\n    tag_74:\n        /* \"contracts/4_SmartGTFX.sol\":7952:7964  _msgSender() */\n      tag_192\n        /* \"contracts/4_SmartGTFX.sol\":7952:7962  _msgSender */\n      tag_145\n        /* \"contracts/4_SmartGTFX.sol\":7952:7964  _msgSender() */\n      jump\t// in\n    tag_192:\n        /* \"contracts/4_SmartGTFX.sol\":7942:7948  _owner */\n      sload(0x00)\n      sub(shl(0xa0, 0x01), 0x01)\n      swap1\n      dup2\n      and\n        /* \"contracts/4_SmartGTFX.sol\":7942:7964  _owner == _msgSender() */\n      swap2\n      and\n      eq\n        /* \"contracts/4_SmartGTFX.sol\":7934:8001  require(_owner == _msgSender(), \"Ownable: caller is not the owner\") */\n      tag_193\n      jumpi\n      0x40\n      dup1\n      mload\n      shl(0xe5, 0x461bcd)\n      dup2\n      mstore\n      0x20\n      0x04\n      dup3\n      add\n      dup2\n      swap1\n      mstore\n      0x24\n      dup3\n      add\n      mstore\n      0x00\n      dup1\n      mload\n      0x20\n      data_9924ebdf1add33d25d4ef888e16131f0a5687b0580a36c21b5c301a6c462effe\n      dup4\n      codecopy\n      dup2\n      mload\n      swap2\n      mstore\n      0x44\n      dup3\n      add\n      mstore\n      swap1\n      mload\n      swap1\n      dup2\n      swap1\n      sub\n      0x64\n      add\n      swap1\n      revert\n    tag_193:\n        /* \"contracts/4_SmartGTFX.sol\":12300:12301  0 */\n      0x00\n        /* \"contracts/4_SmartGTFX.sol\":12289:12301  isLocked = 0 */\n      dup1\n      sload\n      not(shl(0xa0, 0xff))\n      and\n      dup2\n      sstore\n        /* \"contracts/4_SmartGTFX.sol\":12325:12336  UnFreezed() */\n      mload(0x40)\n      0xf0daac2271a735ea786b9adf80dfcbd6a3cbd52f3cab0a78337114692d5faf5d\n      swap2\n        /* \"contracts/4_SmartGTFX.sol\":12300:12301  0 */\n      swap1\n        /* \"contracts/4_SmartGTFX.sol\":12325:12336  UnFreezed() */\n      log1\n        /* \"contracts/4_SmartGTFX.sol\":12242:12343  function unfreeze() public onlyOwner {... */\n      jump\t// out\n        /* \"contracts/4_SmartGTFX.sol\":14617:14666  mapping (address => uint32) public numCheckpoints */\n    tag_77:\n      mstore(0x20, 0x0a)\n      0x00\n      swap1\n      dup2\n      mstore\n      0x40\n      swap1\n      keccak256\n      sload\n      0xffffffff\n      and\n      dup2\n      jump\t// out\n        /* \"contracts/4_SmartGTFX.sol\":17167:17277  function balanceOf(address account) external view returns (uint256) {... */\n    tag_80:\n      sub(shl(0xa0, 0x01), 0x01)\n        /* \"contracts/4_SmartGTFX.sol\":17252:17270  _balances[account] */\n      and\n        /* \"contracts/4_SmartGTFX.sol\":17226:17233  uint256 */\n      0x00\n        /* \"contracts/4_SmartGTFX.sol\":17252:17270  _balances[account] */\n      swap1\n      dup2\n      mstore\n        /* \"contracts/4_SmartGTFX.sol\":17252:17261  _balances */\n      0x02\n        /* \"contracts/4_SmartGTFX.sol\":17252:17270  _balances[account] */\n      0x20\n      mstore\n      0x40\n      swap1\n      keccak256\n      sload\n      swap1\n        /* \"contracts/4_SmartGTFX.sol\":17167:17277  function balanceOf(address account) external view returns (uint256) {... */\n      jump\t// out\n        /* \"contracts/4_SmartGTFX.sol\":8339:8466  function renounceOwnership() public onlyOwner {... */\n    tag_82:\n        /* \"contracts/4_SmartGTFX.sol\":7952:7964  _msgSender() */\n      tag_197\n        /* \"contracts/4_SmartGTFX.sol\":7952:7962  _msgSender */\n      tag_145\n        /* \"contracts/4_SmartGTFX.sol\":7952:7964  _msgSender() */\n      jump\t// in\n    tag_197:\n        /* \"contracts/4_SmartGTFX.sol\":7942:7948  _owner */\n      sload(0x00)\n      sub(shl(0xa0, 0x01), 0x01)\n      swap1\n      dup2\n      and\n        /* \"contracts/4_SmartGTFX.sol\":7942:7964  _owner == _msgSender() */\n      swap2\n      and\n      eq\n        /* \"contracts/4_SmartGTFX.sol\":7934:8001  require(_owner == _msgSender(), \"Ownable: caller is not the owner\") */\n      tag_198\n      jumpi\n      0x40\n      dup1\n      mload\n      shl(0xe5, 0x461bcd)\n      dup2\n      mstore\n      0x20\n      0x04\n      dup3\n      add\n      dup2\n      swap1\n      mstore\n      0x24\n      dup3\n      add\n      mstore\n      0x00\n      dup1\n      mload\n      0x20\n      data_9924ebdf1add33d25d4ef888e16131f0a5687b0580a36c21b5c301a6c462effe\n      dup4\n      codecopy\n      dup2\n      mload\n      swap2\n      mstore\n      0x44\n      dup3\n      add\n      mstore\n      swap1\n      mload\n      swap1\n      dup2\n      swap1\n      sub\n      0x64\n      add\n      swap1\n      revert\n    tag_198:\n        /* \"contracts/4_SmartGTFX.sol\":8433:8434  0 */\n      0x00\n        /* \"contracts/4_SmartGTFX.sol\":8417:8423  _owner */\n      dup1\n      sload\n        /* \"contracts/4_SmartGTFX.sol\":8396:8436  OwnershipTransferred(_owner, address(0)) */\n      mload(0x40)\n      sub(shl(0xa0, 0x01), 0x01)\n        /* \"contracts/4_SmartGTFX.sol\":8417:8423  _owner */\n      swap1\n      swap2\n      and\n      swap1\n        /* \"contracts/4_SmartGTFX.sol\":8396:8436  OwnershipTransferred(_owner, address(0)) */\n      0x8be0079c531659141344cd1fd0a4f28419497f9722a3daafe3b4186f6b6457e0\n      swap1\n        /* \"contracts/4_SmartGTFX.sol\":8433:8434  0 */\n      dup4\n      swap1\n        /* \"contracts/4_SmartGTFX.sol\":8396:8436  OwnershipTransferred(_owner, address(0)) */\n      log3\n        /* \"contracts/4_SmartGTFX.sol\":8459:8460  0 */\n      0x00\n        /* \"contracts/4_SmartGTFX.sol\":8442:8461  _owner = address(0) */\n      dup1\n      sload\n      not(sub(shl(0xa0, 0x01), 0x01))\n      and\n      swap1\n      sstore\n        /* \"contracts/4_SmartGTFX.sol\":8339:8466  function renounceOwnership() public onlyOwner {... */\n      jump\t// out\n        /* \"contracts/4_SmartGTFX.sol\":24202:25394  function getPriorVotes(address account, uint256 blockNumber) public view returns (uint96) {... */\n    tag_85:\n        /* \"contracts/4_SmartGTFX.sol\":24284:24290  uint96 */\n      0x00\n        /* \"contracts/4_SmartGTFX.sol\":24324:24336  block.number */\n      number\n        /* \"contracts/4_SmartGTFX.sol\":24310:24321  blockNumber */\n      dup3\n        /* \"contracts/4_SmartGTFX.sol\":24310:24336  blockNumber < block.number */\n      lt\n        /* \"contracts/4_SmartGTFX.sol\":24302:24359  require(blockNumber < block.number, \"Not determined yet\") */\n      tag_201\n      jumpi\n      0x40\n      dup1\n      mload\n      shl(0xe5, 0x461bcd)\n      dup2\n      mstore\n      0x20\n      0x04\n      dup3\n      add\n      mstore\n      0x12\n      0x24\n      dup3\n      add\n      mstore\n      shl(0x72, 0x139bdd0819195d195c9b5a5b9959081e595d)\n      0x44\n      dup3\n      add\n      mstore\n      swap1\n      mload\n      swap1\n      dup2\n      swap1\n      sub\n      0x64\n      add\n      swap1\n      revert\n    tag_201:\n      sub(shl(0xa0, 0x01), 0x01)\n        /* \"contracts/4_SmartGTFX.sol\":24392:24415  numCheckpoints[account] */\n      dup4\n      and\n        /* \"contracts/4_SmartGTFX.sol\":24370:24389  uint32 nCheckpoints */\n      0x00\n        /* \"contracts/4_SmartGTFX.sol\":24392:24415  numCheckpoints[account] */\n      swap1\n      dup2\n      mstore\n        /* \"contracts/4_SmartGTFX.sol\":24392:24406  numCheckpoints */\n      0x0a\n        /* \"contracts/4_SmartGTFX.sol\":24392:24415  numCheckpoints[account] */\n      0x20\n      mstore\n      0x40\n      swap1\n      keccak256\n      sload\n      0xffffffff\n      and\n        /* \"contracts/4_SmartGTFX.sol\":24429:24446  nCheckpoints == 0 */\n      dup1\n        /* \"contracts/4_SmartGTFX.sol\":24425:24481  if (nCheckpoints == 0) {... */\n      tag_202\n      jumpi\n        /* \"contracts/4_SmartGTFX.sol\":24469:24470  0 */\n      0x00\n        /* \"contracts/4_SmartGTFX.sol\":24462:24470  return 0 */\n      swap2\n      pop\n      pop\n      jump(tag_142)\n        /* \"contracts/4_SmartGTFX.sol\":24425:24481  if (nCheckpoints == 0) {... */\n    tag_202:\n      sub(shl(0xa0, 0x01), 0x01)\n        /* \"contracts/4_SmartGTFX.sol\":24538:24558  checkpoints[account] */\n      dup5\n      and\n      0x00\n      swap1\n      dup2\n      mstore\n        /* \"contracts/4_SmartGTFX.sol\":24538:24549  checkpoints */\n      0x09\n        /* \"contracts/4_SmartGTFX.sol\":24538:24558  checkpoints[account] */\n      0x20\n      swap1\n      dup2\n      mstore\n      0x40\n      dup1\n      dup4\n      keccak256\n        /* \"contracts/4_SmartGTFX.sol\":24538:24576  checkpoints[account][nCheckpoints - 1] */\n      0xffffffff\n      not(0x00)\n        /* \"contracts/4_SmartGTFX.sol\":24559:24575  nCheckpoints - 1 */\n      dup7\n      add\n        /* \"contracts/4_SmartGTFX.sol\":24538:24576  checkpoints[account][nCheckpoints - 1] */\n      dup2\n      and\n      dup6\n      mstore\n      swap3\n      mstore\n      swap1\n      swap2\n      keccak256\n        /* \"contracts/4_SmartGTFX.sol\":24538:24586  checkpoints[account][nCheckpoints - 1].fromBlock */\n      sload\n      and\n        /* \"contracts/4_SmartGTFX.sol\":24538:24601  checkpoints[account][nCheckpoints - 1].fromBlock <= blockNumber */\n      dup4\n      lt\n        /* \"contracts/4_SmartGTFX.sol\":24534:24687  if (checkpoints[account][nCheckpoints - 1].fromBlock <= blockNumber) {... */\n      tag_203\n      jumpi\n      sub(shl(0xa0, 0x01), 0x01)\n        /* \"contracts/4_SmartGTFX.sol\":24631:24651  checkpoints[account] */\n      dup5\n      and\n      0x00\n      swap1\n      dup2\n      mstore\n        /* \"contracts/4_SmartGTFX.sol\":24631:24642  checkpoints */\n      0x09\n        /* \"contracts/4_SmartGTFX.sol\":24631:24651  checkpoints[account] */\n      0x20\n      swap1\n      dup2\n      mstore\n      0x40\n      dup1\n      dup4\n      keccak256\n        /* \"contracts/4_SmartGTFX.sol\":24631:24669  checkpoints[account][nCheckpoints - 1] */\n      0xffffffff\n      not(0x00)\n        /* \"contracts/4_SmartGTFX.sol\":24652:24668  nCheckpoints - 1 */\n      dup7\n      add\n        /* \"contracts/4_SmartGTFX.sol\":24631:24669  checkpoints[account][nCheckpoints - 1] */\n      and\n      dup5\n      mstore\n      swap1\n      swap2\n      mstore\n      swap1\n      keccak256\n        /* \"contracts/4_SmartGTFX.sol\":24667:24668  1 */\n      0x01\n        /* \"contracts/4_SmartGTFX.sol\":24631:24675  checkpoints[account][nCheckpoints - 1].votes */\n      add\n      sload\n        /* \"contracts/4_SmartGTFX.sol\":24624:24676  ceil96(checkpoints[account][nCheckpoints - 1].votes) */\n      tag_204\n      swap1\n        /* \"contracts/4_SmartGTFX.sol\":24624:24630  ceil96 */\n      tag_205\n        /* \"contracts/4_SmartGTFX.sol\":24624:24676  ceil96(checkpoints[account][nCheckpoints - 1].votes) */\n      jump\t// in\n    tag_204:\n        /* \"contracts/4_SmartGTFX.sol\":24617:24676  return ceil96(checkpoints[account][nCheckpoints - 1].votes) */\n      swap2\n      pop\n      pop\n      jump(tag_142)\n        /* \"contracts/4_SmartGTFX.sol\":24534:24687  if (checkpoints[account][nCheckpoints - 1].fromBlock <= blockNumber) {... */\n    tag_203:\n      sub(shl(0xa0, 0x01), 0x01)\n        /* \"contracts/4_SmartGTFX.sol\":24745:24765  checkpoints[account] */\n      dup5\n      and\n      0x00\n      swap1\n      dup2\n      mstore\n        /* \"contracts/4_SmartGTFX.sol\":24745:24756  checkpoints */\n      0x09\n        /* \"contracts/4_SmartGTFX.sol\":24745:24765  checkpoints[account] */\n      0x20\n      swap1\n      dup2\n      mstore\n      0x40\n      dup1\n      dup4\n      keccak256\n        /* \"contracts/4_SmartGTFX.sol\":24745:24768  checkpoints[account][0] */\n      dup4\n      dup1\n      mstore\n      swap1\n      swap2\n      mstore\n      swap1\n      keccak256\n        /* \"contracts/4_SmartGTFX.sol\":24745:24778  checkpoints[account][0].fromBlock */\n      sload\n        /* \"contracts/4_SmartGTFX.sol\":24745:24768  checkpoints[account][0] */\n      0xffffffff\n        /* \"contracts/4_SmartGTFX.sol\":24745:24778  checkpoints[account][0].fromBlock */\n      and\n        /* \"contracts/4_SmartGTFX.sol\":24745:24792  checkpoints[account][0].fromBlock > blockNumber */\n      dup4\n      lt\n        /* \"contracts/4_SmartGTFX.sol\":24741:24827  if (checkpoints[account][0].fromBlock > blockNumber) {... */\n      iszero\n      tag_206\n      jumpi\n        /* \"contracts/4_SmartGTFX.sol\":24815:24816  0 */\n      0x00\n        /* \"contracts/4_SmartGTFX.sol\":24808:24816  return 0 */\n      swap2\n      pop\n      pop\n      jump(tag_142)\n        /* \"contracts/4_SmartGTFX.sol\":24741:24827  if (checkpoints[account][0].fromBlock > blockNumber) {... */\n    tag_206:\n        /* \"contracts/4_SmartGTFX.sol\":24837:24849  uint32 lower */\n      0x00\n      not(0x00)\n        /* \"contracts/4_SmartGTFX.sol\":24878:24894  nCheckpoints - 1 */\n      dup3\n      add\n        /* \"contracts/4_SmartGTFX.sol\":24904:25330  while (upper > lower) {... */\n    tag_207:\n        /* \"contracts/4_SmartGTFX.sol\":24919:24924  lower */\n      dup2\n        /* \"contracts/4_SmartGTFX.sol\":24911:24924  upper > lower */\n      0xffffffff\n      and\n        /* \"contracts/4_SmartGTFX.sol\":24911:24916  upper */\n      dup2\n        /* \"contracts/4_SmartGTFX.sol\":24911:24924  upper > lower */\n      0xffffffff\n      and\n      gt\n        /* \"contracts/4_SmartGTFX.sol\":24904:25330  while (upper > lower) {... */\n      iszero\n      tag_208\n      jumpi\n        /* \"contracts/4_SmartGTFX.sol\":24982:24983  2 */\n      0x02\n        /* \"contracts/4_SmartGTFX.sol\":24965:24978  upper - lower */\n      dup3\n      dup3\n      sub\n        /* \"contracts/4_SmartGTFX.sol\":24964:24983  (upper - lower) / 2 */\n      0xffffffff\n      and\n      div\n        /* \"contracts/4_SmartGTFX.sol\":24956:24983  upper - (upper - lower) / 2 */\n      dup2\n      sub\n        /* \"contracts/4_SmartGTFX.sol\":25024:25044  Checkpoint memory cp */\n      tag_210\n      tag_211\n      jump\t// in\n    tag_210:\n      pop\n      sub(shl(0xa0, 0x01), 0x01)\n        /* \"contracts/4_SmartGTFX.sol\":25047:25067  checkpoints[account] */\n      dup8\n      and\n      0x00\n      swap1\n      dup2\n      mstore\n        /* \"contracts/4_SmartGTFX.sol\":25047:25058  checkpoints */\n      0x09\n        /* \"contracts/4_SmartGTFX.sol\":25047:25067  checkpoints[account] */\n      0x20\n      swap1\n      dup2\n      mstore\n      0x40\n      dup1\n      dup4\n      keccak256\n        /* \"contracts/4_SmartGTFX.sol\":25047:25075  checkpoints[account][center] */\n      0xffffffff\n      dup1\n      dup7\n      and\n      dup6\n      mstore\n      swap1\n      dup4\n      mstore\n      swap3\n      dup2\n      swap1\n      keccak256\n        /* \"contracts/4_SmartGTFX.sol\":25024:25075  Checkpoint memory cp = checkpoints[account][center] */\n      dup2\n      mload\n      dup1\n      dup4\n      add\n      swap1\n      swap3\n      mstore\n      dup1\n      sload\n      swap1\n      swap4\n      and\n      dup1\n      dup3\n      mstore\n      0x01\n      swap1\n      swap4\n      add\n      sload\n      swap2\n      dup2\n      add\n      swap2\n      swap1\n      swap2\n      mstore\n      swap1\n        /* \"contracts/4_SmartGTFX.sol\":25093:25120  cp.fromBlock == blockNumber */\n      dup8\n      eq\n        /* \"contracts/4_SmartGTFX.sol\":25089:25320  if (cp.fromBlock == blockNumber) {... */\n      iszero\n      tag_212\n      jumpi\n        /* \"contracts/4_SmartGTFX.sol\":25147:25163  ceil96(cp.votes) */\n      tag_213\n        /* \"contracts/4_SmartGTFX.sol\":25154:25156  cp */\n      dup2\n        /* \"contracts/4_SmartGTFX.sol\":25154:25162  cp.votes */\n      0x20\n      add\n      mload\n        /* \"contracts/4_SmartGTFX.sol\":25147:25153  ceil96 */\n      tag_205\n        /* \"contracts/4_SmartGTFX.sol\":25147:25163  ceil96(cp.votes) */\n      jump\t// in\n    tag_213:\n        /* \"contracts/4_SmartGTFX.sol\":25140:25163  return ceil96(cp.votes) */\n      swap6\n      pop\n      pop\n      pop\n      pop\n      pop\n      pop\n      jump(tag_142)\n        /* \"contracts/4_SmartGTFX.sol\":25089:25320  if (cp.fromBlock == blockNumber) {... */\n    tag_212:\n        /* \"contracts/4_SmartGTFX.sol\":25188:25200  cp.fromBlock */\n      dup1\n      mload\n        /* \"contracts/4_SmartGTFX.sol\":25188:25214  cp.fromBlock < blockNumber */\n      0xffffffff\n      and\n      dup8\n      gt\n        /* \"contracts/4_SmartGTFX.sol\":25184:25320  if (cp.fromBlock < blockNumber) {... */\n      iszero\n      tag_215\n      jumpi\n        /* \"contracts/4_SmartGTFX.sol\":25242:25248  center */\n      dup2\n        /* \"contracts/4_SmartGTFX.sol\":25234:25248  lower = center */\n      swap4\n      pop\n        /* \"contracts/4_SmartGTFX.sol\":25184:25320  if (cp.fromBlock < blockNumber) {... */\n      jump(tag_216)\n    tag_215:\n        /* \"contracts/4_SmartGTFX.sol\":25304:25305  1 */\n      0x01\n        /* \"contracts/4_SmartGTFX.sol\":25295:25301  center */\n      dup3\n        /* \"contracts/4_SmartGTFX.sol\":25295:25305  center - 1 */\n      sub\n        /* \"contracts/4_SmartGTFX.sol\":25287:25305  upper = center - 1 */\n      swap3\n      pop\n        /* \"contracts/4_SmartGTFX.sol\":25184:25320  if (cp.fromBlock < blockNumber) {... */\n    tag_216:\n        /* \"contracts/4_SmartGTFX.sol\":24904:25330  while (upper > lower) {... */\n      pop\n      pop\n      jump(tag_207)\n    tag_208:\n      sub(shl(0xa0, 0x01), 0x01)\n        /* \"contracts/4_SmartGTFX.sol\":25353:25373  checkpoints[account] */\n      dup7\n      and\n      0x00\n      swap1\n      dup2\n      mstore\n        /* \"contracts/4_SmartGTFX.sol\":25353:25364  checkpoints */\n      0x09\n        /* \"contracts/4_SmartGTFX.sol\":25353:25373  checkpoints[account] */\n      0x20\n      swap1\n      dup2\n      mstore\n      0x40\n      dup1\n      dup4\n      keccak256\n        /* \"contracts/4_SmartGTFX.sol\":25353:25380  checkpoints[account][lower] */\n      0xffffffff\n      dup7\n      and\n      dup5\n      mstore\n      swap1\n      swap2\n      mstore\n      swap1\n      keccak256\n        /* \"contracts/4_SmartGTFX.sol\":25353:25386  checkpoints[account][lower].votes */\n      0x01\n      add\n      sload\n        /* \"contracts/4_SmartGTFX.sol\":25346:25387  ceil96(checkpoints[account][lower].votes) */\n      tag_217\n      swap1\n        /* \"contracts/4_SmartGTFX.sol\":25346:25352  ceil96 */\n      tag_205\n        /* \"contracts/4_SmartGTFX.sol\":25346:25387  ceil96(checkpoints[account][lower].votes) */\n      jump\t// in\n    tag_217:\n        /* \"contracts/4_SmartGTFX.sol\":25339:25387  return ceil96(checkpoints[account][lower].votes) */\n      swap7\n        /* \"contracts/4_SmartGTFX.sol\":24202:25394  function getPriorVotes(address account, uint256 blockNumber) public view returns (uint96) {... */\n      swap6\n      pop\n      pop\n      pop\n      pop\n      pop\n      pop\n      jump\t// out\n        /* \"contracts/4_SmartGTFX.sol\":15144:15186  mapping (address => uint256) public nonces */\n    tag_88:\n      mstore(0x20, 0x0b)\n      0x00\n      swap1\n      dup2\n      mstore\n      0x40\n      swap1\n      keccak256\n      sload\n      dup2\n      jump\t// out\n        /* \"contracts/4_SmartGTFX.sol\":16308:16391  function getOwner() external view returns (address) {... */\n    tag_90:\n        /* \"contracts/4_SmartGTFX.sol\":16351:16358  address */\n      0x00\n        /* \"contracts/4_SmartGTFX.sol\":16377:16384  owner() */\n      tag_219\n        /* \"contracts/4_SmartGTFX.sol\":16377:16382  owner */\n      tag_92\n        /* \"contracts/4_SmartGTFX.sol\":16377:16384  owner() */\n      jump\t// in\n    tag_219:\n        /* \"contracts/4_SmartGTFX.sol\":16370:16384  return owner() */\n      swap1\n      pop\n        /* \"contracts/4_SmartGTFX.sol\":16308:16391  function getOwner() external view returns (address) {... */\n      swap1\n      jump\t// out\n        /* \"contracts/4_SmartGTFX.sol\":7756:7827  function owner() public view returns (address) {... */\n    tag_92:\n        /* \"contracts/4_SmartGTFX.sol\":7794:7801  address */\n      0x00\n        /* \"contracts/4_SmartGTFX.sol\":7816:7822  _owner */\n      sload\n      sub(shl(0xa0, 0x01), 0x01)\n      and\n        /* \"contracts/4_SmartGTFX.sol\":7756:7827  function owner() public view returns (address) {... */\n      swap1\n      jump\t// out\n        /* \"contracts/4_SmartGTFX.sol\":16594:16681  function symbol() external view returns (string memory) {... */\n    tag_94:\n        /* \"contracts/4_SmartGTFX.sol\":16667:16674  _symbol */\n      0x06\n        /* \"contracts/4_SmartGTFX.sol\":16660:16674  return _symbol */\n      dup1\n      sload\n      0x40\n      dup1\n      mload\n      0x20\n      0x1f\n      0x02\n      not(0x00)\n      0x0100\n      0x01\n      dup9\n      and\n      iszero\n      mul\n      add\n      swap1\n      swap6\n      and\n      swap5\n      swap1\n      swap5\n      div\n      swap4\n      dup5\n      add\n      dup2\n      swap1\n      div\n      dup2\n      mul\n      dup3\n      add\n      dup2\n      add\n      swap1\n      swap3\n      mstore\n      dup3\n      dup2\n      mstore\n        /* \"contracts/4_SmartGTFX.sol\":16635:16648  string memory */\n      0x60\n      swap4\n        /* \"contracts/4_SmartGTFX.sol\":16660:16674  return _symbol */\n      swap1\n      swap3\n        /* \"contracts/4_SmartGTFX.sol\":16667:16674  _symbol */\n      swap1\n      swap2\n        /* \"contracts/4_SmartGTFX.sol\":16660:16674  return _symbol */\n      dup4\n      add\n        /* \"contracts/4_SmartGTFX.sol\":16667:16674  _symbol */\n      dup3\n        /* \"contracts/4_SmartGTFX.sol\":16660:16674  return _symbol */\n      dup3\n      dup1\n      iszero\n      tag_135\n      jumpi\n      dup1\n      0x1f\n      lt\n      tag_136\n      jumpi\n      0x0100\n      dup1\n      dup4\n      sload\n      div\n      mul\n      dup4\n      mstore\n      swap2\n      0x20\n      add\n      swap2\n      jump(tag_135)\n        /* \"contracts/4_SmartGTFX.sol\":21234:21515  function decreaseAllowance(address spender, uint256 subtractedValue) public validLock permissionCheck returns (bool) {... */\n    tag_101:\n        /* \"contracts/4_SmartGTFX.sol\":21345:21349  bool */\n      0x00\n        /* \"contracts/4_SmartGTFX.sol\":12078:12086  isLocked */\n      dup1\n      sload\n      shl(0xa0, 0x01)\n      swap1\n      div\n      0xff\n      and\n        /* \"contracts/4_SmartGTFX.sol\":12078:12091  isLocked == 0 */\n      iszero\n        /* \"contracts/4_SmartGTFX.sol\":12070:12111  require(isLocked == 0, \"Token is locked\") */\n      tag_226\n      jumpi\n      0x40\n      dup1\n      mload\n      shl(0xe5, 0x461bcd)\n      dup2\n      mstore\n      0x20\n      0x04\n      dup3\n      add\n      mstore\n      0x0f\n      0x24\n      dup3\n      add\n      mstore\n      shl(0x8a, 0x151bdad95b881a5cc81b1bd8dad959)\n      0x44\n      dup3\n      add\n      mstore\n      swap1\n      mload\n      swap1\n      dup2\n      swap1\n      sub\n      0x64\n      add\n      swap1\n      revert\n    tag_226:\n        /* \"contracts/4_SmartGTFX.sol\":13162:13172  msg.sender */\n      caller\n        /* \"contracts/4_SmartGTFX.sol\":13152:13173  blacklist[msg.sender] */\n      0x00\n      swap1\n      dup2\n      mstore\n        /* \"contracts/4_SmartGTFX.sol\":13152:13161  blacklist */\n      0x01\n        /* \"contracts/4_SmartGTFX.sol\":13152:13173  blacklist[msg.sender] */\n      0x20\n      mstore\n      0x40\n      swap1\n      keccak256\n      sload\n      0xff\n      and\n        /* \"contracts/4_SmartGTFX.sol\":13151:13173  !blacklist[msg.sender] */\n      iszero\n        /* \"contracts/4_SmartGTFX.sol\":13143:13190  require(!blacklist[msg.sender], \"Blocked user\") */\n      tag_228\n      jumpi\n      0x40\n      dup1\n      mload\n      shl(0xe5, 0x461bcd)\n      dup2\n      mstore\n      0x20\n      0x04\n      dup3\n      add\n      mstore\n      0x0c\n      0x24\n      dup3\n      add\n      mstore\n      shl(0xa1, 0x213637b1b5b2b2103ab9b2b9)\n      0x44\n      dup3\n      add\n      mstore\n      swap1\n      mload\n      swap1\n      dup2\n      swap1\n      sub\n      0x64\n      add\n      swap1\n      revert\n    tag_228:\n        /* \"contracts/4_SmartGTFX.sol\":21361:21487  _approve(_msgSender(), spender, _allowances[_msgSender()][spender].sub(subtractedValue, \"The decreased allowance below zero\")) */\n      tag_143\n        /* \"contracts/4_SmartGTFX.sol\":21370:21382  _msgSender() */\n      tag_231\n        /* \"contracts/4_SmartGTFX.sol\":21370:21380  _msgSender */\n      tag_145\n        /* \"contracts/4_SmartGTFX.sol\":21370:21382  _msgSender() */\n      jump\t// in\n    tag_231:\n        /* \"contracts/4_SmartGTFX.sol\":21384:21391  spender */\n      dup5\n        /* \"contracts/4_SmartGTFX.sol\":21393:21486  _allowances[_msgSender()][spender].sub(subtractedValue, \"The decreased allowance below zero\") */\n      tag_158\n        /* \"contracts/4_SmartGTFX.sol\":21432:21447  subtractedValue */\n      dup6\n        /* \"contracts/4_SmartGTFX.sol\":21393:21486  _allowances[_msgSender()][spender].sub(subtractedValue, \"The decreased allowance below zero\") */\n      mload(0x40)\n      dup1\n      0x60\n      add\n      0x40\n      mstore\n      dup1\n      0x22\n      dup2\n      mstore\n      0x20\n      add\n      data_42d9a8e134af3312daacac2d2003d2e3a900f5f05eb0de35b651f1e9ce1c4e5b\n      0x22\n      swap2\n      codecopy\n        /* \"contracts/4_SmartGTFX.sol\":21393:21404  _allowances */\n      0x03\n        /* \"contracts/4_SmartGTFX.sol\":21393:21418  _allowances[_msgSender()] */\n      0x00\n        /* \"contracts/4_SmartGTFX.sol\":21405:21417  _msgSender() */\n      tag_233\n        /* \"contracts/4_SmartGTFX.sol\":21405:21415  _msgSender */\n      tag_145\n        /* \"contracts/4_SmartGTFX.sol\":21405:21417  _msgSender() */\n      jump\t// in\n    tag_233:\n      sub(shl(0xa0, 0x01), 0x01)\n        /* \"contracts/4_SmartGTFX.sol\":21393:21418  _allowances[_msgSender()] */\n      swap1\n      dup2\n      and\n      dup3\n      mstore\n      0x20\n      dup1\n      dup4\n      add\n      swap4\n      swap1\n      swap4\n      mstore\n      0x40\n      swap2\n      dup3\n      add\n      0x00\n      swap1\n      dup2\n      keccak256\n        /* \"contracts/4_SmartGTFX.sol\":21393:21427  _allowances[_msgSender()][spender] */\n      swap2\n      dup14\n      and\n      dup2\n      mstore\n      swap3\n      mstore\n      swap1\n      keccak256\n      sload\n      swap2\n        /* \"contracts/4_SmartGTFX.sol\":21393:21486  _allowances[_msgSender()][spender].sub(subtractedValue, \"The decreased allowance below zero\") */\n      swap1\n      0xffffffff\n        /* \"contracts/4_SmartGTFX.sol\":21393:21431  _allowances[_msgSender()][spender].sub */\n      tag_159\n        /* \"contracts/4_SmartGTFX.sol\":21393:21486  _allowances[_msgSender()][spender].sub(subtractedValue, \"The decreased allowance below zero\") */\n      and\n      jump\t// in\n        /* \"contracts/4_SmartGTFX.sol\":17536:17719  function transfer(address recipient, uint256 amount) external validLock permissionCheck returns (bool) {... */\n    tag_104:\n        /* \"contracts/4_SmartGTFX.sol\":17633:17637  bool */\n      0x00\n        /* \"contracts/4_SmartGTFX.sol\":12078:12086  isLocked */\n      dup1\n      sload\n      shl(0xa0, 0x01)\n      swap1\n      div\n      0xff\n      and\n        /* \"contracts/4_SmartGTFX.sol\":12078:12091  isLocked == 0 */\n      iszero\n        /* \"contracts/4_SmartGTFX.sol\":12070:12111  require(isLocked == 0, \"Token is locked\") */\n      tag_235\n      jumpi\n      0x40\n      dup1\n      mload\n      shl(0xe5, 0x461bcd)\n      dup2\n      mstore\n      0x20\n      0x04\n      dup3\n      add\n      mstore\n      0x0f\n      0x24\n      dup3\n      add\n      mstore\n      shl(0x8a, 0x151bdad95b881a5cc81b1bd8dad959)\n      0x44\n      dup3\n      add\n      mstore\n      swap1\n      mload\n      swap1\n      dup2\n      swap1\n      sub\n      0x64\n      add\n      swap1\n      revert\n    tag_235:\n        /* \"contracts/4_SmartGTFX.sol\":13162:13172  msg.sender */\n      caller\n        /* \"contracts/4_SmartGTFX.sol\":13152:13173  blacklist[msg.sender] */\n      0x00\n      swap1\n      dup2\n      mstore\n        /* \"contracts/4_SmartGTFX.sol\":13152:13161  blacklist */\n      0x01\n        /* \"contracts/4_SmartGTFX.sol\":13152:13173  blacklist[msg.sender] */\n      0x20\n      mstore\n      0x40\n      swap1\n      keccak256\n      sload\n      0xff\n      and\n        /* \"contracts/4_SmartGTFX.sol\":13151:13173  !blacklist[msg.sender] */\n      iszero\n        /* \"contracts/4_SmartGTFX.sol\":13143:13190  require(!blacklist[msg.sender], \"Blocked user\") */\n      tag_237\n      jumpi\n      0x40\n      dup1\n      mload\n      shl(0xe5, 0x461bcd)\n      dup2\n      mstore\n      0x20\n      0x04\n      dup3\n      add\n      mstore\n      0x0c\n      0x24\n      dup3\n      add\n      mstore\n      shl(0xa1, 0x213637b1b5b2b2103ab9b2b9)\n      0x44\n      dup3\n      add\n      mstore\n      swap1\n      mload\n      swap1\n      dup2\n      swap1\n      sub\n      0x64\n      add\n      swap1\n      revert\n    tag_237:\n        /* \"contracts/4_SmartGTFX.sol\":17649:17691  _transfer(_msgSender(), recipient, amount) */\n      tag_143\n        /* \"contracts/4_SmartGTFX.sol\":17659:17671  _msgSender() */\n      tag_240\n        /* \"contracts/4_SmartGTFX.sol\":17659:17669  _msgSender */\n      tag_145\n        /* \"contracts/4_SmartGTFX.sol\":17659:17671  _msgSender() */\n      jump\t// in\n    tag_240:\n        /* \"contracts/4_SmartGTFX.sol\":17673:17682  recipient */\n      dup5\n        /* \"contracts/4_SmartGTFX.sol\":17684:17690  amount */\n      dup5\n        /* \"contracts/4_SmartGTFX.sol\":17649:17658  _transfer */\n      tag_154\n        /* \"contracts/4_SmartGTFX.sol\":17649:17691  _transfer(_msgSender(), recipient, amount) */\n      jump\t// in\n        /* \"contracts/4_SmartGTFX.sol\":23553:23780  function getCurrentVotes(address account) external view returns (uint96) {... */\n    tag_107:\n      sub(shl(0xa0, 0x01), 0x01)\n        /* \"contracts/4_SmartGTFX.sol\":23658:23681  numCheckpoints[account] */\n      dup2\n      and\n        /* \"contracts/4_SmartGTFX.sol\":23618:23624  uint96 */\n      0x00\n        /* \"contracts/4_SmartGTFX.sol\":23658:23681  numCheckpoints[account] */\n      swap1\n      dup2\n      mstore\n        /* \"contracts/4_SmartGTFX.sol\":23658:23672  numCheckpoints */\n      0x0a\n        /* \"contracts/4_SmartGTFX.sol\":23658:23681  numCheckpoints[account] */\n      0x20\n      mstore\n      0x40\n      dup2\n      keccak256\n      sload\n      0xffffffff\n      and\n        /* \"contracts/4_SmartGTFX.sol\":23698:23714  nCheckpoints > 0 */\n      dup1\n        /* \"contracts/4_SmartGTFX.sol\":23698:23773  nCheckpoints > 0 ? ceil96(checkpoints[account][nCheckpoints - 1].votes) : 0 */\n      tag_242\n      jumpi\n        /* \"contracts/4_SmartGTFX.sol\":23772:23773  0 */\n      0x00\n        /* \"contracts/4_SmartGTFX.sol\":23698:23773  nCheckpoints > 0 ? ceil96(checkpoints[account][nCheckpoints - 1].votes) : 0 */\n      jump(tag_244)\n    tag_242:\n      sub(shl(0xa0, 0x01), 0x01)\n        /* \"contracts/4_SmartGTFX.sol\":23724:23744  checkpoints[account] */\n      dup4\n      and\n      0x00\n      swap1\n      dup2\n      mstore\n        /* \"contracts/4_SmartGTFX.sol\":23724:23735  checkpoints */\n      0x09\n        /* \"contracts/4_SmartGTFX.sol\":23724:23744  checkpoints[account] */\n      0x20\n      swap1\n      dup2\n      mstore\n      0x40\n      dup1\n      dup4\n      keccak256\n        /* \"contracts/4_SmartGTFX.sol\":23724:23762  checkpoints[account][nCheckpoints - 1] */\n      0xffffffff\n      not(0x00)\n        /* \"contracts/4_SmartGTFX.sol\":23745:23761  nCheckpoints - 1 */\n      dup7\n      add\n        /* \"contracts/4_SmartGTFX.sol\":23724:23762  checkpoints[account][nCheckpoints - 1] */\n      and\n      dup5\n      mstore\n      swap1\n      swap2\n      mstore\n      swap1\n      keccak256\n        /* \"contracts/4_SmartGTFX.sol\":23760:23761  1 */\n      0x01\n        /* \"contracts/4_SmartGTFX.sol\":23724:23768  checkpoints[account][nCheckpoints - 1].votes */\n      add\n      sload\n        /* \"contracts/4_SmartGTFX.sol\":23717:23769  ceil96(checkpoints[account][nCheckpoints - 1].votes) */\n      tag_244\n      swap1\n        /* \"contracts/4_SmartGTFX.sol\":23717:23723  ceil96 */\n      tag_205\n        /* \"contracts/4_SmartGTFX.sol\":23717:23769  ceil96(checkpoints[account][nCheckpoints - 1].votes) */\n      jump\t// in\n    tag_244:\n        /* \"contracts/4_SmartGTFX.sol\":23691:23773  return nCheckpoints > 0 ? ceil96(checkpoints[account][nCheckpoints - 1].votes) : 0 */\n      swap4\n        /* \"contracts/4_SmartGTFX.sol\":23553:23780  function getCurrentVotes(address account) external view returns (uint96) {... */\n      swap3\n      pop\n      pop\n      pop\n      jump\t// out\n        /* \"contracts/4_SmartGTFX.sol\":13347:13475  function unlockUser(address who) public onlyOwner {... */\n    tag_110:\n        /* \"contracts/4_SmartGTFX.sol\":7952:7964  _msgSender() */\n      tag_246\n        /* \"contracts/4_SmartGTFX.sol\":7952:7962  _msgSender */\n      tag_145\n        /* \"contracts/4_SmartGTFX.sol\":7952:7964  _msgSender() */\n      jump\t// in\n    tag_246:\n        /* \"contracts/4_SmartGTFX.sol\":7942:7948  _owner */\n      sload(0x00)\n      sub(shl(0xa0, 0x01), 0x01)\n      swap1\n      dup2\n      and\n        /* \"contracts/4_SmartGTFX.sol\":7942:7964  _owner == _msgSender() */\n      swap2\n      and\n      eq\n        /* \"contracts/4_SmartGTFX.sol\":7934:8001  require(_owner == _msgSender(), \"Ownable: caller is not the owner\") */\n      tag_247\n      jumpi\n      0x40\n      dup1\n      mload\n      shl(0xe5, 0x461bcd)\n      dup2\n      mstore\n      0x20\n      0x04\n      dup3\n      add\n      dup2\n      swap1\n      mstore\n      0x24\n      dup3\n      add\n      mstore\n      0x00\n      dup1\n      mload\n      0x20\n      data_9924ebdf1add33d25d4ef888e16131f0a5687b0580a36c21b5c301a6c462effe\n      dup4\n      codecopy\n      dup2\n      mload\n      swap2\n      mstore\n      0x44\n      dup3\n      add\n      mstore\n      swap1\n      mload\n      swap1\n      dup2\n      swap1\n      sub\n      0x64\n      add\n      swap1\n      revert\n    tag_247:\n      sub(shl(0xa0, 0x01), 0x01)\n        /* \"contracts/4_SmartGTFX.sol\":13407:13421  blacklist[who] */\n      dup2\n      and\n        /* \"contracts/4_SmartGTFX.sol\":13424:13429  false */\n      0x00\n        /* \"contracts/4_SmartGTFX.sol\":13407:13421  blacklist[who] */\n      dup2\n      dup2\n      mstore\n        /* \"contracts/4_SmartGTFX.sol\":13407:13416  blacklist */\n      0x01\n        /* \"contracts/4_SmartGTFX.sol\":13407:13421  blacklist[who] */\n      0x20\n      mstore\n      0x40\n      dup1\n      dup3\n      keccak256\n        /* \"contracts/4_SmartGTFX.sol\":13407:13429  blacklist[who] = false */\n      dup1\n      sload\n      not(0xff)\n      and\n      swap1\n      sstore\n        /* \"contracts/4_SmartGTFX.sol\":13453:13468  UnlockUser(who) */\n      mload\n      0x687691c08a3e67a160ba20a32cb1c56791955f12c5ff5d5fcf62bc456ad79ea1\n      swap2\n        /* \"contracts/4_SmartGTFX.sol\":13424:13429  false */\n      swap1\n        /* \"contracts/4_SmartGTFX.sol\":13453:13468  UnlockUser(who) */\n      log2\n        /* \"contracts/4_SmartGTFX.sol\":13347:13475  function unlockUser(address who) public onlyOwner {... */\n      pop\n      jump\t// out\n        /* \"contracts/4_SmartGTFX.sol\":22605:23359  function delegateBySig(address delegatee, uint256 nonce, uint256 expiry, uint8 v, bytes32 r, bytes32 s) public validLock permissionCheck {... */\n    tag_113:\n        /* \"contracts/4_SmartGTFX.sol\":12078:12086  isLocked */\n      sload(0x00)\n      shl(0xa0, 0x01)\n      swap1\n      div\n      0xff\n      and\n        /* \"contracts/4_SmartGTFX.sol\":12078:12091  isLocked == 0 */\n      iszero\n        /* \"contracts/4_SmartGTFX.sol\":12070:12111  require(isLocked == 0, \"Token is locked\") */\n      tag_250\n      jumpi\n      0x40\n      dup1\n      mload\n      shl(0xe5, 0x461bcd)\n      dup2\n      mstore\n      0x20\n      0x04\n      dup3\n      add\n      mstore\n      0x0f\n      0x24\n      dup3\n      add\n      mstore\n      shl(0x8a, 0x151bdad95b881a5cc81b1bd8dad959)\n      0x44\n      dup3\n      add\n      mstore\n      swap1\n      mload\n      swap1\n      dup2\n      swap1\n      sub\n      0x64\n      add\n      swap1\n      revert\n    tag_250:\n        /* \"contracts/4_SmartGTFX.sol\":13162:13172  msg.sender */\n      caller\n        /* \"contracts/4_SmartGTFX.sol\":13152:13173  blacklist[msg.sender] */\n      0x00\n      swap1\n      dup2\n      mstore\n        /* \"contracts/4_SmartGTFX.sol\":13152:13161  blacklist */\n      0x01\n        /* \"contracts/4_SmartGTFX.sol\":13152:13173  blacklist[msg.sender] */\n      0x20\n      mstore\n      0x40\n      swap1\n      keccak256\n      sload\n      0xff\n      and\n        /* \"contracts/4_SmartGTFX.sol\":13151:13173  !blacklist[msg.sender] */\n      iszero\n        /* \"contracts/4_SmartGTFX.sol\":13143:13190  require(!blacklist[msg.sender], \"Blocked user\") */\n      tag_252\n      jumpi\n      0x40\n      dup1\n      mload\n      shl(0xe5, 0x461bcd)\n      dup2\n      mstore\n      0x20\n      0x04\n      dup3\n      add\n      mstore\n      0x0c\n      0x24\n      dup3\n      add\n      mstore\n      shl(0xa1, 0x213637b1b5b2b2103ab9b2b9)\n      0x44\n      dup3\n      add\n      mstore\n      swap1\n      mload\n      swap1\n      dup2\n      swap1\n      sub\n      0x64\n      add\n      swap1\n      revert\n    tag_252:\n        /* \"contracts/4_SmartGTFX.sol\":22752:22775  bytes32 domainSeparator */\n      0x00\n        /* \"contracts/4_SmartGTFX.sol\":14778:14858  keccak256(\"EIP712Domain(string name,uint256 chainId,address verifyingContract)\") */\n      mload(0x40)\n      dup1\n      dup1\n      data_8cad95687ba82c2ce50e74f7b754645e5117c3a5bec8151c0726d5857980a866\n      0x43\n      swap2\n      codecopy\n      0x43\n      add\n      swap1\n      pop\n      mload(0x40)\n      dup1\n      swap2\n      sub\n      swap1\n      keccak256\n        /* \"contracts/4_SmartGTFX.sol\":22832:22837  _name */\n      0x07\n        /* \"contracts/4_SmartGTFX.sol\":22816:22839  keccak256(bytes(_name)) */\n      mload(0x40)\n      dup1\n      dup3\n      dup1\n      sload\n      0x01\n      dup2\n      0x01\n      and\n      iszero\n      0x0100\n      mul\n      sub\n      and\n      0x02\n      swap1\n      div\n      dup1\n      iszero\n      tag_254\n      jumpi\n      dup1\n      0x1f\n      lt\n      tag_255\n      jumpi\n      0x0100\n      dup1\n      dup4\n      sload\n      div\n      mul\n      dup4\n      mstore\n      swap2\n      dup3\n      add\n      swap2\n      jump(tag_254)\n    tag_255:\n      dup3\n      add\n      swap2\n      swap1\n      0x00\n      mstore\n      keccak256(0x00, 0x20)\n      swap1\n    tag_256:\n      dup2\n      sload\n      dup2\n      mstore\n      swap1\n      0x01\n      add\n      swap1\n      0x20\n      add\n      dup1\n      dup4\n      gt\n      tag_256\n      jumpi\n    tag_254:\n      pop\n      pop\n      swap2\n      pop\n      pop\n      mload(0x40)\n      dup1\n      swap2\n      sub\n      swap1\n      keccak256\n        /* \"contracts/4_SmartGTFX.sol\":22841:22853  getChainId() */\n      tag_257\n        /* \"contracts/4_SmartGTFX.sol\":22841:22851  getChainId */\n      tag_258\n        /* \"contracts/4_SmartGTFX.sol\":22841:22853  getChainId() */\n      jump\t// in\n    tag_257:\n        /* \"contracts/4_SmartGTFX.sol\":22863:22867  this */\n      address\n        /* \"contracts/4_SmartGTFX.sol\":22788:22869  abi.encode(DOMAIN_TYPEHASH, keccak256(bytes(_name)), getChainId(), address(this)) */\n      add(0x20, mload(0x40))\n      dup1\n      dup6\n      dup2\n      mstore\n      0x20\n      add\n      dup5\n      dup2\n      mstore\n      0x20\n      add\n      dup4\n      dup2\n      mstore\n      0x20\n      add\n      dup3\n      sub(shl(0xa0, 0x01), 0x01)\n      and\n      sub(shl(0xa0, 0x01), 0x01)\n      and\n      dup2\n      mstore\n      0x20\n      add\n      swap5\n      pop\n      pop\n      pop\n      pop\n      pop\n      mload(0x40)\n        /* \"--CODEGEN--\":49:53   */\n      0x20\n        /* \"--CODEGEN--\":39:46   */\n      dup2\n        /* \"--CODEGEN--\":30:37   */\n      dup4\n        /* \"--CODEGEN--\":26:47   */\n      sub\n        /* \"--CODEGEN--\":22:54   */\n      sub\n        /* \"--CODEGEN--\":13:20   */\n      dup2\n        /* \"--CODEGEN--\":6:55   */\n      mstore\n        /* \"contracts/4_SmartGTFX.sol\":22788:22869  abi.encode(DOMAIN_TYPEHASH, keccak256(bytes(_name)), getChainId(), address(this)) */\n      swap1\n      0x40\n      mstore\n        /* \"contracts/4_SmartGTFX.sol\":22778:22870  keccak256(abi.encode(DOMAIN_TYPEHASH, keccak256(bytes(_name)), getChainId(), address(this))) */\n      dup1\n      mload\n      swap1\n      0x20\n      add\n      keccak256\n        /* \"contracts/4_SmartGTFX.sol\":22752:22870  bytes32 domainSeparator = keccak256(abi.encode(DOMAIN_TYPEHASH, keccak256(bytes(_name)), getChainId(), address(this))) */\n      swap1\n      pop\n        /* \"contracts/4_SmartGTFX.sol\":22880:22898  bytes32 structHash */\n      0x00\n        /* \"contracts/4_SmartGTFX.sol\":14995:15066  keccak256(\"Delegation(address delegatee,uint256 nonce,uint256 expiry)\") */\n      mload(0x40)\n      dup1\n      dup1\n      data_e48329057bfd03d55e49b547132e39cffd9c1820ad7b9d4c5307691425d15adf\n      0x3a\n      swap2\n      codecopy\n      0x40\n      dup1\n      mload\n      swap2\n      dup3\n      swap1\n      sub\n      0x3a\n      add\n      dup3\n      keccak256\n        /* \"contracts/4_SmartGTFX.sol\":22911:22968  abi.encode(DELEGATION_TYPEHASH, delegatee, nonce, expiry) */\n      0x20\n      dup1\n      dup5\n      add\n      swap2\n      swap1\n      swap2\n      mstore\n      sub(shl(0xa0, 0x01), 0x01)\n      dup13\n      and\n      dup4\n      dup4\n      add\n      mstore\n      0x60\n      dup4\n      add\n      dup12\n      swap1\n      mstore\n      0x80\n      dup1\n      dup5\n      add\n      dup12\n      swap1\n      mstore\n      dup3\n      mload\n        /* \"--CODEGEN--\":26:47   */\n      dup1\n      dup6\n      sub\n        /* \"--CODEGEN--\":22:54   */\n      swap1\n      swap2\n      add\n        /* \"--CODEGEN--\":6:55   */\n      dup2\n      mstore\n        /* \"contracts/4_SmartGTFX.sol\":22911:22968  abi.encode(DELEGATION_TYPEHASH, delegatee, nonce, expiry) */\n      0xa0\n      dup5\n      add\n      dup4\n      mstore\n        /* \"contracts/4_SmartGTFX.sol\":22901:22969  keccak256(abi.encode(DELEGATION_TYPEHASH, delegatee, nonce, expiry)) */\n      dup1\n      mload\n      swap1\n      dup3\n      add\n      keccak256\n      shl(0xf0, 0x1901)\n        /* \"contracts/4_SmartGTFX.sol\":23006:23063  abi.encodePacked(\"\\x19\\x01\", domainSeparator, structHash) */\n      0xc0\n      dup6\n      add\n      mstore\n      0xc2\n      dup5\n      add\n      dup8\n      swap1\n      mstore\n      0xe2\n      dup1\n      dup6\n      add\n      dup3\n      swap1\n      mstore\n      dup4\n      mload\n        /* \"--CODEGEN--\":26:47   */\n      dup1\n      dup7\n      sub\n        /* \"--CODEGEN--\":22:54   */\n      swap1\n      swap2\n      add\n        /* \"--CODEGEN--\":6:55   */\n      dup2\n      mstore\n        /* \"contracts/4_SmartGTFX.sol\":23006:23063  abi.encodePacked(\"\\x19\\x01\", domainSeparator, structHash) */\n      0x0102\n      dup6\n      add\n      dup1\n      dup6\n      mstore\n        /* \"contracts/4_SmartGTFX.sol\":22996:23064  keccak256(abi.encodePacked(\"\\x19\\x01\", domainSeparator, structHash)) */\n      dup2\n      mload\n      swap2\n      dup5\n      add\n      swap2\n      swap1\n      swap2\n      keccak256\n      0x00\n        /* \"contracts/4_SmartGTFX.sol\":23094:23120  ecrecover(digest, v, r, s) */\n      swap2\n      dup3\n      swap1\n      mstore\n      0x0122\n      dup7\n      add\n      dup1\n      dup7\n      mstore\n      dup2\n      swap1\n      mstore\n      0xff\n      dup13\n      and\n      0x0142\n      dup8\n      add\n      mstore\n      0x0162\n      dup7\n      add\n      dup12\n      swap1\n      mstore\n      0x0182\n      dup7\n      add\n      dup11\n      swap1\n      mstore\n      swap4\n      mload\n        /* \"contracts/4_SmartGTFX.sol\":22901:22969  keccak256(abi.encode(DELEGATION_TYPEHASH, delegatee, nonce, expiry)) */\n      swap2\n      swap7\n      pop\n        /* \"contracts/4_SmartGTFX.sol\":22996:23064  keccak256(abi.encodePacked(\"\\x19\\x01\", domainSeparator, structHash)) */\n      swap3\n      swap5\n      pop\n      swap2\n      swap3\n        /* \"contracts/4_SmartGTFX.sol\":23094:23120  ecrecover(digest, v, r, s) */\n      0x01\n      swap3\n      0x01a2\n      dup1\n      dup4\n      add\n      swap4\n        /* \"contracts/4_SmartGTFX.sol\":22911:22968  abi.encode(DELEGATION_TYPEHASH, delegatee, nonce, expiry) */\n      swap3\n      not(0x1f)\n        /* \"contracts/4_SmartGTFX.sol\":23094:23120  ecrecover(digest, v, r, s) */\n      dup4\n      add\n      swap3\n      swap1\n      dup2\n      swap1\n      sub\n      swap1\n      swap2\n      add\n      swap1\n      dup6\n      gas\n      staticcall\n      iszero\n        /* \"--CODEGEN--\":8:17   */\n      dup1\n        /* \"--CODEGEN--\":5:7   */\n      iszero\n      tag_259\n      jumpi\n        /* \"--CODEGEN--\":45:61   */\n      returndatasize\n        /* \"--CODEGEN--\":42:43   */\n      0x00\n        /* \"--CODEGEN--\":39:40   */\n      dup1\n        /* \"--CODEGEN--\":24:62   */\n      returndatacopy\n        /* \"--CODEGEN--\":77:93   */\n      returndatasize\n        /* \"--CODEGEN--\":74:75   */\n      0x00\n        /* \"--CODEGEN--\":67:94   */\n      revert\n        /* \"--CODEGEN--\":5:7   */\n    tag_259:\n      pop\n      pop\n        /* \"contracts/4_SmartGTFX.sol\":23094:23120  ecrecover(digest, v, r, s) */\n      mload(add(not(0x1f), mload(0x40)))\n      swap2\n      pop\n      pop\n      sub(shl(0xa0, 0x01), 0x01)\n        /* \"contracts/4_SmartGTFX.sol\":23138:23161  signatory != address(0) */\n      dup2\n      and\n        /* \"contracts/4_SmartGTFX.sol\":23130:23183  require(signatory != address(0), \"Invalid signature\") */\n      tag_260\n      jumpi\n      0x40\n      dup1\n      mload\n      shl(0xe5, 0x461bcd)\n      dup2\n      mstore\n      0x20\n      0x04\n      dup3\n      add\n      mstore\n      0x11\n      0x24\n      dup3\n      add\n      mstore\n      shl(0x78, 0x496e76616c6964207369676e6174757265)\n      0x44\n      dup3\n      add\n      mstore\n      swap1\n      mload\n      swap1\n      dup2\n      swap1\n      sub\n      0x64\n      add\n      swap1\n      revert\n    tag_260:\n      sub(shl(0xa0, 0x01), 0x01)\n        /* \"contracts/4_SmartGTFX.sol\":23210:23227  nonces[signatory] */\n      dup2\n      and\n      0x00\n      swap1\n      dup2\n      mstore\n        /* \"contracts/4_SmartGTFX.sol\":23210:23216  nonces */\n      0x0b\n        /* \"contracts/4_SmartGTFX.sol\":23210:23227  nonces[signatory] */\n      0x20\n      mstore\n      0x40\n      swap1\n      keccak256\n        /* \"contracts/4_SmartGTFX.sol\":23210:23229  nonces[signatory]++ */\n      dup1\n      sload\n      0x01\n      dup2\n      add\n      swap1\n      swap2\n      sstore\n        /* \"contracts/4_SmartGTFX.sol\":23201:23229  nonce == nonces[signatory]++ */\n      dup10\n      eq\n        /* \"contracts/4_SmartGTFX.sol\":23193:23247  require(nonce == nonces[signatory]++, \"Invalid nonce\") */\n      tag_261\n      jumpi\n      0x40\n      dup1\n      mload\n      shl(0xe5, 0x461bcd)\n      dup2\n      mstore\n      0x20\n      0x04\n      dup3\n      add\n      mstore\n      0x0d\n      0x24\n      dup3\n      add\n      mstore\n      shl(0x98, 0x496e76616c6964206e6f6e6365)\n      0x44\n      dup3\n      add\n      mstore\n      swap1\n      mload\n      swap1\n      dup2\n      swap1\n      sub\n      0x64\n      add\n      swap1\n      revert\n    tag_261:\n        /* \"contracts/4_SmartGTFX.sol\":23272:23278  expiry */\n      dup8\n        /* \"contracts/4_SmartGTFX.sol\":23265:23268  now */\n      timestamp\n        /* \"contracts/4_SmartGTFX.sol\":23265:23278  now <= expiry */\n      gt\n      iszero\n        /* \"contracts/4_SmartGTFX.sol\":23257:23304  require(now <= expiry, \"The signature expired\") */\n      tag_262\n      jumpi\n      0x40\n      dup1\n      mload\n      shl(0xe5, 0x461bcd)\n      dup2\n      mstore\n      0x20\n      0x04\n      dup3\n      add\n      mstore\n      0x15\n      0x24\n      dup3\n      add\n      mstore\n      shl(0x5a, 0x151a19481cda59db985d1d5c9948195e1c1a5c9959)\n      0x44\n      dup3\n      add\n      mstore\n      swap1\n      mload\n      swap1\n      dup2\n      swap1\n      sub\n      0x64\n      add\n      swap1\n      revert\n    tag_262:\n        /* \"contracts/4_SmartGTFX.sol\":23321:23352  _delegate(signatory, delegatee) */\n      tag_263\n        /* \"contracts/4_SmartGTFX.sol\":23331:23340  signatory */\n      dup2\n        /* \"contracts/4_SmartGTFX.sol\":23342:23351  delegatee */\n      dup12\n        /* \"contracts/4_SmartGTFX.sol\":23321:23330  _delegate */\n      tag_186\n        /* \"contracts/4_SmartGTFX.sol\":23321:23352  _delegate(signatory, delegatee) */\n      jump\t// in\n    tag_263:\n        /* \"contracts/4_SmartGTFX.sol\":23314:23352  return _delegate(signatory, delegatee) */\n      pop\n      pop\n      pop\n      pop\n        /* \"contracts/4_SmartGTFX.sol\":13200:13201  _ */\n    tag_253:\n        /* \"contracts/4_SmartGTFX.sol\":22605:23359  function delegateBySig(address delegatee, uint256 nonce, uint256 expiry, uint8 v, bytes32 r, bytes32 s) public validLock permissionCheck {... */\n      pop\n      pop\n      pop\n      pop\n      pop\n      pop\n      jump\t// out\n        /* \"contracts/4_SmartGTFX.sol\":18977:19278  function approveAndCall(address spender, uint256 amount, bytes memory data) public validLock permissionCheck returns (bool) {... */\n    tag_119:\n        /* \"contracts/4_SmartGTFX.sol\":19095:19099  bool */\n      0x00\n        /* \"contracts/4_SmartGTFX.sol\":12078:12086  isLocked */\n      dup1\n      sload\n      shl(0xa0, 0x01)\n      swap1\n      div\n      0xff\n      and\n        /* \"contracts/4_SmartGTFX.sol\":12078:12091  isLocked == 0 */\n      iszero\n        /* \"contracts/4_SmartGTFX.sol\":12070:12111  require(isLocked == 0, \"Token is locked\") */\n      tag_265\n      jumpi\n      0x40\n      dup1\n      mload\n      shl(0xe5, 0x461bcd)\n      dup2\n      mstore\n      0x20\n      0x04\n      dup3\n      add\n      mstore\n      0x0f\n      0x24\n      dup3\n      add\n      mstore\n      shl(0x8a, 0x151bdad95b881a5cc81b1bd8dad959)\n      0x44\n      dup3\n      add\n      mstore\n      swap1\n      mload\n      swap1\n      dup2\n      swap1\n      sub\n      0x64\n      add\n      swap1\n      revert\n    tag_265:\n        /* \"contracts/4_SmartGTFX.sol\":13162:13172  msg.sender */\n      caller\n        /* \"contracts/4_SmartGTFX.sol\":13152:13173  blacklist[msg.sender] */\n      0x00\n      swap1\n      dup2\n      mstore\n        /* \"contracts/4_SmartGTFX.sol\":13152:13161  blacklist */\n      0x01\n        /* \"contracts/4_SmartGTFX.sol\":13152:13173  blacklist[msg.sender] */\n      0x20\n      mstore\n      0x40\n      swap1\n      keccak256\n      sload\n      0xff\n      and\n        /* \"contracts/4_SmartGTFX.sol\":13151:13173  !blacklist[msg.sender] */\n      iszero\n        /* \"contracts/4_SmartGTFX.sol\":13143:13190  require(!blacklist[msg.sender], \"Blocked user\") */\n      tag_267\n      jumpi\n      0x40\n      dup1\n      mload\n      shl(0xe5, 0x461bcd)\n      dup2\n      mstore\n      0x20\n      0x04\n      dup3\n      add\n      mstore\n      0x0c\n      0x24\n      dup3\n      add\n      mstore\n      shl(0xa1, 0x213637b1b5b2b2103ab9b2b9)\n      0x44\n      dup3\n      add\n      mstore\n      swap1\n      mload\n      swap1\n      dup2\n      swap1\n      sub\n      0x64\n      add\n      swap1\n      revert\n    tag_267:\n        /* \"contracts/4_SmartGTFX.sol\":19111:19150  _approve(_msgSender(), spender, amount) */\n      tag_269\n        /* \"contracts/4_SmartGTFX.sol\":19120:19132  _msgSender() */\n      tag_270\n        /* \"contracts/4_SmartGTFX.sol\":19120:19130  _msgSender */\n      tag_145\n        /* \"contracts/4_SmartGTFX.sol\":19120:19132  _msgSender() */\n      jump\t// in\n    tag_270:\n        /* \"contracts/4_SmartGTFX.sol\":19134:19141  spender */\n      dup6\n        /* \"contracts/4_SmartGTFX.sol\":19143:19149  amount */\n      dup6\n        /* \"contracts/4_SmartGTFX.sol\":19111:19119  _approve */\n      tag_146\n        /* \"contracts/4_SmartGTFX.sol\":19111:19150  _approve(_msgSender(), spender, amount) */\n      jump\t// in\n    tag_269:\n        /* \"contracts/4_SmartGTFX.sol\":19183:19190  spender */\n      dup4\n      sub(shl(0xa0, 0x01), 0x01)\n        /* \"contracts/4_SmartGTFX.sol\":19160:19207  ApproveAndCallFallBack(spender).receiveApproval */\n      and\n      0x8f4ffcb1\n        /* \"contracts/4_SmartGTFX.sol\":19208:19220  _msgSender() */\n      tag_271\n        /* \"contracts/4_SmartGTFX.sol\":19208:19218  _msgSender */\n      tag_145\n        /* \"contracts/4_SmartGTFX.sol\":19208:19220  _msgSender() */\n      jump\t// in\n    tag_271:\n        /* \"contracts/4_SmartGTFX.sol\":19222:19228  amount */\n      dup6\n        /* \"contracts/4_SmartGTFX.sol\":19238:19242  this */\n      address\n        /* \"contracts/4_SmartGTFX.sol\":19245:19249  data */\n      dup7\n        /* \"contracts/4_SmartGTFX.sol\":19160:19250  ApproveAndCallFallBack(spender).receiveApproval(_msgSender(), amount, address(this), data) */\n      mload(0x40)\n      dup6\n      0xffffffff\n      and\n      0xe0\n      shl\n      dup2\n      mstore\n      0x04\n      add\n      dup1\n      dup6\n      sub(shl(0xa0, 0x01), 0x01)\n      and\n      sub(shl(0xa0, 0x01), 0x01)\n      and\n      dup2\n      mstore\n      0x20\n      add\n      dup5\n      dup2\n      mstore\n      0x20\n      add\n      dup4\n      sub(shl(0xa0, 0x01), 0x01)\n      and\n      sub(shl(0xa0, 0x01), 0x01)\n      and\n      dup2\n      mstore\n      0x20\n      add\n      dup1\n      0x20\n      add\n      dup3\n      dup2\n      sub\n      dup3\n      mstore\n      dup4\n      dup2\n      dup2\n      mload\n      dup2\n      mstore\n      0x20\n      add\n      swap2\n      pop\n      dup1\n      mload\n      swap1\n      0x20\n      add\n      swap1\n      dup1\n      dup4\n      dup4\n        /* \"--CODEGEN--\":23:24   */\n      0x00\n        /* \"--CODEGEN--\":8:108   */\n    tag_272:\n        /* \"--CODEGEN--\":33:36   */\n      dup4\n        /* \"--CODEGEN--\":30:31   */\n      dup2\n        /* \"--CODEGEN--\":27:37   */\n      lt\n        /* \"--CODEGEN--\":8:108   */\n      iszero\n      tag_274\n      jumpi\n        /* \"--CODEGEN--\":90:101   */\n      dup2\n      dup2\n      add\n        /* \"--CODEGEN--\":84:102   */\n      mload\n        /* \"--CODEGEN--\":71:82   */\n      dup4\n      dup3\n      add\n        /* \"--CODEGEN--\":64:103   */\n      mstore\n        /* \"--CODEGEN--\":52:54   */\n      0x20\n        /* \"--CODEGEN--\":45:55   */\n      add\n        /* \"--CODEGEN--\":8:108   */\n      jump(tag_272)\n    tag_274:\n        /* \"--CODEGEN--\":12:26   */\n      pop\n        /* \"contracts/4_SmartGTFX.sol\":19160:19250  ApproveAndCallFallBack(spender).receiveApproval(_msgSender(), amount, address(this), data) */\n      pop\n      pop\n      pop\n      swap1\n      pop\n      swap1\n      dup2\n      add\n      swap1\n      0x1f\n      and\n      dup1\n      iszero\n      tag_275\n      jumpi\n      dup1\n      dup3\n      sub\n      dup1\n      mload\n      0x01\n      dup4\n      0x20\n      sub\n      0x0100\n      exp\n      sub\n      not\n      and\n      dup2\n      mstore\n      0x20\n      add\n      swap2\n      pop\n    tag_275:\n      pop\n      swap6\n      pop\n      pop\n      pop\n      pop\n      pop\n      pop\n      0x00\n      mload(0x40)\n      dup1\n      dup4\n      sub\n      dup2\n      0x00\n      dup8\n      dup1\n      extcodesize\n      iszero\n        /* \"--CODEGEN--\":8:17   */\n      dup1\n        /* \"--CODEGEN--\":5:7   */\n      iszero\n      tag_276\n      jumpi\n        /* \"--CODEGEN--\":30:31   */\n      0x00\n        /* \"--CODEGEN--\":27:28   */\n      dup1\n        /* \"--CODEGEN--\":20:32   */\n      revert\n        /* \"--CODEGEN--\":5:7   */\n    tag_276:\n        /* \"contracts/4_SmartGTFX.sol\":19160:19250  ApproveAndCallFallBack(spender).receiveApproval(_msgSender(), amount, address(this), data) */\n      pop\n      gas\n      call\n      iszero\n        /* \"--CODEGEN--\":8:17   */\n      dup1\n        /* \"--CODEGEN--\":5:7   */\n      iszero\n      tag_277\n      jumpi\n        /* \"--CODEGEN--\":45:61   */\n      returndatasize\n        /* \"--CODEGEN--\":42:43   */\n      0x00\n        /* \"--CODEGEN--\":39:40   */\n      dup1\n        /* \"--CODEGEN--\":24:62   */\n      returndatacopy\n        /* \"--CODEGEN--\":77:93   */\n      returndatasize\n        /* \"--CODEGEN--\":74:75   */\n      0x00\n        /* \"--CODEGEN--\":67:94   */\n      revert\n        /* \"--CODEGEN--\":5:7   */\n    tag_277:\n      pop\n        /* \"contracts/4_SmartGTFX.sol\":19267:19271  true */\n      0x01\n      swap8\n        /* \"contracts/4_SmartGTFX.sol\":18977:19278  function approveAndCall(address spender, uint256 amount, bytes memory data) public validLock permissionCheck returns (bool) {... */\n      swap7\n      pop\n      pop\n      pop\n      pop\n      pop\n      pop\n      pop\n      jump\t// out\n        /* \"contracts/4_SmartGTFX.sol\":13218:13341  function lockUser(address who) public onlyOwner {... */\n    tag_122:\n        /* \"contracts/4_SmartGTFX.sol\":7952:7964  _msgSender() */\n      tag_279\n        /* \"contracts/4_SmartGTFX.sol\":7952:7962  _msgSender */\n      tag_145\n        /* \"contracts/4_SmartGTFX.sol\":7952:7964  _msgSender() */\n      jump\t// in\n    tag_279:\n        /* \"contracts/4_SmartGTFX.sol\":7942:7948  _owner */\n      sload(0x00)\n      sub(shl(0xa0, 0x01), 0x01)\n      swap1\n      dup2\n      and\n        /* \"contracts/4_SmartGTFX.sol\":7942:7964  _owner == _msgSender() */\n      swap2\n      and\n      eq\n        /* \"contracts/4_SmartGTFX.sol\":7934:8001  require(_owner == _msgSender(), \"Ownable: caller is not the owner\") */\n      tag_280\n      jumpi\n      0x40\n      dup1\n      mload\n      shl(0xe5, 0x461bcd)\n      dup2\n      mstore\n      0x20\n      0x04\n      dup3\n      add\n      dup2\n      swap1\n      mstore\n      0x24\n      dup3\n      add\n      mstore\n      0x00\n      dup1\n      mload\n      0x20\n      data_9924ebdf1add33d25d4ef888e16131f0a5687b0580a36c21b5c301a6c462effe\n      dup4\n      codecopy\n      dup2\n      mload\n      swap2\n      mstore\n      0x44\n      dup3\n      add\n      mstore\n      swap1\n      mload\n      swap1\n      dup2\n      swap1\n      sub\n      0x64\n      add\n      swap1\n      revert\n    tag_280:\n      sub(shl(0xa0, 0x01), 0x01)\n        /* \"contracts/4_SmartGTFX.sol\":13276:13290  blacklist[who] */\n      dup2\n      and\n      0x00\n      dup2\n      dup2\n      mstore\n        /* \"contracts/4_SmartGTFX.sol\":13293:13297  true */\n      0x01\n        /* \"contracts/4_SmartGTFX.sol\":13276:13290  blacklist[who] */\n      0x20\n      dup2\n      swap1\n      mstore\n      0x40\n      dup1\n      dup4\n      keccak256\n        /* \"contracts/4_SmartGTFX.sol\":13276:13297  blacklist[who] = true */\n      dup1\n      sload\n      not(0xff)\n      and\n      swap1\n      swap3\n      or\n      swap1\n      swap2\n      sstore\n        /* \"contracts/4_SmartGTFX.sol\":13321:13334  LockUser(who) */\n      mload\n      0x169aadf55dc2098830ccf9f334e3ce3933b6e895b9114fc9f49242f2be61fe8e\n      swap2\n        /* \"contracts/4_SmartGTFX.sol\":13276:13290  blacklist[who] */\n      swap1\n        /* \"contracts/4_SmartGTFX.sol\":13321:13334  LockUser(who) */\n      log2\n        /* \"contracts/4_SmartGTFX.sol\":13218:13341  function lockUser(address who) public onlyOwner {... */\n      pop\n      jump\t// out\n        /* \"contracts/4_SmartGTFX.sol\":18013:18147  function allowance(address owner, address spender) external view returns (uint256) {... */\n    tag_125:\n      sub(shl(0xa0, 0x01), 0x01)\n        /* \"contracts/4_SmartGTFX.sol\":18113:18131  _allowances[owner] */\n      swap2\n      dup3\n      and\n        /* \"contracts/4_SmartGTFX.sol\":18087:18094  uint256 */\n      0x00\n        /* \"contracts/4_SmartGTFX.sol\":18113:18131  _allowances[owner] */\n      swap1\n      dup2\n      mstore\n        /* \"contracts/4_SmartGTFX.sol\":18113:18124  _allowances */\n      0x03\n        /* \"contracts/4_SmartGTFX.sol\":18113:18131  _allowances[owner] */\n      0x20\n      swap1\n      dup2\n      mstore\n      0x40\n      dup1\n      dup4\n      keccak256\n        /* \"contracts/4_SmartGTFX.sol\":18113:18140  _allowances[owner][spender] */\n      swap4\n      swap1\n      swap5\n      and\n      dup3\n      mstore\n      swap2\n      swap1\n      swap2\n      mstore\n      keccak256\n      sload\n      swap1\n        /* \"contracts/4_SmartGTFX.sol\":18013:18147  function allowance(address owner, address spender) external view returns (uint256) {... */\n      jump\t// out\n        /* \"contracts/4_SmartGTFX.sol\":14949:15066  bytes32 public constant DELEGATION_TYPEHASH = keccak256(\"Delegation(address delegatee,uint256 nonce,uint256 expiry)\") */\n    tag_127:\n        /* \"contracts/4_SmartGTFX.sol\":14995:15066  keccak256(\"Delegation(address delegatee,uint256 nonce,uint256 expiry)\") */\n      mload(0x40)\n      dup1\n      0x3a\n      data_e48329057bfd03d55e49b547132e39cffd9c1820ad7b9d4c5307691425d15adf\n      dup3\n      codecopy\n      0x3a\n      add\n      swap1\n      pop\n      mload(0x40)\n      dup1\n      swap2\n      sub\n      swap1\n      keccak256\n        /* \"contracts/4_SmartGTFX.sol\":14949:15066  bytes32 public constant DELEGATION_TYPEHASH = keccak256(\"Delegation(address delegatee,uint256 nonce,uint256 expiry)\") */\n      dup2\n      jump\t// out\n        /* \"contracts/4_SmartGTFX.sol\":14481:14551  mapping (address => mapping (uint32 => Checkpoint)) public checkpoints */\n    tag_130:\n      0x09\n      0x20\n      swap1\n      dup2\n      mstore\n      0x00\n      swap3\n      dup4\n      mstore\n      0x40\n      dup1\n      dup5\n      keccak256\n      swap1\n      swap2\n      mstore\n      swap1\n      dup3\n      mstore\n      swap1\n      keccak256\n      dup1\n      sload\n      0x01\n      swap1\n      swap2\n      add\n      sload\n      0xffffffff\n      swap1\n      swap2\n      and\n      swap1\n      dup3\n      jump\t// out\n        /* \"contracts/4_SmartGTFX.sol\":8605:8706  function transferOwnership(address newOwner) public onlyOwner {... */\n    tag_133:\n        /* \"contracts/4_SmartGTFX.sol\":7952:7964  _msgSender() */\n      tag_284\n        /* \"contracts/4_SmartGTFX.sol\":7952:7962  _msgSender */\n      tag_145\n        /* \"contracts/4_SmartGTFX.sol\":7952:7964  _msgSender() */\n      jump\t// in\n    tag_284:\n        /* \"contracts/4_SmartGTFX.sol\":7942:7948  _owner */\n      sload(0x00)\n      sub(shl(0xa0, 0x01), 0x01)\n      swap1\n      dup2\n      and\n        /* \"contracts/4_SmartGTFX.sol\":7942:7964  _owner == _msgSender() */\n      swap2\n      and\n      eq\n        /* \"contracts/4_SmartGTFX.sol\":7934:8001  require(_owner == _msgSender(), \"Ownable: caller is not the owner\") */\n      tag_285\n      jumpi\n      0x40\n      dup1\n      mload\n      shl(0xe5, 0x461bcd)\n      dup2\n      mstore\n      0x20\n      0x04\n      dup3\n      add\n      dup2\n      swap1\n      mstore\n      0x24\n      dup3\n      add\n      mstore\n      0x00\n      dup1\n      mload\n      0x20\n      data_9924ebdf1add33d25d4ef888e16131f0a5687b0580a36c21b5c301a6c462effe\n      dup4\n      codecopy\n      dup2\n      mload\n      swap2\n      mstore\n      0x44\n      dup3\n      add\n      mstore\n      swap1\n      mload\n      swap1\n      dup2\n      swap1\n      sub\n      0x64\n      add\n      swap1\n      revert\n    tag_285:\n        /* \"contracts/4_SmartGTFX.sol\":8673:8701  _transferOwnership(newOwner) */\n      tag_184\n        /* \"contracts/4_SmartGTFX.sol\":8692:8700  newOwner */\n      dup2\n        /* \"contracts/4_SmartGTFX.sol\":8673:8691  _transferOwnership */\n      tag_288\n        /* \"contracts/4_SmartGTFX.sol\":8673:8701  _transferOwnership(newOwner) */\n      jump\t// in\n        /* \"contracts/4_SmartGTFX.sol\":6501:6591  function _msgSender() internal view returns (address payable) {... */\n    tag_145:\n        /* \"contracts/4_SmartGTFX.sol\":6576:6586  msg.sender */\n      caller\n        /* \"contracts/4_SmartGTFX.sol\":6501:6591  function _msgSender() internal view returns (address payable) {... */\n      swap1\n      jump\t// out\n        /* \"contracts/4_SmartGTFX.sol\":25966:26298  function _approve(address owner, address spender, uint256 amount) internal {... */\n    tag_146:\n      sub(shl(0xa0, 0x01), 0x01)\n        /* \"contracts/4_SmartGTFX.sol\":26059:26078  owner != address(0) */\n      dup4\n      and\n        /* \"contracts/4_SmartGTFX.sol\":26051:26119  require(owner != address(0), \"Cannot approve from the zero address\") */\n      tag_291\n      jumpi\n      mload(0x40)\n      shl(0xe5, 0x461bcd)\n      dup2\n      mstore\n      0x04\n      add\n      dup1\n      dup1\n      0x20\n      add\n      dup3\n      dup2\n      sub\n      dup3\n      mstore\n      0x24\n      dup2\n      mstore\n      0x20\n      add\n      dup1\n      data_36ce88ba958e2b0d44cda35791945f0a281d35d6e350d9c9f8eedd2b2359d57d\n      0x24\n      swap2\n      codecopy\n      0x40\n      add\n      swap2\n      pop\n      pop\n      mload(0x40)\n      dup1\n      swap2\n      sub\n      swap1\n      revert\n    tag_291:\n      sub(shl(0xa0, 0x01), 0x01)\n        /* \"contracts/4_SmartGTFX.sol\":26137:26158  spender != address(0) */\n      dup3\n      and\n        /* \"contracts/4_SmartGTFX.sol\":26129:26197  require(spender != address(0), \"Cannot approve to the zero address\") */\n      tag_292\n      jumpi\n      mload(0x40)\n      shl(0xe5, 0x461bcd)\n      dup2\n      mstore\n      0x04\n      add\n      dup1\n      dup1\n      0x20\n      add\n      dup3\n      dup2\n      sub\n      dup3\n      mstore\n      0x22\n      dup2\n      mstore\n      0x20\n      add\n      dup1\n      data_02cd250aff92ba04a009213390107e53e83f14a04575e595af9230b9654afed9\n      0x22\n      swap2\n      codecopy\n      0x40\n      add\n      swap2\n      pop\n      pop\n      mload(0x40)\n      dup1\n      swap2\n      sub\n      swap1\n      revert\n    tag_292:\n      sub(shl(0xa0, 0x01), 0x01)\n        /* \"contracts/4_SmartGTFX.sol\":26208:26226  _allowances[owner] */\n      dup1\n      dup5\n      and\n      0x00\n      dup2\n      dup2\n      mstore\n        /* \"contracts/4_SmartGTFX.sol\":26208:26219  _allowances */\n      0x03\n        /* \"contracts/4_SmartGTFX.sol\":26208:26226  _allowances[owner] */\n      0x20\n      swap1\n      dup2\n      mstore\n      0x40\n      dup1\n      dup4\n      keccak256\n        /* \"contracts/4_SmartGTFX.sol\":26208:26235  _allowances[owner][spender] */\n      swap5\n      dup8\n      and\n      dup1\n      dup5\n      mstore\n      swap5\n      dup3\n      mstore\n      swap2\n      dup3\n      swap1\n      keccak256\n        /* \"contracts/4_SmartGTFX.sol\":26208:26244  _allowances[owner][spender] = amount */\n      dup6\n      swap1\n      sstore\n        /* \"contracts/4_SmartGTFX.sol\":26259:26291  Approval(owner, spender, amount) */\n      dup2\n      mload\n      dup6\n      dup2\n      mstore\n      swap2\n      mload\n      0x8c5be1e5ebec7d5bd14f71427d1e84f3dd0314c0f7b2291e5b200ac8c7c3b925\n      swap3\n      dup2\n      swap1\n      sub\n      swap1\n      swap2\n      add\n      swap1\n      log3\n        /* \"contracts/4_SmartGTFX.sol\":25966:26298  function _approve(address owner, address spender, uint256 amount) internal {... */\n      pop\n      pop\n      pop\n      jump\t// out\n        /* \"contracts/4_SmartGTFX.sol\":25400:25960  function _transfer(address sender, address recipient, uint256 amount) internal {... */\n    tag_154:\n      sub(shl(0xa0, 0x01), 0x01)\n        /* \"contracts/4_SmartGTFX.sol\":25497:25517  sender != address(0) */\n      dup4\n      and\n        /* \"contracts/4_SmartGTFX.sol\":25489:25559  require(sender != address(0), \"Cannot transfer from the zero address\") */\n      tag_294\n      jumpi\n      mload(0x40)\n      shl(0xe5, 0x461bcd)\n      dup2\n      mstore\n      0x04\n      add\n      dup1\n      dup1\n      0x20\n      add\n      dup3\n      dup2\n      sub\n      dup3\n      mstore\n      0x25\n      dup2\n      mstore\n      0x20\n      add\n      dup1\n      data_bd9517161462829be5a3d25154ae5230e5ad2e2aaab3c9bf15e6e48716b4a12e\n      0x25\n      swap2\n      codecopy\n      0x40\n      add\n      swap2\n      pop\n      pop\n      mload(0x40)\n      dup1\n      swap2\n      sub\n      swap1\n      revert\n    tag_294:\n      sub(shl(0xa0, 0x01), 0x01)\n        /* \"contracts/4_SmartGTFX.sol\":25577:25600  recipient != address(0) */\n      dup3\n      and\n        /* \"contracts/4_SmartGTFX.sol\":25569:25640  require(recipient != address(0), \"Cannot transfer to the zero address\") */\n      tag_295\n      jumpi\n      mload(0x40)\n      shl(0xe5, 0x461bcd)\n      dup2\n      mstore\n      0x04\n      add\n      dup1\n      dup1\n      0x20\n      add\n      dup3\n      dup2\n      sub\n      dup3\n      mstore\n      0x23\n      dup2\n      mstore\n      0x20\n      add\n      dup1\n      data_deea2fa463cdaca7bcc6c65f53b7ae24609806e88ca4fdb7ade049dc06112288\n      0x23\n      swap2\n      codecopy\n      0x40\n      add\n      swap2\n      pop\n      pop\n      mload(0x40)\n      dup1\n      swap2\n      sub\n      swap1\n      revert\n    tag_295:\n        /* \"contracts/4_SmartGTFX.sol\":25671:25739  _balances[sender].sub(amount, \"The transfer amount exceeds balance\") */\n      tag_296\n        /* \"contracts/4_SmartGTFX.sol\":25693:25699  amount */\n      dup2\n        /* \"contracts/4_SmartGTFX.sol\":25671:25739  _balances[sender].sub(amount, \"The transfer amount exceeds balance\") */\n      mload(0x40)\n      dup1\n      0x60\n      add\n      0x40\n      mstore\n      dup1\n      0x23\n      dup2\n      mstore\n      0x20\n      add\n      data_3fc916dc37cf2cf07a856ad1473ad93b10f9a58e0ad4dc3c2ff0ceabba196973\n      0x23\n      swap2\n      codecopy\n      sub(shl(0xa0, 0x01), 0x01)\n        /* \"contracts/4_SmartGTFX.sol\":25671:25688  _balances[sender] */\n      dup7\n      and\n      0x00\n      swap1\n      dup2\n      mstore\n        /* \"contracts/4_SmartGTFX.sol\":25671:25680  _balances */\n      0x02\n        /* \"contracts/4_SmartGTFX.sol\":25671:25688  _balances[sender] */\n      0x20\n      mstore\n      0x40\n      swap1\n      keccak256\n      sload\n      swap2\n        /* \"contracts/4_SmartGTFX.sol\":25671:25739  _balances[sender].sub(amount, \"The transfer amount exceeds balance\") */\n      swap1\n      0xffffffff\n        /* \"contracts/4_SmartGTFX.sol\":25671:25692  _balances[sender].sub */\n      tag_159\n        /* \"contracts/4_SmartGTFX.sol\":25671:25739  _balances[sender].sub(amount, \"The transfer amount exceeds balance\") */\n      and\n      jump\t// in\n    tag_296:\n      sub(shl(0xa0, 0x01), 0x01)\n        /* \"contracts/4_SmartGTFX.sol\":25651:25668  _balances[sender] */\n      dup1\n      dup6\n      and\n      0x00\n      swap1\n      dup2\n      mstore\n        /* \"contracts/4_SmartGTFX.sol\":25651:25660  _balances */\n      0x02\n        /* \"contracts/4_SmartGTFX.sol\":25651:25668  _balances[sender] */\n      0x20\n      dup2\n      dup2\n      mstore\n      0x40\n      dup1\n      dup5\n      keccak256\n        /* \"contracts/4_SmartGTFX.sol\":25651:25739  _balances[sender] = _balances[sender].sub(amount, \"The transfer amount exceeds balance\") */\n      swap6\n      swap1\n      swap6\n      sstore\n        /* \"contracts/4_SmartGTFX.sol\":25772:25829  _balances[recipient].add(amount, \"The balance overflows\") */\n      dup5\n      mload\n      dup1\n      dup7\n      add\n      dup7\n      mstore\n      0x15\n      dup2\n      mstore\n      shl(0x58, 0x5468652062616c616e6365206f766572666c6f7773)\n      dup2\n      dup4\n      add\n      mstore\n        /* \"contracts/4_SmartGTFX.sol\":25772:25792  _balances[recipient] */\n      swap4\n      dup8\n      and\n      dup4\n      mstore\n      mstore\n      swap2\n      swap1\n      swap2\n      keccak256\n      sload\n        /* \"contracts/4_SmartGTFX.sol\":25772:25829  _balances[recipient].add(amount, \"The balance overflows\") */\n      tag_297\n      swap2\n        /* \"contracts/4_SmartGTFX.sol\":25797:25803  amount */\n      dup4\n      swap1\n        /* \"contracts/4_SmartGTFX.sol\":25772:25829  _balances[recipient].add(amount, \"The balance overflows\") */\n      0xffffffff\n        /* \"contracts/4_SmartGTFX.sol\":25772:25796  _balances[recipient].add */\n      tag_170\n        /* \"contracts/4_SmartGTFX.sol\":25772:25829  _balances[recipient].add(amount, \"The balance overflows\") */\n      and\n      jump\t// in\n    tag_297:\n      sub(shl(0xa0, 0x01), 0x01)\n        /* \"contracts/4_SmartGTFX.sol\":25749:25769  _balances[recipient] */\n      dup1\n      dup5\n      and\n      0x00\n      dup2\n      dup2\n      mstore\n        /* \"contracts/4_SmartGTFX.sol\":25749:25758  _balances */\n      0x02\n        /* \"contracts/4_SmartGTFX.sol\":25749:25769  _balances[recipient] */\n      0x20\n      swap1\n      dup2\n      mstore\n      0x40\n      swap2\n      dup3\n      swap1\n      keccak256\n        /* \"contracts/4_SmartGTFX.sol\":25749:25829  _balances[recipient] = _balances[recipient].add(amount, \"The balance overflows\") */\n      swap5\n      swap1\n      swap5\n      sstore\n        /* \"contracts/4_SmartGTFX.sol\":25844:25879  Transfer(sender, recipient, amount) */\n      dup1\n      mload\n      dup6\n      dup2\n      mstore\n      swap1\n      mload\n        /* \"contracts/4_SmartGTFX.sol\":25749:25769  _balances[recipient] */\n      swap2\n      swap4\n        /* \"contracts/4_SmartGTFX.sol\":25844:25879  Transfer(sender, recipient, amount) */\n      swap3\n      dup8\n      and\n      swap3\n      0xddf252ad1be2c89b69c2b068fc378daa952ba7f163c4a11628f55a4df523b3ef\n      swap3\n      swap2\n      dup3\n      swap1\n      sub\n      add\n      swap1\n      log3\n      sub(shl(0xa0, 0x01), 0x01)\n        /* \"contracts/4_SmartGTFX.sol\":25905:25922  delegates[sender] */\n      dup1\n      dup5\n      and\n      0x00\n      swap1\n      dup2\n      mstore\n        /* \"contracts/4_SmartGTFX.sol\":25905:25914  delegates */\n      0x08\n        /* \"contracts/4_SmartGTFX.sol\":25905:25922  delegates[sender] */\n      0x20\n      mstore\n      0x40\n      dup1\n      dup3\n      keccak256\n      sload\n        /* \"contracts/4_SmartGTFX.sol\":25924:25944  delegates[recipient] */\n      dup6\n      dup5\n      and\n      dup4\n      mstore\n      swap2\n      keccak256\n      sload\n        /* \"contracts/4_SmartGTFX.sol\":25890:25953  _moveDelegates(delegates[sender], delegates[recipient], amount) */\n      tag_298\n      swap3\n        /* \"contracts/4_SmartGTFX.sol\":25905:25922  delegates[sender] */\n      swap2\n      dup3\n      and\n      swap2\n        /* \"contracts/4_SmartGTFX.sol\":25924:25944  delegates[recipient] */\n      and\n        /* \"contracts/4_SmartGTFX.sol\":25946:25952  amount */\n      dup4\n        /* \"contracts/4_SmartGTFX.sol\":25890:25904  _moveDelegates */\n      tag_299\n        /* \"contracts/4_SmartGTFX.sol\":25890:25953  _moveDelegates(delegates[sender], delegates[recipient], amount) */\n      jump\t// in\n    tag_298:\n        /* \"contracts/4_SmartGTFX.sol\":25400:25960  function _transfer(address sender, address recipient, uint256 amount) internal {... */\n      pop\n      pop\n      pop\n      jump\t// out\n        /* \"contracts/4_SmartGTFX.sol\":2526:2699  function sub(uint256 a, uint256 b, string memory errorMessage) internal pure returns (uint256) {... */\n    tag_159:\n        /* \"contracts/4_SmartGTFX.sol\":2612:2619  uint256 */\n      0x00\n        /* \"contracts/4_SmartGTFX.sol\":2643:2655  errorMessage */\n      dup2\n        /* \"contracts/4_SmartGTFX.sol\":2635:2641  b <= a */\n      dup5\n      dup5\n      gt\n      iszero\n        /* \"contracts/4_SmartGTFX.sol\":2627:2656  require(b <= a, errorMessage) */\n      tag_301\n      jumpi\n      mload(0x40)\n      shl(0xe5, 0x461bcd)\n      dup2\n      mstore\n      0x04\n      add\n      dup1\n      dup1\n      0x20\n      add\n      dup3\n      dup2\n      sub\n      dup3\n      mstore\n      dup4\n      dup2\n      dup2\n      mload\n      dup2\n      mstore\n      0x20\n      add\n      swap2\n      pop\n      dup1\n      mload\n      swap1\n      0x20\n      add\n      swap1\n      dup1\n      dup4\n      dup4\n        /* \"--CODEGEN--\":23:24   */\n      0x00\n        /* \"--CODEGEN--\":8:108   */\n    tag_302:\n        /* \"--CODEGEN--\":33:36   */\n      dup4\n        /* \"--CODEGEN--\":30:31   */\n      dup2\n        /* \"--CODEGEN--\":27:37   */\n      lt\n        /* \"--CODEGEN--\":8:108   */\n      iszero\n      tag_304\n      jumpi\n        /* \"--CODEGEN--\":90:101   */\n      dup2\n      dup2\n      add\n        /* \"--CODEGEN--\":84:102   */\n      mload\n        /* \"--CODEGEN--\":71:82   */\n      dup4\n      dup3\n      add\n        /* \"--CODEGEN--\":64:103   */\n      mstore\n        /* \"--CODEGEN--\":52:54   */\n      0x20\n        /* \"--CODEGEN--\":45:55   */\n      add\n        /* \"--CODEGEN--\":8:108   */\n      jump(tag_302)\n    tag_304:\n        /* \"--CODEGEN--\":12:26   */\n      pop\n        /* \"contracts/4_SmartGTFX.sol\":2627:2656  require(b <= a, errorMessage) */\n      pop\n      pop\n      pop\n      swap1\n      pop\n      swap1\n      dup2\n      add\n      swap1\n      0x1f\n      and\n      dup1\n      iszero\n      tag_305\n      jumpi\n      dup1\n      dup3\n      sub\n      dup1\n      mload\n      0x01\n      dup4\n      0x20\n      sub\n      0x0100\n      exp\n      sub\n      not\n      and\n      dup2\n      mstore\n      0x20\n      add\n      swap2\n      pop\n    tag_305:\n      pop\n      swap3\n      pop\n      pop\n      pop\n      mload(0x40)\n      dup1\n      swap2\n      sub\n      swap1\n      revert\n    tag_301:\n      pop\n      pop\n      pop\n        /* \"contracts/4_SmartGTFX.sol\":2674:2679  a - b */\n      swap1\n      sub\n      swap1\n        /* \"contracts/4_SmartGTFX.sol\":2526:2699  function sub(uint256 a, uint256 b, string memory errorMessage) internal pure returns (uint256) {... */\n      jump\t// out\n        /* \"contracts/4_SmartGTFX.sol\":1717:1890  function add(uint256 a, uint256 b, string memory errorMessage) internal pure returns (uint256) {... */\n    tag_170:\n        /* \"contracts/4_SmartGTFX.sol\":1803:1810  uint256 */\n      0x00\n        /* \"contracts/4_SmartGTFX.sol\":1830:1835  a + b */\n      dup4\n      dup4\n      add\n        /* \"contracts/4_SmartGTFX.sol\":1857:1869  errorMessage */\n      dup3\n        /* \"contracts/4_SmartGTFX.sol\":1849:1855  c >= a */\n      dup6\n      dup3\n      lt\n      iszero\n        /* \"contracts/4_SmartGTFX.sol\":1841:1870  require(c >= a, errorMessage) */\n      tag_307\n      jumpi\n      mload(0x40)\n      shl(0xe5, 0x461bcd)\n      dup2\n      mstore\n      0x20\n      0x04\n      dup3\n      add\n      dup2\n      dup2\n      mstore\n      dup4\n      mload\n      0x24\n      dup5\n      add\n      mstore\n      dup4\n      mload\n      swap1\n      swap3\n      dup4\n      swap3\n      0x44\n      swap1\n      swap2\n      add\n      swap2\n      swap1\n      dup6\n      add\n      swap1\n      dup1\n      dup4\n      dup4\n      0x00\n        /* \"--CODEGEN--\":27:37   */\n      dup4\n      iszero\n        /* \"--CODEGEN--\":8:108   */\n      tag_304\n      jumpi\n        /* \"--CODEGEN--\":90:101   */\n      dup2\n      dup2\n      add\n        /* \"--CODEGEN--\":84:102   */\n      mload\n        /* \"--CODEGEN--\":71:82   */\n      dup4\n      dup3\n      add\n        /* \"--CODEGEN--\":64:103   */\n      mstore\n        /* \"--CODEGEN--\":52:54   */\n      0x20\n        /* \"--CODEGEN--\":45:55   */\n      add\n        /* \"--CODEGEN--\":8:108   */\n      jump(tag_302)\n        /* \"contracts/4_SmartGTFX.sol\":1841:1870  require(c >= a, errorMessage) */\n    tag_307:\n      pop\n        /* \"contracts/4_SmartGTFX.sol\":1884:1885  c */\n      swap5\n        /* \"contracts/4_SmartGTFX.sol\":1717:1890  function add(uint256 a, uint256 b, string memory errorMessage) internal pure returns (uint256) {... */\n      swap4\n      pop\n      pop\n      pop\n      pop\n      jump\t// out\n        /* \"contracts/4_SmartGTFX.sol\":26304:26708  function _burn(address account, uint256 amount) internal {... */\n    tag_178:\n      sub(shl(0xa0, 0x01), 0x01)\n        /* \"contracts/4_SmartGTFX.sol\":26379:26400  account != address(0) */\n      dup3\n      and\n        /* \"contracts/4_SmartGTFX.sol\":26371:26438  require(account != address(0), \"Cannot burn from the zero address\") */\n      tag_313\n      jumpi\n      mload(0x40)\n      shl(0xe5, 0x461bcd)\n      dup2\n      mstore\n      0x04\n      add\n      dup1\n      dup1\n      0x20\n      add\n      dup3\n      dup2\n      sub\n      dup3\n      mstore\n      0x21\n      dup2\n      mstore\n      0x20\n      add\n      dup1\n      data_f5cef2fe2a70ca222ed18c80624b418b6d950cfd5cb46a9f7c5ab6b4ab537cee\n      0x21\n      swap2\n      codecopy\n      0x40\n      add\n      swap2\n      pop\n      pop\n      mload(0x40)\n      dup1\n      swap2\n      sub\n      swap1\n      revert\n    tag_313:\n        /* \"contracts/4_SmartGTFX.sol\":26470:26535  _balances[account].sub(amount, \"The burn amount exceeds balance\") */\n      0x40\n      dup1\n      mload\n      dup1\n      dup3\n      add\n      dup3\n      mstore\n      0x1f\n      dup2\n      mstore\n      0x546865206275726e20616d6f756e7420657863656564732062616c616e636500\n      0x20\n      dup1\n      dup4\n      add\n      swap2\n      swap1\n      swap2\n      mstore\n      sub(shl(0xa0, 0x01), 0x01)\n        /* \"contracts/4_SmartGTFX.sol\":26470:26488  _balances[account] */\n      dup6\n      and\n      0x00\n      swap1\n      dup2\n      mstore\n        /* \"contracts/4_SmartGTFX.sol\":26470:26479  _balances */\n      0x02\n        /* \"contracts/4_SmartGTFX.sol\":26470:26488  _balances[account] */\n      swap1\n      swap2\n      mstore\n      swap2\n      swap1\n      swap2\n      keccak256\n      sload\n        /* \"contracts/4_SmartGTFX.sol\":26470:26535  _balances[account].sub(amount, \"The burn amount exceeds balance\") */\n      tag_314\n      swap2\n        /* \"contracts/4_SmartGTFX.sol\":26493:26499  amount */\n      dup4\n      swap1\n        /* \"contracts/4_SmartGTFX.sol\":26470:26535  _balances[account].sub(amount, \"The burn amount exceeds balance\") */\n      0xffffffff\n        /* \"contracts/4_SmartGTFX.sol\":26470:26492  _balances[account].sub */\n      tag_159\n        /* \"contracts/4_SmartGTFX.sol\":26470:26535  _balances[account].sub(amount, \"The burn amount exceeds balance\") */\n      and\n      jump\t// in\n    tag_314:\n      sub(shl(0xa0, 0x01), 0x01)\n        /* \"contracts/4_SmartGTFX.sol\":26449:26467  _balances[account] */\n      dup4\n      and\n      0x00\n      swap1\n      dup2\n      mstore\n        /* \"contracts/4_SmartGTFX.sol\":26449:26458  _balances */\n      0x02\n        /* \"contracts/4_SmartGTFX.sol\":26449:26467  _balances[account] */\n      0x20\n      mstore\n      0x40\n      swap1\n      keccak256\n        /* \"contracts/4_SmartGTFX.sol\":26449:26535  _balances[account] = _balances[account].sub(amount, \"The burn amount exceeds balance\") */\n      sstore\n        /* \"contracts/4_SmartGTFX.sol\":26560:26572  _totalSupply */\n      sload(0x04)\n        /* \"contracts/4_SmartGTFX.sol\":26560:26584  _totalSupply.sub(amount) */\n      tag_315\n      swap1\n        /* \"contracts/4_SmartGTFX.sol\":26577:26583  amount */\n      dup3\n        /* \"contracts/4_SmartGTFX.sol\":26560:26584  _totalSupply.sub(amount) */\n      0xffffffff\n        /* \"contracts/4_SmartGTFX.sol\":26560:26576  _totalSupply.sub */\n      tag_316\n        /* \"contracts/4_SmartGTFX.sol\":26560:26584  _totalSupply.sub(amount) */\n      and\n      jump\t// in\n    tag_315:\n        /* \"contracts/4_SmartGTFX.sol\":26545:26557  _totalSupply */\n      0x04\n        /* \"contracts/4_SmartGTFX.sol\":26545:26584  _totalSupply = _totalSupply.sub(amount) */\n      sstore\n        /* \"contracts/4_SmartGTFX.sol\":26599:26636  Transfer(account, address(0), amount) */\n      0x40\n      dup1\n      mload\n      dup3\n      dup2\n      mstore\n      swap1\n      mload\n        /* \"contracts/4_SmartGTFX.sol\":26625:26626  0 */\n      0x00\n      swap2\n      sub(shl(0xa0, 0x01), 0x01)\n        /* \"contracts/4_SmartGTFX.sol\":26599:26636  Transfer(account, address(0), amount) */\n      dup6\n      and\n      swap2\n      0xddf252ad1be2c89b69c2b068fc378daa952ba7f163c4a11628f55a4df523b3ef\n      swap2\n      dup2\n      swap1\n      sub\n      0x20\n      add\n      swap1\n      log3\n      sub(shl(0xa0, 0x01), 0x01)\n        /* \"contracts/4_SmartGTFX.sol\":26662:26680  delegates[account] */\n      dup1\n      dup4\n      and\n      0x00\n      swap1\n      dup2\n      mstore\n        /* \"contracts/4_SmartGTFX.sol\":26662:26671  delegates */\n      0x08\n        /* \"contracts/4_SmartGTFX.sol\":26662:26680  delegates[account] */\n      0x20\n      mstore\n      0x40\n      dup2\n      keccak256\n      sload\n        /* \"contracts/4_SmartGTFX.sol\":26647:26701  _moveDelegates(delegates[account], address(0), amount) */\n      tag_317\n      swap3\n        /* \"contracts/4_SmartGTFX.sol\":26662:26680  delegates[account] */\n      and\n      swap1\n        /* \"contracts/4_SmartGTFX.sol\":26694:26700  amount */\n      dup4\n        /* \"contracts/4_SmartGTFX.sol\":26647:26661  _moveDelegates */\n      tag_299\n        /* \"contracts/4_SmartGTFX.sol\":26647:26701  _moveDelegates(delegates[account], address(0), amount) */\n      jump\t// in\n    tag_317:\n        /* \"contracts/4_SmartGTFX.sol\":26304:26708  function _burn(address account, uint256 amount) internal {... */\n      pop\n      pop\n      jump\t// out\n        /* \"contracts/4_SmartGTFX.sol\":26714:27083  function _delegate(address delegator, address delegatee) internal {... */\n    tag_186:\n      sub(shl(0xa0, 0x01), 0x01)\n        /* \"contracts/4_SmartGTFX.sol\":26816:26836  delegates[delegator] */\n      dup1\n      dup4\n      and\n        /* \"contracts/4_SmartGTFX.sol\":26790:26813  address currentDelegate */\n      0x00\n        /* \"contracts/4_SmartGTFX.sol\":26816:26836  delegates[delegator] */\n      dup2\n      dup2\n      mstore\n        /* \"contracts/4_SmartGTFX.sol\":26816:26825  delegates */\n      0x08\n        /* \"contracts/4_SmartGTFX.sol\":26816:26836  delegates[delegator] */\n      0x20\n      dup2\n      dup2\n      mstore\n      0x40\n      dup1\n      dup5\n      keccak256\n      dup1\n      sload\n        /* \"contracts/4_SmartGTFX.sol\":26873:26882  _balances */\n      0x02\n        /* \"contracts/4_SmartGTFX.sol\":26873:26893  _balances[delegator] */\n      dup5\n      mstore\n      dup3\n      dup7\n      keccak256\n      sload\n        /* \"contracts/4_SmartGTFX.sol\":26903:26923  delegates[delegator] */\n      swap5\n      swap1\n      swap4\n      mstore\n        /* \"contracts/4_SmartGTFX.sol\":26903:26935  delegates[delegator] = delegatee */\n      dup8\n      dup8\n      and\n      not(sub(shl(0xa0, 0x01), 0x01))\n      dup5\n      and\n      dup2\n      or\n      swap1\n      swap2\n      sstore\n        /* \"contracts/4_SmartGTFX.sol\":26951:27005  DelegateChanged(delegator, currentDelegate, delegatee) */\n      swap1\n      mload\n        /* \"contracts/4_SmartGTFX.sol\":26816:26836  delegates[delegator] */\n      swap2\n      swap1\n      swap6\n      and\n      swap5\n        /* \"contracts/4_SmartGTFX.sol\":26873:26893  _balances[delegator] */\n      swap2\n      swap4\n        /* \"contracts/4_SmartGTFX.sol\":26903:26935  delegates[delegator] = delegatee */\n      swap2\n      swap3\n        /* \"contracts/4_SmartGTFX.sol\":26816:26836  delegates[delegator] */\n      dup6\n      swap3\n      swap2\n        /* \"contracts/4_SmartGTFX.sol\":26951:27005  DelegateChanged(delegator, currentDelegate, delegatee) */\n      0x3134e8a2e6d97e929a7e54011ea5485d7d196dd5f0ba4d4ef95803e8e3fc257f\n      swap2\n        /* \"contracts/4_SmartGTFX.sol\":26790:26813  address currentDelegate */\n      swap1\n        /* \"contracts/4_SmartGTFX.sol\":26951:27005  DelegateChanged(delegator, currentDelegate, delegatee) */\n      log4\n        /* \"contracts/4_SmartGTFX.sol\":27016:27076  _moveDelegates(currentDelegate, delegatee, delegatorBalance) */\n      tag_319\n        /* \"contracts/4_SmartGTFX.sol\":27031:27046  currentDelegate */\n      dup3\n        /* \"contracts/4_SmartGTFX.sol\":27048:27057  delegatee */\n      dup5\n        /* \"contracts/4_SmartGTFX.sol\":27059:27075  delegatorBalance */\n      dup4\n        /* \"contracts/4_SmartGTFX.sol\":27016:27030  _moveDelegates */\n      tag_299\n        /* \"contracts/4_SmartGTFX.sol\":27016:27076  _moveDelegates(currentDelegate, delegatee, delegatorBalance) */\n      jump\t// in\n    tag_319:\n        /* \"contracts/4_SmartGTFX.sol\":26714:27083  function _delegate(address delegator, address delegatee) internal {... */\n      pop\n      pop\n      pop\n      pop\n      jump\t// out\n        /* \"contracts/4_SmartGTFX.sol\":28766:28924  function ceil96(uint256 n) internal pure returns (uint96) {... */\n    tag_205:\n        /* \"contracts/4_SmartGTFX.sol\":28816:28822  uint96 */\n      0x00\n      shl(0x60, 0x01)\n        /* \"contracts/4_SmartGTFX.sol\":28838:28839  n */\n      dup3\n        /* \"contracts/4_SmartGTFX.sol\":28838:28848  n >= 2**96 */\n      lt\n        /* \"contracts/4_SmartGTFX.sol\":28834:28892  if (n >= 2**96) {... */\n      tag_321\n      jumpi\n      pop\n      not(0x00)\n        /* \"contracts/4_SmartGTFX.sol\":28864:28881  return uint96(-1) */\n      jump(tag_175)\n        /* \"contracts/4_SmartGTFX.sol\":28834:28892  if (n >= 2**96) {... */\n    tag_321:\n      pop\n        /* \"contracts/4_SmartGTFX.sol\":28915:28916  n */\n      swap1\n        /* \"contracts/4_SmartGTFX.sol\":28766:28924  function ceil96(uint256 n) internal pure returns (uint96) {... */\n      jump\t// out\n        /* \"contracts/4_SmartGTFX.sol\":28930:29082  function getChainId() internal pure returns (uint256) {... */\n    tag_258:\n        /* \"contracts/4_SmartGTFX.sol\":29041:29050  chainid() */\n      chainid\n        /* \"contracts/4_SmartGTFX.sol\":28930:29082  function getChainId() internal pure returns (uint256) {... */\n      swap1\n      jump\t// out\n        /* \"contracts/4_SmartGTFX.sol\":8799:9010  function _transferOwnership(address newOwner) internal {... */\n    tag_288:\n      sub(shl(0xa0, 0x01), 0x01)\n        /* \"contracts/4_SmartGTFX.sol\":8868:8890  newOwner != address(0) */\n      dup2\n      and\n        /* \"contracts/4_SmartGTFX.sol\":8860:8933  require(newOwner != address(0), \"Ownable: new owner is the zero address\") */\n      tag_324\n      jumpi\n      mload(0x40)\n      shl(0xe5, 0x461bcd)\n      dup2\n      mstore\n      0x04\n      add\n      dup1\n      dup1\n      0x20\n      add\n      dup3\n      dup2\n      sub\n      dup3\n      mstore\n      0x26\n      dup2\n      mstore\n      0x20\n      add\n      dup1\n      data_245f15ff17f551913a7a18385165551503906a406f905ac1c2437281a7cd0cfe\n      0x26\n      swap2\n      codecopy\n      0x40\n      add\n      swap2\n      pop\n      pop\n      mload(0x40)\n      dup1\n      swap2\n      sub\n      swap1\n      revert\n    tag_324:\n        /* \"contracts/4_SmartGTFX.sol\":8965:8971  _owner */\n      0x00\n      dup1\n      sload\n        /* \"contracts/4_SmartGTFX.sol\":8944:8982  OwnershipTransferred(_owner, newOwner) */\n      mload(0x40)\n      sub(shl(0xa0, 0x01), 0x01)\n      dup1\n      dup6\n      and\n      swap4\n        /* \"contracts/4_SmartGTFX.sol\":8965:8971  _owner */\n      swap3\n      and\n      swap2\n        /* \"contracts/4_SmartGTFX.sol\":8944:8982  OwnershipTransferred(_owner, newOwner) */\n      0x8be0079c531659141344cd1fd0a4f28419497f9722a3daafe3b4186f6b6457e0\n      swap2\n      log3\n        /* \"contracts/4_SmartGTFX.sol\":8988:8994  _owner */\n      0x00\n        /* \"contracts/4_SmartGTFX.sol\":8988:9005  _owner = newOwner */\n      dup1\n      sload\n      not(sub(shl(0xa0, 0x01), 0x01))\n      and\n      sub(shl(0xa0, 0x01), 0x01)\n      swap3\n      swap1\n      swap3\n      and\n      swap2\n      swap1\n      swap2\n      or\n      swap1\n      sstore\n        /* \"contracts/4_SmartGTFX.sol\":8799:9010  function _transferOwnership(address newOwner) internal {... */\n      jump\t// out\n        /* \"contracts/4_SmartGTFX.sol\":27089:27983  function _moveDelegates(address srcRep, address dstRep, uint256 amount) internal {... */\n    tag_299:\n        /* \"contracts/4_SmartGTFX.sol\":27194:27200  dstRep */\n      dup2\n      sub(shl(0xa0, 0x01), 0x01)\n        /* \"contracts/4_SmartGTFX.sol\":27184:27200  srcRep != dstRep */\n      and\n        /* \"contracts/4_SmartGTFX.sol\":27184:27190  srcRep */\n      dup4\n      sub(shl(0xa0, 0x01), 0x01)\n        /* \"contracts/4_SmartGTFX.sol\":27184:27200  srcRep != dstRep */\n      and\n      eq\n      iszero\n        /* \"contracts/4_SmartGTFX.sol\":27184:27214  srcRep != dstRep && amount > 0 */\n      dup1\n      iszero\n      tag_326\n      jumpi\n      pop\n        /* \"contracts/4_SmartGTFX.sol\":27213:27214  0 */\n      0x00\n        /* \"contracts/4_SmartGTFX.sol\":27204:27210  amount */\n      dup2\n        /* \"contracts/4_SmartGTFX.sol\":27204:27214  amount > 0 */\n      gt\n        /* \"contracts/4_SmartGTFX.sol\":27184:27214  srcRep != dstRep && amount > 0 */\n    tag_326:\n        /* \"contracts/4_SmartGTFX.sol\":27180:27977  if (srcRep != dstRep && amount > 0) {... */\n      iszero\n      tag_298\n      jumpi\n      sub(shl(0xa0, 0x01), 0x01)\n        /* \"contracts/4_SmartGTFX.sol\":27234:27254  srcRep != address(0) */\n      dup4\n      and\n      iszero\n        /* \"contracts/4_SmartGTFX.sol\":27230:27592  if (srcRep != address(0)) {... */\n      tag_328\n      jumpi\n      sub(shl(0xa0, 0x01), 0x01)\n        /* \"contracts/4_SmartGTFX.sol\":27293:27315  numCheckpoints[srcRep] */\n      dup4\n      and\n        /* \"contracts/4_SmartGTFX.sol\":27274:27290  uint32 srcRepNum */\n      0x00\n        /* \"contracts/4_SmartGTFX.sol\":27293:27315  numCheckpoints[srcRep] */\n      swap1\n      dup2\n      mstore\n        /* \"contracts/4_SmartGTFX.sol\":27293:27307  numCheckpoints */\n      0x0a\n        /* \"contracts/4_SmartGTFX.sol\":27293:27315  numCheckpoints[srcRep] */\n      0x20\n      mstore\n      0x40\n      dup2\n      keccak256\n      sload\n      0xffffffff\n      and\n      swap1\n        /* \"contracts/4_SmartGTFX.sol\":27353:27366  srcRepNum > 0 */\n      dup2\n        /* \"contracts/4_SmartGTFX.sol\":27353:27413  srcRepNum > 0 ? checkpoints[srcRep][srcRepNum - 1].votes : 0 */\n      tag_329\n      jumpi\n        /* \"contracts/4_SmartGTFX.sol\":27412:27413  0 */\n      0x00\n        /* \"contracts/4_SmartGTFX.sol\":27353:27413  srcRepNum > 0 ? checkpoints[srcRep][srcRepNum - 1].votes : 0 */\n      jump(tag_330)\n    tag_329:\n      sub(shl(0xa0, 0x01), 0x01)\n        /* \"contracts/4_SmartGTFX.sol\":27369:27388  checkpoints[srcRep] */\n      dup6\n      and\n      0x00\n      swap1\n      dup2\n      mstore\n        /* \"contracts/4_SmartGTFX.sol\":27369:27380  checkpoints */\n      0x09\n        /* \"contracts/4_SmartGTFX.sol\":27369:27388  checkpoints[srcRep] */\n      0x20\n      swap1\n      dup2\n      mstore\n      0x40\n      dup1\n      dup4\n      keccak256\n        /* \"contracts/4_SmartGTFX.sol\":27369:27403  checkpoints[srcRep][srcRepNum - 1] */\n      0xffffffff\n      not(0x00)\n        /* \"contracts/4_SmartGTFX.sol\":27389:27402  srcRepNum - 1 */\n      dup8\n      add\n        /* \"contracts/4_SmartGTFX.sol\":27369:27403  checkpoints[srcRep][srcRepNum - 1] */\n      and\n      dup5\n      mstore\n      swap1\n      swap2\n      mstore\n      swap1\n      keccak256\n        /* \"contracts/4_SmartGTFX.sol\":27401:27402  1 */\n      0x01\n        /* \"contracts/4_SmartGTFX.sol\":27369:27409  checkpoints[srcRep][srcRepNum - 1].votes */\n      add\n      sload\n        /* \"contracts/4_SmartGTFX.sol\":27353:27413  srcRepNum > 0 ? checkpoints[srcRep][srcRepNum - 1].votes : 0 */\n    tag_330:\n        /* \"contracts/4_SmartGTFX.sol\":27333:27413  uint256 srcRepOld = srcRepNum > 0 ? checkpoints[srcRep][srcRepNum - 1].votes : 0 */\n      swap1\n      pop\n        /* \"contracts/4_SmartGTFX.sol\":27431:27448  uint256 srcRepNew */\n      0x00\n        /* \"contracts/4_SmartGTFX.sol\":27451:27502  srcRepOld.sub(amount, \"The vote amount underflows\") */\n      tag_331\n        /* \"contracts/4_SmartGTFX.sol\":27465:27471  amount */\n      dup5\n        /* \"contracts/4_SmartGTFX.sol\":27451:27502  srcRepOld.sub(amount, \"The vote amount underflows\") */\n      mload(0x40)\n      dup1\n      0x40\n      add\n      0x40\n      mstore\n      dup1\n      0x1a\n      dup2\n      mstore\n      0x20\n      add\n      0x54686520766f746520616d6f756e7420756e646572666c6f7773000000000000\n      dup2\n      mstore\n      pop\n        /* \"contracts/4_SmartGTFX.sol\":27451:27460  srcRepOld */\n      dup5\n        /* \"contracts/4_SmartGTFX.sol\":27451:27464  srcRepOld.sub */\n      tag_159\n      swap1\n        /* \"contracts/4_SmartGTFX.sol\":27451:27502  srcRepOld.sub(amount, \"The vote amount underflows\") */\n      swap3\n      swap2\n      swap1\n      0xffffffff\n      and\n      jump\t// in\n    tag_331:\n        /* \"contracts/4_SmartGTFX.sol\":27431:27502  uint256 srcRepNew = srcRepOld.sub(amount, \"The vote amount underflows\") */\n      swap1\n      pop\n        /* \"contracts/4_SmartGTFX.sol\":27520:27577  _writeCheckpoint(srcRep, srcRepNum, srcRepOld, srcRepNew) */\n      tag_332\n        /* \"contracts/4_SmartGTFX.sol\":27537:27543  srcRep */\n      dup7\n        /* \"contracts/4_SmartGTFX.sol\":27545:27554  srcRepNum */\n      dup5\n        /* \"contracts/4_SmartGTFX.sol\":27556:27565  srcRepOld */\n      dup5\n        /* \"contracts/4_SmartGTFX.sol\":27567:27576  srcRepNew */\n      dup5\n        /* \"contracts/4_SmartGTFX.sol\":27520:27536  _writeCheckpoint */\n      tag_333\n        /* \"contracts/4_SmartGTFX.sol\":27520:27577  _writeCheckpoint(srcRep, srcRepNum, srcRepOld, srcRepNew) */\n      jump\t// in\n    tag_332:\n        /* \"contracts/4_SmartGTFX.sol\":27230:27592  if (srcRep != address(0)) {... */\n      pop\n      pop\n      pop\n    tag_328:\n      sub(shl(0xa0, 0x01), 0x01)\n        /* \"contracts/4_SmartGTFX.sol\":27610:27630  dstRep != address(0) */\n      dup3\n      and\n      iszero\n        /* \"contracts/4_SmartGTFX.sol\":27606:27967  if (dstRep != address(0)) {... */\n      tag_298\n      jumpi\n      sub(shl(0xa0, 0x01), 0x01)\n        /* \"contracts/4_SmartGTFX.sol\":27669:27691  numCheckpoints[dstRep] */\n      dup3\n      and\n        /* \"contracts/4_SmartGTFX.sol\":27650:27666  uint32 dstRepNum */\n      0x00\n        /* \"contracts/4_SmartGTFX.sol\":27669:27691  numCheckpoints[dstRep] */\n      swap1\n      dup2\n      mstore\n        /* \"contracts/4_SmartGTFX.sol\":27669:27683  numCheckpoints */\n      0x0a\n        /* \"contracts/4_SmartGTFX.sol\":27669:27691  numCheckpoints[dstRep] */\n      0x20\n      mstore\n      0x40\n      dup2\n      keccak256\n      sload\n      0xffffffff\n      and\n      swap1\n        /* \"contracts/4_SmartGTFX.sol\":27729:27742  dstRepNum > 0 */\n      dup2\n        /* \"contracts/4_SmartGTFX.sol\":27729:27789  dstRepNum > 0 ? checkpoints[dstRep][dstRepNum - 1].votes : 0 */\n      tag_335\n      jumpi\n        /* \"contracts/4_SmartGTFX.sol\":27788:27789  0 */\n      0x00\n        /* \"contracts/4_SmartGTFX.sol\":27729:27789  dstRepNum > 0 ? checkpoints[dstRep][dstRepNum - 1].votes : 0 */\n      jump(tag_336)\n    tag_335:\n      sub(shl(0xa0, 0x01), 0x01)\n        /* \"contracts/4_SmartGTFX.sol\":27745:27764  checkpoints[dstRep] */\n      dup5\n      and\n      0x00\n      swap1\n      dup2\n      mstore\n        /* \"contracts/4_SmartGTFX.sol\":27745:27756  checkpoints */\n      0x09\n        /* \"contracts/4_SmartGTFX.sol\":27745:27764  checkpoints[dstRep] */\n      0x20\n      swap1\n      dup2\n      mstore\n      0x40\n      dup1\n      dup4\n      keccak256\n        /* \"contracts/4_SmartGTFX.sol\":27745:27779  checkpoints[dstRep][dstRepNum - 1] */\n      0xffffffff\n      not(0x00)\n        /* \"contracts/4_SmartGTFX.sol\":27765:27778  dstRepNum - 1 */\n      dup8\n      add\n        /* \"contracts/4_SmartGTFX.sol\":27745:27779  checkpoints[dstRep][dstRepNum - 1] */\n      and\n      dup5\n      mstore\n      swap1\n      swap2\n      mstore\n      swap1\n      keccak256\n        /* \"contracts/4_SmartGTFX.sol\":27777:27778  1 */\n      0x01\n        /* \"contracts/4_SmartGTFX.sol\":27745:27785  checkpoints[dstRep][dstRepNum - 1].votes */\n      add\n      sload\n        /* \"contracts/4_SmartGTFX.sol\":27729:27789  dstRepNum > 0 ? checkpoints[dstRep][dstRepNum - 1].votes : 0 */\n    tag_336:\n        /* \"contracts/4_SmartGTFX.sol\":27709:27789  uint256 dstRepOld = dstRepNum > 0 ? checkpoints[dstRep][dstRepNum - 1].votes : 0 */\n      swap1\n      pop\n        /* \"contracts/4_SmartGTFX.sol\":27807:27824  uint256 dstRepNew */\n      0x00\n        /* \"contracts/4_SmartGTFX.sol\":27827:27877  dstRepOld.add(amount, \"The vote amount overflows\") */\n      tag_337\n        /* \"contracts/4_SmartGTFX.sol\":27841:27847  amount */\n      dup5\n        /* \"contracts/4_SmartGTFX.sol\":27827:27877  dstRepOld.add(amount, \"The vote amount overflows\") */\n      mload(0x40)\n      dup1\n      0x40\n      add\n      0x40\n      mstore\n      dup1\n      0x19\n      dup2\n      mstore\n      0x20\n      add\n      0x54686520766f746520616d6f756e74206f766572666c6f777300000000000000\n      dup2\n      mstore\n      pop\n        /* \"contracts/4_SmartGTFX.sol\":27827:27836  dstRepOld */\n      dup5\n        /* \"contracts/4_SmartGTFX.sol\":27827:27840  dstRepOld.add */\n      tag_170\n      swap1\n        /* \"contracts/4_SmartGTFX.sol\":27827:27877  dstRepOld.add(amount, \"The vote amount overflows\") */\n      swap3\n      swap2\n      swap1\n      0xffffffff\n      and\n      jump\t// in\n    tag_337:\n        /* \"contracts/4_SmartGTFX.sol\":27807:27877  uint256 dstRepNew = dstRepOld.add(amount, \"The vote amount overflows\") */\n      swap1\n      pop\n        /* \"contracts/4_SmartGTFX.sol\":27895:27952  _writeCheckpoint(dstRep, dstRepNum, dstRepOld, dstRepNew) */\n      tag_253\n        /* \"contracts/4_SmartGTFX.sol\":27912:27918  dstRep */\n      dup6\n        /* \"contracts/4_SmartGTFX.sol\":27920:27929  dstRepNum */\n      dup5\n        /* \"contracts/4_SmartGTFX.sol\":27931:27940  dstRepOld */\n      dup5\n        /* \"contracts/4_SmartGTFX.sol\":27942:27951  dstRepNew */\n      dup5\n        /* \"contracts/4_SmartGTFX.sol\":27895:27911  _writeCheckpoint */\n      tag_333\n        /* \"contracts/4_SmartGTFX.sol\":27895:27952  _writeCheckpoint(dstRep, dstRepNum, dstRepOld, dstRepNew) */\n      jump\t// in\n        /* \"contracts/4_SmartGTFX.sol\":2134:2262  function sub(uint256 a, uint256 b) internal pure returns (uint256) {... */\n    tag_316:\n        /* \"contracts/4_SmartGTFX.sol\":2192:2199  uint256 */\n      0x00\n        /* \"contracts/4_SmartGTFX.sol\":2214:2257  sub(a, b, \"SafeMath: subtraction overflow\") */\n      tag_244\n        /* \"contracts/4_SmartGTFX.sol\":2218:2219  a */\n      dup4\n        /* \"contracts/4_SmartGTFX.sol\":2221:2222  b */\n      dup4\n        /* \"contracts/4_SmartGTFX.sol\":2214:2257  sub(a, b, \"SafeMath: subtraction overflow\") */\n      mload(0x40)\n      dup1\n      0x40\n      add\n      0x40\n      mstore\n      dup1\n      0x1e\n      dup2\n      mstore\n      0x20\n      add\n      0x536166654d6174683a207375627472616374696f6e206f766572666c6f770000\n      dup2\n      mstore\n      pop\n        /* \"contracts/4_SmartGTFX.sol\":2214:2217  sub */\n      tag_159\n        /* \"contracts/4_SmartGTFX.sol\":2214:2257  sub(a, b, \"SafeMath: subtraction overflow\") */\n      jump\t// in\n        /* \"contracts/4_SmartGTFX.sol\":27989:28589  function _writeCheckpoint(address delegatee, uint32 nCheckpoints, uint256 oldVotes, uint256 newVotes) internal {... */\n    tag_333:\n        /* \"contracts/4_SmartGTFX.sol\":28108:28126  uint32 blockNumber */\n      0x00\n        /* \"contracts/4_SmartGTFX.sol\":28129:28185  safe32(block.number, \"The block number exceeds 32 bits\") */\n      tag_342\n        /* \"contracts/4_SmartGTFX.sol\":28136:28148  block.number */\n      number\n        /* \"contracts/4_SmartGTFX.sol\":28129:28185  safe32(block.number, \"The block number exceeds 32 bits\") */\n      mload(0x40)\n      dup1\n      0x40\n      add\n      0x40\n      mstore\n      dup1\n      0x20\n      dup2\n      mstore\n      0x20\n      add\n      0x54686520626c6f636b206e756d62657220657863656564732033322062697473\n      dup2\n      mstore\n      pop\n        /* \"contracts/4_SmartGTFX.sol\":28129:28135  safe32 */\n      tag_343\n        /* \"contracts/4_SmartGTFX.sol\":28129:28185  safe32(block.number, \"The block number exceeds 32 bits\") */\n      jump\t// in\n    tag_342:\n        /* \"contracts/4_SmartGTFX.sol\":28108:28185  uint32 blockNumber = safe32(block.number, \"The block number exceeds 32 bits\") */\n      swap1\n      pop\n        /* \"contracts/4_SmartGTFX.sol\":28213:28214  0 */\n      0x00\n        /* \"contracts/4_SmartGTFX.sol\":28198:28210  nCheckpoints */\n      dup5\n        /* \"contracts/4_SmartGTFX.sol\":28198:28214  nCheckpoints > 0 */\n      0xffffffff\n      and\n      gt\n        /* \"contracts/4_SmartGTFX.sol\":28198:28283  nCheckpoints > 0 && checkpoints[delegatee][nCheckpoints - 1].fromBlock == blockNumber */\n      dup1\n      iszero\n      tag_344\n      jumpi\n      pop\n      sub(shl(0xa0, 0x01), 0x01)\n        /* \"contracts/4_SmartGTFX.sol\":28218:28240  checkpoints[delegatee] */\n      dup6\n      and\n      0x00\n      swap1\n      dup2\n      mstore\n        /* \"contracts/4_SmartGTFX.sol\":28218:28229  checkpoints */\n      0x09\n        /* \"contracts/4_SmartGTFX.sol\":28218:28240  checkpoints[delegatee] */\n      0x20\n      swap1\n      dup2\n      mstore\n      0x40\n      dup1\n      dup4\n      keccak256\n        /* \"contracts/4_SmartGTFX.sol\":28218:28283  checkpoints[delegatee][nCheckpoints - 1].fromBlock == blockNumber */\n      0xffffffff\n      not(0x00)\n        /* \"contracts/4_SmartGTFX.sol\":28241:28257  nCheckpoints - 1 */\n      dup10\n      add\n        /* \"contracts/4_SmartGTFX.sol\":28218:28258  checkpoints[delegatee][nCheckpoints - 1] */\n      dup2\n      and\n      dup6\n      mstore\n      swap3\n      mstore\n      swap1\n      swap2\n      keccak256\n        /* \"contracts/4_SmartGTFX.sol\":28218:28268  checkpoints[delegatee][nCheckpoints - 1].fromBlock */\n      sload\n        /* \"contracts/4_SmartGTFX.sol\":28218:28283  checkpoints[delegatee][nCheckpoints - 1].fromBlock == blockNumber */\n      dup3\n      dup3\n      and\n        /* \"contracts/4_SmartGTFX.sol\":28218:28268  checkpoints[delegatee][nCheckpoints - 1].fromBlock */\n      swap2\n      and\n        /* \"contracts/4_SmartGTFX.sol\":28218:28283  checkpoints[delegatee][nCheckpoints - 1].fromBlock == blockNumber */\n      eq\n        /* \"contracts/4_SmartGTFX.sol\":28198:28283  nCheckpoints > 0 && checkpoints[delegatee][nCheckpoints - 1].fromBlock == blockNumber */\n    tag_344:\n        /* \"contracts/4_SmartGTFX.sol\":28194:28518  if (nCheckpoints > 0 && checkpoints[delegatee][nCheckpoints - 1].fromBlock == blockNumber) {... */\n      iszero\n      tag_345\n      jumpi\n      sub(shl(0xa0, 0x01), 0x01)\n        /* \"contracts/4_SmartGTFX.sol\":28297:28319  checkpoints[delegatee] */\n      dup6\n      and\n      0x00\n      swap1\n      dup2\n      mstore\n        /* \"contracts/4_SmartGTFX.sol\":28297:28308  checkpoints */\n      0x09\n        /* \"contracts/4_SmartGTFX.sol\":28297:28319  checkpoints[delegatee] */\n      0x20\n      swap1\n      dup2\n      mstore\n      0x40\n      dup1\n      dup4\n      keccak256\n        /* \"contracts/4_SmartGTFX.sol\":28297:28337  checkpoints[delegatee][nCheckpoints - 1] */\n      0xffffffff\n      not(0x00)\n        /* \"contracts/4_SmartGTFX.sol\":28320:28336  nCheckpoints - 1 */\n      dup10\n      add\n        /* \"contracts/4_SmartGTFX.sol\":28297:28337  checkpoints[delegatee][nCheckpoints - 1] */\n      and\n      dup5\n      mstore\n      swap1\n      swap2\n      mstore\n      swap1\n      keccak256\n        /* \"contracts/4_SmartGTFX.sol\":28335:28336  1 */\n      0x01\n        /* \"contracts/4_SmartGTFX.sol\":28297:28343  checkpoints[delegatee][nCheckpoints - 1].votes */\n      add\n        /* \"contracts/4_SmartGTFX.sol\":28297:28354  checkpoints[delegatee][nCheckpoints - 1].votes = newVotes */\n      dup3\n      swap1\n      sstore\n        /* \"contracts/4_SmartGTFX.sol\":28194:28518  if (nCheckpoints > 0 && checkpoints[delegatee][nCheckpoints - 1].fromBlock == blockNumber) {... */\n      jump(tag_346)\n    tag_345:\n        /* \"contracts/4_SmartGTFX.sol\":28420:28453  Checkpoint(blockNumber, newVotes) */\n      0x40\n      dup1\n      mload\n      dup1\n      dup3\n      add\n      dup3\n      mstore\n      0xffffffff\n      dup1\n      dup5\n      and\n      dup3\n      mstore\n      0x20\n      dup1\n      dup4\n      add\n      dup7\n      dup2\n      mstore\n      sub(shl(0xa0, 0x01), 0x01)\n        /* \"contracts/4_SmartGTFX.sol\":28381:28403  checkpoints[delegatee] */\n      dup11\n      and\n      0x00\n      dup2\n      dup2\n      mstore\n        /* \"contracts/4_SmartGTFX.sol\":28381:28392  checkpoints */\n      0x09\n        /* \"contracts/4_SmartGTFX.sol\":28381:28403  checkpoints[delegatee] */\n      dup5\n      mstore\n      dup7\n      dup2\n      keccak256\n        /* \"contracts/4_SmartGTFX.sol\":28381:28417  checkpoints[delegatee][nCheckpoints] */\n      dup12\n      dup7\n      and\n      dup3\n      mstore\n      dup5\n      mstore\n      dup7\n      dup2\n      keccak256\n        /* \"contracts/4_SmartGTFX.sol\":28381:28453  checkpoints[delegatee][nCheckpoints] = Checkpoint(blockNumber, newVotes) */\n      swap6\n      mload\n      dup7\n      sload\n      swap1\n      dup7\n      and\n      not(0xffffffff)\n      swap2\n      dup3\n      and\n      or\n      dup8\n      sstore\n      swap3\n      mload\n      0x01\n      swap7\n      dup8\n      add\n      sstore\n        /* \"contracts/4_SmartGTFX.sol\":28465:28490  numCheckpoints[delegatee] */\n      swap1\n      dup2\n      mstore\n        /* \"contracts/4_SmartGTFX.sol\":28465:28479  numCheckpoints */\n      0x0a\n        /* \"contracts/4_SmartGTFX.sol\":28465:28490  numCheckpoints[delegatee] */\n      swap1\n      swap3\n      mstore\n      swap4\n      swap1\n      keccak256\n        /* \"contracts/4_SmartGTFX.sol\":28465:28509  numCheckpoints[delegatee] = nCheckpoints + 1 */\n      dup1\n      sload\n        /* \"contracts/4_SmartGTFX.sol\":28493:28509  nCheckpoints + 1 */\n      swap3\n      dup9\n      add\n        /* \"contracts/4_SmartGTFX.sol\":28465:28509  numCheckpoints[delegatee] = nCheckpoints + 1 */\n      swap1\n      swap2\n      and\n      swap2\n      swap1\n      swap3\n      and\n      or\n      swap1\n      sstore\n        /* \"contracts/4_SmartGTFX.sol\":28194:28518  if (nCheckpoints > 0 && checkpoints[delegatee][nCheckpoints - 1].fromBlock == blockNumber) {... */\n    tag_346:\n        /* \"contracts/4_SmartGTFX.sol\":28531:28582  DelegateVotesChanged(delegatee, oldVotes, newVotes) */\n      0x40\n      dup1\n      mload\n      dup5\n      dup2\n      mstore\n      0x20\n      dup2\n      add\n      dup5\n      swap1\n      mstore\n      dup2\n      mload\n      sub(shl(0xa0, 0x01), 0x01)\n      dup9\n      and\n      swap3\n      0xdec2bacdd2f05b59de34da9b523dff8be42e5e38e818c82fdb0bae774387a724\n      swap3\n      dup3\n      swap1\n      sub\n      add\n      swap1\n      log2\n        /* \"contracts/4_SmartGTFX.sol\":27989:28589  function _writeCheckpoint(address delegatee, uint32 nCheckpoints, uint256 oldVotes, uint256 newVotes) internal {... */\n      pop\n      pop\n      pop\n      pop\n      pop\n      jump\t// out\n        /* \"contracts/4_SmartGTFX.sol\":28599:28760  function safe32(uint256 n, string memory errorMessage) internal pure returns (uint32) {... */\n    tag_343:\n        /* \"contracts/4_SmartGTFX.sol\":28677:28683  uint32 */\n      0x00\n        /* \"contracts/4_SmartGTFX.sol\":28714:28726  errorMessage */\n      dup2\n        /* \"contracts/4_SmartGTFX.sol\":28707:28712  2**32 */\n      0x0100000000\n        /* \"contracts/4_SmartGTFX.sol\":28703:28712  n < 2**32 */\n      dup5\n      lt\n        /* \"contracts/4_SmartGTFX.sol\":28695:28727  require(n < 2**32, errorMessage) */\n      tag_348\n      jumpi\n      mload(0x40)\n      shl(0xe5, 0x461bcd)\n      dup2\n      mstore\n      0x20\n      0x04\n      dup3\n      add\n      dup2\n      dup2\n      mstore\n      dup4\n      mload\n      0x24\n      dup5\n      add\n      mstore\n      dup4\n      mload\n      swap1\n      swap3\n      dup4\n      swap3\n      0x44\n      swap1\n      swap2\n      add\n      swap2\n      swap1\n      dup6\n      add\n      swap1\n      dup1\n      dup4\n      dup4\n      0x00\n        /* \"--CODEGEN--\":27:37   */\n      dup4\n      iszero\n        /* \"--CODEGEN--\":8:108   */\n      tag_304\n      jumpi\n        /* \"--CODEGEN--\":90:101   */\n      dup2\n      dup2\n      add\n        /* \"--CODEGEN--\":84:102   */\n      mload\n        /* \"--CODEGEN--\":71:82   */\n      dup4\n      dup3\n      add\n        /* \"--CODEGEN--\":64:103   */\n      mstore\n        /* \"--CODEGEN--\":52:54   */\n      0x20\n        /* \"--CODEGEN--\":45:55   */\n      add\n        /* \"--CODEGEN--\":8:108   */\n      jump(tag_302)\n        /* \"contracts/4_SmartGTFX.sol\":28695:28727  require(n < 2**32, errorMessage) */\n    tag_348:\n      pop\n        /* \"contracts/4_SmartGTFX.sol\":28751:28752  n */\n      swap2\n      swap3\n        /* \"contracts/4_SmartGTFX.sol\":28599:28760  function safe32(uint256 n, string memory errorMessage) internal pure returns (uint32) {... */\n      swap2\n      pop\n      pop\n      jump\t// out\n        /* \"contracts/4_SmartGTFX.sol\":13479:29084  contract GTFX is BEP20Interface, Tokenlock, UserLock {... */\n    tag_211:\n      0x40\n      dup1\n      mload\n      dup1\n      dup3\n      add\n      swap1\n      swap2\n      mstore\n      0x00\n      dup1\n      dup3\n      mstore\n      0x20\n      dup3\n      add\n      mstore\n      swap1\n      jump\t// out\n    stop\n    data_02cd250aff92ba04a009213390107e53e83f14a04575e595af9230b9654afed9 43616e6e6f7420617070726f766520746f20746865207a65726f2061646472657373\n    data_0ac444b4635a35929a68a5c8fa43076f8fd9d5dd9c52546538d69b2042f34c77 54686520696e6372656173656420616c6c6f77616e6365206f766572666c6f7773\n    data_245f15ff17f551913a7a18385165551503906a406f905ac1c2437281a7cd0cfe 4f776e61626c653a206e6577206f776e657220697320746865207a65726f2061646472657373\n    data_36ce88ba958e2b0d44cda35791945f0a281d35d6e350d9c9f8eedd2b2359d57d 43616e6e6f7420617070726f76652066726f6d20746865207a65726f2061646472657373\n    data_3fc916dc37cf2cf07a856ad1473ad93b10f9a58e0ad4dc3c2ff0ceabba196973 546865207472616e7366657220616d6f756e7420657863656564732062616c616e6365\n    data_42d9a8e134af3312daacac2d2003d2e3a900f5f05eb0de35b651f1e9ce1c4e5b 5468652064656372656173656420616c6c6f77616e63652062656c6f77207a65726f\n    data_5e83471b3a3d1fe92bff19912bab84dcc2c92190af741e7c33d886d7ec91f5d1 546865207472616e7366657220616d6f756e74206578636565647320616c6c6f77616e6365\n    data_8cad95687ba82c2ce50e74f7b754645e5117c3a5bec8151c0726d5857980a866 454950373132446f6d61696e28737472696e67206e616d652c75696e7432353620636861696e49642c6164647265737320766572696679696e67436f6e747261637429\n    data_9924ebdf1add33d25d4ef888e16131f0a5687b0580a36c21b5c301a6c462effe 4f776e61626c653a2063616c6c6572206973206e6f7420746865206f776e6572\n    data_bd9517161462829be5a3d25154ae5230e5ad2e2aaab3c9bf15e6e48716b4a12e 43616e6e6f74207472616e736665722066726f6d20746865207a65726f2061646472657373\n    data_deea2fa463cdaca7bcc6c65f53b7ae24609806e88ca4fdb7ade049dc06112288 43616e6e6f74207472616e7366657220746f20746865207a65726f2061646472657373\n    data_e48329057bfd03d55e49b547132e39cffd9c1820ad7b9d4c5307691425d15adf 44656c65676174696f6e28616464726573732064656c6567617465652c75696e74323536206e6f6e63652c75696e743235362065787069727929\n    data_f5cef2fe2a70ca222ed18c80624b418b6d950cfd5cb46a9f7c5ab6b4ab537cee 43616e6e6f74206275726e2066726f6d20746865207a65726f2061646472657373\n\n    auxdata: 0xa265627a7a72315820d2beae58a8afc484ac8d76855612d49a108fe0775a6020c5853cf5c6fc5e397764736f6c63430005110032\n}\n",
				"bytecode": {
					"linkReferences": {},
					"object": "60806040526000805460ff60a01b191690553480156200001e57600080fd5b506040516200299c3803806200299c833981810160405260208110156200004457600080fd5b505160006200005b6001600160e01b036200019216565b600080546001600160a01b0319166001600160a01b0383169081178255604051929350917f8be0079c531659141344cd1fd0a4f28419497f9722a3daafe3b4186f6b6457e0908290a3506040805180820190915260188082527f47697473686f636b2046696e616e636520546573746e657400000000000000006020909201918252620000eb9160079162000197565b50604080518082019091526005808252640e88ea88cb60db1b60209092019182526200011a9160069162000197565b506005805460ff191660121790556a295be96e6406697200000060048190556001600160a01b0382166000818152600260209081526040808320859055805194855251929391927fddf252ad1be2c89b69c2b068fc378daa952ba7f163c4a11628f55a4df523b3ef9281900390910190a35062000239565b335b90565b828054600181600116156101000203166002900490600052602060002090601f016020900481019282601f10620001da57805160ff19168380011785556200020a565b828001600101855582156200020a579182015b828111156200020a578251825591602001919060010190620001ed565b50620002189291506200021c565b5090565b6200019491905b8082111562000218576000815560010162000223565b61275380620002496000396000f3fe608060405234801561001057600080fd5b50600436106101e55760003560e01c8063782d6fe11161010f578063bd1870a3116100a2578063dd62ed3e11610071578063dd62ed3e146106a4578063e7a324dc146106d2578063f1127ed8146106da578063f2fde38b1461072c576101e5565b8063bd1870a314610556578063c3cda5201461057c578063cae9ca51146105c3578063d79725801461067e576101e5565b806395d89b41116100de57806395d89b41146104d0578063a457c2d7146104d8578063a9059cbb14610504578063b4b5ea5714610530576101e5565b8063782d6fe11461044d5780637ecebe001461049a578063893d20e8146104c05780638da5cb5b146104c8576101e5565b806342966c68116101875780636a28f000116101565780636a28f000146103d85780636fcfff45146103e057806370a082311461041f578063715018a614610445576101e5565b806342966c6814610349578063587cde1e146103665780635c19a95c146103a857806362a5af3b146103d0576101e5565b806320606b70116101c357806320606b70146102c157806323b872dd146102c9578063313ce567146102ff578063395093511461031d576101e5565b806306fdde03146101ea578063095ea7b31461026757806318160ddd146102a7575b600080fd5b6101f2610752565b6040805160208082528351818301528351919283929083019185019080838360005b8381101561022c578181015183820152602001610214565b50505050905090810190601f1680156102595780820380516001836020036101000a031916815260200191505b509250505060405180910390f35b6102936004803603604081101561027d57600080fd5b506001600160a01b0381351690602001356107e8565b604080519115158252519081900360200190f35b6102af6108aa565b60408051918252519081900360200190f35b6102af6108b0565b610293600480360360608110156102df57600080fd5b506001600160a01b038135811691602081013590911690604001356108cb565b6103076109f9565b6040805160ff9092168252519081900360200190f35b6102936004803603604081101561033357600080fd5b506001600160a01b038135169060200135610a02565b6102936004803603602081101561035f57600080fd5b5035610b14565b61038c6004803603602081101561037c57600080fd5b50356001600160a01b0316610bd4565b604080516001600160a01b039092168252519081900360200190f35b6103ce600480360360208110156103be57600080fd5b50356001600160a01b0316610bef565b005b6103ce610ca8565b6103ce610d3c565b610406600480360360208110156103f657600080fd5b50356001600160a01b0316610dca565b6040805163ffffffff9092168252519081900360200190f35b6102af6004803603602081101561043557600080fd5b50356001600160a01b0316610de2565b6103ce610dfd565b6104796004803603604081101561046357600080fd5b506001600160a01b038135169060200135610e9f565b604080516bffffffffffffffffffffffff9092168252519081900360200190f35b6102af600480360360208110156104b057600080fd5b50356001600160a01b03166110cd565b61038c6110df565b61038c6110ee565b6101f26110fd565b610293600480360360408110156104ee57600080fd5b506001600160a01b03813516906020013561115e565b6102936004803603604081101561051a57600080fd5b506001600160a01b038135169060200135611270565b6104796004803603602081101561054657600080fd5b50356001600160a01b0316611328565b6103ce6004803603602081101561056c57600080fd5b50356001600160a01b0316611394565b6103ce600480360360c081101561059257600080fd5b506001600160a01b038135169060208101359060408101359060ff6060820135169060808101359060a00135611435565b610293600480360360608110156105d957600080fd5b6001600160a01b038235169160208101359181019060608101604082013564010000000081111561060957600080fd5b82018360208201111561061b57600080fd5b8035906020019184600183028401116401000000008311171561063d57600080fd5b91908080601f0160208091040260200160405190810160405280939291908181526020018383808284376000920191909152509295506117c9945050505050565b6103ce6004803603602081101561069457600080fd5b50356001600160a01b031661198e565b6102af600480360360408110156106ba57600080fd5b506001600160a01b0381358116916020013516611a35565b6102af611a60565b61070c600480360360408110156106f057600080fd5b5080356001600160a01b0316906020013563ffffffff16611a7b565b6040805163ffffffff909316835260208301919091528051918290030190f35b6103ce6004803603602081101561074257600080fd5b50356001600160a01b0316611aa8565b60078054604080516020601f60026000196101006001881615020190951694909404938401819004810282018101909252828152606093909290918301828280156107de5780601f106107b3576101008083540402835291602001916107de565b820191906000526020600020905b8154815290600101906020018083116107c157829003601f168201915b5050505050905090565b60008054600160a01b900460ff161561083a576040805162461bcd60e51b815260206004820152600f60248201526e151bdad95b881a5cc81b1bd8dad959608a1b604482015290519081900360640190fd5b3360009081526001602052604090205460ff161561088e576040805162461bcd60e51b815260206004820152600c60248201526b213637b1b5b2b2103ab9b2b960a11b604482015290519081900360640190fd5b6108a0610899611b09565b8484611b0d565b5060015b92915050565b60045490565b60405180604361261982396043019050604051809103902081565b60008054600160a01b900460ff161561091d576040805162461bcd60e51b815260206004820152600f60248201526e151bdad95b881a5cc81b1bd8dad959608a1b604482015290519081900360640190fd5b3360009081526001602052604090205460ff1615610971576040805162461bcd60e51b815260206004820152600c60248201526b213637b1b5b2b2103ab9b2b960a11b604482015290519081900360640190fd5b61097c848484611bf9565b6000610986611b09565b6001600160a01b0380871660009081526003602090815260408083209385168352929052205490915060001981146109ed576109ed86836109e8876040518060600160405280602581526020016125f46025913986919063ffffffff611db816565b611b0d565b50600195945050505050565b60055460ff1690565b60008054600160a01b900460ff1615610a54576040805162461bcd60e51b815260206004820152600f60248201526e151bdad95b881a5cc81b1bd8dad959608a1b604482015290519081900360640190fd5b3360009081526001602052604090205460ff1615610aa8576040805162461bcd60e51b815260206004820152600c60248201526b213637b1b5b2b2103ab9b2b960a11b604482015290519081900360640190fd5b6108a0610ab3611b09565b846109e8856040518060600160405280602181526020016125446021913960036000610add611b09565b6001600160a01b03908116825260208083019390935260409182016000908120918d1681529252902054919063ffffffff611e4f16565b60008054600160a01b900460ff1615610b66576040805162461bcd60e51b815260206004820152600f60248201526e151bdad95b881a5cc81b1bd8dad959608a1b604482015290519081900360640190fd5b3360009081526001602052604090205460ff1615610bba576040805162461bcd60e51b815260206004820152600c60248201526b213637b1b5b2b2103ab9b2b960a11b604482015290519081900360640190fd5b610bcb610bc5611b09565b83611ead565b5060015b919050565b6008602052600090815260409020546001600160a01b031681565b600054600160a01b900460ff1615610c40576040805162461bcd60e51b815260206004820152600f60248201526e151bdad95b881a5cc81b1bd8dad959608a1b604482015290519081900360640190fd5b3360009081526001602052604090205460ff1615610c94576040805162461bcd60e51b815260206004820152600c60248201526b213637b1b5b2b2103ab9b2b960a11b604482015290519081900360640190fd5b610ca5610c9f611b09565b82611fed565b50565b610cb0611b09565b6000546001600160a01b03908116911614610d00576040805162461bcd60e51b8152602060048201819052602482015260008051602061265c833981519152604482015290519081900360640190fd5b6000805460ff60a01b1916600160a01b1781556040517f962a6139ca22015759d0878e2cf5d770dcb8152e1d5ba08e46a969dd9b154a9c9190a1565b610d44611b09565b6000546001600160a01b03908116911614610d94576040805162461bcd60e51b8152602060048201819052602482015260008051602061265c833981519152604482015290519081900360640190fd5b6000805460ff60a01b191681556040517ff0daac2271a735ea786b9adf80dfcbd6a3cbd52f3cab0a78337114692d5faf5d9190a1565b600a6020526000908152604090205463ffffffff1681565b6001600160a01b031660009081526002602052604090205490565b610e05611b09565b6000546001600160a01b03908116911614610e55576040805162461bcd60e51b8152602060048201819052602482015260008051602061265c833981519152604482015290519081900360640190fd5b600080546040516001600160a01b03909116907f8be0079c531659141344cd1fd0a4f28419497f9722a3daafe3b4186f6b6457e0908390a3600080546001600160a01b0319169055565b6000438210610eea576040805162461bcd60e51b8152602060048201526012602482015271139bdd0819195d195c9b5a5b9959081e595d60721b604482015290519081900360640190fd5b6001600160a01b0383166000908152600a602052604090205463ffffffff1680610f185760009150506108a4565b6001600160a01b038416600090815260096020908152604080832063ffffffff600019860181168552925290912054168310610f90576001600160a01b038416600090815260096020908152604080832063ffffffff6000198601168452909152902060010154610f889061206d565b9150506108a4565b6001600160a01b038416600090815260096020908152604080832083805290915290205463ffffffff16831015610fcb5760009150506108a4565b600060001982015b8163ffffffff168163ffffffff16111561108d57600282820363ffffffff16048103610ffd61250a565b506001600160a01b038716600090815260096020908152604080832063ffffffff8086168552908352928190208151808301909252805490931680825260019093015491810191909152908714156110685761105c816020015161206d565b955050505050506108a4565b805163ffffffff1687111561107f57819350611086565b6001820392505b5050610fd3565b6001600160a01b038616600090815260096020908152604080832063ffffffff861684529091529020600101546110c39061206d565b9695505050505050565b600b6020526000908152604090205481565b60006110e96110ee565b905090565b6000546001600160a01b031690565b60068054604080516020601f60026000196101006001881615020190951694909404938401819004810282018101909252828152606093909290918301828280156107de5780601f106107b3576101008083540402835291602001916107de565b60008054600160a01b900460ff16156111b0576040805162461bcd60e51b815260206004820152600f60248201526e151bdad95b881a5cc81b1bd8dad959608a1b604482015290519081900360640190fd5b3360009081526001602052604090205460ff1615611204576040805162461bcd60e51b815260206004820152600c60248201526b213637b1b5b2b2103ab9b2b960a11b604482015290519081900360640190fd5b6108a061120f611b09565b846109e8856040518060600160405280602281526020016125d26022913960036000611239611b09565b6001600160a01b03908116825260208083019390935260409182016000908120918d1681529252902054919063ffffffff611db816565b60008054600160a01b900460ff16156112c2576040805162461bcd60e51b815260206004820152600f60248201526e151bdad95b881a5cc81b1bd8dad959608a1b604482015290519081900360640190fd5b3360009081526001602052604090205460ff1615611316576040805162461bcd60e51b815260206004820152600c60248201526b213637b1b5b2b2103ab9b2b960a11b604482015290519081900360640190fd5b6108a0611321611b09565b8484611bf9565b6001600160a01b0381166000908152600a602052604081205463ffffffff168061135357600061138d565b6001600160a01b038316600090815260096020908152604080832063ffffffff600019860116845290915290206001015461138d9061206d565b9392505050565b61139c611b09565b6000546001600160a01b039081169116146113ec576040805162461bcd60e51b8152602060048201819052602482015260008051602061265c833981519152604482015290519081900360640190fd5b6001600160a01b038116600081815260016020526040808220805460ff19169055517f687691c08a3e67a160ba20a32cb1c56791955f12c5ff5d5fcf62bc456ad79ea19190a250565b600054600160a01b900460ff1615611486576040805162461bcd60e51b815260206004820152600f60248201526e151bdad95b881a5cc81b1bd8dad959608a1b604482015290519081900360640190fd5b3360009081526001602052604090205460ff16156114da576040805162461bcd60e51b815260206004820152600c60248201526b213637b1b5b2b2103ab9b2b960a11b604482015290519081900360640190fd5b600060405180806126196043913960430190506040518091039020600760405180828054600181600116156101000203166002900480156115525780601f10611530576101008083540402835291820191611552565b820191906000526020600020905b81548152906001019060200180831161153e575b50509150506040518091039020611567612087565b3060405160200180858152602001848152602001838152602001826001600160a01b03166001600160a01b03168152602001945050505050604051602081830303815290604052805190602001209050600060405180806126c4603a91396040805191829003603a0182206020808401919091526001600160a01b038c1683830152606083018b905260808084018b90528251808503909101815260a08401835280519082012061190160f01b60c085015260c2840187905260e2808501829052835180860390910181526101028501808552815191840191909120600091829052610122860180865281905260ff8c1661014287015261016286018b905261018286018a9052935191965092945091926001926101a28083019392601f198301929081900390910190855afa1580156116a5573d6000803e3d6000fd5b5050604051601f1901519150506001600160a01b038116611701576040805162461bcd60e51b8152602060048201526011602482015270496e76616c6964207369676e617475726560781b604482015290519081900360640190fd5b6001600160a01b0381166000908152600b602052604090208054600181019091558914611765576040805162461bcd60e51b815260206004820152600d60248201526c496e76616c6964206e6f6e636560981b604482015290519081900360640190fd5b874211156117b2576040805162461bcd60e51b8152602060048201526015602482015274151a19481cda59db985d1d5c9948195e1c1a5c9959605a1b604482015290519081900360640190fd5b6117bc818b611fed565b505050505b505050505050565b60008054600160a01b900460ff161561181b576040805162461bcd60e51b815260206004820152600f60248201526e151bdad95b881a5cc81b1bd8dad959608a1b604482015290519081900360640190fd5b3360009081526001602052604090205460ff161561186f576040805162461bcd60e51b815260206004820152600c60248201526b213637b1b5b2b2103ab9b2b960a11b604482015290519081900360640190fd5b61188161187a611b09565b8585611b0d565b836001600160a01b0316638f4ffcb1611898611b09565b8530866040518563ffffffff1660e01b815260040180856001600160a01b03166001600160a01b03168152602001848152602001836001600160a01b03166001600160a01b0316815260200180602001828103825283818151815260200191508051906020019080838360005b8381101561191d578181015183820152602001611905565b50505050905090810190601f16801561194a5780820380516001836020036101000a031916815260200191505b5095505050505050600060405180830381600087803b15801561196c57600080fd5b505af1158015611980573d6000803e3d6000fd5b506001979650505050505050565b611996611b09565b6000546001600160a01b039081169116146119e6576040805162461bcd60e51b8152602060048201819052602482015260008051602061265c833981519152604482015290519081900360640190fd5b6001600160a01b0381166000818152600160208190526040808320805460ff1916909217909155517f169aadf55dc2098830ccf9f334e3ce3933b6e895b9114fc9f49242f2be61fe8e9190a250565b6001600160a01b03918216600090815260036020908152604080832093909416825291909152205490565b60405180603a6126c48239603a019050604051809103902081565b60096020908152600092835260408084209091529082529020805460019091015463ffffffff9091169082565b611ab0611b09565b6000546001600160a01b03908116911614611b00576040805162461bcd60e51b8152602060048201819052602482015260008051602061265c833981519152604482015290519081900360640190fd5b610ca58161208b565b3390565b6001600160a01b038316611b525760405162461bcd60e51b815260040180806020018281038252602481526020018061258b6024913960400191505060405180910390fd5b6001600160a01b038216611b975760405162461bcd60e51b81526004018080602001828103825260228152602001806125226022913960400191505060405180910390fd5b6001600160a01b03808416600081815260036020908152604080832094871680845294825291829020859055815185815291517f8c5be1e5ebec7d5bd14f71427d1e84f3dd0314c0f7b2291e5b200ac8c7c3b9259281900390910190a3505050565b6001600160a01b038316611c3e5760405162461bcd60e51b815260040180806020018281038252602581526020018061267c6025913960400191505060405180910390fd5b6001600160a01b038216611c835760405162461bcd60e51b81526004018080602001828103825260238152602001806126a16023913960400191505060405180910390fd5b611cc6816040518060600160405280602381526020016125af602391396001600160a01b038616600090815260026020526040902054919063ffffffff611db816565b6001600160a01b038085166000908152600260208181526040808420959095558451808601865260158152745468652062616c616e6365206f766572666c6f777360581b818301529387168352529190912054611d2a91839063ffffffff611e4f16565b6001600160a01b0380841660008181526002602090815260409182902094909455805185815290519193928716927fddf252ad1be2c89b69c2b068fc378daa952ba7f163c4a11628f55a4df523b3ef92918290030190a36001600160a01b03808416600090815260086020526040808220548584168352912054611db39291821691168361212b565b505050565b60008184841115611e475760405162461bcd60e51b81526004018080602001828103825283818151815260200191508051906020019080838360005b83811015611e0c578181015183820152602001611df4565b50505050905090810190601f168015611e395780820380516001836020036101000a031916815260200191505b509250505060405180910390fd5b505050900390565b60008383018285821015611ea45760405162461bcd60e51b8152602060048201818152835160248401528351909283926044909101919085019080838360008315611e0c578181015183820152602001611df4565b50949350505050565b6001600160a01b038216611ef25760405162461bcd60e51b81526004018080602001828103825260218152602001806126fe6021913960400191505060405180910390fd5b604080518082018252601f81527f546865206275726e20616d6f756e7420657863656564732062616c616e6365006020808301919091526001600160a01b038516600090815260029091529190912054611f5391839063ffffffff611db816565b6001600160a01b038316600090815260026020526040902055600454611f7f908263ffffffff6122e816565b6004556040805182815290516000916001600160a01b038516917fddf252ad1be2c89b69c2b068fc378daa952ba7f163c4a11628f55a4df523b3ef9181900360200190a36001600160a01b03808316600090815260086020526040812054611fe99216908361212b565b5050565b6001600160a01b03808316600081815260086020818152604080842080546002845282862054949093528787166001600160a01b03198416811790915590519190951694919391928592917f3134e8a2e6d97e929a7e54011ea5485d7d196dd5f0ba4d4ef95803e8e3fc257f9190a461206782848361212b565b50505050565b6000600160601b82106120835750600019610bcf565b5090565b4690565b6001600160a01b0381166120d05760405162461bcd60e51b81526004018080602001828103825260268152602001806125656026913960400191505060405180910390fd5b600080546040516001600160a01b03808516939216917f8be0079c531659141344cd1fd0a4f28419497f9722a3daafe3b4186f6b6457e091a3600080546001600160a01b0319166001600160a01b0392909216919091179055565b816001600160a01b0316836001600160a01b03161415801561214d5750600081115b15611db3576001600160a01b0383161561221f576001600160a01b0383166000908152600a602052604081205463ffffffff16908161218d5760006121bf565b6001600160a01b038516600090815260096020908152604080832063ffffffff60001987011684529091529020600101545b9050600061220d846040518060400160405280601a81526020017f54686520766f746520616d6f756e7420756e646572666c6f777300000000000081525084611db89092919063ffffffff16565b905061221b8684848461232a565b5050505b6001600160a01b03821615611db3576001600160a01b0382166000908152600a602052604081205463ffffffff16908161225a57600061228c565b6001600160a01b038416600090815260096020908152604080832063ffffffff60001987011684529091529020600101545b905060006122da846040518060400160405280601981526020017f54686520766f746520616d6f756e74206f766572666c6f77730000000000000081525084611e4f9092919063ffffffff16565b90506117c18584848461232a565b600061138d83836040518060400160405280601e81526020017f536166654d6174683a207375627472616374696f6e206f766572666c6f770000815250611db8565b600061236b436040518060400160405280602081526020017f54686520626c6f636b206e756d626572206578636565647320333220626974738152506124ac565b905060008463ffffffff161180156123b457506001600160a01b038516600090815260096020908152604080832063ffffffff6000198901811685529252909120548282169116145b156123f1576001600160a01b038516600090815260096020908152604080832063ffffffff60001989011684529091529020600101829055612462565b60408051808201825263ffffffff808416825260208083018681526001600160a01b038a166000818152600984528681208b8616825284528681209551865490861663ffffffff199182161787559251600196870155908152600a9092529390208054928801909116919092161790555b604080518481526020810184905281516001600160a01b038816927fdec2bacdd2f05b59de34da9b523dff8be42e5e38e818c82fdb0bae774387a724928290030190a25050505050565b60008164010000000084106125025760405162461bcd60e51b8152602060048201818152835160248401528351909283926044909101919085019080838360008315611e0c578181015183820152602001611df4565b509192915050565b60408051808201909152600080825260208201529056fe43616e6e6f7420617070726f766520746f20746865207a65726f206164647265737354686520696e6372656173656420616c6c6f77616e6365206f766572666c6f77734f776e61626c653a206e6577206f776e657220697320746865207a65726f206164647265737343616e6e6f7420617070726f76652066726f6d20746865207a65726f2061646472657373546865207472616e7366657220616d6f756e7420657863656564732062616c616e63655468652064656372656173656420616c6c6f77616e63652062656c6f77207a65726f546865207472616e7366657220616d6f756e74206578636565647320616c6c6f77616e6365454950373132446f6d61696e28737472696e67206e616d652c75696e7432353620636861696e49642c6164647265737320766572696679696e67436f6e7472616374294f776e61626c653a2063616c6c6572206973206e6f7420746865206f776e657243616e6e6f74207472616e736665722066726f6d20746865207a65726f206164647265737343616e6e6f74207472616e7366657220746f20746865207a65726f206164647265737344656c65676174696f6e28616464726573732064656c6567617465652c75696e74323536206e6f6e63652c75696e74323536206578706972792943616e6e6f74206275726e2066726f6d20746865207a65726f2061646472657373a265627a7a72315820d2beae58a8afc484ac8d76855612d49a108fe0775a6020c5853cf5c6fc5e397764736f6c63430005110032",
					"opcodes": "PUSH1 0x80 PUSH1 0x40 MSTORE PUSH1 0x0 DUP1 SLOAD PUSH1 0xFF PUSH1 0xA0 SHL NOT AND SWAP1 SSTORE CALLVALUE DUP1 ISZERO PUSH3 0x1E JUMPI PUSH1 0x0 DUP1 REVERT JUMPDEST POP PUSH1 0x40 MLOAD PUSH3 0x299C CODESIZE SUB DUP1 PUSH3 0x299C DUP4 CODECOPY DUP2 DUP2 ADD PUSH1 0x40 MSTORE PUSH1 0x20 DUP2 LT ISZERO PUSH3 0x44 JUMPI PUSH1 0x0 DUP1 REVERT JUMPDEST POP MLOAD PUSH1 0x0 PUSH3 0x5B PUSH1 0x1 PUSH1 0x1 PUSH1 0xE0 SHL SUB PUSH3 0x192 AND JUMP JUMPDEST PUSH1 0x0 DUP1 SLOAD PUSH1 0x1 PUSH1 0x1 PUSH1 0xA0 SHL SUB NOT AND PUSH1 0x1 PUSH1 0x1 PUSH1 0xA0 SHL SUB DUP4 AND SWAP1 DUP2 OR DUP3 SSTORE PUSH1 0x40 MLOAD SWAP3 SWAP4 POP SWAP2 PUSH32 0x8BE0079C531659141344CD1FD0A4F28419497F9722A3DAAFE3B4186F6B6457E0 SWAP1 DUP3 SWAP1 LOG3 POP PUSH1 0x40 DUP1 MLOAD DUP1 DUP3 ADD SWAP1 SWAP2 MSTORE PUSH1 0x18 DUP1 DUP3 MSTORE PUSH32 0x47697473686F636B2046696E616E636520546573746E65740000000000000000 PUSH1 0x20 SWAP1 SWAP3 ADD SWAP2 DUP3 MSTORE PUSH3 0xEB SWAP2 PUSH1 0x7 SWAP2 PUSH3 0x197 JUMP JUMPDEST POP PUSH1 0x40 DUP1 MLOAD DUP1 DUP3 ADD SWAP1 SWAP2 MSTORE PUSH1 0x5 DUP1 DUP3 MSTORE PUSH5 0xE88EA88CB PUSH1 0xDB SHL PUSH1 0x20 SWAP1 SWAP3 ADD SWAP2 DUP3 MSTORE PUSH3 0x11A SWAP2 PUSH1 0x6 SWAP2 PUSH3 0x197 JUMP JUMPDEST POP PUSH1 0x5 DUP1 SLOAD PUSH1 0xFF NOT AND PUSH1 0x12 OR SWAP1 SSTORE PUSH11 0x295BE96E64066972000000 PUSH1 0x4 DUP2 SWAP1 SSTORE PUSH1 0x1 PUSH1 0x1 PUSH1 0xA0 SHL SUB DUP3 AND PUSH1 0x0 DUP2 DUP2 MSTORE PUSH1 0x2 PUSH1 0x20 SWAP1 DUP2 MSTORE PUSH1 0x40 DUP1 DUP4 KECCAK256 DUP6 SWAP1 SSTORE DUP1 MLOAD SWAP5 DUP6 MSTORE MLOAD SWAP3 SWAP4 SWAP2 SWAP3 PUSH32 0xDDF252AD1BE2C89B69C2B068FC378DAA952BA7F163C4A11628F55A4DF523B3EF SWAP3 DUP2 SWAP1 SUB SWAP1 SWAP2 ADD SWAP1 LOG3 POP PUSH3 0x239 JUMP JUMPDEST CALLER JUMPDEST SWAP1 JUMP JUMPDEST DUP3 DUP1 SLOAD PUSH1 0x1 DUP2 PUSH1 0x1 AND ISZERO PUSH2 0x100 MUL SUB AND PUSH1 0x2 SWAP1 DIV SWAP1 PUSH1 0x0 MSTORE PUSH1 0x20 PUSH1 0x0 KECCAK256 SWAP1 PUSH1 0x1F ADD PUSH1 0x20 SWAP1 DIV DUP2 ADD SWAP3 DUP3 PUSH1 0x1F LT PUSH3 0x1DA JUMPI DUP1 MLOAD PUSH1 0xFF NOT AND DUP4 DUP1 ADD OR DUP6 SSTORE PUSH3 0x20A JUMP JUMPDEST DUP3 DUP1 ADD PUSH1 0x1 ADD DUP6 SSTORE DUP3 ISZERO PUSH3 0x20A JUMPI SWAP2 DUP3 ADD JUMPDEST DUP3 DUP2 GT ISZERO PUSH3 0x20A JUMPI DUP3 MLOAD DUP3 SSTORE SWAP2 PUSH1 0x20 ADD SWAP2 SWAP1 PUSH1 0x1 ADD SWAP1 PUSH3 0x1ED JUMP JUMPDEST POP PUSH3 0x218 SWAP3 SWAP2 POP PUSH3 0x21C JUMP JUMPDEST POP SWAP1 JUMP JUMPDEST PUSH3 0x194 SWAP2 SWAP1 JUMPDEST DUP1 DUP3 GT ISZERO PUSH3 0x218 JUMPI PUSH1 0x0 DUP2 SSTORE PUSH1 0x1 ADD PUSH3 0x223 JUMP JUMPDEST PUSH2 0x2753 DUP1 PUSH3 0x249 PUSH1 0x0 CODECOPY PUSH1 0x0 RETURN INVALID PUSH1 0x80 PUSH1 0x40 MSTORE CALLVALUE DUP1 ISZERO PUSH2 0x10 JUMPI PUSH1 0x0 DUP1 REVERT JUMPDEST POP PUSH1 0x4 CALLDATASIZE LT PUSH2 0x1E5 JUMPI PUSH1 0x0 CALLDATALOAD PUSH1 0xE0 SHR DUP1 PUSH4 0x782D6FE1 GT PUSH2 0x10F JUMPI DUP1 PUSH4 0xBD1870A3 GT PUSH2 0xA2 JUMPI DUP1 PUSH4 0xDD62ED3E GT PUSH2 0x71 JUMPI DUP1 PUSH4 0xDD62ED3E EQ PUSH2 0x6A4 JUMPI DUP1 PUSH4 0xE7A324DC EQ PUSH2 0x6D2 JUMPI DUP1 PUSH4 0xF1127ED8 EQ PUSH2 0x6DA JUMPI DUP1 PUSH4 0xF2FDE38B EQ PUSH2 0x72C JUMPI PUSH2 0x1E5 JUMP JUMPDEST DUP1 PUSH4 0xBD1870A3 EQ PUSH2 0x556 JUMPI DUP1 PUSH4 0xC3CDA520 EQ PUSH2 0x57C JUMPI DUP1 PUSH4 0xCAE9CA51 EQ PUSH2 0x5C3 JUMPI DUP1 PUSH4 0xD7972580 EQ PUSH2 0x67E JUMPI PUSH2 0x1E5 JUMP JUMPDEST DUP1 PUSH4 0x95D89B41 GT PUSH2 0xDE JUMPI DUP1 PUSH4 0x95D89B41 EQ PUSH2 0x4D0 JUMPI DUP1 PUSH4 0xA457C2D7 EQ PUSH2 0x4D8 JUMPI DUP1 PUSH4 0xA9059CBB EQ PUSH2 0x504 JUMPI DUP1 PUSH4 0xB4B5EA57 EQ PUSH2 0x530 JUMPI PUSH2 0x1E5 JUMP JUMPDEST DUP1 PUSH4 0x782D6FE1 EQ PUSH2 0x44D JUMPI DUP1 PUSH4 0x7ECEBE00 EQ PUSH2 0x49A JUMPI DUP1 PUSH4 0x893D20E8 EQ PUSH2 0x4C0 JUMPI DUP1 PUSH4 0x8DA5CB5B EQ PUSH2 0x4C8 JUMPI PUSH2 0x1E5 JUMP JUMPDEST DUP1 PUSH4 0x42966C68 GT PUSH2 0x187 JUMPI DUP1 PUSH4 0x6A28F000 GT PUSH2 0x156 JUMPI DUP1 PUSH4 0x6A28F000 EQ PUSH2 0x3D8 JUMPI DUP1 PUSH4 0x6FCFFF45 EQ PUSH2 0x3E0 JUMPI DUP1 PUSH4 0x70A08231 EQ PUSH2 0x41F JUMPI DUP1 PUSH4 0x715018A6 EQ PUSH2 0x445 JUMPI PUSH2 0x1E5 JUMP JUMPDEST DUP1 PUSH4 0x42966C68 EQ PUSH2 0x349 JUMPI DUP1 PUSH4 0x587CDE1E EQ PUSH2 0x366 JUMPI DUP1 PUSH4 0x5C19A95C EQ PUSH2 0x3A8 JUMPI DUP1 PUSH4 0x62A5AF3B EQ PUSH2 0x3D0 JUMPI PUSH2 0x1E5 JUMP JUMPDEST DUP1 PUSH4 0x20606B70 GT PUSH2 0x1C3 JUMPI DUP1 PUSH4 0x20606B70 EQ PUSH2 0x2C1 JUMPI DUP1 PUSH4 0x23B872DD EQ PUSH2 0x2C9 JUMPI DUP1 PUSH4 0x313CE567 EQ PUSH2 0x2FF JUMPI DUP1 PUSH4 0x39509351 EQ PUSH2 0x31D JUMPI PUSH2 0x1E5 JUMP JUMPDEST DUP1 PUSH4 0x6FDDE03 EQ PUSH2 0x1EA JUMPI DUP1 PUSH4 0x95EA7B3 EQ PUSH2 0x267 JUMPI DUP1 PUSH4 0x18160DDD EQ PUSH2 0x2A7 JUMPI JUMPDEST PUSH1 0x0 DUP1 REVERT JUMPDEST PUSH2 0x1F2 PUSH2 0x752 JUMP JUMPDEST PUSH1 0x40 DUP1 MLOAD PUSH1 0x20 DUP1 DUP3 MSTORE DUP4 MLOAD DUP2 DUP4 ADD MSTORE DUP4 MLOAD SWAP2 SWAP3 DUP4 SWAP3 SWAP1 DUP4 ADD SWAP2 DUP6 ADD SWAP1 DUP1 DUP4 DUP4 PUSH1 0x0 JUMPDEST DUP4 DUP2 LT ISZERO PUSH2 0x22C JUMPI DUP2 DUP2 ADD MLOAD DUP4 DUP3 ADD MSTORE PUSH1 0x20 ADD PUSH2 0x214 JUMP JUMPDEST POP POP POP POP SWAP1 POP SWAP1 DUP2 ADD SWAP1 PUSH1 0x1F AND DUP1 ISZERO PUSH2 0x259 JUMPI DUP1 DUP3 SUB DUP1 MLOAD PUSH1 0x1 DUP4 PUSH1 0x20 SUB PUSH2 0x100 EXP SUB NOT AND DUP2 MSTORE PUSH1 0x20 ADD SWAP2 POP JUMPDEST POP SWAP3 POP POP POP PUSH1 0x40 MLOAD DUP1 SWAP2 SUB SWAP1 RETURN JUMPDEST PUSH2 0x293 PUSH1 0x4 DUP1 CALLDATASIZE SUB PUSH1 0x40 DUP2 LT ISZERO PUSH2 0x27D JUMPI PUSH1 0x0 DUP1 REVERT JUMPDEST POP PUSH1 0x1 PUSH1 0x1 PUSH1 0xA0 SHL SUB DUP2 CALLDATALOAD AND SWAP1 PUSH1 0x20 ADD CALLDATALOAD PUSH2 0x7E8 JUMP JUMPDEST PUSH1 0x40 DUP1 MLOAD SWAP2 ISZERO ISZERO DUP3 MSTORE MLOAD SWAP1 DUP2 SWAP1 SUB PUSH1 0x20 ADD SWAP1 RETURN JUMPDEST PUSH2 0x2AF PUSH2 0x8AA JUMP JUMPDEST PUSH1 0x40 DUP1 MLOAD SWAP2 DUP3 MSTORE MLOAD SWAP1 DUP2 SWAP1 SUB PUSH1 0x20 ADD SWAP1 RETURN JUMPDEST PUSH2 0x2AF PUSH2 0x8B0 JUMP JUMPDEST PUSH2 0x293 PUSH1 0x4 DUP1 CALLDATASIZE SUB PUSH1 0x60 DUP2 LT ISZERO PUSH2 0x2DF JUMPI PUSH1 0x0 DUP1 REVERT JUMPDEST POP PUSH1 0x1 PUSH1 0x1 PUSH1 0xA0 SHL SUB DUP2 CALLDATALOAD DUP2 AND SWAP2 PUSH1 0x20 DUP2 ADD CALLDATALOAD SWAP1 SWAP2 AND SWAP1 PUSH1 0x40 ADD CALLDATALOAD PUSH2 0x8CB JUMP JUMPDEST PUSH2 0x307 PUSH2 0x9F9 JUMP JUMPDEST PUSH1 0x40 DUP1 MLOAD PUSH1 0xFF SWAP1 SWAP3 AND DUP3 MSTORE MLOAD SWAP1 DUP2 SWAP1 SUB PUSH1 0x20 ADD SWAP1 RETURN JUMPDEST PUSH2 0x293 PUSH1 0x4 DUP1 CALLDATASIZE SUB PUSH1 0x40 DUP2 LT ISZERO PUSH2 0x333 JUMPI PUSH1 0x0 DUP1 REVERT JUMPDEST POP PUSH1 0x1 PUSH1 0x1 PUSH1 0xA0 SHL SUB DUP2 CALLDATALOAD AND SWAP1 PUSH1 0x20 ADD CALLDATALOAD PUSH2 0xA02 JUMP JUMPDEST PUSH2 0x293 PUSH1 0x4 DUP1 CALLDATASIZE SUB PUSH1 0x20 DUP2 LT ISZERO PUSH2 0x35F JUMPI PUSH1 0x0 DUP1 REVERT JUMPDEST POP CALLDATALOAD PUSH2 0xB14 JUMP JUMPDEST PUSH2 0x38C PUSH1 0x4 DUP1 CALLDATASIZE SUB PUSH1 0x20 DUP2 LT ISZERO PUSH2 0x37C JUMPI PUSH1 0x0 DUP1 REVERT JUMPDEST POP CALLDATALOAD PUSH1 0x1 PUSH1 0x1 PUSH1 0xA0 SHL SUB AND PUSH2 0xBD4 JUMP JUMPDEST PUSH1 0x40 DUP1 MLOAD PUSH1 0x1 PUSH1 0x1 PUSH1 0xA0 SHL SUB SWAP1 SWAP3 AND DUP3 MSTORE MLOAD SWAP1 DUP2 SWAP1 SUB PUSH1 0x20 ADD SWAP1 RETURN JUMPDEST PUSH2 0x3CE PUSH1 0x4 DUP1 CALLDATASIZE SUB PUSH1 0x20 DUP2 LT ISZERO PUSH2 0x3BE JUMPI PUSH1 0x0 DUP1 REVERT JUMPDEST POP CALLDATALOAD PUSH1 0x1 PUSH1 0x1 PUSH1 0xA0 SHL SUB AND PUSH2 0xBEF JUMP JUMPDEST STOP JUMPDEST PUSH2 0x3CE PUSH2 0xCA8 JUMP JUMPDEST PUSH2 0x3CE PUSH2 0xD3C JUMP JUMPDEST PUSH2 0x406 PUSH1 0x4 DUP1 CALLDATASIZE SUB PUSH1 0x20 DUP2 LT ISZERO PUSH2 0x3F6 JUMPI PUSH1 0x0 DUP1 REVERT JUMPDEST POP CALLDATALOAD PUSH1 0x1 PUSH1 0x1 PUSH1 0xA0 SHL SUB AND PUSH2 0xDCA JUMP JUMPDEST PUSH1 0x40 DUP1 MLOAD PUSH4 0xFFFFFFFF SWAP1 SWAP3 AND DUP3 MSTORE MLOAD SWAP1 DUP2 SWAP1 SUB PUSH1 0x20 ADD SWAP1 RETURN JUMPDEST PUSH2 0x2AF PUSH1 0x4 DUP1 CALLDATASIZE SUB PUSH1 0x20 DUP2 LT ISZERO PUSH2 0x435 JUMPI PUSH1 0x0 DUP1 REVERT JUMPDEST POP CALLDATALOAD PUSH1 0x1 PUSH1 0x1 PUSH1 0xA0 SHL SUB AND PUSH2 0xDE2 JUMP JUMPDEST PUSH2 0x3CE PUSH2 0xDFD JUMP JUMPDEST PUSH2 0x479 PUSH1 0x4 DUP1 CALLDATASIZE SUB PUSH1 0x40 DUP2 LT ISZERO PUSH2 0x463 JUMPI PUSH1 0x0 DUP1 REVERT JUMPDEST POP PUSH1 0x1 PUSH1 0x1 PUSH1 0xA0 SHL SUB DUP2 CALLDATALOAD AND SWAP1 PUSH1 0x20 ADD CALLDATALOAD PUSH2 0xE9F JUMP JUMPDEST PUSH1 0x40 DUP1 MLOAD PUSH12 0xFFFFFFFFFFFFFFFFFFFFFFFF SWAP1 SWAP3 AND DUP3 MSTORE MLOAD SWAP1 DUP2 SWAP1 SUB PUSH1 0x20 ADD SWAP1 RETURN JUMPDEST PUSH2 0x2AF PUSH1 0x4 DUP1 CALLDATASIZE SUB PUSH1 0x20 DUP2 LT ISZERO PUSH2 0x4B0 JUMPI PUSH1 0x0 DUP1 REVERT JUMPDEST POP CALLDATALOAD PUSH1 0x1 PUSH1 0x1 PUSH1 0xA0 SHL SUB AND PUSH2 0x10CD JUMP JUMPDEST PUSH2 0x38C PUSH2 0x10DF JUMP JUMPDEST PUSH2 0x38C PUSH2 0x10EE JUMP JUMPDEST PUSH2 0x1F2 PUSH2 0x10FD JUMP JUMPDEST PUSH2 0x293 PUSH1 0x4 DUP1 CALLDATASIZE SUB PUSH1 0x40 DUP2 LT ISZERO PUSH2 0x4EE JUMPI PUSH1 0x0 DUP1 REVERT JUMPDEST POP PUSH1 0x1 PUSH1 0x1 PUSH1 0xA0 SHL SUB DUP2 CALLDATALOAD AND SWAP1 PUSH1 0x20 ADD CALLDATALOAD PUSH2 0x115E JUMP JUMPDEST PUSH2 0x293 PUSH1 0x4 DUP1 CALLDATASIZE SUB PUSH1 0x40 DUP2 LT ISZERO PUSH2 0x51A JUMPI PUSH1 0x0 DUP1 REVERT JUMPDEST POP PUSH1 0x1 PUSH1 0x1 PUSH1 0xA0 SHL SUB DUP2 CALLDATALOAD AND SWAP1 PUSH1 0x20 ADD CALLDATALOAD PUSH2 0x1270 JUMP JUMPDEST PUSH2 0x479 PUSH1 0x4 DUP1 CALLDATASIZE SUB PUSH1 0x20 DUP2 LT ISZERO PUSH2 0x546 JUMPI PUSH1 0x0 DUP1 REVERT JUMPDEST POP CALLDATALOAD PUSH1 0x1 PUSH1 0x1 PUSH1 0xA0 SHL SUB AND PUSH2 0x1328 JUMP JUMPDEST PUSH2 0x3CE PUSH1 0x4 DUP1 CALLDATASIZE SUB PUSH1 0x20 DUP2 LT ISZERO PUSH2 0x56C JUMPI PUSH1 0x0 DUP1 REVERT JUMPDEST POP CALLDATALOAD PUSH1 0x1 PUSH1 0x1 PUSH1 0xA0 SHL SUB AND PUSH2 0x1394 JUMP JUMPDEST PUSH2 0x3CE PUSH1 0x4 DUP1 CALLDATASIZE SUB PUSH1 0xC0 DUP2 LT ISZERO PUSH2 0x592 JUMPI PUSH1 0x0 DUP1 REVERT JUMPDEST POP PUSH1 0x1 PUSH1 0x1 PUSH1 0xA0 SHL SUB DUP2 CALLDATALOAD AND SWAP1 PUSH1 0x20 DUP2 ADD CALLDATALOAD SWAP1 PUSH1 0x40 DUP2 ADD CALLDATALOAD SWAP1 PUSH1 0xFF PUSH1 0x60 DUP3 ADD CALLDATALOAD AND SWAP1 PUSH1 0x80 DUP2 ADD CALLDATALOAD SWAP1 PUSH1 0xA0 ADD CALLDATALOAD PUSH2 0x1435 JUMP JUMPDEST PUSH2 0x293 PUSH1 0x4 DUP1 CALLDATASIZE SUB PUSH1 0x60 DUP2 LT ISZERO PUSH2 0x5D9 JUMPI PUSH1 0x0 DUP1 REVERT JUMPDEST PUSH1 0x1 PUSH1 0x1 PUSH1 0xA0 SHL SUB DUP3 CALLDATALOAD AND SWAP2 PUSH1 0x20 DUP2 ADD CALLDATALOAD SWAP2 DUP2 ADD SWAP1 PUSH1 0x60 DUP2 ADD PUSH1 0x40 DUP3 ADD CALLDATALOAD PUSH5 0x100000000 DUP2 GT ISZERO PUSH2 0x609 JUMPI PUSH1 0x0 DUP1 REVERT JUMPDEST DUP3 ADD DUP4 PUSH1 0x20 DUP3 ADD GT ISZERO PUSH2 0x61B JUMPI PUSH1 0x0 DUP1 REVERT JUMPDEST DUP1 CALLDATALOAD SWAP1 PUSH1 0x20 ADD SWAP2 DUP5 PUSH1 0x1 DUP4 MUL DUP5 ADD GT PUSH5 0x100000000 DUP4 GT OR ISZERO PUSH2 0x63D JUMPI PUSH1 0x0 DUP1 REVERT JUMPDEST SWAP2 SWAP1 DUP1 DUP1 PUSH1 0x1F ADD PUSH1 0x20 DUP1 SWAP2 DIV MUL PUSH1 0x20 ADD PUSH1 0x40 MLOAD SWAP1 DUP2 ADD PUSH1 0x40 MSTORE DUP1 SWAP4 SWAP3 SWAP2 SWAP1 DUP2 DUP2 MSTORE PUSH1 0x20 ADD DUP4 DUP4 DUP1 DUP3 DUP5 CALLDATACOPY PUSH1 0x0 SWAP3 ADD SWAP2 SWAP1 SWAP2 MSTORE POP SWAP3 SWAP6 POP PUSH2 0x17C9 SWAP5 POP POP POP POP POP JUMP JUMPDEST PUSH2 0x3CE PUSH1 0x4 DUP1 CALLDATASIZE SUB PUSH1 0x20 DUP2 LT ISZERO PUSH2 0x694 JUMPI PUSH1 0x0 DUP1 REVERT JUMPDEST POP CALLDATALOAD PUSH1 0x1 PUSH1 0x1 PUSH1 0xA0 SHL SUB AND PUSH2 0x198E JUMP JUMPDEST PUSH2 0x2AF PUSH1 0x4 DUP1 CALLDATASIZE SUB PUSH1 0x40 DUP2 LT ISZERO PUSH2 0x6BA JUMPI PUSH1 0x0 DUP1 REVERT JUMPDEST POP PUSH1 0x1 PUSH1 0x1 PUSH1 0xA0 SHL SUB DUP2 CALLDATALOAD DUP2 AND SWAP2 PUSH1 0x20 ADD CALLDATALOAD AND PUSH2 0x1A35 JUMP JUMPDEST PUSH2 0x2AF PUSH2 0x1A60 JUMP JUMPDEST PUSH2 0x70C PUSH1 0x4 DUP1 CALLDATASIZE SUB PUSH1 0x40 DUP2 LT ISZERO PUSH2 0x6F0 JUMPI PUSH1 0x0 DUP1 REVERT JUMPDEST POP DUP1 CALLDATALOAD PUSH1 0x1 PUSH1 0x1 PUSH1 0xA0 SHL SUB AND SWAP1 PUSH1 0x20 ADD CALLDATALOAD PUSH4 0xFFFFFFFF AND PUSH2 0x1A7B JUMP JUMPDEST PUSH1 0x40 DUP1 MLOAD PUSH4 0xFFFFFFFF SWAP1 SWAP4 AND DUP4 MSTORE PUSH1 0x20 DUP4 ADD SWAP2 SWAP1 SWAP2 MSTORE DUP1 MLOAD SWAP2 DUP3 SWAP1 SUB ADD SWAP1 RETURN JUMPDEST PUSH2 0x3CE PUSH1 0x4 DUP1 CALLDATASIZE SUB PUSH1 0x20 DUP2 LT ISZERO PUSH2 0x742 JUMPI PUSH1 0x0 DUP1 REVERT JUMPDEST POP CALLDATALOAD PUSH1 0x1 PUSH1 0x1 PUSH1 0xA0 SHL SUB AND PUSH2 0x1AA8 JUMP JUMPDEST PUSH1 0x7 DUP1 SLOAD PUSH1 0x40 DUP1 MLOAD PUSH1 0x20 PUSH1 0x1F PUSH1 0x2 PUSH1 0x0 NOT PUSH2 0x100 PUSH1 0x1 DUP9 AND ISZERO MUL ADD SWAP1 SWAP6 AND SWAP5 SWAP1 SWAP5 DIV SWAP4 DUP5 ADD DUP2 SWAP1 DIV DUP2 MUL DUP3 ADD DUP2 ADD SWAP1 SWAP3 MSTORE DUP3 DUP2 MSTORE PUSH1 0x60 SWAP4 SWAP1 SWAP3 SWAP1 SWAP2 DUP4 ADD DUP3 DUP3 DUP1 ISZERO PUSH2 0x7DE JUMPI DUP1 PUSH1 0x1F LT PUSH2 0x7B3 JUMPI PUSH2 0x100 DUP1 DUP4 SLOAD DIV MUL DUP4 MSTORE SWAP2 PUSH1 0x20 ADD SWAP2 PUSH2 0x7DE JUMP JUMPDEST DUP3 ADD SWAP2 SWAP1 PUSH1 0x0 MSTORE PUSH1 0x20 PUSH1 0x0 KECCAK256 SWAP1 JUMPDEST DUP2 SLOAD DUP2 MSTORE SWAP1 PUSH1 0x1 ADD SWAP1 PUSH1 0x20 ADD DUP1 DUP4 GT PUSH2 0x7C1 JUMPI DUP3 SWAP1 SUB PUSH1 0x1F AND DUP3 ADD SWAP2 JUMPDEST POP POP POP POP POP SWAP1 POP SWAP1 JUMP JUMPDEST PUSH1 0x0 DUP1 SLOAD PUSH1 0x1 PUSH1 0xA0 SHL SWAP1 DIV PUSH1 0xFF AND ISZERO PUSH2 0x83A JUMPI PUSH1 0x40 DUP1 MLOAD PUSH3 0x461BCD PUSH1 0xE5 SHL DUP2 MSTORE PUSH1 0x20 PUSH1 0x4 DUP3 ADD MSTORE PUSH1 0xF PUSH1 0x24 DUP3 ADD MSTORE PUSH15 0x151BDAD95B881A5CC81B1BD8DAD959 PUSH1 0x8A SHL PUSH1 0x44 DUP3 ADD MSTORE SWAP1 MLOAD SWAP1 DUP2 SWAP1 SUB PUSH1 0x64 ADD SWAP1 REVERT JUMPDEST CALLER PUSH1 0x0 SWAP1 DUP2 MSTORE PUSH1 0x1 PUSH1 0x20 MSTORE PUSH1 0x40 SWAP1 KECCAK256 SLOAD PUSH1 0xFF AND ISZERO PUSH2 0x88E JUMPI PUSH1 0x40 DUP1 MLOAD PUSH3 0x461BCD PUSH1 0xE5 SHL DUP2 MSTORE PUSH1 0x20 PUSH1 0x4 DUP3 ADD MSTORE PUSH1 0xC PUSH1 0x24 DUP3 ADD MSTORE PUSH12 0x213637B1B5B2B2103AB9B2B9 PUSH1 0xA1 SHL PUSH1 0x44 DUP3 ADD MSTORE SWAP1 MLOAD SWAP1 DUP2 SWAP1 SUB PUSH1 0x64 ADD SWAP1 REVERT JUMPDEST PUSH2 0x8A0 PUSH2 0x899 PUSH2 0x1B09 JUMP JUMPDEST DUP5 DUP5 PUSH2 0x1B0D JUMP JUMPDEST POP PUSH1 0x1 JUMPDEST SWAP3 SWAP2 POP POP JUMP JUMPDEST PUSH1 0x4 SLOAD SWAP1 JUMP JUMPDEST PUSH1 0x40 MLOAD DUP1 PUSH1 0x43 PUSH2 0x2619 DUP3 CODECOPY PUSH1 0x43 ADD SWAP1 POP PUSH1 0x40 MLOAD DUP1 SWAP2 SUB SWAP1 KECCAK256 DUP2 JUMP JUMPDEST PUSH1 0x0 DUP1 SLOAD PUSH1 0x1 PUSH1 0xA0 SHL SWAP1 DIV PUSH1 0xFF AND ISZERO PUSH2 0x91D JUMPI PUSH1 0x40 DUP1 MLOAD PUSH3 0x461BCD PUSH1 0xE5 SHL DUP2 MSTORE PUSH1 0x20 PUSH1 0x4 DUP3 ADD MSTORE PUSH1 0xF PUSH1 0x24 DUP3 ADD MSTORE PUSH15 0x151BDAD95B881A5CC81B1BD8DAD959 PUSH1 0x8A SHL PUSH1 0x44 DUP3 ADD MSTORE SWAP1 MLOAD SWAP1 DUP2 SWAP1 SUB PUSH1 0x64 ADD SWAP1 REVERT JUMPDEST CALLER PUSH1 0x0 SWAP1 DUP2 MSTORE PUSH1 0x1 PUSH1 0x20 MSTORE PUSH1 0x40 SWAP1 KECCAK256 SLOAD PUSH1 0xFF AND ISZERO PUSH2 0x971 JUMPI PUSH1 0x40 DUP1 MLOAD PUSH3 0x461BCD PUSH1 0xE5 SHL DUP2 MSTORE PUSH1 0x20 PUSH1 0x4 DUP3 ADD MSTORE PUSH1 0xC PUSH1 0x24 DUP3 ADD MSTORE PUSH12 0x213637B1B5B2B2103AB9B2B9 PUSH1 0xA1 SHL PUSH1 0x44 DUP3 ADD MSTORE SWAP1 MLOAD SWAP1 DUP2 SWAP1 SUB PUSH1 0x64 ADD SWAP1 REVERT JUMPDEST PUSH2 0x97C DUP5 DUP5 DUP5 PUSH2 0x1BF9 JUMP JUMPDEST PUSH1 0x0 PUSH2 0x986 PUSH2 0x1B09 JUMP JUMPDEST PUSH1 0x1 PUSH1 0x1 PUSH1 0xA0 SHL SUB DUP1 DUP8 AND PUSH1 0x0 SWAP1 DUP2 MSTORE PUSH1 0x3 PUSH1 0x20 SWAP1 DUP2 MSTORE PUSH1 0x40 DUP1 DUP4 KECCAK256 SWAP4 DUP6 AND DUP4 MSTORE SWAP3 SWAP1 MSTORE KECCAK256 SLOAD SWAP1 SWAP2 POP PUSH1 0x0 NOT DUP2 EQ PUSH2 0x9ED JUMPI PUSH2 0x9ED DUP7 DUP4 PUSH2 0x9E8 DUP8 PUSH1 0x40 MLOAD DUP1 PUSH1 0x60 ADD PUSH1 0x40 MSTORE DUP1 PUSH1 0x25 DUP2 MSTORE PUSH1 0x20 ADD PUSH2 0x25F4 PUSH1 0x25 SWAP2 CODECOPY DUP7 SWAP2 SWAP1 PUSH4 0xFFFFFFFF PUSH2 0x1DB8 AND JUMP JUMPDEST PUSH2 0x1B0D JUMP JUMPDEST POP PUSH1 0x1 SWAP6 SWAP5 POP POP POP POP POP JUMP JUMPDEST PUSH1 0x5 SLOAD PUSH1 0xFF AND SWAP1 JUMP JUMPDEST PUSH1 0x0 DUP1 SLOAD PUSH1 0x1 PUSH1 0xA0 SHL SWAP1 DIV PUSH1 0xFF AND ISZERO PUSH2 0xA54 JUMPI PUSH1 0x40 DUP1 MLOAD PUSH3 0x461BCD PUSH1 0xE5 SHL DUP2 MSTORE PUSH1 0x20 PUSH1 0x4 DUP3 ADD MSTORE PUSH1 0xF PUSH1 0x24 DUP3 ADD MSTORE PUSH15 0x151BDAD95B881A5CC81B1BD8DAD959 PUSH1 0x8A SHL PUSH1 0x44 DUP3 ADD MSTORE SWAP1 MLOAD SWAP1 DUP2 SWAP1 SUB PUSH1 0x64 ADD SWAP1 REVERT JUMPDEST CALLER PUSH1 0x0 SWAP1 DUP2 MSTORE PUSH1 0x1 PUSH1 0x20 MSTORE PUSH1 0x40 SWAP1 KECCAK256 SLOAD PUSH1 0xFF AND ISZERO PUSH2 0xAA8 JUMPI PUSH1 0x40 DUP1 MLOAD PUSH3 0x461BCD PUSH1 0xE5 SHL DUP2 MSTORE PUSH1 0x20 PUSH1 0x4 DUP3 ADD MSTORE PUSH1 0xC PUSH1 0x24 DUP3 ADD MSTORE PUSH12 0x213637B1B5B2B2103AB9B2B9 PUSH1 0xA1 SHL PUSH1 0x44 DUP3 ADD MSTORE SWAP1 MLOAD SWAP1 DUP2 SWAP1 SUB PUSH1 0x64 ADD SWAP1 REVERT JUMPDEST PUSH2 0x8A0 PUSH2 0xAB3 PUSH2 0x1B09 JUMP JUMPDEST DUP5 PUSH2 0x9E8 DUP6 PUSH1 0x40 MLOAD DUP1 PUSH1 0x60 ADD PUSH1 0x40 MSTORE DUP1 PUSH1 0x21 DUP2 MSTORE PUSH1 0x20 ADD PUSH2 0x2544 PUSH1 0x21 SWAP2 CODECOPY PUSH1 0x3 PUSH1 0x0 PUSH2 0xADD PUSH2 0x1B09 JUMP JUMPDEST PUSH1 0x1 PUSH1 0x1 PUSH1 0xA0 SHL SUB SWAP1 DUP2 AND DUP3 MSTORE PUSH1 0x20 DUP1 DUP4 ADD SWAP4 SWAP1 SWAP4 MSTORE PUSH1 0x40 SWAP2 DUP3 ADD PUSH1 0x0 SWAP1 DUP2 KECCAK256 SWAP2 DUP14 AND DUP2 MSTORE SWAP3 MSTORE SWAP1 KECCAK256 SLOAD SWAP2 SWAP1 PUSH4 0xFFFFFFFF PUSH2 0x1E4F AND JUMP JUMPDEST PUSH1 0x0 DUP1 SLOAD PUSH1 0x1 PUSH1 0xA0 SHL SWAP1 DIV PUSH1 0xFF AND ISZERO PUSH2 0xB66 JUMPI PUSH1 0x40 DUP1 MLOAD PUSH3 0x461BCD PUSH1 0xE5 SHL DUP2 MSTORE PUSH1 0x20 PUSH1 0x4 DUP3 ADD MSTORE PUSH1 0xF PUSH1 0x24 DUP3 ADD MSTORE PUSH15 0x151BDAD95B881A5CC81B1BD8DAD959 PUSH1 0x8A SHL PUSH1 0x44 DUP3 ADD MSTORE SWAP1 MLOAD SWAP1 DUP2 SWAP1 SUB PUSH1 0x64 ADD SWAP1 REVERT JUMPDEST CALLER PUSH1 0x0 SWAP1 DUP2 MSTORE PUSH1 0x1 PUSH1 0x20 MSTORE PUSH1 0x40 SWAP1 KECCAK256 SLOAD PUSH1 0xFF AND ISZERO PUSH2 0xBBA JUMPI PUSH1 0x40 DUP1 MLOAD PUSH3 0x461BCD PUSH1 0xE5 SHL DUP2 MSTORE PUSH1 0x20 PUSH1 0x4 DUP3 ADD MSTORE PUSH1 0xC PUSH1 0x24 DUP3 ADD MSTORE PUSH12 0x213637B1B5B2B2103AB9B2B9 PUSH1 0xA1 SHL PUSH1 0x44 DUP3 ADD MSTORE SWAP1 MLOAD SWAP1 DUP2 SWAP1 SUB PUSH1 0x64 ADD SWAP1 REVERT JUMPDEST PUSH2 0xBCB PUSH2 0xBC5 PUSH2 0x1B09 JUMP JUMPDEST DUP4 PUSH2 0x1EAD JUMP JUMPDEST POP PUSH1 0x1 JUMPDEST SWAP2 SWAP1 POP JUMP JUMPDEST PUSH1 0x8 PUSH1 0x20 MSTORE PUSH1 0x0 SWAP1 DUP2 MSTORE PUSH1 0x40 SWAP1 KECCAK256 SLOAD PUSH1 0x1 PUSH1 0x1 PUSH1 0xA0 SHL SUB AND DUP2 JUMP JUMPDEST PUSH1 0x0 SLOAD PUSH1 0x1 PUSH1 0xA0 SHL SWAP1 DIV PUSH1 0xFF AND ISZERO PUSH2 0xC40 JUMPI PUSH1 0x40 DUP1 MLOAD PUSH3 0x461BCD PUSH1 0xE5 SHL DUP2 MSTORE PUSH1 0x20 PUSH1 0x4 DUP3 ADD MSTORE PUSH1 0xF PUSH1 0x24 DUP3 ADD MSTORE PUSH15 0x151BDAD95B881A5CC81B1BD8DAD959 PUSH1 0x8A SHL PUSH1 0x44 DUP3 ADD MSTORE SWAP1 MLOAD SWAP1 DUP2 SWAP1 SUB PUSH1 0x64 ADD SWAP1 REVERT JUMPDEST CALLER PUSH1 0x0 SWAP1 DUP2 MSTORE PUSH1 0x1 PUSH1 0x20 MSTORE PUSH1 0x40 SWAP1 KECCAK256 SLOAD PUSH1 0xFF AND ISZERO PUSH2 0xC94 JUMPI PUSH1 0x40 DUP1 MLOAD PUSH3 0x461BCD PUSH1 0xE5 SHL DUP2 MSTORE PUSH1 0x20 PUSH1 0x4 DUP3 ADD MSTORE PUSH1 0xC PUSH1 0x24 DUP3 ADD MSTORE PUSH12 0x213637B1B5B2B2103AB9B2B9 PUSH1 0xA1 SHL PUSH1 0x44 DUP3 ADD MSTORE SWAP1 MLOAD SWAP1 DUP2 SWAP1 SUB PUSH1 0x64 ADD SWAP1 REVERT JUMPDEST PUSH2 0xCA5 PUSH2 0xC9F PUSH2 0x1B09 JUMP JUMPDEST DUP3 PUSH2 0x1FED JUMP JUMPDEST POP JUMP JUMPDEST PUSH2 0xCB0 PUSH2 0x1B09 JUMP JUMPDEST PUSH1 0x0 SLOAD PUSH1 0x1 PUSH1 0x1 PUSH1 0xA0 SHL SUB SWAP1 DUP2 AND SWAP2 AND EQ PUSH2 0xD00 JUMPI PUSH1 0x40 DUP1 MLOAD PUSH3 0x461BCD PUSH1 0xE5 SHL DUP2 MSTORE PUSH1 0x20 PUSH1 0x4 DUP3 ADD DUP2 SWAP1 MSTORE PUSH1 0x24 DUP3 ADD MSTORE PUSH1 0x0 DUP1 MLOAD PUSH1 0x20 PUSH2 0x265C DUP4 CODECOPY DUP2 MLOAD SWAP2 MSTORE PUSH1 0x44 DUP3 ADD MSTORE SWAP1 MLOAD SWAP1 DUP2 SWAP1 SUB PUSH1 0x64 ADD SWAP1 REVERT JUMPDEST PUSH1 0x0 DUP1 SLOAD PUSH1 0xFF PUSH1 0xA0 SHL NOT AND PUSH1 0x1 PUSH1 0xA0 SHL OR DUP2 SSTORE PUSH1 0x40 MLOAD PUSH32 0x962A6139CA22015759D0878E2CF5D770DCB8152E1D5BA08E46A969DD9B154A9C SWAP2 SWAP1 LOG1 JUMP JUMPDEST PUSH2 0xD44 PUSH2 0x1B09 JUMP JUMPDEST PUSH1 0x0 SLOAD PUSH1 0x1 PUSH1 0x1 PUSH1 0xA0 SHL SUB SWAP1 DUP2 AND SWAP2 AND EQ PUSH2 0xD94 JUMPI PUSH1 0x40 DUP1 MLOAD PUSH3 0x461BCD PUSH1 0xE5 SHL DUP2 MSTORE PUSH1 0x20 PUSH1 0x4 DUP3 ADD DUP2 SWAP1 MSTORE PUSH1 0x24 DUP3 ADD MSTORE PUSH1 0x0 DUP1 MLOAD PUSH1 0x20 PUSH2 0x265C DUP4 CODECOPY DUP2 MLOAD SWAP2 MSTORE PUSH1 0x44 DUP3 ADD MSTORE SWAP1 MLOAD SWAP1 DUP2 SWAP1 SUB PUSH1 0x64 ADD SWAP1 REVERT JUMPDEST PUSH1 0x0 DUP1 SLOAD PUSH1 0xFF PUSH1 0xA0 SHL NOT AND DUP2 SSTORE PUSH1 0x40 MLOAD PUSH32 0xF0DAAC2271A735EA786B9ADF80DFCBD6A3CBD52F3CAB0A78337114692D5FAF5D SWAP2 SWAP1 LOG1 JUMP JUMPDEST PUSH1 0xA PUSH1 0x20 MSTORE PUSH1 0x0 SWAP1 DUP2 MSTORE PUSH1 0x40 SWAP1 KECCAK256 SLOAD PUSH4 0xFFFFFFFF AND DUP2 JUMP JUMPDEST PUSH1 0x1 PUSH1 0x1 PUSH1 0xA0 SHL SUB AND PUSH1 0x0 SWAP1 DUP2 MSTORE PUSH1 0x2 PUSH1 0x20 MSTORE PUSH1 0x40 SWAP1 KECCAK256 SLOAD SWAP1 JUMP JUMPDEST PUSH2 0xE05 PUSH2 0x1B09 JUMP JUMPDEST PUSH1 0x0 SLOAD PUSH1 0x1 PUSH1 0x1 PUSH1 0xA0 SHL SUB SWAP1 DUP2 AND SWAP2 AND EQ PUSH2 0xE55 JUMPI PUSH1 0x40 DUP1 MLOAD PUSH3 0x461BCD PUSH1 0xE5 SHL DUP2 MSTORE PUSH1 0x20 PUSH1 0x4 DUP3 ADD DUP2 SWAP1 MSTORE PUSH1 0x24 DUP3 ADD MSTORE PUSH1 0x0 DUP1 MLOAD PUSH1 0x20 PUSH2 0x265C DUP4 CODECOPY DUP2 MLOAD SWAP2 MSTORE PUSH1 0x44 DUP3 ADD MSTORE SWAP1 MLOAD SWAP1 DUP2 SWAP1 SUB PUSH1 0x64 ADD SWAP1 REVERT JUMPDEST PUSH1 0x0 DUP1 SLOAD PUSH1 0x40 MLOAD PUSH1 0x1 PUSH1 0x1 PUSH1 0xA0 SHL SUB SWAP1 SWAP2 AND SWAP1 PUSH32 0x8BE0079C531659141344CD1FD0A4F28419497F9722A3DAAFE3B4186F6B6457E0 SWAP1 DUP4 SWAP1 LOG3 PUSH1 0x0 DUP1 SLOAD PUSH1 0x1 PUSH1 0x1 PUSH1 0xA0 SHL SUB NOT AND SWAP1 SSTORE JUMP JUMPDEST PUSH1 0x0 NUMBER DUP3 LT PUSH2 0xEEA JUMPI PUSH1 0x40 DUP1 MLOAD PUSH3 0x461BCD PUSH1 0xE5 SHL DUP2 MSTORE PUSH1 0x20 PUSH1 0x4 DUP3 ADD MSTORE PUSH1 0x12 PUSH1 0x24 DUP3 ADD MSTORE PUSH18 0x139BDD0819195D195C9B5A5B9959081E595D PUSH1 0x72 SHL PUSH1 0x44 DUP3 ADD MSTORE SWAP1 MLOAD SWAP1 DUP2 SWAP1 SUB PUSH1 0x64 ADD SWAP1 REVERT JUMPDEST PUSH1 0x1 PUSH1 0x1 PUSH1 0xA0 SHL SUB DUP4 AND PUSH1 0x0 SWAP1 DUP2 MSTORE PUSH1 0xA PUSH1 0x20 MSTORE PUSH1 0x40 SWAP1 KECCAK256 SLOAD PUSH4 0xFFFFFFFF AND DUP1 PUSH2 0xF18 JUMPI PUSH1 0x0 SWAP2 POP POP PUSH2 0x8A4 JUMP JUMPDEST PUSH1 0x1 PUSH1 0x1 PUSH1 0xA0 SHL SUB DUP5 AND PUSH1 0x0 SWAP1 DUP2 MSTORE PUSH1 0x9 PUSH1 0x20 SWAP1 DUP2 MSTORE PUSH1 0x40 DUP1 DUP4 KECCAK256 PUSH4 0xFFFFFFFF PUSH1 0x0 NOT DUP7 ADD DUP2 AND DUP6 MSTORE SWAP3 MSTORE SWAP1 SWAP2 KECCAK256 SLOAD AND DUP4 LT PUSH2 0xF90 JUMPI PUSH1 0x1 PUSH1 0x1 PUSH1 0xA0 SHL SUB DUP5 AND PUSH1 0x0 SWAP1 DUP2 MSTORE PUSH1 0x9 PUSH1 0x20 SWAP1 DUP2 MSTORE PUSH1 0x40 DUP1 DUP4 KECCAK256 PUSH4 0xFFFFFFFF PUSH1 0x0 NOT DUP7 ADD AND DUP5 MSTORE SWAP1 SWAP2 MSTORE SWAP1 KECCAK256 PUSH1 0x1 ADD SLOAD PUSH2 0xF88 SWAP1 PUSH2 0x206D JUMP JUMPDEST SWAP2 POP POP PUSH2 0x8A4 JUMP JUMPDEST PUSH1 0x1 PUSH1 0x1 PUSH1 0xA0 SHL SUB DUP5 AND PUSH1 0x0 SWAP1 DUP2 MSTORE PUSH1 0x9 PUSH1 0x20 SWAP1 DUP2 MSTORE PUSH1 0x40 DUP1 DUP4 KECCAK256 DUP4 DUP1 MSTORE SWAP1 SWAP2 MSTORE SWAP1 KECCAK256 SLOAD PUSH4 0xFFFFFFFF AND DUP4 LT ISZERO PUSH2 0xFCB JUMPI PUSH1 0x0 SWAP2 POP POP PUSH2 0x8A4 JUMP JUMPDEST PUSH1 0x0 PUSH1 0x0 NOT DUP3 ADD JUMPDEST DUP2 PUSH4 0xFFFFFFFF AND DUP2 PUSH4 0xFFFFFFFF AND GT ISZERO PUSH2 0x108D JUMPI PUSH1 0x2 DUP3 DUP3 SUB PUSH4 0xFFFFFFFF AND DIV DUP2 SUB PUSH2 0xFFD PUSH2 0x250A JUMP JUMPDEST POP PUSH1 0x1 PUSH1 0x1 PUSH1 0xA0 SHL SUB DUP8 AND PUSH1 0x0 SWAP1 DUP2 MSTORE PUSH1 0x9 PUSH1 0x20 SWAP1 DUP2 MSTORE PUSH1 0x40 DUP1 DUP4 KECCAK256 PUSH4 0xFFFFFFFF DUP1 DUP7 AND DUP6 MSTORE SWAP1 DUP4 MSTORE SWAP3 DUP2 SWAP1 KECCAK256 DUP2 MLOAD DUP1 DUP4 ADD SWAP1 SWAP3 MSTORE DUP1 SLOAD SWAP1 SWAP4 AND DUP1 DUP3 MSTORE PUSH1 0x1 SWAP1 SWAP4 ADD SLOAD SWAP2 DUP2 ADD SWAP2 SWAP1 SWAP2 MSTORE SWAP1 DUP8 EQ ISZERO PUSH2 0x1068 JUMPI PUSH2 0x105C DUP2 PUSH1 0x20 ADD MLOAD PUSH2 0x206D JUMP JUMPDEST SWAP6 POP POP POP POP POP POP PUSH2 0x8A4 JUMP JUMPDEST DUP1 MLOAD PUSH4 0xFFFFFFFF AND DUP8 GT ISZERO PUSH2 0x107F JUMPI DUP2 SWAP4 POP PUSH2 0x1086 JUMP JUMPDEST PUSH1 0x1 DUP3 SUB SWAP3 POP JUMPDEST POP POP PUSH2 0xFD3 JUMP JUMPDEST PUSH1 0x1 PUSH1 0x1 PUSH1 0xA0 SHL SUB DUP7 AND PUSH1 0x0 SWAP1 DUP2 MSTORE PUSH1 0x9 PUSH1 0x20 SWAP1 DUP2 MSTORE PUSH1 0x40 DUP1 DUP4 KECCAK256 PUSH4 0xFFFFFFFF DUP7 AND DUP5 MSTORE SWAP1 SWAP2 MSTORE SWAP1 KECCAK256 PUSH1 0x1 ADD SLOAD PUSH2 0x10C3 SWAP1 PUSH2 0x206D JUMP JUMPDEST SWAP7 SWAP6 POP POP POP POP POP POP JUMP JUMPDEST PUSH1 0xB PUSH1 0x20 MSTORE PUSH1 0x0 SWAP1 DUP2 MSTORE PUSH1 0x40 SWAP1 KECCAK256 SLOAD DUP2 JUMP JUMPDEST PUSH1 0x0 PUSH2 0x10E9 PUSH2 0x10EE JUMP JUMPDEST SWAP1 POP SWAP1 JUMP JUMPDEST PUSH1 0x0 SLOAD PUSH1 0x1 PUSH1 0x1 PUSH1 0xA0 SHL SUB AND SWAP1 JUMP JUMPDEST PUSH1 0x6 DUP1 SLOAD PUSH1 0x40 DUP1 MLOAD PUSH1 0x20 PUSH1 0x1F PUSH1 0x2 PUSH1 0x0 NOT PUSH2 0x100 PUSH1 0x1 DUP9 AND ISZERO MUL ADD SWAP1 SWAP6 AND SWAP5 SWAP1 SWAP5 DIV SWAP4 DUP5 ADD DUP2 SWAP1 DIV DUP2 MUL DUP3 ADD DUP2 ADD SWAP1 SWAP3 MSTORE DUP3 DUP2 MSTORE PUSH1 0x60 SWAP4 SWAP1 SWAP3 SWAP1 SWAP2 DUP4 ADD DUP3 DUP3 DUP1 ISZERO PUSH2 0x7DE JUMPI DUP1 PUSH1 0x1F LT PUSH2 0x7B3 JUMPI PUSH2 0x100 DUP1 DUP4 SLOAD DIV MUL DUP4 MSTORE SWAP2 PUSH1 0x20 ADD SWAP2 PUSH2 0x7DE JUMP JUMPDEST PUSH1 0x0 DUP1 SLOAD PUSH1 0x1 PUSH1 0xA0 SHL SWAP1 DIV PUSH1 0xFF AND ISZERO PUSH2 0x11B0 JUMPI PUSH1 0x40 DUP1 MLOAD PUSH3 0x461BCD PUSH1 0xE5 SHL DUP2 MSTORE PUSH1 0x20 PUSH1 0x4 DUP3 ADD MSTORE PUSH1 0xF PUSH1 0x24 DUP3 ADD MSTORE PUSH15 0x151BDAD95B881A5CC81B1BD8DAD959 PUSH1 0x8A SHL PUSH1 0x44 DUP3 ADD MSTORE SWAP1 MLOAD SWAP1 DUP2 SWAP1 SUB PUSH1 0x64 ADD SWAP1 REVERT JUMPDEST CALLER PUSH1 0x0 SWAP1 DUP2 MSTORE PUSH1 0x1 PUSH1 0x20 MSTORE PUSH1 0x40 SWAP1 KECCAK256 SLOAD PUSH1 0xFF AND ISZERO PUSH2 0x1204 JUMPI PUSH1 0x40 DUP1 MLOAD PUSH3 0x461BCD PUSH1 0xE5 SHL DUP2 MSTORE PUSH1 0x20 PUSH1 0x4 DUP3 ADD MSTORE PUSH1 0xC PUSH1 0x24 DUP3 ADD MSTORE PUSH12 0x213637B1B5B2B2103AB9B2B9 PUSH1 0xA1 SHL PUSH1 0x44 DUP3 ADD MSTORE SWAP1 MLOAD SWAP1 DUP2 SWAP1 SUB PUSH1 0x64 ADD SWAP1 REVERT JUMPDEST PUSH2 0x8A0 PUSH2 0x120F PUSH2 0x1B09 JUMP JUMPDEST DUP5 PUSH2 0x9E8 DUP6 PUSH1 0x40 MLOAD DUP1 PUSH1 0x60 ADD PUSH1 0x40 MSTORE DUP1 PUSH1 0x22 DUP2 MSTORE PUSH1 0x20 ADD PUSH2 0x25D2 PUSH1 0x22 SWAP2 CODECOPY PUSH1 0x3 PUSH1 0x0 PUSH2 0x1239 PUSH2 0x1B09 JUMP JUMPDEST PUSH1 0x1 PUSH1 0x1 PUSH1 0xA0 SHL SUB SWAP1 DUP2 AND DUP3 MSTORE PUSH1 0x20 DUP1 DUP4 ADD SWAP4 SWAP1 SWAP4 MSTORE PUSH1 0x40 SWAP2 DUP3 ADD PUSH1 0x0 SWAP1 DUP2 KECCAK256 SWAP2 DUP14 AND DUP2 MSTORE SWAP3 MSTORE SWAP1 KECCAK256 SLOAD SWAP2 SWAP1 PUSH4 0xFFFFFFFF PUSH2 0x1DB8 AND JUMP JUMPDEST PUSH1 0x0 DUP1 SLOAD PUSH1 0x1 PUSH1 0xA0 SHL SWAP1 DIV PUSH1 0xFF AND ISZERO PUSH2 0x12C2 JUMPI PUSH1 0x40 DUP1 MLOAD PUSH3 0x461BCD PUSH1 0xE5 SHL DUP2 MSTORE PUSH1 0x20 PUSH1 0x4 DUP3 ADD MSTORE PUSH1 0xF PUSH1 0x24 DUP3 ADD MSTORE PUSH15 0x151BDAD95B881A5CC81B1BD8DAD959 PUSH1 0x8A SHL PUSH1 0x44 DUP3 ADD MSTORE SWAP1 MLOAD SWAP1 DUP2 SWAP1 SUB PUSH1 0x64 ADD SWAP1 REVERT JUMPDEST CALLER PUSH1 0x0 SWAP1 DUP2 MSTORE PUSH1 0x1 PUSH1 0x20 MSTORE PUSH1 0x40 SWAP1 KECCAK256 SLOAD PUSH1 0xFF AND ISZERO PUSH2 0x1316 JUMPI PUSH1 0x40 DUP1 MLOAD PUSH3 0x461BCD PUSH1 0xE5 SHL DUP2 MSTORE PUSH1 0x20 PUSH1 0x4 DUP3 ADD MSTORE PUSH1 0xC PUSH1 0x24 DUP3 ADD MSTORE PUSH12 0x213637B1B5B2B2103AB9B2B9 PUSH1 0xA1 SHL PUSH1 0x44 DUP3 ADD MSTORE SWAP1 MLOAD SWAP1 DUP2 SWAP1 SUB PUSH1 0x64 ADD SWAP1 REVERT JUMPDEST PUSH2 0x8A0 PUSH2 0x1321 PUSH2 0x1B09 JUMP JUMPDEST DUP5 DUP5 PUSH2 0x1BF9 JUMP JUMPDEST PUSH1 0x1 PUSH1 0x1 PUSH1 0xA0 SHL SUB DUP2 AND PUSH1 0x0 SWAP1 DUP2 MSTORE PUSH1 0xA PUSH1 0x20 MSTORE PUSH1 0x40 DUP2 KECCAK256 SLOAD PUSH4 0xFFFFFFFF AND DUP1 PUSH2 0x1353 JUMPI PUSH1 0x0 PUSH2 0x138D JUMP JUMPDEST PUSH1 0x1 PUSH1 0x1 PUSH1 0xA0 SHL SUB DUP4 AND PUSH1 0x0 SWAP1 DUP2 MSTORE PUSH1 0x9 PUSH1 0x20 SWAP1 DUP2 MSTORE PUSH1 0x40 DUP1 DUP4 KECCAK256 PUSH4 0xFFFFFFFF PUSH1 0x0 NOT DUP7 ADD AND DUP5 MSTORE SWAP1 SWAP2 MSTORE SWAP1 KECCAK256 PUSH1 0x1 ADD SLOAD PUSH2 0x138D SWAP1 PUSH2 0x206D JUMP JUMPDEST SWAP4 SWAP3 POP POP POP JUMP JUMPDEST PUSH2 0x139C PUSH2 0x1B09 JUMP JUMPDEST PUSH1 0x0 SLOAD PUSH1 0x1 PUSH1 0x1 PUSH1 0xA0 SHL SUB SWAP1 DUP2 AND SWAP2 AND EQ PUSH2 0x13EC JUMPI PUSH1 0x40 DUP1 MLOAD PUSH3 0x461BCD PUSH1 0xE5 SHL DUP2 MSTORE PUSH1 0x20 PUSH1 0x4 DUP3 ADD DUP2 SWAP1 MSTORE PUSH1 0x24 DUP3 ADD MSTORE PUSH1 0x0 DUP1 MLOAD PUSH1 0x20 PUSH2 0x265C DUP4 CODECOPY DUP2 MLOAD SWAP2 MSTORE PUSH1 0x44 DUP3 ADD MSTORE SWAP1 MLOAD SWAP1 DUP2 SWAP1 SUB PUSH1 0x64 ADD SWAP1 REVERT JUMPDEST PUSH1 0x1 PUSH1 0x1 PUSH1 0xA0 SHL SUB DUP2 AND PUSH1 0x0 DUP2 DUP2 MSTORE PUSH1 0x1 PUSH1 0x20 MSTORE PUSH1 0x40 DUP1 DUP3 KECCAK256 DUP1 SLOAD PUSH1 0xFF NOT AND SWAP1 SSTORE MLOAD PUSH32 0x687691C08A3E67A160BA20A32CB1C56791955F12C5FF5D5FCF62BC456AD79EA1 SWAP2 SWAP1 LOG2 POP JUMP JUMPDEST PUSH1 0x0 SLOAD PUSH1 0x1 PUSH1 0xA0 SHL SWAP1 DIV PUSH1 0xFF AND ISZERO PUSH2 0x1486 JUMPI PUSH1 0x40 DUP1 MLOAD PUSH3 0x461BCD PUSH1 0xE5 SHL DUP2 MSTORE PUSH1 0x20 PUSH1 0x4 DUP3 ADD MSTORE PUSH1 0xF PUSH1 0x24 DUP3 ADD MSTORE PUSH15 0x151BDAD95B881A5CC81B1BD8DAD959 PUSH1 0x8A SHL PUSH1 0x44 DUP3 ADD MSTORE SWAP1 MLOAD SWAP1 DUP2 SWAP1 SUB PUSH1 0x64 ADD SWAP1 REVERT JUMPDEST CALLER PUSH1 0x0 SWAP1 DUP2 MSTORE PUSH1 0x1 PUSH1 0x20 MSTORE PUSH1 0x40 SWAP1 KECCAK256 SLOAD PUSH1 0xFF AND ISZERO PUSH2 0x14DA JUMPI PUSH1 0x40 DUP1 MLOAD PUSH3 0x461BCD PUSH1 0xE5 SHL DUP2 MSTORE PUSH1 0x20 PUSH1 0x4 DUP3 ADD MSTORE PUSH1 0xC PUSH1 0x24 DUP3 ADD MSTORE PUSH12 0x213637B1B5B2B2103AB9B2B9 PUSH1 0xA1 SHL PUSH1 0x44 DUP3 ADD MSTORE SWAP1 MLOAD SWAP1 DUP2 SWAP1 SUB PUSH1 0x64 ADD SWAP1 REVERT JUMPDEST PUSH1 0x0 PUSH1 0x40 MLOAD DUP1 DUP1 PUSH2 0x2619 PUSH1 0x43 SWAP2 CODECOPY PUSH1 0x43 ADD SWAP1 POP PUSH1 0x40 MLOAD DUP1 SWAP2 SUB SWAP1 KECCAK256 PUSH1 0x7 PUSH1 0x40 MLOAD DUP1 DUP3 DUP1 SLOAD PUSH1 0x1 DUP2 PUSH1 0x1 AND ISZERO PUSH2 0x100 MUL SUB AND PUSH1 0x2 SWAP1 DIV DUP1 ISZERO PUSH2 0x1552 JUMPI DUP1 PUSH1 0x1F LT PUSH2 0x1530 JUMPI PUSH2 0x100 DUP1 DUP4 SLOAD DIV MUL DUP4 MSTORE SWAP2 DUP3 ADD SWAP2 PUSH2 0x1552 JUMP JUMPDEST DUP3 ADD SWAP2 SWAP1 PUSH1 0x0 MSTORE PUSH1 0x20 PUSH1 0x0 KECCAK256 SWAP1 JUMPDEST DUP2 SLOAD DUP2 MSTORE SWAP1 PUSH1 0x1 ADD SWAP1 PUSH1 0x20 ADD DUP1 DUP4 GT PUSH2 0x153E JUMPI JUMPDEST POP POP SWAP2 POP POP PUSH1 0x40 MLOAD DUP1 SWAP2 SUB SWAP1 KECCAK256 PUSH2 0x1567 PUSH2 0x2087 JUMP JUMPDEST ADDRESS PUSH1 0x40 MLOAD PUSH1 0x20 ADD DUP1 DUP6 DUP2 MSTORE PUSH1 0x20 ADD DUP5 DUP2 MSTORE PUSH1 0x20 ADD DUP4 DUP2 MSTORE PUSH1 0x20 ADD DUP3 PUSH1 0x1 PUSH1 0x1 PUSH1 0xA0 SHL SUB AND PUSH1 0x1 PUSH1 0x1 PUSH1 0xA0 SHL SUB AND DUP2 MSTORE PUSH1 0x20 ADD SWAP5 POP POP POP POP POP PUSH1 0x40 MLOAD PUSH1 0x20 DUP2 DUP4 SUB SUB DUP2 MSTORE SWAP1 PUSH1 0x40 MSTORE DUP1 MLOAD SWAP1 PUSH1 0x20 ADD KECCAK256 SWAP1 POP PUSH1 0x0 PUSH1 0x40 MLOAD DUP1 DUP1 PUSH2 0x26C4 PUSH1 0x3A SWAP2 CODECOPY PUSH1 0x40 DUP1 MLOAD SWAP2 DUP3 SWAP1 SUB PUSH1 0x3A ADD DUP3 KECCAK256 PUSH1 0x20 DUP1 DUP5 ADD SWAP2 SWAP1 SWAP2 MSTORE PUSH1 0x1 PUSH1 0x1 PUSH1 0xA0 SHL SUB DUP13 AND DUP4 DUP4 ADD MSTORE PUSH1 0x60 DUP4 ADD DUP12 SWAP1 MSTORE PUSH1 0x80 DUP1 DUP5 ADD DUP12 SWAP1 MSTORE DUP3 MLOAD DUP1 DUP6 SUB SWAP1 SWAP2 ADD DUP2 MSTORE PUSH1 0xA0 DUP5 ADD DUP4 MSTORE DUP1 MLOAD SWAP1 DUP3 ADD KECCAK256 PUSH2 0x1901 PUSH1 0xF0 SHL PUSH1 0xC0 DUP6 ADD MSTORE PUSH1 0xC2 DUP5 ADD DUP8 SWAP1 MSTORE PUSH1 0xE2 DUP1 DUP6 ADD DUP3 SWAP1 MSTORE DUP4 MLOAD DUP1 DUP7 SUB SWAP1 SWAP2 ADD DUP2 MSTORE PUSH2 0x102 DUP6 ADD DUP1 DUP6 MSTORE DUP2 MLOAD SWAP2 DUP5 ADD SWAP2 SWAP1 SWAP2 KECCAK256 PUSH1 0x0 SWAP2 DUP3 SWAP1 MSTORE PUSH2 0x122 DUP7 ADD DUP1 DUP7 MSTORE DUP2 SWAP1 MSTORE PUSH1 0xFF DUP13 AND PUSH2 0x142 DUP8 ADD MSTORE PUSH2 0x162 DUP7 ADD DUP12 SWAP1 MSTORE PUSH2 0x182 DUP7 ADD DUP11 SWAP1 MSTORE SWAP4 MLOAD SWAP2 SWAP7 POP SWAP3 SWAP5 POP SWAP2 SWAP3 PUSH1 0x1 SWAP3 PUSH2 0x1A2 DUP1 DUP4 ADD SWAP4 SWAP3 PUSH1 0x1F NOT DUP4 ADD SWAP3 SWAP1 DUP2 SWAP1 SUB SWAP1 SWAP2 ADD SWAP1 DUP6 GAS STATICCALL ISZERO DUP1 ISZERO PUSH2 0x16A5 JUMPI RETURNDATASIZE PUSH1 0x0 DUP1 RETURNDATACOPY RETURNDATASIZE PUSH1 0x0 REVERT JUMPDEST POP POP PUSH1 0x40 MLOAD PUSH1 0x1F NOT ADD MLOAD SWAP2 POP POP PUSH1 0x1 PUSH1 0x1 PUSH1 0xA0 SHL SUB DUP2 AND PUSH2 0x1701 JUMPI PUSH1 0x40 DUP1 MLOAD PUSH3 0x461BCD PUSH1 0xE5 SHL DUP2 MSTORE PUSH1 0x20 PUSH1 0x4 DUP3 ADD MSTORE PUSH1 0x11 PUSH1 0x24 DUP3 ADD MSTORE PUSH17 0x496E76616C6964207369676E6174757265 PUSH1 0x78 SHL PUSH1 0x44 DUP3 ADD MSTORE SWAP1 MLOAD SWAP1 DUP2 SWAP1 SUB PUSH1 0x64 ADD SWAP1 REVERT JUMPDEST PUSH1 0x1 PUSH1 0x1 PUSH1 0xA0 SHL SUB DUP2 AND PUSH1 0x0 SWAP1 DUP2 MSTORE PUSH1 0xB PUSH1 0x20 MSTORE PUSH1 0x40 SWAP1 KECCAK256 DUP1 SLOAD PUSH1 0x1 DUP2 ADD SWAP1 SWAP2 SSTORE DUP10 EQ PUSH2 0x1765 JUMPI PUSH1 0x40 DUP1 MLOAD PUSH3 0x461BCD PUSH1 0xE5 SHL DUP2 MSTORE PUSH1 0x20 PUSH1 0x4 DUP3 ADD MSTORE PUSH1 0xD PUSH1 0x24 DUP3 ADD MSTORE PUSH13 0x496E76616C6964206E6F6E6365 PUSH1 0x98 SHL PUSH1 0x44 DUP3 ADD MSTORE SWAP1 MLOAD SWAP1 DUP2 SWAP1 SUB PUSH1 0x64 ADD SWAP1 REVERT JUMPDEST DUP8 TIMESTAMP GT ISZERO PUSH2 0x17B2 JUMPI PUSH1 0x40 DUP1 MLOAD PUSH3 0x461BCD PUSH1 0xE5 SHL DUP2 MSTORE PUSH1 0x20 PUSH1 0x4 DUP3 ADD MSTORE PUSH1 0x15 PUSH1 0x24 DUP3 ADD MSTORE PUSH21 0x151A19481CDA59DB985D1D5C9948195E1C1A5C9959 PUSH1 0x5A SHL PUSH1 0x44 DUP3 ADD MSTORE SWAP1 MLOAD SWAP1 DUP2 SWAP1 SUB PUSH1 0x64 ADD SWAP1 REVERT JUMPDEST PUSH2 0x17BC DUP2 DUP12 PUSH2 0x1FED JUMP JUMPDEST POP POP POP POP JUMPDEST POP POP POP POP POP POP JUMP JUMPDEST PUSH1 0x0 DUP1 SLOAD PUSH1 0x1 PUSH1 0xA0 SHL SWAP1 DIV PUSH1 0xFF AND ISZERO PUSH2 0x181B JUMPI PUSH1 0x40 DUP1 MLOAD PUSH3 0x461BCD PUSH1 0xE5 SHL DUP2 MSTORE PUSH1 0x20 PUSH1 0x4 DUP3 ADD MSTORE PUSH1 0xF PUSH1 0x24 DUP3 ADD MSTORE PUSH15 0x151BDAD95B881A5CC81B1BD8DAD959 PUSH1 0x8A SHL PUSH1 0x44 DUP3 ADD MSTORE SWAP1 MLOAD SWAP1 DUP2 SWAP1 SUB PUSH1 0x64 ADD SWAP1 REVERT JUMPDEST CALLER PUSH1 0x0 SWAP1 DUP2 MSTORE PUSH1 0x1 PUSH1 0x20 MSTORE PUSH1 0x40 SWAP1 KECCAK256 SLOAD PUSH1 0xFF AND ISZERO PUSH2 0x186F JUMPI PUSH1 0x40 DUP1 MLOAD PUSH3 0x461BCD PUSH1 0xE5 SHL DUP2 MSTORE PUSH1 0x20 PUSH1 0x4 DUP3 ADD MSTORE PUSH1 0xC PUSH1 0x24 DUP3 ADD MSTORE PUSH12 0x213637B1B5B2B2103AB9B2B9 PUSH1 0xA1 SHL PUSH1 0x44 DUP3 ADD MSTORE SWAP1 MLOAD SWAP1 DUP2 SWAP1 SUB PUSH1 0x64 ADD SWAP1 REVERT JUMPDEST PUSH2 0x1881 PUSH2 0x187A PUSH2 0x1B09 JUMP JUMPDEST DUP6 DUP6 PUSH2 0x1B0D JUMP JUMPDEST DUP4 PUSH1 0x1 PUSH1 0x1 PUSH1 0xA0 SHL SUB AND PUSH4 0x8F4FFCB1 PUSH2 0x1898 PUSH2 0x1B09 JUMP JUMPDEST DUP6 ADDRESS DUP7 PUSH1 0x40 MLOAD DUP6 PUSH4 0xFFFFFFFF AND PUSH1 0xE0 SHL DUP2 MSTORE PUSH1 0x4 ADD DUP1 DUP6 PUSH1 0x1 PUSH1 0x1 PUSH1 0xA0 SHL SUB AND PUSH1 0x1 PUSH1 0x1 PUSH1 0xA0 SHL SUB AND DUP2 MSTORE PUSH1 0x20 ADD DUP5 DUP2 MSTORE PUSH1 0x20 ADD DUP4 PUSH1 0x1 PUSH1 0x1 PUSH1 0xA0 SHL SUB AND PUSH1 0x1 PUSH1 0x1 PUSH1 0xA0 SHL SUB AND DUP2 MSTORE PUSH1 0x20 ADD DUP1 PUSH1 0x20 ADD DUP3 DUP2 SUB DUP3 MSTORE DUP4 DUP2 DUP2 MLOAD DUP2 MSTORE PUSH1 0x20 ADD SWAP2 POP DUP1 MLOAD SWAP1 PUSH1 0x20 ADD SWAP1 DUP1 DUP4 DUP4 PUSH1 0x0 JUMPDEST DUP4 DUP2 LT ISZERO PUSH2 0x191D JUMPI DUP2 DUP2 ADD MLOAD DUP4 DUP3 ADD MSTORE PUSH1 0x20 ADD PUSH2 0x1905 JUMP JUMPDEST POP POP POP POP SWAP1 POP SWAP1 DUP2 ADD SWAP1 PUSH1 0x1F AND DUP1 ISZERO PUSH2 0x194A JUMPI DUP1 DUP3 SUB DUP1 MLOAD PUSH1 0x1 DUP4 PUSH1 0x20 SUB PUSH2 0x100 EXP SUB NOT AND DUP2 MSTORE PUSH1 0x20 ADD SWAP2 POP JUMPDEST POP SWAP6 POP POP POP POP POP POP PUSH1 0x0 PUSH1 0x40 MLOAD DUP1 DUP4 SUB DUP2 PUSH1 0x0 DUP8 DUP1 EXTCODESIZE ISZERO DUP1 ISZERO PUSH2 0x196C JUMPI PUSH1 0x0 DUP1 REVERT JUMPDEST POP GAS CALL ISZERO DUP1 ISZERO PUSH2 0x1980 JUMPI RETURNDATASIZE PUSH1 0x0 DUP1 RETURNDATACOPY RETURNDATASIZE PUSH1 0x0 REVERT JUMPDEST POP PUSH1 0x1 SWAP8 SWAP7 POP POP POP POP POP POP POP JUMP JUMPDEST PUSH2 0x1996 PUSH2 0x1B09 JUMP JUMPDEST PUSH1 0x0 SLOAD PUSH1 0x1 PUSH1 0x1 PUSH1 0xA0 SHL SUB SWAP1 DUP2 AND SWAP2 AND EQ PUSH2 0x19E6 JUMPI PUSH1 0x40 DUP1 MLOAD PUSH3 0x461BCD PUSH1 0xE5 SHL DUP2 MSTORE PUSH1 0x20 PUSH1 0x4 DUP3 ADD DUP2 SWAP1 MSTORE PUSH1 0x24 DUP3 ADD MSTORE PUSH1 0x0 DUP1 MLOAD PUSH1 0x20 PUSH2 0x265C DUP4 CODECOPY DUP2 MLOAD SWAP2 MSTORE PUSH1 0x44 DUP3 ADD MSTORE SWAP1 MLOAD SWAP1 DUP2 SWAP1 SUB PUSH1 0x64 ADD SWAP1 REVERT JUMPDEST PUSH1 0x1 PUSH1 0x1 PUSH1 0xA0 SHL SUB DUP2 AND PUSH1 0x0 DUP2 DUP2 MSTORE PUSH1 0x1 PUSH1 0x20 DUP2 SWAP1 MSTORE PUSH1 0x40 DUP1 DUP4 KECCAK256 DUP1 SLOAD PUSH1 0xFF NOT AND SWAP1 SWAP3 OR SWAP1 SWAP2 SSTORE MLOAD PUSH32 0x169AADF55DC2098830CCF9F334E3CE3933B6E895B9114FC9F49242F2BE61FE8E SWAP2 SWAP1 LOG2 POP JUMP JUMPDEST PUSH1 0x1 PUSH1 0x1 PUSH1 0xA0 SHL SUB SWAP2 DUP3 AND PUSH1 0x0 SWAP1 DUP2 MSTORE PUSH1 0x3 PUSH1 0x20 SWAP1 DUP2 MSTORE PUSH1 0x40 DUP1 DUP4 KECCAK256 SWAP4 SWAP1 SWAP5 AND DUP3 MSTORE SWAP2 SWAP1 SWAP2 MSTORE KECCAK256 SLOAD SWAP1 JUMP JUMPDEST PUSH1 0x40 MLOAD DUP1 PUSH1 0x3A PUSH2 0x26C4 DUP3 CODECOPY PUSH1 0x3A ADD SWAP1 POP PUSH1 0x40 MLOAD DUP1 SWAP2 SUB SWAP1 KECCAK256 DUP2 JUMP JUMPDEST PUSH1 0x9 PUSH1 0x20 SWAP1 DUP2 MSTORE PUSH1 0x0 SWAP3 DUP4 MSTORE PUSH1 0x40 DUP1 DUP5 KECCAK256 SWAP1 SWAP2 MSTORE SWAP1 DUP3 MSTORE SWAP1 KECCAK256 DUP1 SLOAD PUSH1 0x1 SWAP1 SWAP2 ADD SLOAD PUSH4 0xFFFFFFFF SWAP1 SWAP2 AND SWAP1 DUP3 JUMP JUMPDEST PUSH2 0x1AB0 PUSH2 0x1B09 JUMP JUMPDEST PUSH1 0x0 SLOAD PUSH1 0x1 PUSH1 0x1 PUSH1 0xA0 SHL SUB SWAP1 DUP2 AND SWAP2 AND EQ PUSH2 0x1B00 JUMPI PUSH1 0x40 DUP1 MLOAD PUSH3 0x461BCD PUSH1 0xE5 SHL DUP2 MSTORE PUSH1 0x20 PUSH1 0x4 DUP3 ADD DUP2 SWAP1 MSTORE PUSH1 0x24 DUP3 ADD MSTORE PUSH1 0x0 DUP1 MLOAD PUSH1 0x20 PUSH2 0x265C DUP4 CODECOPY DUP2 MLOAD SWAP2 MSTORE PUSH1 0x44 DUP3 ADD MSTORE SWAP1 MLOAD SWAP1 DUP2 SWAP1 SUB PUSH1 0x64 ADD SWAP1 REVERT JUMPDEST PUSH2 0xCA5 DUP2 PUSH2 0x208B JUMP JUMPDEST CALLER SWAP1 JUMP JUMPDEST PUSH1 0x1 PUSH1 0x1 PUSH1 0xA0 SHL SUB DUP4 AND PUSH2 0x1B52 JUMPI PUSH1 0x40 MLOAD PUSH3 0x461BCD PUSH1 0xE5 SHL DUP2 MSTORE PUSH1 0x4 ADD DUP1 DUP1 PUSH1 0x20 ADD DUP3 DUP2 SUB DUP3 MSTORE PUSH1 0x24 DUP2 MSTORE PUSH1 0x20 ADD DUP1 PUSH2 0x258B PUSH1 0x24 SWAP2 CODECOPY PUSH1 0x40 ADD SWAP2 POP POP PUSH1 0x40 MLOAD DUP1 SWAP2 SUB SWAP1 REVERT JUMPDEST PUSH1 0x1 PUSH1 0x1 PUSH1 0xA0 SHL SUB DUP3 AND PUSH2 0x1B97 JUMPI PUSH1 0x40 MLOAD PUSH3 0x461BCD PUSH1 0xE5 SHL DUP2 MSTORE PUSH1 0x4 ADD DUP1 DUP1 PUSH1 0x20 ADD DUP3 DUP2 SUB DUP3 MSTORE PUSH1 0x22 DUP2 MSTORE PUSH1 0x20 ADD DUP1 PUSH2 0x2522 PUSH1 0x22 SWAP2 CODECOPY PUSH1 0x40 ADD SWAP2 POP POP PUSH1 0x40 MLOAD DUP1 SWAP2 SUB SWAP1 REVERT JUMPDEST PUSH1 0x1 PUSH1 0x1 PUSH1 0xA0 SHL SUB DUP1 DUP5 AND PUSH1 0x0 DUP2 DUP2 MSTORE PUSH1 0x3 PUSH1 0x20 SWAP1 DUP2 MSTORE PUSH1 0x40 DUP1 DUP4 KECCAK256 SWAP5 DUP8 AND DUP1 DUP5 MSTORE SWAP5 DUP3 MSTORE SWAP2 DUP3 SWAP1 KECCAK256 DUP6 SWAP1 SSTORE DUP2 MLOAD DUP6 DUP2 MSTORE SWAP2 MLOAD PUSH32 0x8C5BE1E5EBEC7D5BD14F71427D1E84F3DD0314C0F7B2291E5B200AC8C7C3B925 SWAP3 DUP2 SWAP1 SUB SWAP1 SWAP2 ADD SWAP1 LOG3 POP POP POP JUMP JUMPDEST PUSH1 0x1 PUSH1 0x1 PUSH1 0xA0 SHL SUB DUP4 AND PUSH2 0x1C3E JUMPI PUSH1 0x40 MLOAD PUSH3 0x461BCD PUSH1 0xE5 SHL DUP2 MSTORE PUSH1 0x4 ADD DUP1 DUP1 PUSH1 0x20 ADD DUP3 DUP2 SUB DUP3 MSTORE PUSH1 0x25 DUP2 MSTORE PUSH1 0x20 ADD DUP1 PUSH2 0x267C PUSH1 0x25 SWAP2 CODECOPY PUSH1 0x40 ADD SWAP2 POP POP PUSH1 0x40 MLOAD DUP1 SWAP2 SUB SWAP1 REVERT JUMPDEST PUSH1 0x1 PUSH1 0x1 PUSH1 0xA0 SHL SUB DUP3 AND PUSH2 0x1C83 JUMPI PUSH1 0x40 MLOAD PUSH3 0x461BCD PUSH1 0xE5 SHL DUP2 MSTORE PUSH1 0x4 ADD DUP1 DUP1 PUSH1 0x20 ADD DUP3 DUP2 SUB DUP3 MSTORE PUSH1 0x23 DUP2 MSTORE PUSH1 0x20 ADD DUP1 PUSH2 0x26A1 PUSH1 0x23 SWAP2 CODECOPY PUSH1 0x40 ADD SWAP2 POP POP PUSH1 0x40 MLOAD DUP1 SWAP2 SUB SWAP1 REVERT JUMPDEST PUSH2 0x1CC6 DUP2 PUSH1 0x40 MLOAD DUP1 PUSH1 0x60 ADD PUSH1 0x40 MSTORE DUP1 PUSH1 0x23 DUP2 MSTORE PUSH1 0x20 ADD PUSH2 0x25AF PUSH1 0x23 SWAP2 CODECOPY PUSH1 0x1 PUSH1 0x1 PUSH1 0xA0 SHL SUB DUP7 AND PUSH1 0x0 SWAP1 DUP2 MSTORE PUSH1 0x2 PUSH1 0x20 MSTORE PUSH1 0x40 SWAP1 KECCAK256 SLOAD SWAP2 SWAP1 PUSH4 0xFFFFFFFF PUSH2 0x1DB8 AND JUMP JUMPDEST PUSH1 0x1 PUSH1 0x1 PUSH1 0xA0 SHL SUB DUP1 DUP6 AND PUSH1 0x0 SWAP1 DUP2 MSTORE PUSH1 0x2 PUSH1 0x20 DUP2 DUP2 MSTORE PUSH1 0x40 DUP1 DUP5 KECCAK256 SWAP6 SWAP1 SWAP6 SSTORE DUP5 MLOAD DUP1 DUP7 ADD DUP7 MSTORE PUSH1 0x15 DUP2 MSTORE PUSH21 0x5468652062616C616E6365206F766572666C6F7773 PUSH1 0x58 SHL DUP2 DUP4 ADD MSTORE SWAP4 DUP8 AND DUP4 MSTORE MSTORE SWAP2 SWAP1 SWAP2 KECCAK256 SLOAD PUSH2 0x1D2A SWAP2 DUP4 SWAP1 PUSH4 0xFFFFFFFF PUSH2 0x1E4F AND JUMP JUMPDEST PUSH1 0x1 PUSH1 0x1 PUSH1 0xA0 SHL SUB DUP1 DUP5 AND PUSH1 0x0 DUP2 DUP2 MSTORE PUSH1 0x2 PUSH1 0x20 SWAP1 DUP2 MSTORE PUSH1 0x40 SWAP2 DUP3 SWAP1 KECCAK256 SWAP5 SWAP1 SWAP5 SSTORE DUP1 MLOAD DUP6 DUP2 MSTORE SWAP1 MLOAD SWAP2 SWAP4 SWAP3 DUP8 AND SWAP3 PUSH32 0xDDF252AD1BE2C89B69C2B068FC378DAA952BA7F163C4A11628F55A4DF523B3EF SWAP3 SWAP2 DUP3 SWAP1 SUB ADD SWAP1 LOG3 PUSH1 0x1 PUSH1 0x1 PUSH1 0xA0 SHL SUB DUP1 DUP5 AND PUSH1 0x0 SWAP1 DUP2 MSTORE PUSH1 0x8 PUSH1 0x20 MSTORE PUSH1 0x40 DUP1 DUP3 KECCAK256 SLOAD DUP6 DUP5 AND DUP4 MSTORE SWAP2 KECCAK256 SLOAD PUSH2 0x1DB3 SWAP3 SWAP2 DUP3 AND SWAP2 AND DUP4 PUSH2 0x212B JUMP JUMPDEST POP POP POP JUMP JUMPDEST PUSH1 0x0 DUP2 DUP5 DUP5 GT ISZERO PUSH2 0x1E47 JUMPI PUSH1 0x40 MLOAD PUSH3 0x461BCD PUSH1 0xE5 SHL DUP2 MSTORE PUSH1 0x4 ADD DUP1 DUP1 PUSH1 0x20 ADD DUP3 DUP2 SUB DUP3 MSTORE DUP4 DUP2 DUP2 MLOAD DUP2 MSTORE PUSH1 0x20 ADD SWAP2 POP DUP1 MLOAD SWAP1 PUSH1 0x20 ADD SWAP1 DUP1 DUP4 DUP4 PUSH1 0x0 JUMPDEST DUP4 DUP2 LT ISZERO PUSH2 0x1E0C JUMPI DUP2 DUP2 ADD MLOAD DUP4 DUP3 ADD MSTORE PUSH1 0x20 ADD PUSH2 0x1DF4 JUMP JUMPDEST POP POP POP POP SWAP1 POP SWAP1 DUP2 ADD SWAP1 PUSH1 0x1F AND DUP1 ISZERO PUSH2 0x1E39 JUMPI DUP1 DUP3 SUB DUP1 MLOAD PUSH1 0x1 DUP4 PUSH1 0x20 SUB PUSH2 0x100 EXP SUB NOT AND DUP2 MSTORE PUSH1 0x20 ADD SWAP2 POP JUMPDEST POP SWAP3 POP POP POP PUSH1 0x40 MLOAD DUP1 SWAP2 SUB SWAP1 REVERT JUMPDEST POP POP POP SWAP1 SUB SWAP1 JUMP JUMPDEST PUSH1 0x0 DUP4 DUP4 ADD DUP3 DUP6 DUP3 LT ISZERO PUSH2 0x1EA4 JUMPI PUSH1 0x40 MLOAD PUSH3 0x461BCD PUSH1 0xE5 SHL DUP2 MSTORE PUSH1 0x20 PUSH1 0x4 DUP3 ADD DUP2 DUP2 MSTORE DUP4 MLOAD PUSH1 0x24 DUP5 ADD MSTORE DUP4 MLOAD SWAP1 SWAP3 DUP4 SWAP3 PUSH1 0x44 SWAP1 SWAP2 ADD SWAP2 SWAP1 DUP6 ADD SWAP1 DUP1 DUP4 DUP4 PUSH1 0x0 DUP4 ISZERO PUSH2 0x1E0C JUMPI DUP2 DUP2 ADD MLOAD DUP4 DUP3 ADD MSTORE PUSH1 0x20 ADD PUSH2 0x1DF4 JUMP JUMPDEST POP SWAP5 SWAP4 POP POP POP POP JUMP JUMPDEST PUSH1 0x1 PUSH1 0x1 PUSH1 0xA0 SHL SUB DUP3 AND PUSH2 0x1EF2 JUMPI PUSH1 0x40 MLOAD PUSH3 0x461BCD PUSH1 0xE5 SHL DUP2 MSTORE PUSH1 0x4 ADD DUP1 DUP1 PUSH1 0x20 ADD DUP3 DUP2 SUB DUP3 MSTORE PUSH1 0x21 DUP2 MSTORE PUSH1 0x20 ADD DUP1 PUSH2 0x26FE PUSH1 0x21 SWAP2 CODECOPY PUSH1 0x40 ADD SWAP2 POP POP PUSH1 0x40 MLOAD DUP1 SWAP2 SUB SWAP1 REVERT JUMPDEST PUSH1 0x40 DUP1 MLOAD DUP1 DUP3 ADD DUP3 MSTORE PUSH1 0x1F DUP2 MSTORE PUSH32 0x546865206275726E20616D6F756E7420657863656564732062616C616E636500 PUSH1 0x20 DUP1 DUP4 ADD SWAP2 SWAP1 SWAP2 MSTORE PUSH1 0x1 PUSH1 0x1 PUSH1 0xA0 SHL SUB DUP6 AND PUSH1 0x0 SWAP1 DUP2 MSTORE PUSH1 0x2 SWAP1 SWAP2 MSTORE SWAP2 SWAP1 SWAP2 KECCAK256 SLOAD PUSH2 0x1F53 SWAP2 DUP4 SWAP1 PUSH4 0xFFFFFFFF PUSH2 0x1DB8 AND JUMP JUMPDEST PUSH1 0x1 PUSH1 0x1 PUSH1 0xA0 SHL SUB DUP4 AND PUSH1 0x0 SWAP1 DUP2 MSTORE PUSH1 0x2 PUSH1 0x20 MSTORE PUSH1 0x40 SWAP1 KECCAK256 SSTORE PUSH1 0x4 SLOAD PUSH2 0x1F7F SWAP1 DUP3 PUSH4 0xFFFFFFFF PUSH2 0x22E8 AND JUMP JUMPDEST PUSH1 0x4 SSTORE PUSH1 0x40 DUP1 MLOAD DUP3 DUP2 MSTORE SWAP1 MLOAD PUSH1 0x0 SWAP2 PUSH1 0x1 PUSH1 0x1 PUSH1 0xA0 SHL SUB DUP6 AND SWAP2 PUSH32 0xDDF252AD1BE2C89B69C2B068FC378DAA952BA7F163C4A11628F55A4DF523B3EF SWAP2 DUP2 SWAP1 SUB PUSH1 0x20 ADD SWAP1 LOG3 PUSH1 0x1 PUSH1 0x1 PUSH1 0xA0 SHL SUB DUP1 DUP4 AND PUSH1 0x0 SWAP1 DUP2 MSTORE PUSH1 0x8 PUSH1 0x20 MSTORE PUSH1 0x40 DUP2 KECCAK256 SLOAD PUSH2 0x1FE9 SWAP3 AND SWAP1 DUP4 PUSH2 0x212B JUMP JUMPDEST POP POP JUMP JUMPDEST PUSH1 0x1 PUSH1 0x1 PUSH1 0xA0 SHL SUB DUP1 DUP4 AND PUSH1 0x0 DUP2 DUP2 MSTORE PUSH1 0x8 PUSH1 0x20 DUP2 DUP2 MSTORE PUSH1 0x40 DUP1 DUP5 KECCAK256 DUP1 SLOAD PUSH1 0x2 DUP5 MSTORE DUP3 DUP7 KECCAK256 SLOAD SWAP5 SWAP1 SWAP4 MSTORE DUP8 DUP8 AND PUSH1 0x1 PUSH1 0x1 PUSH1 0xA0 SHL SUB NOT DUP5 AND DUP2 OR SWAP1 SWAP2 SSTORE SWAP1 MLOAD SWAP2 SWAP1 SWAP6 AND SWAP5 SWAP2 SWAP4 SWAP2 SWAP3 DUP6 SWAP3 SWAP2 PUSH32 0x3134E8A2E6D97E929A7E54011EA5485D7D196DD5F0BA4D4EF95803E8E3FC257F SWAP2 SWAP1 LOG4 PUSH2 0x2067 DUP3 DUP5 DUP4 PUSH2 0x212B JUMP JUMPDEST POP POP POP POP JUMP JUMPDEST PUSH1 0x0 PUSH1 0x1 PUSH1 0x60 SHL DUP3 LT PUSH2 0x2083 JUMPI POP PUSH1 0x0 NOT PUSH2 0xBCF JUMP JUMPDEST POP SWAP1 JUMP JUMPDEST CHAINID SWAP1 JUMP JUMPDEST PUSH1 0x1 PUSH1 0x1 PUSH1 0xA0 SHL SUB DUP2 AND PUSH2 0x20D0 JUMPI PUSH1 0x40 MLOAD PUSH3 0x461BCD PUSH1 0xE5 SHL DUP2 MSTORE PUSH1 0x4 ADD DUP1 DUP1 PUSH1 0x20 ADD DUP3 DUP2 SUB DUP3 MSTORE PUSH1 0x26 DUP2 MSTORE PUSH1 0x20 ADD DUP1 PUSH2 0x2565 PUSH1 0x26 SWAP2 CODECOPY PUSH1 0x40 ADD SWAP2 POP POP PUSH1 0x40 MLOAD DUP1 SWAP2 SUB SWAP1 REVERT JUMPDEST PUSH1 0x0 DUP1 SLOAD PUSH1 0x40 MLOAD PUSH1 0x1 PUSH1 0x1 PUSH1 0xA0 SHL SUB DUP1 DUP6 AND SWAP4 SWAP3 AND SWAP2 PUSH32 0x8BE0079C531659141344CD1FD0A4F28419497F9722A3DAAFE3B4186F6B6457E0 SWAP2 LOG3 PUSH1 0x0 DUP1 SLOAD PUSH1 0x1 PUSH1 0x1 PUSH1 0xA0 SHL SUB NOT AND PUSH1 0x1 PUSH1 0x1 PUSH1 0xA0 SHL SUB SWAP3 SWAP1 SWAP3 AND SWAP2 SWAP1 SWAP2 OR SWAP1 SSTORE JUMP JUMPDEST DUP2 PUSH1 0x1 PUSH1 0x1 PUSH1 0xA0 SHL SUB AND DUP4 PUSH1 0x1 PUSH1 0x1 PUSH1 0xA0 SHL SUB AND EQ ISZERO DUP1 ISZERO PUSH2 0x214D JUMPI POP PUSH1 0x0 DUP2 GT JUMPDEST ISZERO PUSH2 0x1DB3 JUMPI PUSH1 0x1 PUSH1 0x1 PUSH1 0xA0 SHL SUB DUP4 AND ISZERO PUSH2 0x221F JUMPI PUSH1 0x1 PUSH1 0x1 PUSH1 0xA0 SHL SUB DUP4 AND PUSH1 0x0 SWAP1 DUP2 MSTORE PUSH1 0xA PUSH1 0x20 MSTORE PUSH1 0x40 DUP2 KECCAK256 SLOAD PUSH4 0xFFFFFFFF AND SWAP1 DUP2 PUSH2 0x218D JUMPI PUSH1 0x0 PUSH2 0x21BF JUMP JUMPDEST PUSH1 0x1 PUSH1 0x1 PUSH1 0xA0 SHL SUB DUP6 AND PUSH1 0x0 SWAP1 DUP2 MSTORE PUSH1 0x9 PUSH1 0x20 SWAP1 DUP2 MSTORE PUSH1 0x40 DUP1 DUP4 KECCAK256 PUSH4 0xFFFFFFFF PUSH1 0x0 NOT DUP8 ADD AND DUP5 MSTORE SWAP1 SWAP2 MSTORE SWAP1 KECCAK256 PUSH1 0x1 ADD SLOAD JUMPDEST SWAP1 POP PUSH1 0x0 PUSH2 0x220D DUP5 PUSH1 0x40 MLOAD DUP1 PUSH1 0x40 ADD PUSH1 0x40 MSTORE DUP1 PUSH1 0x1A DUP2 MSTORE PUSH1 0x20 ADD PUSH32 0x54686520766F746520616D6F756E7420756E646572666C6F7773000000000000 DUP2 MSTORE POP DUP5 PUSH2 0x1DB8 SWAP1 SWAP3 SWAP2 SWAP1 PUSH4 0xFFFFFFFF AND JUMP JUMPDEST SWAP1 POP PUSH2 0x221B DUP7 DUP5 DUP5 DUP5 PUSH2 0x232A JUMP JUMPDEST POP POP POP JUMPDEST PUSH1 0x1 PUSH1 0x1 PUSH1 0xA0 SHL SUB DUP3 AND ISZERO PUSH2 0x1DB3 JUMPI PUSH1 0x1 PUSH1 0x1 PUSH1 0xA0 SHL SUB DUP3 AND PUSH1 0x0 SWAP1 DUP2 MSTORE PUSH1 0xA PUSH1 0x20 MSTORE PUSH1 0x40 DUP2 KECCAK256 SLOAD PUSH4 0xFFFFFFFF AND SWAP1 DUP2 PUSH2 0x225A JUMPI PUSH1 0x0 PUSH2 0x228C JUMP JUMPDEST PUSH1 0x1 PUSH1 0x1 PUSH1 0xA0 SHL SUB DUP5 AND PUSH1 0x0 SWAP1 DUP2 MSTORE PUSH1 0x9 PUSH1 0x20 SWAP1 DUP2 MSTORE PUSH1 0x40 DUP1 DUP4 KECCAK256 PUSH4 0xFFFFFFFF PUSH1 0x0 NOT DUP8 ADD AND DUP5 MSTORE SWAP1 SWAP2 MSTORE SWAP1 KECCAK256 PUSH1 0x1 ADD SLOAD JUMPDEST SWAP1 POP PUSH1 0x0 PUSH2 0x22DA DUP5 PUSH1 0x40 MLOAD DUP1 PUSH1 0x40 ADD PUSH1 0x40 MSTORE DUP1 PUSH1 0x19 DUP2 MSTORE PUSH1 0x20 ADD PUSH32 0x54686520766F746520616D6F756E74206F766572666C6F777300000000000000 DUP2 MSTORE POP DUP5 PUSH2 0x1E4F SWAP1 SWAP3 SWAP2 SWAP1 PUSH4 0xFFFFFFFF AND JUMP JUMPDEST SWAP1 POP PUSH2 0x17C1 DUP6 DUP5 DUP5 DUP5 PUSH2 0x232A JUMP JUMPDEST PUSH1 0x0 PUSH2 0x138D DUP4 DUP4 PUSH1 0x40 MLOAD DUP1 PUSH1 0x40 ADD PUSH1 0x40 MSTORE DUP1 PUSH1 0x1E DUP2 MSTORE PUSH1 0x20 ADD PUSH32 0x536166654D6174683A207375627472616374696F6E206F766572666C6F770000 DUP2 MSTORE POP PUSH2 0x1DB8 JUMP JUMPDEST PUSH1 0x0 PUSH2 0x236B NUMBER PUSH1 0x40 MLOAD DUP1 PUSH1 0x40 ADD PUSH1 0x40 MSTORE DUP1 PUSH1 0x20 DUP2 MSTORE PUSH1 0x20 ADD PUSH32 0x54686520626C6F636B206E756D62657220657863656564732033322062697473 DUP2 MSTORE POP PUSH2 0x24AC JUMP JUMPDEST SWAP1 POP PUSH1 0x0 DUP5 PUSH4 0xFFFFFFFF AND GT DUP1 ISZERO PUSH2 0x23B4 JUMPI POP PUSH1 0x1 PUSH1 0x1 PUSH1 0xA0 SHL SUB DUP6 AND PUSH1 0x0 SWAP1 DUP2 MSTORE PUSH1 0x9 PUSH1 0x20 SWAP1 DUP2 MSTORE PUSH1 0x40 DUP1 DUP4 KECCAK256 PUSH4 0xFFFFFFFF PUSH1 0x0 NOT DUP10 ADD DUP2 AND DUP6 MSTORE SWAP3 MSTORE SWAP1 SWAP2 KECCAK256 SLOAD DUP3 DUP3 AND SWAP2 AND EQ JUMPDEST ISZERO PUSH2 0x23F1 JUMPI PUSH1 0x1 PUSH1 0x1 PUSH1 0xA0 SHL SUB DUP6 AND PUSH1 0x0 SWAP1 DUP2 MSTORE PUSH1 0x9 PUSH1 0x20 SWAP1 DUP2 MSTORE PUSH1 0x40 DUP1 DUP4 KECCAK256 PUSH4 0xFFFFFFFF PUSH1 0x0 NOT DUP10 ADD AND DUP5 MSTORE SWAP1 SWAP2 MSTORE SWAP1 KECCAK256 PUSH1 0x1 ADD DUP3 SWAP1 SSTORE PUSH2 0x2462 JUMP JUMPDEST PUSH1 0x40 DUP1 MLOAD DUP1 DUP3 ADD DUP3 MSTORE PUSH4 0xFFFFFFFF DUP1 DUP5 AND DUP3 MSTORE PUSH1 0x20 DUP1 DUP4 ADD DUP7 DUP2 MSTORE PUSH1 0x1 PUSH1 0x1 PUSH1 0xA0 SHL SUB DUP11 AND PUSH1 0x0 DUP2 DUP2 MSTORE PUSH1 0x9 DUP5 MSTORE DUP7 DUP2 KECCAK256 DUP12 DUP7 AND DUP3 MSTORE DUP5 MSTORE DUP7 DUP2 KECCAK256 SWAP6 MLOAD DUP7 SLOAD SWAP1 DUP7 AND PUSH4 0xFFFFFFFF NOT SWAP2 DUP3 AND OR DUP8 SSTORE SWAP3 MLOAD PUSH1 0x1 SWAP7 DUP8 ADD SSTORE SWAP1 DUP2 MSTORE PUSH1 0xA SWAP1 SWAP3 MSTORE SWAP4 SWAP1 KECCAK256 DUP1 SLOAD SWAP3 DUP9 ADD SWAP1 SWAP2 AND SWAP2 SWAP1 SWAP3 AND OR SWAP1 SSTORE JUMPDEST PUSH1 0x40 DUP1 MLOAD DUP5 DUP2 MSTORE PUSH1 0x20 DUP2 ADD DUP5 SWAP1 MSTORE DUP2 MLOAD PUSH1 0x1 PUSH1 0x1 PUSH1 0xA0 SHL SUB DUP9 AND SWAP3 PUSH32 0xDEC2BACDD2F05B59DE34DA9B523DFF8BE42E5E38E818C82FDB0BAE774387A724 SWAP3 DUP3 SWAP1 SUB ADD SWAP1 LOG2 POP POP POP POP POP JUMP JUMPDEST PUSH1 0x0 DUP2 PUSH5 0x100000000 DUP5 LT PUSH2 0x2502 JUMPI PUSH1 0x40 MLOAD PUSH3 0x461BCD PUSH1 0xE5 SHL DUP2 MSTORE PUSH1 0x20 PUSH1 0x4 DUP3 ADD DUP2 DUP2 MSTORE DUP4 MLOAD PUSH1 0x24 DUP5 ADD MSTORE DUP4 MLOAD SWAP1 SWAP3 DUP4 SWAP3 PUSH1 0x44 SWAP1 SWAP2 ADD SWAP2 SWAP1 DUP6 ADD SWAP1 DUP1 DUP4 DUP4 PUSH1 0x0 DUP4 ISZERO PUSH2 0x1E0C JUMPI DUP2 DUP2 ADD MLOAD DUP4 DUP3 ADD MSTORE PUSH1 0x20 ADD PUSH2 0x1DF4 JUMP JUMPDEST POP SWAP2 SWAP3 SWAP2 POP POP JUMP JUMPDEST PUSH1 0x40 DUP1 MLOAD DUP1 DUP3 ADD SWAP1 SWAP2 MSTORE PUSH1 0x0 DUP1 DUP3 MSTORE PUSH1 0x20 DUP3 ADD MSTORE SWAP1 JUMP INVALID NUMBER PUSH2 0x6E6E PUSH16 0x7420617070726F766520746F20746865 KECCAK256 PUSH27 0x65726F206164647265737354686520696E6372656173656420616C PUSH13 0x6F77616E6365206F766572666C PUSH16 0x77734F776E61626C653A206E6577206F PUSH24 0x6E657220697320746865207A65726F206164647265737343 PUSH2 0x6E6E PUSH16 0x7420617070726F76652066726F6D2074 PUSH9 0x65207A65726F206164 PUSH5 0x7265737354 PUSH9 0x65207472616E736665 PUSH19 0x20616D6F756E7420657863656564732062616C PUSH2 0x6E63 PUSH6 0x546865206465 PUSH4 0x72656173 PUSH6 0x6420616C6C6F PUSH24 0x616E63652062656C6F77207A65726F546865207472616E73 PUSH7 0x657220616D6F75 PUSH15 0x74206578636565647320616C6C6F77 PUSH2 0x6E63 PUSH6 0x454950373132 DIFFICULTY PUSH16 0x6D61696E28737472696E67206E616D65 0x2C PUSH22 0x696E7432353620636861696E49642C61646472657373 KECCAK256 PUSH23 0x6572696679696E67436F6E7472616374294F776E61626C PUSH6 0x3A2063616C6C PUSH6 0x72206973206E PUSH16 0x7420746865206F776E657243616E6E6F PUSH21 0x207472616E736665722066726F6D20746865207A65 PUSH19 0x6F206164647265737343616E6E6F7420747261 PUSH15 0x7366657220746F20746865207A6572 PUSH16 0x206164647265737344656C6567617469 PUSH16 0x6E28616464726573732064656C656761 PUSH21 0x65652C75696E74323536206E6F6E63652C75696E74 ORIGIN CALLDATALOAD CALLDATASIZE KECCAK256 PUSH6 0x787069727929 NUMBER PUSH2 0x6E6E PUSH16 0x74206275726E2066726F6D2074686520 PUSH27 0x65726F2061646472657373A265627A7A72315820D2BEAE58A8AFC4 DUP5 0xAC DUP14 PUSH23 0x855612D49A108FE0775A6020C5853CF5C6FC5E39776473 PUSH16 0x6C634300051100320000000000000000 "
				},
				"gasEstimates": {
					"creation": {
						"codeDepositCost": "2013400",
						"executionCost": "infinite",
						"totalCost": "infinite"
					},
					"external": {
						"DELEGATION_TYPEHASH()": "infinite",
						"DOMAIN_TYPEHASH()": "infinite",
						"allowance(address,address)": "1294",
						"approve(address,uint256)": "infinite",
						"approveAndCall(address,uint256,bytes)": "infinite",
						"balanceOf(address)": "1231",
						"burn(uint256)": "infinite",
						"checkpoints(address,uint32)": "2168",
						"decimals()": "1103",
						"decreaseAllowance(address,uint256)": "infinite",
						"delegate(address)": "infinite",
						"delegateBySig(address,uint256,uint256,uint8,bytes32,bytes32)": "infinite",
						"delegates(address)": "1231",
						"freeze()": "infinite",
						"getCurrentVotes(address)": "2366",
						"getOwner()": "1162",
						"getPriorVotes(address,uint256)": "infinite",
						"increaseAllowance(address,uint256)": "infinite",
						"lockUser(address)": "infinite",
						"name()": "infinite",
						"nonces(address)": "1192",
						"numCheckpoints(address)": "1206",
						"owner()": "1149",
						"renounceOwnership()": "infinite",
						"symbol()": "infinite",
						"totalSupply()": "1089",
						"transfer(address,uint256)": "infinite",
						"transferFrom(address,address,uint256)": "infinite",
						"transferOwnership(address)": "infinite",
						"unfreeze()": "infinite",
						"unlockUser(address)": "infinite"
					},
					"internal": {
						"_approve(address,address,uint256)": "infinite",
						"_burn(address,uint256)": "infinite",
						"_delegate(address,address)": "infinite",
						"_moveDelegates(address,address,uint256)": "infinite",
						"_transfer(address,address,uint256)": "infinite",
						"_writeCheckpoint(address,uint32,uint256,uint256)": "infinite",
						"ceil96(uint256)": "68",
						"getChainId()": "14",
						"safe32(uint256,string memory)": "infinite"
					}
				},
				"methodIdentifiers": {
					"DELEGATION_TYPEHASH()": "e7a324dc",
					"DOMAIN_TYPEHASH()": "20606b70",
					"allowance(address,address)": "dd62ed3e",
					"approve(address,uint256)": "095ea7b3",
					"approveAndCall(address,uint256,bytes)": "cae9ca51",
					"balanceOf(address)": "70a08231",
					"burn(uint256)": "42966c68",
					"checkpoints(address,uint32)": "f1127ed8",
					"decimals()": "313ce567",
					"decreaseAllowance(address,uint256)": "a457c2d7",
					"delegate(address)": "5c19a95c",
					"delegateBySig(address,uint256,uint256,uint8,bytes32,bytes32)": "c3cda520",
					"delegates(address)": "587cde1e",
					"freeze()": "62a5af3b",
					"getCurrentVotes(address)": "b4b5ea57",
					"getOwner()": "893d20e8",
					"getPriorVotes(address,uint256)": "782d6fe1",
					"increaseAllowance(address,uint256)": "39509351",
					"lockUser(address)": "d7972580",
					"name()": "06fdde03",
					"nonces(address)": "7ecebe00",
					"numCheckpoints(address)": "6fcfff45",
					"owner()": "8da5cb5b",
					"renounceOwnership()": "715018a6",
					"symbol()": "95d89b41",
					"totalSupply()": "18160ddd",
					"transfer(address,uint256)": "a9059cbb",
					"transferFrom(address,address,uint256)": "23b872dd",
					"transferOwnership(address)": "f2fde38b",
					"unfreeze()": "6a28f000",
					"unlockUser(address)": "bd1870a3"
				}
			},
			"storageLayout": {
				"storage": [
					{
						"astId": 233,
						"contract": "contracts/4_SmartGTFX.sol:GTFX",
						"label": "_owner",
						"offset": 0,
						"slot": "0",
						"type": "t_address"
					},
					{
						"astId": 427,
						"contract": "contracts/4_SmartGTFX.sol:GTFX",
						"label": "isLocked",
						"offset": 20,
						"slot": "0",
						"type": "t_uint8"
					},
					{
						"astId": 487,
						"contract": "contracts/4_SmartGTFX.sol:GTFX",
						"label": "blacklist",
						"offset": 0,
						"slot": "1",
						"type": "t_mapping(t_address,t_bool)"
					},
					{
						"astId": 558,
						"contract": "contracts/4_SmartGTFX.sol:GTFX",
						"label": "_balances",
						"offset": 0,
						"slot": "2",
						"type": "t_mapping(t_address,t_uint256)"
					},
					{
						"astId": 564,
						"contract": "contracts/4_SmartGTFX.sol:GTFX",
						"label": "_allowances",
						"offset": 0,
						"slot": "3",
						"type": "t_mapping(t_address,t_mapping(t_address,t_uint256))"
					},
					{
						"astId": 566,
						"contract": "contracts/4_SmartGTFX.sol:GTFX",
						"label": "_totalSupply",
						"offset": 0,
						"slot": "4",
						"type": "t_uint256"
					},
					{
						"astId": 568,
						"contract": "contracts/4_SmartGTFX.sol:GTFX",
						"label": "_decimals",
						"offset": 0,
						"slot": "5",
						"type": "t_uint8"
					},
					{
						"astId": 570,
						"contract": "contracts/4_SmartGTFX.sol:GTFX",
						"label": "_symbol",
						"offset": 0,
						"slot": "6",
						"type": "t_string_storage"
					},
					{
						"astId": 572,
						"contract": "contracts/4_SmartGTFX.sol:GTFX",
						"label": "_name",
						"offset": 0,
						"slot": "7",
						"type": "t_string_storage"
					},
					{
						"astId": 576,
						"contract": "contracts/4_SmartGTFX.sol:GTFX",
						"label": "delegates",
						"offset": 0,
						"slot": "8",
						"type": "t_mapping(t_address,t_address)"
					},
					{
						"astId": 587,
						"contract": "contracts/4_SmartGTFX.sol:GTFX",
						"label": "checkpoints",
						"offset": 0,
						"slot": "9",
						"type": "t_mapping(t_address,t_mapping(t_uint32,t_struct(Checkpoint)581_storage))"
					},
					{
						"astId": 591,
						"contract": "contracts/4_SmartGTFX.sol:GTFX",
						"label": "numCheckpoints",
						"offset": 0,
						"slot": "10",
						"type": "t_mapping(t_address,t_uint32)"
					},
					{
						"astId": 605,
						"contract": "contracts/4_SmartGTFX.sol:GTFX",
						"label": "nonces",
						"offset": 0,
						"slot": "11",
						"type": "t_mapping(t_address,t_uint256)"
					}
				],
				"types": {
					"t_address": {
						"encoding": "inplace",
						"label": "address",
						"numberOfBytes": "20"
					},
					"t_bool": {
						"encoding": "inplace",
						"label": "bool",
						"numberOfBytes": "1"
					},
					"t_mapping(t_address,t_address)": {
						"encoding": "mapping",
						"key": "t_address",
						"label": "mapping(address => address)",
						"numberOfBytes": "32",
						"value": "t_address"
					},
					"t_mapping(t_address,t_bool)": {
						"encoding": "mapping",
						"key": "t_address",
						"label": "mapping(address => bool)",
						"numberOfBytes": "32",
						"value": "t_bool"
					},
					"t_mapping(t_address,t_mapping(t_address,t_uint256))": {
						"encoding": "mapping",
						"key": "t_address",
						"label": "mapping(address => mapping(address => uint256))",
						"numberOfBytes": "32",
						"value": "t_mapping(t_address,t_uint256)"
					},
					"t_mapping(t_address,t_mapping(t_uint32,t_struct(Checkpoint)581_storage))": {
						"encoding": "mapping",
						"key": "t_address",
						"label": "mapping(address => mapping(uint32 => struct GTFX.Checkpoint))",
						"numberOfBytes": "32",
						"value": "t_mapping(t_uint32,t_struct(Checkpoint)581_storage)"
					},
					"t_mapping(t_address,t_uint256)": {
						"encoding": "mapping",
						"key": "t_address",
						"label": "mapping(address => uint256)",
						"numberOfBytes": "32",
						"value": "t_uint256"
					},
					"t_mapping(t_address,t_uint32)": {
						"encoding": "mapping",
						"key": "t_address",
						"label": "mapping(address => uint32)",
						"numberOfBytes": "32",
						"value": "t_uint32"
					},
					"t_mapping(t_uint32,t_struct(Checkpoint)581_storage)": {
						"encoding": "mapping",
						"key": "t_uint32",
						"label": "mapping(uint32 => struct GTFX.Checkpoint)",
						"numberOfBytes": "32",
						"value": "t_struct(Checkpoint)581_storage"
					},
					"t_string_storage": {
						"encoding": "bytes",
						"label": "string",
						"numberOfBytes": "32"
					},
					"t_struct(Checkpoint)581_storage": {
						"encoding": "inplace",
						"label": "struct GTFX.Checkpoint",
						"members": [
							{
								"astId": 578,
								"contract": "contracts/4_SmartGTFX.sol:GTFX",
								"label": "fromBlock",
								"offset": 0,
								"slot": "0",
								"type": "t_uint32"
							},
							{
								"astId": 580,
								"contract": "contracts/4_SmartGTFX.sol:GTFX",
								"label": "votes",
								"offset": 0,
								"slot": "1",
								"type": "t_uint256"
							}
						],
						"numberOfBytes": "64"
					},
					"t_uint256": {
						"encoding": "inplace",
						"label": "uint256",
						"numberOfBytes": "32"
					},
					"t_uint32": {
						"encoding": "inplace",
						"label": "uint32",
						"numberOfBytes": "4"
					},
					"t_uint8": {
						"encoding": "inplace",
						"label": "uint8",
						"numberOfBytes": "1"
					}
				}
			},
			"userdoc": {
				"methods": {
					"allowance(address,address)": {
						"notice": "Get the number of tokens `spender` is approved to spend on behalf of `account`"
					},
					"approve(address,uint256)": {
						"notice": "Approve `spender` to transfer up to `amount` from `src`"
					},
					"approveAndCall(address,uint256,bytes)": {
						"notice": "Approve the spender to transferFrom(...) with the amount."
					},
					"balanceOf(address)": {
						"notice": "Get the number of tokens held by the `account`"
					},
					"burn(uint256)": {
						"notice": "Destroy the amount of tokens from the sender, reducing the total supply."
					},
					"constructor": "Construct a new GTFX Testnet token",
					"decreaseAllowance(address,uint256)": {
						"notice": "Atomically increases the allowance granted to `spender` by the caller"
					},
					"delegate(address)": {
						"notice": "Delegate votes from `msg.sender` to `delegatee`"
					},
					"delegateBySig(address,uint256,uint256,uint8,bytes32,bytes32)": {
						"notice": "Delegates votes from signatory to `delegatee`"
					},
					"getCurrentVotes(address)": {
						"notice": "Gets the current votes balance for `account`"
					},
					"getPriorVotes(address,uint256)": {
						"notice": "Determine the prior number of votes for an account as of a block number"
					},
					"increaseAllowance(address,uint256)": {
						"notice": "Atomically increases the allowance granted to `spender` by the caller"
					},
					"transfer(address,uint256)": {
						"notice": "Transfer `amount` tokens from `msg.sender` to `dst`"
					},
					"transferFrom(address,address,uint256)": {
						"notice": "Transfer `amount` tokens from `src` to `dst`"
					}
				}
			}
		}
	}
}