{
	"contracts/4_SmartGTFX.sol": {
		"Tokenlock": {
			"abi": [
				{
					"anonymous": false,
					"inputs": [],
					"name": "Freezed",
					"type": "event"
				},
				{
					"anonymous": false,
					"inputs": [
						{
							"indexed": true,
							"internalType": "address",
							"name": "previousOwner",
							"type": "address"
						},
						{
							"indexed": true,
							"internalType": "address",
							"name": "newOwner",
							"type": "address"
						}
					],
					"name": "OwnershipTransferred",
					"type": "event"
				},
				{
					"anonymous": false,
					"inputs": [],
					"name": "UnFreezed",
					"type": "event"
				},
				{
					"constant": false,
					"inputs": [],
					"name": "freeze",
					"outputs": [],
					"payable": false,
					"stateMutability": "nonpayable",
					"type": "function"
				},
				{
					"constant": true,
					"inputs": [],
					"name": "owner",
					"outputs": [
						{
							"internalType": "address",
							"name": "",
							"type": "address"
						}
					],
					"payable": false,
					"stateMutability": "view",
					"type": "function"
				},
				{
					"constant": false,
					"inputs": [],
					"name": "renounceOwnership",
					"outputs": [],
					"payable": false,
					"stateMutability": "nonpayable",
					"type": "function"
				},
				{
					"constant": false,
					"inputs": [
						{
							"internalType": "address",
							"name": "newOwner",
							"type": "address"
						}
					],
					"name": "transferOwnership",
					"outputs": [],
					"payable": false,
					"stateMutability": "nonpayable",
					"type": "function"
				},
				{
					"constant": false,
					"inputs": [],
					"name": "unfreeze",
					"outputs": [],
					"payable": false,
					"stateMutability": "nonpayable",
					"type": "function"
				}
			],
			"devdoc": {
				"methods": {
					"owner()": {
						"details": "Returns the address of the current owner."
					},
					"renounceOwnership()": {
						"details": "Leaves the contract without owner. It will not be possible to call `onlyOwner` functions anymore. Can only be called by the current owner.   * NOTE: Renouncing ownership will leave the contract without an owner, thereby removing any functionality that is only available to the owner."
					},
					"transferOwnership(address)": {
						"details": "Transfers ownership of the contract to a new account (`newOwner`). Can only be called by the current owner."
					}
				}
			},
			"evm": {
				"assembly": "    /* \"contracts/4_SmartGTFX.sol\":11826:12281  contract Tokenlock is Ownable {... */\n  mstore(0x40, 0x80)\n    /* \"contracts/4_SmartGTFX.sol\":11924:11925  0 */\n  0x00\n    /* \"contracts/4_SmartGTFX.sol\":11907:11925  uint8 isLocked = 0 */\n  dup1\n  sload\n  not(shl(0xa0, 0xff))\n  and\n  dup2\n  sstore\n    /* \"contracts/4_SmartGTFX.sol\":7529:7541  _msgSender() */\n  tag_5\n  sub(shl(0xe0, 0x01), 0x01)\n    /* \"contracts/4_SmartGTFX.sol\":7529:7539  _msgSender */\n  tag_6\n    /* \"contracts/4_SmartGTFX.sol\":7529:7541  _msgSender() */\n  and\n  jump\t// in\ntag_5:\n    /* \"contracts/4_SmartGTFX.sol\":7547:7553  _owner */\n  0x00\n    /* \"contracts/4_SmartGTFX.sol\":7547:7565  _owner = msgSender */\n  dup1\n  sload\n  not(sub(shl(0xa0, 0x01), 0x01))\n  and\n  sub(shl(0xa0, 0x01), 0x01)\n  dup4\n  and\n  swap1\n  dup2\n  or\n  dup3\n  sstore\n    /* \"contracts/4_SmartGTFX.sol\":7576:7619  OwnershipTransferred(address(0), msgSender) */\n  mload(0x40)\n    /* \"contracts/4_SmartGTFX.sol\":7547:7565  _owner = msgSender */\n  swap3\n  swap4\n  pop\n  swap2\n    /* \"contracts/4_SmartGTFX.sol\":7576:7619  OwnershipTransferred(address(0), msgSender) */\n  0x8be0079c531659141344cd1fd0a4f28419497f9722a3daafe3b4186f6b6457e0\n  swap1\n    /* \"contracts/4_SmartGTFX.sol\":7547:7553  _owner */\n  dup3\n  swap1\n    /* \"contracts/4_SmartGTFX.sol\":7576:7619  OwnershipTransferred(address(0), msgSender) */\n  log3\n    /* \"contracts/4_SmartGTFX.sol\":7479:7624  constructor () internal {... */\n  pop\n    /* \"contracts/4_SmartGTFX.sol\":11826:12281  contract Tokenlock is Ownable {... */\n  jump(tag_7)\n    /* \"contracts/4_SmartGTFX.sol\":6437:6527  function _msgSender() internal view returns (address payable) {... */\ntag_6:\n    /* \"contracts/4_SmartGTFX.sol\":6512:6522  msg.sender */\n  caller\n    /* \"contracts/4_SmartGTFX.sol\":6437:6527  function _msgSender() internal view returns (address payable) {... */\n  swap1\n  jump\t// out\n    /* \"contracts/4_SmartGTFX.sol\":11826:12281  contract Tokenlock is Ownable {... */\ntag_7:\n  dataSize(sub_0)\n  dup1\n  dataOffset(sub_0)\n  0x00\n  codecopy\n  0x00\n  return\nstop\n\nsub_0: assembly {\n        /* \"contracts/4_SmartGTFX.sol\":11826:12281  contract Tokenlock is Ownable {... */\n      mstore(0x40, 0x80)\n      callvalue\n        /* \"--CODEGEN--\":8:17   */\n      dup1\n        /* \"--CODEGEN--\":5:7   */\n      iszero\n      tag_1\n      jumpi\n        /* \"--CODEGEN--\":30:31   */\n      0x00\n        /* \"--CODEGEN--\":27:28   */\n      dup1\n        /* \"--CODEGEN--\":20:32   */\n      revert\n        /* \"--CODEGEN--\":5:7   */\n    tag_1:\n        /* \"contracts/4_SmartGTFX.sol\":11826:12281  contract Tokenlock is Ownable {... */\n      pop\n      jumpi(tag_2, lt(calldatasize, 0x04))\n      shr(0xe0, calldataload(0x00))\n      dup1\n      0x62a5af3b\n      eq\n      tag_3\n      jumpi\n      dup1\n      0x6a28f000\n      eq\n      tag_4\n      jumpi\n      dup1\n      0x715018a6\n      eq\n      tag_5\n      jumpi\n      dup1\n      0x8da5cb5b\n      eq\n      tag_6\n      jumpi\n      dup1\n      0xf2fde38b\n      eq\n      tag_7\n      jumpi\n    tag_2:\n      0x00\n      dup1\n      revert\n        /* \"contracts/4_SmartGTFX.sol\":12075:12172  function freeze() public onlyOwner {... */\n    tag_3:\n      tag_8\n      tag_9\n      jump\t// in\n    tag_8:\n      stop\n        /* \"contracts/4_SmartGTFX.sol\":12178:12279  function unfreeze() public onlyOwner {... */\n    tag_4:\n      tag_8\n      tag_11\n      jump\t// in\n        /* \"contracts/4_SmartGTFX.sol\":8275:8402  function renounceOwnership() public onlyOwner {... */\n    tag_5:\n      tag_8\n      tag_13\n      jump\t// in\n        /* \"contracts/4_SmartGTFX.sol\":7692:7763  function owner() public view returns (address) {... */\n    tag_6:\n      tag_14\n      tag_15\n      jump\t// in\n    tag_14:\n      0x40\n      dup1\n      mload\n      sub(shl(0xa0, 0x01), 0x01)\n      swap1\n      swap3\n      and\n      dup3\n      mstore\n      mload\n      swap1\n      dup2\n      swap1\n      sub\n      0x20\n      add\n      swap1\n      return\n        /* \"contracts/4_SmartGTFX.sol\":8541:8642  function transferOwnership(address newOwner) public onlyOwner {... */\n    tag_7:\n      tag_8\n      0x04\n      dup1\n      calldatasize\n      sub\n        /* \"--CODEGEN--\":13:15   */\n      0x20\n        /* \"--CODEGEN--\":8:11   */\n      dup2\n        /* \"--CODEGEN--\":5:16   */\n      lt\n        /* \"--CODEGEN--\":2:4   */\n      iszero\n      tag_17\n      jumpi\n        /* \"--CODEGEN--\":29:30   */\n      0x00\n        /* \"--CODEGEN--\":26:27   */\n      dup1\n        /* \"--CODEGEN--\":19:31   */\n      revert\n        /* \"--CODEGEN--\":2:4   */\n    tag_17:\n      pop\n        /* \"contracts/4_SmartGTFX.sol\":8541:8642  function transferOwnership(address newOwner) public onlyOwner {... */\n      calldataload\n      sub(shl(0xa0, 0x01), 0x01)\n      and\n      tag_18\n      jump\t// in\n        /* \"contracts/4_SmartGTFX.sol\":12075:12172  function freeze() public onlyOwner {... */\n    tag_9:\n        /* \"contracts/4_SmartGTFX.sol\":7888:7900  _msgSender() */\n      tag_20\n        /* \"contracts/4_SmartGTFX.sol\":7888:7898  _msgSender */\n      tag_21\n        /* \"contracts/4_SmartGTFX.sol\":7888:7900  _msgSender() */\n      jump\t// in\n    tag_20:\n        /* \"contracts/4_SmartGTFX.sol\":7878:7884  _owner */\n      sload(0x00)\n      sub(shl(0xa0, 0x01), 0x01)\n      swap1\n      dup2\n      and\n        /* \"contracts/4_SmartGTFX.sol\":7878:7900  _owner == _msgSender() */\n      swap2\n      and\n      eq\n        /* \"contracts/4_SmartGTFX.sol\":7870:7937  require(_owner == _msgSender(), \"Ownable: caller is not the owner\") */\n      tag_22\n      jumpi\n      0x40\n      dup1\n      mload\n      shl(0xe5, 0x461bcd)\n      dup2\n      mstore\n      0x20\n      0x04\n      dup3\n      add\n      dup2\n      swap1\n      mstore\n      0x24\n      dup3\n      add\n      mstore\n      0x00\n      dup1\n      mload\n      0x20\n      data_9924ebdf1add33d25d4ef888e16131f0a5687b0580a36c21b5c301a6c462effe\n      dup4\n      codecopy\n      dup2\n      mload\n      swap2\n      mstore\n      0x44\n      dup3\n      add\n      mstore\n      swap1\n      mload\n      swap1\n      dup2\n      swap1\n      sub\n      0x64\n      add\n      swap1\n      revert\n    tag_22:\n        /* \"contracts/4_SmartGTFX.sol\":12120:12128  isLocked */\n      0x00\n        /* \"contracts/4_SmartGTFX.sol\":12120:12132  isLocked = 1 */\n      dup1\n      sload\n      not(shl(0xa0, 0xff))\n      and\n      shl(0xa0, 0x01)\n      or\n      dup2\n      sstore\n        /* \"contracts/4_SmartGTFX.sol\":12156:12165  Freezed() */\n      mload(0x40)\n      0x962a6139ca22015759d0878e2cf5d770dcb8152e1d5ba08e46a969dd9b154a9c\n      swap2\n        /* \"contracts/4_SmartGTFX.sol\":12120:12128  isLocked */\n      swap1\n        /* \"contracts/4_SmartGTFX.sol\":12156:12165  Freezed() */\n      log1\n        /* \"contracts/4_SmartGTFX.sol\":12075:12172  function freeze() public onlyOwner {... */\n      jump\t// out\n        /* \"contracts/4_SmartGTFX.sol\":12178:12279  function unfreeze() public onlyOwner {... */\n    tag_11:\n        /* \"contracts/4_SmartGTFX.sol\":7888:7900  _msgSender() */\n      tag_25\n        /* \"contracts/4_SmartGTFX.sol\":7888:7898  _msgSender */\n      tag_21\n        /* \"contracts/4_SmartGTFX.sol\":7888:7900  _msgSender() */\n      jump\t// in\n    tag_25:\n        /* \"contracts/4_SmartGTFX.sol\":7878:7884  _owner */\n      sload(0x00)\n      sub(shl(0xa0, 0x01), 0x01)\n      swap1\n      dup2\n      and\n        /* \"contracts/4_SmartGTFX.sol\":7878:7900  _owner == _msgSender() */\n      swap2\n      and\n      eq\n        /* \"contracts/4_SmartGTFX.sol\":7870:7937  require(_owner == _msgSender(), \"Ownable: caller is not the owner\") */\n      tag_26\n      jumpi\n      0x40\n      dup1\n      mload\n      shl(0xe5, 0x461bcd)\n      dup2\n      mstore\n      0x20\n      0x04\n      dup3\n      add\n      dup2\n      swap1\n      mstore\n      0x24\n      dup3\n      add\n      mstore\n      0x00\n      dup1\n      mload\n      0x20\n      data_9924ebdf1add33d25d4ef888e16131f0a5687b0580a36c21b5c301a6c462effe\n      dup4\n      codecopy\n      dup2\n      mload\n      swap2\n      mstore\n      0x44\n      dup3\n      add\n      mstore\n      swap1\n      mload\n      swap1\n      dup2\n      swap1\n      sub\n      0x64\n      add\n      swap1\n      revert\n    tag_26:\n        /* \"contracts/4_SmartGTFX.sol\":12236:12237  0 */\n      0x00\n        /* \"contracts/4_SmartGTFX.sol\":12225:12237  isLocked = 0 */\n      dup1\n      sload\n      not(shl(0xa0, 0xff))\n      and\n      dup2\n      sstore\n        /* \"contracts/4_SmartGTFX.sol\":12261:12272  UnFreezed() */\n      mload(0x40)\n      0xf0daac2271a735ea786b9adf80dfcbd6a3cbd52f3cab0a78337114692d5faf5d\n      swap2\n        /* \"contracts/4_SmartGTFX.sol\":12236:12237  0 */\n      swap1\n        /* \"contracts/4_SmartGTFX.sol\":12261:12272  UnFreezed() */\n      log1\n        /* \"contracts/4_SmartGTFX.sol\":12178:12279  function unfreeze() public onlyOwner {... */\n      jump\t// out\n        /* \"contracts/4_SmartGTFX.sol\":8275:8402  function renounceOwnership() public onlyOwner {... */\n    tag_13:\n        /* \"contracts/4_SmartGTFX.sol\":7888:7900  _msgSender() */\n      tag_29\n        /* \"contracts/4_SmartGTFX.sol\":7888:7898  _msgSender */\n      tag_21\n        /* \"contracts/4_SmartGTFX.sol\":7888:7900  _msgSender() */\n      jump\t// in\n    tag_29:\n        /* \"contracts/4_SmartGTFX.sol\":7878:7884  _owner */\n      sload(0x00)\n      sub(shl(0xa0, 0x01), 0x01)\n      swap1\n      dup2\n      and\n        /* \"contracts/4_SmartGTFX.sol\":7878:7900  _owner == _msgSender() */\n      swap2\n      and\n      eq\n        /* \"contracts/4_SmartGTFX.sol\":7870:7937  require(_owner == _msgSender(), \"Ownable: caller is not the owner\") */\n      tag_30\n      jumpi\n      0x40\n      dup1\n      mload\n      shl(0xe5, 0x461bcd)\n      dup2\n      mstore\n      0x20\n      0x04\n      dup3\n      add\n      dup2\n      swap1\n      mstore\n      0x24\n      dup3\n      add\n      mstore\n      0x00\n      dup1\n      mload\n      0x20\n      data_9924ebdf1add33d25d4ef888e16131f0a5687b0580a36c21b5c301a6c462effe\n      dup4\n      codecopy\n      dup2\n      mload\n      swap2\n      mstore\n      0x44\n      dup3\n      add\n      mstore\n      swap1\n      mload\n      swap1\n      dup2\n      swap1\n      sub\n      0x64\n      add\n      swap1\n      revert\n    tag_30:\n        /* \"contracts/4_SmartGTFX.sol\":8369:8370  0 */\n      0x00\n        /* \"contracts/4_SmartGTFX.sol\":8353:8359  _owner */\n      dup1\n      sload\n        /* \"contracts/4_SmartGTFX.sol\":8332:8372  OwnershipTransferred(_owner, address(0)) */\n      mload(0x40)\n      sub(shl(0xa0, 0x01), 0x01)\n        /* \"contracts/4_SmartGTFX.sol\":8353:8359  _owner */\n      swap1\n      swap2\n      and\n      swap1\n        /* \"contracts/4_SmartGTFX.sol\":8332:8372  OwnershipTransferred(_owner, address(0)) */\n      0x8be0079c531659141344cd1fd0a4f28419497f9722a3daafe3b4186f6b6457e0\n      swap1\n        /* \"contracts/4_SmartGTFX.sol\":8369:8370  0 */\n      dup4\n      swap1\n        /* \"contracts/4_SmartGTFX.sol\":8332:8372  OwnershipTransferred(_owner, address(0)) */\n      log3\n        /* \"contracts/4_SmartGTFX.sol\":8395:8396  0 */\n      0x00\n        /* \"contracts/4_SmartGTFX.sol\":8378:8397  _owner = address(0) */\n      dup1\n      sload\n      not(sub(shl(0xa0, 0x01), 0x01))\n      and\n      swap1\n      sstore\n        /* \"contracts/4_SmartGTFX.sol\":8275:8402  function renounceOwnership() public onlyOwner {... */\n      jump\t// out\n        /* \"contracts/4_SmartGTFX.sol\":7692:7763  function owner() public view returns (address) {... */\n    tag_15:\n        /* \"contracts/4_SmartGTFX.sol\":7730:7737  address */\n      0x00\n        /* \"contracts/4_SmartGTFX.sol\":7752:7758  _owner */\n      sload\n      sub(shl(0xa0, 0x01), 0x01)\n      and\n        /* \"contracts/4_SmartGTFX.sol\":7692:7763  function owner() public view returns (address) {... */\n      swap1\n      jump\t// out\n        /* \"contracts/4_SmartGTFX.sol\":8541:8642  function transferOwnership(address newOwner) public onlyOwner {... */\n    tag_18:\n        /* \"contracts/4_SmartGTFX.sol\":7888:7900  _msgSender() */\n      tag_34\n        /* \"contracts/4_SmartGTFX.sol\":7888:7898  _msgSender */\n      tag_21\n        /* \"contracts/4_SmartGTFX.sol\":7888:7900  _msgSender() */\n      jump\t// in\n    tag_34:\n        /* \"contracts/4_SmartGTFX.sol\":7878:7884  _owner */\n      sload(0x00)\n      sub(shl(0xa0, 0x01), 0x01)\n      swap1\n      dup2\n      and\n        /* \"contracts/4_SmartGTFX.sol\":7878:7900  _owner == _msgSender() */\n      swap2\n      and\n      eq\n        /* \"contracts/4_SmartGTFX.sol\":7870:7937  require(_owner == _msgSender(), \"Ownable: caller is not the owner\") */\n      tag_35\n      jumpi\n      0x40\n      dup1\n      mload\n      shl(0xe5, 0x461bcd)\n      dup2\n      mstore\n      0x20\n      0x04\n      dup3\n      add\n      dup2\n      swap1\n      mstore\n      0x24\n      dup3\n      add\n      mstore\n      0x00\n      dup1\n      mload\n      0x20\n      data_9924ebdf1add33d25d4ef888e16131f0a5687b0580a36c21b5c301a6c462effe\n      dup4\n      codecopy\n      dup2\n      mload\n      swap2\n      mstore\n      0x44\n      dup3\n      add\n      mstore\n      swap1\n      mload\n      swap1\n      dup2\n      swap1\n      sub\n      0x64\n      add\n      swap1\n      revert\n    tag_35:\n        /* \"contracts/4_SmartGTFX.sol\":8609:8637  _transferOwnership(newOwner) */\n      tag_37\n        /* \"contracts/4_SmartGTFX.sol\":8628:8636  newOwner */\n      dup2\n        /* \"contracts/4_SmartGTFX.sol\":8609:8627  _transferOwnership */\n      tag_38\n        /* \"contracts/4_SmartGTFX.sol\":8609:8637  _transferOwnership(newOwner) */\n      jump\t// in\n    tag_37:\n        /* \"contracts/4_SmartGTFX.sol\":8541:8642  function transferOwnership(address newOwner) public onlyOwner {... */\n      pop\n      jump\t// out\n        /* \"contracts/4_SmartGTFX.sol\":6437:6527  function _msgSender() internal view returns (address payable) {... */\n    tag_21:\n        /* \"contracts/4_SmartGTFX.sol\":6512:6522  msg.sender */\n      caller\n        /* \"contracts/4_SmartGTFX.sol\":6437:6527  function _msgSender() internal view returns (address payable) {... */\n      swap1\n      jump\t// out\n        /* \"contracts/4_SmartGTFX.sol\":8735:8946  function _transferOwnership(address newOwner) internal {... */\n    tag_38:\n      sub(shl(0xa0, 0x01), 0x01)\n        /* \"contracts/4_SmartGTFX.sol\":8804:8826  newOwner != address(0) */\n      dup2\n      and\n        /* \"contracts/4_SmartGTFX.sol\":8796:8869  require(newOwner != address(0), \"Ownable: new owner is the zero address\") */\n      tag_41\n      jumpi\n      mload(0x40)\n      shl(0xe5, 0x461bcd)\n      dup2\n      mstore\n      0x04\n      add\n      dup1\n      dup1\n      0x20\n      add\n      dup3\n      dup2\n      sub\n      dup3\n      mstore\n      0x26\n      dup2\n      mstore\n      0x20\n      add\n      dup1\n      data_245f15ff17f551913a7a18385165551503906a406f905ac1c2437281a7cd0cfe\n      0x26\n      swap2\n      codecopy\n      0x40\n      add\n      swap2\n      pop\n      pop\n      mload(0x40)\n      dup1\n      swap2\n      sub\n      swap1\n      revert\n    tag_41:\n        /* \"contracts/4_SmartGTFX.sol\":8901:8907  _owner */\n      0x00\n      dup1\n      sload\n        /* \"contracts/4_SmartGTFX.sol\":8880:8918  OwnershipTransferred(_owner, newOwner) */\n      mload(0x40)\n      sub(shl(0xa0, 0x01), 0x01)\n      dup1\n      dup6\n      and\n      swap4\n        /* \"contracts/4_SmartGTFX.sol\":8901:8907  _owner */\n      swap3\n      and\n      swap2\n        /* \"contracts/4_SmartGTFX.sol\":8880:8918  OwnershipTransferred(_owner, newOwner) */\n      0x8be0079c531659141344cd1fd0a4f28419497f9722a3daafe3b4186f6b6457e0\n      swap2\n      log3\n        /* \"contracts/4_SmartGTFX.sol\":8924:8930  _owner */\n      0x00\n        /* \"contracts/4_SmartGTFX.sol\":8924:8941  _owner = newOwner */\n      dup1\n      sload\n      not(sub(shl(0xa0, 0x01), 0x01))\n      and\n      sub(shl(0xa0, 0x01), 0x01)\n      swap3\n      swap1\n      swap3\n      and\n      swap2\n      swap1\n      swap2\n      or\n      swap1\n      sstore\n        /* \"contracts/4_SmartGTFX.sol\":8735:8946  function _transferOwnership(address newOwner) internal {... */\n      jump\t// out\n    stop\n    data_245f15ff17f551913a7a18385165551503906a406f905ac1c2437281a7cd0cfe 4f776e61626c653a206e6577206f776e657220697320746865207a65726f2061646472657373\n    data_9924ebdf1add33d25d4ef888e16131f0a5687b0580a36c21b5c301a6c462effe 4f776e61626c653a2063616c6c6572206973206e6f7420746865206f776e6572\n\n    auxdata: 0xa265627a7a72315820a26c5b1a09604408ea65ba6593613c49b24a631ed3c72508c5208c85a7d43cb364736f6c63430005110032\n}\n",
				"bytecode": {
					"linkReferences": {},
					"object": "60806040526000805460ff60a01b191681556100226001600160e01b0361007116565b600080546001600160a01b0319166001600160a01b0383169081178255604051929350917f8be0079c531659141344cd1fd0a4f28419497f9722a3daafe3b4186f6b6457e0908290a350610075565b3390565b610416806100846000396000f3fe608060405234801561001057600080fd5b50600436106100575760003560e01c806362a5af3b1461005c5780636a28f00014610066578063715018a61461006e5780638da5cb5b14610076578063f2fde38b1461009a575b600080fd5b6100646100c0565b005b610064610154565b6100646101e2565b61007e610284565b604080516001600160a01b039092168252519081900360200190f35b610064600480360360208110156100b057600080fd5b50356001600160a01b0316610293565b6100c86102f7565b6000546001600160a01b03908116911614610118576040805162461bcd60e51b815260206004820181905260248201526000805160206103c2833981519152604482015290519081900360640190fd5b6000805460ff60a01b1916600160a01b1781556040517f962a6139ca22015759d0878e2cf5d770dcb8152e1d5ba08e46a969dd9b154a9c9190a1565b61015c6102f7565b6000546001600160a01b039081169116146101ac576040805162461bcd60e51b815260206004820181905260248201526000805160206103c2833981519152604482015290519081900360640190fd5b6000805460ff60a01b191681556040517ff0daac2271a735ea786b9adf80dfcbd6a3cbd52f3cab0a78337114692d5faf5d9190a1565b6101ea6102f7565b6000546001600160a01b0390811691161461023a576040805162461bcd60e51b815260206004820181905260248201526000805160206103c2833981519152604482015290519081900360640190fd5b600080546040516001600160a01b03909116907f8be0079c531659141344cd1fd0a4f28419497f9722a3daafe3b4186f6b6457e0908390a3600080546001600160a01b0319169055565b6000546001600160a01b031690565b61029b6102f7565b6000546001600160a01b039081169116146102eb576040805162461bcd60e51b815260206004820181905260248201526000805160206103c2833981519152604482015290519081900360640190fd5b6102f4816102fb565b50565b3390565b6001600160a01b0381166103405760405162461bcd60e51b815260040180806020018281038252602681526020018061039c6026913960400191505060405180910390fd5b600080546040516001600160a01b03808516939216917f8be0079c531659141344cd1fd0a4f28419497f9722a3daafe3b4186f6b6457e091a3600080546001600160a01b0319166001600160a01b039290921691909117905556fe4f776e61626c653a206e6577206f776e657220697320746865207a65726f20616464726573734f776e61626c653a2063616c6c6572206973206e6f7420746865206f776e6572a265627a7a72315820a26c5b1a09604408ea65ba6593613c49b24a631ed3c72508c5208c85a7d43cb364736f6c63430005110032",
					"opcodes": "PUSH1 0x80 PUSH1 0x40 MSTORE PUSH1 0x0 DUP1 SLOAD PUSH1 0xFF PUSH1 0xA0 SHL NOT AND DUP2 SSTORE PUSH2 0x22 PUSH1 0x1 PUSH1 0x1 PUSH1 0xE0 SHL SUB PUSH2 0x71 AND JUMP JUMPDEST PUSH1 0x0 DUP1 SLOAD PUSH1 0x1 PUSH1 0x1 PUSH1 0xA0 SHL SUB NOT AND PUSH1 0x1 PUSH1 0x1 PUSH1 0xA0 SHL SUB DUP4 AND SWAP1 DUP2 OR DUP3 SSTORE PUSH1 0x40 MLOAD SWAP3 SWAP4 POP SWAP2 PUSH32 0x8BE0079C531659141344CD1FD0A4F28419497F9722A3DAAFE3B4186F6B6457E0 SWAP1 DUP3 SWAP1 LOG3 POP PUSH2 0x75 JUMP JUMPDEST CALLER SWAP1 JUMP JUMPDEST PUSH2 0x416 DUP1 PUSH2 0x84 PUSH1 0x0 CODECOPY PUSH1 0x0 RETURN INVALID PUSH1 0x80 PUSH1 0x40 MSTORE CALLVALUE DUP1 ISZERO PUSH2 0x10 JUMPI PUSH1 0x0 DUP1 REVERT JUMPDEST POP PUSH1 0x4 CALLDATASIZE LT PUSH2 0x57 JUMPI PUSH1 0x0 CALLDATALOAD PUSH1 0xE0 SHR DUP1 PUSH4 0x62A5AF3B EQ PUSH2 0x5C JUMPI DUP1 PUSH4 0x6A28F000 EQ PUSH2 0x66 JUMPI DUP1 PUSH4 0x715018A6 EQ PUSH2 0x6E JUMPI DUP1 PUSH4 0x8DA5CB5B EQ PUSH2 0x76 JUMPI DUP1 PUSH4 0xF2FDE38B EQ PUSH2 0x9A JUMPI JUMPDEST PUSH1 0x0 DUP1 REVERT JUMPDEST PUSH2 0x64 PUSH2 0xC0 JUMP JUMPDEST STOP JUMPDEST PUSH2 0x64 PUSH2 0x154 JUMP JUMPDEST PUSH2 0x64 PUSH2 0x1E2 JUMP JUMPDEST PUSH2 0x7E PUSH2 0x284 JUMP JUMPDEST PUSH1 0x40 DUP1 MLOAD PUSH1 0x1 PUSH1 0x1 PUSH1 0xA0 SHL SUB SWAP1 SWAP3 AND DUP3 MSTORE MLOAD SWAP1 DUP2 SWAP1 SUB PUSH1 0x20 ADD SWAP1 RETURN JUMPDEST PUSH2 0x64 PUSH1 0x4 DUP1 CALLDATASIZE SUB PUSH1 0x20 DUP2 LT ISZERO PUSH2 0xB0 JUMPI PUSH1 0x0 DUP1 REVERT JUMPDEST POP CALLDATALOAD PUSH1 0x1 PUSH1 0x1 PUSH1 0xA0 SHL SUB AND PUSH2 0x293 JUMP JUMPDEST PUSH2 0xC8 PUSH2 0x2F7 JUMP JUMPDEST PUSH1 0x0 SLOAD PUSH1 0x1 PUSH1 0x1 PUSH1 0xA0 SHL SUB SWAP1 DUP2 AND SWAP2 AND EQ PUSH2 0x118 JUMPI PUSH1 0x40 DUP1 MLOAD PUSH3 0x461BCD PUSH1 0xE5 SHL DUP2 MSTORE PUSH1 0x20 PUSH1 0x4 DUP3 ADD DUP2 SWAP1 MSTORE PUSH1 0x24 DUP3 ADD MSTORE PUSH1 0x0 DUP1 MLOAD PUSH1 0x20 PUSH2 0x3C2 DUP4 CODECOPY DUP2 MLOAD SWAP2 MSTORE PUSH1 0x44 DUP3 ADD MSTORE SWAP1 MLOAD SWAP1 DUP2 SWAP1 SUB PUSH1 0x64 ADD SWAP1 REVERT JUMPDEST PUSH1 0x0 DUP1 SLOAD PUSH1 0xFF PUSH1 0xA0 SHL NOT AND PUSH1 0x1 PUSH1 0xA0 SHL OR DUP2 SSTORE PUSH1 0x40 MLOAD PUSH32 0x962A6139CA22015759D0878E2CF5D770DCB8152E1D5BA08E46A969DD9B154A9C SWAP2 SWAP1 LOG1 JUMP JUMPDEST PUSH2 0x15C PUSH2 0x2F7 JUMP JUMPDEST PUSH1 0x0 SLOAD PUSH1 0x1 PUSH1 0x1 PUSH1 0xA0 SHL SUB SWAP1 DUP2 AND SWAP2 AND EQ PUSH2 0x1AC JUMPI PUSH1 0x40 DUP1 MLOAD PUSH3 0x461BCD PUSH1 0xE5 SHL DUP2 MSTORE PUSH1 0x20 PUSH1 0x4 DUP3 ADD DUP2 SWAP1 MSTORE PUSH1 0x24 DUP3 ADD MSTORE PUSH1 0x0 DUP1 MLOAD PUSH1 0x20 PUSH2 0x3C2 DUP4 CODECOPY DUP2 MLOAD SWAP2 MSTORE PUSH1 0x44 DUP3 ADD MSTORE SWAP1 MLOAD SWAP1 DUP2 SWAP1 SUB PUSH1 0x64 ADD SWAP1 REVERT JUMPDEST PUSH1 0x0 DUP1 SLOAD PUSH1 0xFF PUSH1 0xA0 SHL NOT AND DUP2 SSTORE PUSH1 0x40 MLOAD PUSH32 0xF0DAAC2271A735EA786B9ADF80DFCBD6A3CBD52F3CAB0A78337114692D5FAF5D SWAP2 SWAP1 LOG1 JUMP JUMPDEST PUSH2 0x1EA PUSH2 0x2F7 JUMP JUMPDEST PUSH1 0x0 SLOAD PUSH1 0x1 PUSH1 0x1 PUSH1 0xA0 SHL SUB SWAP1 DUP2 AND SWAP2 AND EQ PUSH2 0x23A JUMPI PUSH1 0x40 DUP1 MLOAD PUSH3 0x461BCD PUSH1 0xE5 SHL DUP2 MSTORE PUSH1 0x20 PUSH1 0x4 DUP3 ADD DUP2 SWAP1 MSTORE PUSH1 0x24 DUP3 ADD MSTORE PUSH1 0x0 DUP1 MLOAD PUSH1 0x20 PUSH2 0x3C2 DUP4 CODECOPY DUP2 MLOAD SWAP2 MSTORE PUSH1 0x44 DUP3 ADD MSTORE SWAP1 MLOAD SWAP1 DUP2 SWAP1 SUB PUSH1 0x64 ADD SWAP1 REVERT JUMPDEST PUSH1 0x0 DUP1 SLOAD PUSH1 0x40 MLOAD PUSH1 0x1 PUSH1 0x1 PUSH1 0xA0 SHL SUB SWAP1 SWAP2 AND SWAP1 PUSH32 0x8BE0079C531659141344CD1FD0A4F28419497F9722A3DAAFE3B4186F6B6457E0 SWAP1 DUP4 SWAP1 LOG3 PUSH1 0x0 DUP1 SLOAD PUSH1 0x1 PUSH1 0x1 PUSH1 0xA0 SHL SUB NOT AND SWAP1 SSTORE JUMP JUMPDEST PUSH1 0x0 SLOAD PUSH1 0x1 PUSH1 0x1 PUSH1 0xA0 SHL SUB AND SWAP1 JUMP JUMPDEST PUSH2 0x29B PUSH2 0x2F7 JUMP JUMPDEST PUSH1 0x0 SLOAD PUSH1 0x1 PUSH1 0x1 PUSH1 0xA0 SHL SUB SWAP1 DUP2 AND SWAP2 AND EQ PUSH2 0x2EB JUMPI PUSH1 0x40 DUP1 MLOAD PUSH3 0x461BCD PUSH1 0xE5 SHL DUP2 MSTORE PUSH1 0x20 PUSH1 0x4 DUP3 ADD DUP2 SWAP1 MSTORE PUSH1 0x24 DUP3 ADD MSTORE PUSH1 0x0 DUP1 MLOAD PUSH1 0x20 PUSH2 0x3C2 DUP4 CODECOPY DUP2 MLOAD SWAP2 MSTORE PUSH1 0x44 DUP3 ADD MSTORE SWAP1 MLOAD SWAP1 DUP2 SWAP1 SUB PUSH1 0x64 ADD SWAP1 REVERT JUMPDEST PUSH2 0x2F4 DUP2 PUSH2 0x2FB JUMP JUMPDEST POP JUMP JUMPDEST CALLER SWAP1 JUMP JUMPDEST PUSH1 0x1 PUSH1 0x1 PUSH1 0xA0 SHL SUB DUP2 AND PUSH2 0x340 JUMPI PUSH1 0x40 MLOAD PUSH3 0x461BCD PUSH1 0xE5 SHL DUP2 MSTORE PUSH1 0x4 ADD DUP1 DUP1 PUSH1 0x20 ADD DUP3 DUP2 SUB DUP3 MSTORE PUSH1 0x26 DUP2 MSTORE PUSH1 0x20 ADD DUP1 PUSH2 0x39C PUSH1 0x26 SWAP2 CODECOPY PUSH1 0x40 ADD SWAP2 POP POP PUSH1 0x40 MLOAD DUP1 SWAP2 SUB SWAP1 REVERT JUMPDEST PUSH1 0x0 DUP1 SLOAD PUSH1 0x40 MLOAD PUSH1 0x1 PUSH1 0x1 PUSH1 0xA0 SHL SUB DUP1 DUP6 AND SWAP4 SWAP3 AND SWAP2 PUSH32 0x8BE0079C531659141344CD1FD0A4F28419497F9722A3DAAFE3B4186F6B6457E0 SWAP2 LOG3 PUSH1 0x0 DUP1 SLOAD PUSH1 0x1 PUSH1 0x1 PUSH1 0xA0 SHL SUB NOT AND PUSH1 0x1 PUSH1 0x1 PUSH1 0xA0 SHL SUB SWAP3 SWAP1 SWAP3 AND SWAP2 SWAP1 SWAP2 OR SWAP1 SSTORE JUMP INVALID 0x4F PUSH24 0x6E61626C653A206E6577206F776E65722069732074686520 PUSH27 0x65726F20616464726573734F776E61626C653A2063616C6C657220 PUSH10 0x73206E6F742074686520 PUSH16 0x776E6572A265627A7A72315820A26C5B BYTE MULMOD PUSH1 0x44 ADDMOD 0xEA PUSH6 0xBA6593613C49 0xB2 0x4A PUSH4 0x1ED3C725 ADDMOD 0xC5 KECCAK256 DUP13 DUP6 0xA7 0xD4 EXTCODECOPY 0xB3 PUSH5 0x736F6C6343 STOP SDIV GT STOP ORIGIN "
				},
				"gasEstimates": {
					"creation": {
						"codeDepositCost": "209200",
						"executionCost": "infinite",
						"totalCost": "infinite"
					},
					"external": {
						"freeze()": "infinite",
						"owner()": "1081",
						"renounceOwnership()": "infinite",
						"transferOwnership(address)": "infinite",
						"unfreeze()": "infinite"
					}
				},
				"methodIdentifiers": {
					"freeze()": "62a5af3b",
					"owner()": "8da5cb5b",
					"renounceOwnership()": "715018a6",
					"transferOwnership(address)": "f2fde38b",
					"unfreeze()": "6a28f000"
				}
			},
			"storageLayout": {
				"storage": [
					{
						"astId": 233,
						"contract": "contracts/4_SmartGTFX.sol:Tokenlock",
						"label": "_owner",
						"offset": 0,
						"slot": "0",
						"type": "t_address"
					},
					{
						"astId": 427,
						"contract": "contracts/4_SmartGTFX.sol:Tokenlock",
						"label": "isLocked",
						"offset": 20,
						"slot": "0",
						"type": "t_uint8"
					}
				],
				"types": {
					"t_address": {
						"encoding": "inplace",
						"label": "address",
						"numberOfBytes": "20"
					},
					"t_uint8": {
						"encoding": "inplace",
						"label": "uint8",
						"numberOfBytes": "1"
					}
				}
			},
			"userdoc": {
				"methods": {}
			}
		}
	}
}