{
	"contracts/4_SmartGTFX.sol": {
		"UserLock": {
			"abi": [
				{
					"anonymous": false,
					"inputs": [
						{
							"indexed": true,
							"internalType": "address",
							"name": "who",
							"type": "address"
						}
					],
					"name": "LockUser",
					"type": "event"
				},
				{
					"anonymous": false,
					"inputs": [
						{
							"indexed": true,
							"internalType": "address",
							"name": "previousOwner",
							"type": "address"
						},
						{
							"indexed": true,
							"internalType": "address",
							"name": "newOwner",
							"type": "address"
						}
					],
					"name": "OwnershipTransferred",
					"type": "event"
				},
				{
					"anonymous": false,
					"inputs": [
						{
							"indexed": true,
							"internalType": "address",
							"name": "who",
							"type": "address"
						}
					],
					"name": "UnlockUser",
					"type": "event"
				},
				{
					"constant": false,
					"inputs": [
						{
							"internalType": "address",
							"name": "who",
							"type": "address"
						}
					],
					"name": "lockUser",
					"outputs": [],
					"payable": false,
					"stateMutability": "nonpayable",
					"type": "function"
				},
				{
					"constant": true,
					"inputs": [],
					"name": "owner",
					"outputs": [
						{
							"internalType": "address",
							"name": "",
							"type": "address"
						}
					],
					"payable": false,
					"stateMutability": "view",
					"type": "function"
				},
				{
					"constant": false,
					"inputs": [],
					"name": "renounceOwnership",
					"outputs": [],
					"payable": false,
					"stateMutability": "nonpayable",
					"type": "function"
				},
				{
					"constant": false,
					"inputs": [
						{
							"internalType": "address",
							"name": "newOwner",
							"type": "address"
						}
					],
					"name": "transferOwnership",
					"outputs": [],
					"payable": false,
					"stateMutability": "nonpayable",
					"type": "function"
				},
				{
					"constant": false,
					"inputs": [
						{
							"internalType": "address",
							"name": "who",
							"type": "address"
						}
					],
					"name": "unlockUser",
					"outputs": [],
					"payable": false,
					"stateMutability": "nonpayable",
					"type": "function"
				}
			],
			"devdoc": {
				"methods": {
					"owner()": {
						"details": "Returns the address of the current owner."
					},
					"renounceOwnership()": {
						"details": "Leaves the contract without owner. It will not be possible to call `onlyOwner` functions anymore. Can only be called by the current owner.   * NOTE: Renouncing ownership will leave the contract without an owner, thereby removing any functionality that is only available to the owner."
					},
					"transferOwnership(address)": {
						"details": "Transfers ownership of the contract to a new account (`newOwner`). Can only be called by the current owner."
					}
				}
			},
			"evm": {
				"assembly": "    /* \"contracts/4_SmartGTFX.sol\":12886:13424  contract UserLock is Ownable {... */\n  mstore(0x40, 0x80)\n    /* \"contracts/4_SmartGTFX.sol\":7520:7537  address msgSender */\n  0x00\n    /* \"contracts/4_SmartGTFX.sol\":7540:7552  _msgSender() */\n  tag_5\n  sub(shl(0xe0, 0x01), 0x01)\n    /* \"contracts/4_SmartGTFX.sol\":7540:7550  _msgSender */\n  tag_6\n    /* \"contracts/4_SmartGTFX.sol\":7540:7552  _msgSender() */\n  and\n  jump\t// in\ntag_5:\n    /* \"contracts/4_SmartGTFX.sol\":7558:7564  _owner */\n  0x00\n    /* \"contracts/4_SmartGTFX.sol\":7558:7576  _owner = msgSender */\n  dup1\n  sload\n  not(sub(shl(0xa0, 0x01), 0x01))\n  and\n  sub(shl(0xa0, 0x01), 0x01)\n  dup4\n  and\n  swap1\n  dup2\n  or\n  dup3\n  sstore\n    /* \"contracts/4_SmartGTFX.sol\":7587:7630  OwnershipTransferred(address(0), msgSender) */\n  mload(0x40)\n    /* \"contracts/4_SmartGTFX.sol\":7558:7576  _owner = msgSender */\n  swap3\n  swap4\n  pop\n  swap2\n    /* \"contracts/4_SmartGTFX.sol\":7587:7630  OwnershipTransferred(address(0), msgSender) */\n  0x8be0079c531659141344cd1fd0a4f28419497f9722a3daafe3b4186f6b6457e0\n  swap1\n    /* \"contracts/4_SmartGTFX.sol\":7558:7564  _owner */\n  dup3\n  swap1\n    /* \"contracts/4_SmartGTFX.sol\":7587:7630  OwnershipTransferred(address(0), msgSender) */\n  log3\n    /* \"contracts/4_SmartGTFX.sol\":7490:7635  constructor () internal {... */\n  pop\n    /* \"contracts/4_SmartGTFX.sol\":12886:13424  contract UserLock is Ownable {... */\n  jump(tag_7)\n    /* \"contracts/4_SmartGTFX.sol\":6448:6538  function _msgSender() internal view returns (address payable) {... */\ntag_6:\n    /* \"contracts/4_SmartGTFX.sol\":6523:6533  msg.sender */\n  caller\n    /* \"contracts/4_SmartGTFX.sol\":6448:6538  function _msgSender() internal view returns (address payable) {... */\n  swap1\n  jump\t// out\n    /* \"contracts/4_SmartGTFX.sol\":12886:13424  contract UserLock is Ownable {... */\ntag_7:\n  dataSize(sub_0)\n  dup1\n  dataOffset(sub_0)\n  0x00\n  codecopy\n  0x00\n  return\nstop\n\nsub_0: assembly {\n        /* \"contracts/4_SmartGTFX.sol\":12886:13424  contract UserLock is Ownable {... */\n      mstore(0x40, 0x80)\n      callvalue\n        /* \"--CODEGEN--\":8:17   */\n      dup1\n        /* \"--CODEGEN--\":5:7   */\n      iszero\n      tag_1\n      jumpi\n        /* \"--CODEGEN--\":30:31   */\n      0x00\n        /* \"--CODEGEN--\":27:28   */\n      dup1\n        /* \"--CODEGEN--\":20:32   */\n      revert\n        /* \"--CODEGEN--\":5:7   */\n    tag_1:\n        /* \"contracts/4_SmartGTFX.sol\":12886:13424  contract UserLock is Ownable {... */\n      pop\n      jumpi(tag_2, lt(calldatasize, 0x04))\n      shr(0xe0, calldataload(0x00))\n      dup1\n      0x715018a6\n      eq\n      tag_3\n      jumpi\n      dup1\n      0x8da5cb5b\n      eq\n      tag_4\n      jumpi\n      dup1\n      0xbd1870a3\n      eq\n      tag_5\n      jumpi\n      dup1\n      0xd7972580\n      eq\n      tag_6\n      jumpi\n      dup1\n      0xf2fde38b\n      eq\n      tag_7\n      jumpi\n    tag_2:\n      0x00\n      dup1\n      revert\n        /* \"contracts/4_SmartGTFX.sol\":8286:8413  function renounceOwnership() public onlyOwner {... */\n    tag_3:\n      tag_8\n      tag_9\n      jump\t// in\n    tag_8:\n      stop\n        /* \"contracts/4_SmartGTFX.sol\":7703:7774  function owner() public view returns (address) {... */\n    tag_4:\n      tag_10\n      tag_11\n      jump\t// in\n    tag_10:\n      0x40\n      dup1\n      mload\n      sub(shl(0xa0, 0x01), 0x01)\n      swap1\n      swap3\n      and\n      dup3\n      mstore\n      mload\n      swap1\n      dup2\n      swap1\n      sub\n      0x20\n      add\n      swap1\n      return\n        /* \"contracts/4_SmartGTFX.sol\":13294:13422  function unlockUser(address who) public onlyOwner {... */\n    tag_5:\n      tag_8\n      0x04\n      dup1\n      calldatasize\n      sub\n        /* \"--CODEGEN--\":13:15   */\n      0x20\n        /* \"--CODEGEN--\":8:11   */\n      dup2\n        /* \"--CODEGEN--\":5:16   */\n      lt\n        /* \"--CODEGEN--\":2:4   */\n      iszero\n      tag_13\n      jumpi\n        /* \"--CODEGEN--\":29:30   */\n      0x00\n        /* \"--CODEGEN--\":26:27   */\n      dup1\n        /* \"--CODEGEN--\":19:31   */\n      revert\n        /* \"--CODEGEN--\":2:4   */\n    tag_13:\n      pop\n        /* \"contracts/4_SmartGTFX.sol\":13294:13422  function unlockUser(address who) public onlyOwner {... */\n      calldataload\n      sub(shl(0xa0, 0x01), 0x01)\n      and\n      tag_14\n      jump\t// in\n        /* \"contracts/4_SmartGTFX.sol\":13165:13288  function lockUser(address who) public onlyOwner {... */\n    tag_6:\n      tag_8\n      0x04\n      dup1\n      calldatasize\n      sub\n        /* \"--CODEGEN--\":13:15   */\n      0x20\n        /* \"--CODEGEN--\":8:11   */\n      dup2\n        /* \"--CODEGEN--\":5:16   */\n      lt\n        /* \"--CODEGEN--\":2:4   */\n      iszero\n      tag_16\n      jumpi\n        /* \"--CODEGEN--\":29:30   */\n      0x00\n        /* \"--CODEGEN--\":26:27   */\n      dup1\n        /* \"--CODEGEN--\":19:31   */\n      revert\n        /* \"--CODEGEN--\":2:4   */\n    tag_16:\n      pop\n        /* \"contracts/4_SmartGTFX.sol\":13165:13288  function lockUser(address who) public onlyOwner {... */\n      calldataload\n      sub(shl(0xa0, 0x01), 0x01)\n      and\n      tag_17\n      jump\t// in\n        /* \"contracts/4_SmartGTFX.sol\":8552:8653  function transferOwnership(address newOwner) public onlyOwner {... */\n    tag_7:\n      tag_8\n      0x04\n      dup1\n      calldatasize\n      sub\n        /* \"--CODEGEN--\":13:15   */\n      0x20\n        /* \"--CODEGEN--\":8:11   */\n      dup2\n        /* \"--CODEGEN--\":5:16   */\n      lt\n        /* \"--CODEGEN--\":2:4   */\n      iszero\n      tag_19\n      jumpi\n        /* \"--CODEGEN--\":29:30   */\n      0x00\n        /* \"--CODEGEN--\":26:27   */\n      dup1\n        /* \"--CODEGEN--\":19:31   */\n      revert\n        /* \"--CODEGEN--\":2:4   */\n    tag_19:\n      pop\n        /* \"contracts/4_SmartGTFX.sol\":8552:8653  function transferOwnership(address newOwner) public onlyOwner {... */\n      calldataload\n      sub(shl(0xa0, 0x01), 0x01)\n      and\n      tag_20\n      jump\t// in\n        /* \"contracts/4_SmartGTFX.sol\":8286:8413  function renounceOwnership() public onlyOwner {... */\n    tag_9:\n        /* \"contracts/4_SmartGTFX.sol\":7899:7911  _msgSender() */\n      tag_22\n        /* \"contracts/4_SmartGTFX.sol\":7899:7909  _msgSender */\n      tag_23\n        /* \"contracts/4_SmartGTFX.sol\":7899:7911  _msgSender() */\n      jump\t// in\n    tag_22:\n        /* \"contracts/4_SmartGTFX.sol\":7889:7895  _owner */\n      sload(0x00)\n      sub(shl(0xa0, 0x01), 0x01)\n      swap1\n      dup2\n      and\n        /* \"contracts/4_SmartGTFX.sol\":7889:7911  _owner == _msgSender() */\n      swap2\n      and\n      eq\n        /* \"contracts/4_SmartGTFX.sol\":7881:7948  require(_owner == _msgSender(), \"Ownable: caller is not the owner\") */\n      tag_24\n      jumpi\n      0x40\n      dup1\n      mload\n      shl(0xe5, 0x461bcd)\n      dup2\n      mstore\n      0x20\n      0x04\n      dup3\n      add\n      dup2\n      swap1\n      mstore\n      0x24\n      dup3\n      add\n      mstore\n      0x00\n      dup1\n      mload\n      0x20\n      data_9924ebdf1add33d25d4ef888e16131f0a5687b0580a36c21b5c301a6c462effe\n      dup4\n      codecopy\n      dup2\n      mload\n      swap2\n      mstore\n      0x44\n      dup3\n      add\n      mstore\n      swap1\n      mload\n      swap1\n      dup2\n      swap1\n      sub\n      0x64\n      add\n      swap1\n      revert\n    tag_24:\n        /* \"contracts/4_SmartGTFX.sol\":8380:8381  0 */\n      0x00\n        /* \"contracts/4_SmartGTFX.sol\":8364:8370  _owner */\n      dup1\n      sload\n        /* \"contracts/4_SmartGTFX.sol\":8343:8383  OwnershipTransferred(_owner, address(0)) */\n      mload(0x40)\n      sub(shl(0xa0, 0x01), 0x01)\n        /* \"contracts/4_SmartGTFX.sol\":8364:8370  _owner */\n      swap1\n      swap2\n      and\n      swap1\n        /* \"contracts/4_SmartGTFX.sol\":8343:8383  OwnershipTransferred(_owner, address(0)) */\n      0x8be0079c531659141344cd1fd0a4f28419497f9722a3daafe3b4186f6b6457e0\n      swap1\n        /* \"contracts/4_SmartGTFX.sol\":8380:8381  0 */\n      dup4\n      swap1\n        /* \"contracts/4_SmartGTFX.sol\":8343:8383  OwnershipTransferred(_owner, address(0)) */\n      log3\n        /* \"contracts/4_SmartGTFX.sol\":8406:8407  0 */\n      0x00\n        /* \"contracts/4_SmartGTFX.sol\":8389:8408  _owner = address(0) */\n      dup1\n      sload\n      not(sub(shl(0xa0, 0x01), 0x01))\n      and\n      swap1\n      sstore\n        /* \"contracts/4_SmartGTFX.sol\":8286:8413  function renounceOwnership() public onlyOwner {... */\n      jump\t// out\n        /* \"contracts/4_SmartGTFX.sol\":7703:7774  function owner() public view returns (address) {... */\n    tag_11:\n        /* \"contracts/4_SmartGTFX.sol\":7741:7748  address */\n      0x00\n        /* \"contracts/4_SmartGTFX.sol\":7763:7769  _owner */\n      sload\n      sub(shl(0xa0, 0x01), 0x01)\n      and\n        /* \"contracts/4_SmartGTFX.sol\":7703:7774  function owner() public view returns (address) {... */\n      swap1\n      jump\t// out\n        /* \"contracts/4_SmartGTFX.sol\":13294:13422  function unlockUser(address who) public onlyOwner {... */\n    tag_14:\n        /* \"contracts/4_SmartGTFX.sol\":7899:7911  _msgSender() */\n      tag_28\n        /* \"contracts/4_SmartGTFX.sol\":7899:7909  _msgSender */\n      tag_23\n        /* \"contracts/4_SmartGTFX.sol\":7899:7911  _msgSender() */\n      jump\t// in\n    tag_28:\n        /* \"contracts/4_SmartGTFX.sol\":7889:7895  _owner */\n      sload(0x00)\n      sub(shl(0xa0, 0x01), 0x01)\n      swap1\n      dup2\n      and\n        /* \"contracts/4_SmartGTFX.sol\":7889:7911  _owner == _msgSender() */\n      swap2\n      and\n      eq\n        /* \"contracts/4_SmartGTFX.sol\":7881:7948  require(_owner == _msgSender(), \"Ownable: caller is not the owner\") */\n      tag_29\n      jumpi\n      0x40\n      dup1\n      mload\n      shl(0xe5, 0x461bcd)\n      dup2\n      mstore\n      0x20\n      0x04\n      dup3\n      add\n      dup2\n      swap1\n      mstore\n      0x24\n      dup3\n      add\n      mstore\n      0x00\n      dup1\n      mload\n      0x20\n      data_9924ebdf1add33d25d4ef888e16131f0a5687b0580a36c21b5c301a6c462effe\n      dup4\n      codecopy\n      dup2\n      mload\n      swap2\n      mstore\n      0x44\n      dup3\n      add\n      mstore\n      swap1\n      mload\n      swap1\n      dup2\n      swap1\n      sub\n      0x64\n      add\n      swap1\n      revert\n    tag_29:\n      sub(shl(0xa0, 0x01), 0x01)\n        /* \"contracts/4_SmartGTFX.sol\":13354:13368  blacklist[who] */\n      dup2\n      and\n        /* \"contracts/4_SmartGTFX.sol\":13371:13376  false */\n      0x00\n        /* \"contracts/4_SmartGTFX.sol\":13354:13368  blacklist[who] */\n      dup2\n      dup2\n      mstore\n        /* \"contracts/4_SmartGTFX.sol\":13354:13363  blacklist */\n      0x01\n        /* \"contracts/4_SmartGTFX.sol\":13354:13368  blacklist[who] */\n      0x20\n      mstore\n      0x40\n      dup1\n      dup3\n      keccak256\n        /* \"contracts/4_SmartGTFX.sol\":13354:13376  blacklist[who] = false */\n      dup1\n      sload\n      not(0xff)\n      and\n      swap1\n      sstore\n        /* \"contracts/4_SmartGTFX.sol\":13400:13415  UnlockUser(who) */\n      mload\n      0x687691c08a3e67a160ba20a32cb1c56791955f12c5ff5d5fcf62bc456ad79ea1\n      swap2\n        /* \"contracts/4_SmartGTFX.sol\":13371:13376  false */\n      swap1\n        /* \"contracts/4_SmartGTFX.sol\":13400:13415  UnlockUser(who) */\n      log2\n        /* \"contracts/4_SmartGTFX.sol\":13294:13422  function unlockUser(address who) public onlyOwner {... */\n      pop\n      jump\t// out\n        /* \"contracts/4_SmartGTFX.sol\":13165:13288  function lockUser(address who) public onlyOwner {... */\n    tag_17:\n        /* \"contracts/4_SmartGTFX.sol\":7899:7911  _msgSender() */\n      tag_32\n        /* \"contracts/4_SmartGTFX.sol\":7899:7909  _msgSender */\n      tag_23\n        /* \"contracts/4_SmartGTFX.sol\":7899:7911  _msgSender() */\n      jump\t// in\n    tag_32:\n        /* \"contracts/4_SmartGTFX.sol\":7889:7895  _owner */\n      sload(0x00)\n      sub(shl(0xa0, 0x01), 0x01)\n      swap1\n      dup2\n      and\n        /* \"contracts/4_SmartGTFX.sol\":7889:7911  _owner == _msgSender() */\n      swap2\n      and\n      eq\n        /* \"contracts/4_SmartGTFX.sol\":7881:7948  require(_owner == _msgSender(), \"Ownable: caller is not the owner\") */\n      tag_33\n      jumpi\n      0x40\n      dup1\n      mload\n      shl(0xe5, 0x461bcd)\n      dup2\n      mstore\n      0x20\n      0x04\n      dup3\n      add\n      dup2\n      swap1\n      mstore\n      0x24\n      dup3\n      add\n      mstore\n      0x00\n      dup1\n      mload\n      0x20\n      data_9924ebdf1add33d25d4ef888e16131f0a5687b0580a36c21b5c301a6c462effe\n      dup4\n      codecopy\n      dup2\n      mload\n      swap2\n      mstore\n      0x44\n      dup3\n      add\n      mstore\n      swap1\n      mload\n      swap1\n      dup2\n      swap1\n      sub\n      0x64\n      add\n      swap1\n      revert\n    tag_33:\n      sub(shl(0xa0, 0x01), 0x01)\n        /* \"contracts/4_SmartGTFX.sol\":13223:13237  blacklist[who] */\n      dup2\n      and\n      0x00\n      dup2\n      dup2\n      mstore\n        /* \"contracts/4_SmartGTFX.sol\":13240:13244  true */\n      0x01\n        /* \"contracts/4_SmartGTFX.sol\":13223:13237  blacklist[who] */\n      0x20\n      dup2\n      swap1\n      mstore\n      0x40\n      dup1\n      dup4\n      keccak256\n        /* \"contracts/4_SmartGTFX.sol\":13223:13244  blacklist[who] = true */\n      dup1\n      sload\n      not(0xff)\n      and\n      swap1\n      swap3\n      or\n      swap1\n      swap2\n      sstore\n        /* \"contracts/4_SmartGTFX.sol\":13268:13281  LockUser(who) */\n      mload\n      0x169aadf55dc2098830ccf9f334e3ce3933b6e895b9114fc9f49242f2be61fe8e\n      swap2\n        /* \"contracts/4_SmartGTFX.sol\":13223:13237  blacklist[who] */\n      swap1\n        /* \"contracts/4_SmartGTFX.sol\":13268:13281  LockUser(who) */\n      log2\n        /* \"contracts/4_SmartGTFX.sol\":13165:13288  function lockUser(address who) public onlyOwner {... */\n      pop\n      jump\t// out\n        /* \"contracts/4_SmartGTFX.sol\":8552:8653  function transferOwnership(address newOwner) public onlyOwner {... */\n    tag_20:\n        /* \"contracts/4_SmartGTFX.sol\":7899:7911  _msgSender() */\n      tag_36\n        /* \"contracts/4_SmartGTFX.sol\":7899:7909  _msgSender */\n      tag_23\n        /* \"contracts/4_SmartGTFX.sol\":7899:7911  _msgSender() */\n      jump\t// in\n    tag_36:\n        /* \"contracts/4_SmartGTFX.sol\":7889:7895  _owner */\n      sload(0x00)\n      sub(shl(0xa0, 0x01), 0x01)\n      swap1\n      dup2\n      and\n        /* \"contracts/4_SmartGTFX.sol\":7889:7911  _owner == _msgSender() */\n      swap2\n      and\n      eq\n        /* \"contracts/4_SmartGTFX.sol\":7881:7948  require(_owner == _msgSender(), \"Ownable: caller is not the owner\") */\n      tag_37\n      jumpi\n      0x40\n      dup1\n      mload\n      shl(0xe5, 0x461bcd)\n      dup2\n      mstore\n      0x20\n      0x04\n      dup3\n      add\n      dup2\n      swap1\n      mstore\n      0x24\n      dup3\n      add\n      mstore\n      0x00\n      dup1\n      mload\n      0x20\n      data_9924ebdf1add33d25d4ef888e16131f0a5687b0580a36c21b5c301a6c462effe\n      dup4\n      codecopy\n      dup2\n      mload\n      swap2\n      mstore\n      0x44\n      dup3\n      add\n      mstore\n      swap1\n      mload\n      swap1\n      dup2\n      swap1\n      sub\n      0x64\n      add\n      swap1\n      revert\n    tag_37:\n        /* \"contracts/4_SmartGTFX.sol\":8620:8648  _transferOwnership(newOwner) */\n      tag_39\n        /* \"contracts/4_SmartGTFX.sol\":8639:8647  newOwner */\n      dup2\n        /* \"contracts/4_SmartGTFX.sol\":8620:8638  _transferOwnership */\n      tag_40\n        /* \"contracts/4_SmartGTFX.sol\":8620:8648  _transferOwnership(newOwner) */\n      jump\t// in\n    tag_39:\n        /* \"contracts/4_SmartGTFX.sol\":8552:8653  function transferOwnership(address newOwner) public onlyOwner {... */\n      pop\n      jump\t// out\n        /* \"contracts/4_SmartGTFX.sol\":6448:6538  function _msgSender() internal view returns (address payable) {... */\n    tag_23:\n        /* \"contracts/4_SmartGTFX.sol\":6523:6533  msg.sender */\n      caller\n        /* \"contracts/4_SmartGTFX.sol\":6448:6538  function _msgSender() internal view returns (address payable) {... */\n      swap1\n      jump\t// out\n        /* \"contracts/4_SmartGTFX.sol\":8746:8957  function _transferOwnership(address newOwner) internal {... */\n    tag_40:\n      sub(shl(0xa0, 0x01), 0x01)\n        /* \"contracts/4_SmartGTFX.sol\":8815:8837  newOwner != address(0) */\n      dup2\n      and\n        /* \"contracts/4_SmartGTFX.sol\":8807:8880  require(newOwner != address(0), \"Ownable: new owner is the zero address\") */\n      tag_43\n      jumpi\n      mload(0x40)\n      shl(0xe5, 0x461bcd)\n      dup2\n      mstore\n      0x04\n      add\n      dup1\n      dup1\n      0x20\n      add\n      dup3\n      dup2\n      sub\n      dup3\n      mstore\n      0x26\n      dup2\n      mstore\n      0x20\n      add\n      dup1\n      data_245f15ff17f551913a7a18385165551503906a406f905ac1c2437281a7cd0cfe\n      0x26\n      swap2\n      codecopy\n      0x40\n      add\n      swap2\n      pop\n      pop\n      mload(0x40)\n      dup1\n      swap2\n      sub\n      swap1\n      revert\n    tag_43:\n        /* \"contracts/4_SmartGTFX.sol\":8912:8918  _owner */\n      0x00\n      dup1\n      sload\n        /* \"contracts/4_SmartGTFX.sol\":8891:8929  OwnershipTransferred(_owner, newOwner) */\n      mload(0x40)\n      sub(shl(0xa0, 0x01), 0x01)\n      dup1\n      dup6\n      and\n      swap4\n        /* \"contracts/4_SmartGTFX.sol\":8912:8918  _owner */\n      swap3\n      and\n      swap2\n        /* \"contracts/4_SmartGTFX.sol\":8891:8929  OwnershipTransferred(_owner, newOwner) */\n      0x8be0079c531659141344cd1fd0a4f28419497f9722a3daafe3b4186f6b6457e0\n      swap2\n      log3\n        /* \"contracts/4_SmartGTFX.sol\":8935:8941  _owner */\n      0x00\n        /* \"contracts/4_SmartGTFX.sol\":8935:8952  _owner = newOwner */\n      dup1\n      sload\n      not(sub(shl(0xa0, 0x01), 0x01))\n      and\n      sub(shl(0xa0, 0x01), 0x01)\n      swap3\n      swap1\n      swap3\n      and\n      swap2\n      swap1\n      swap2\n      or\n      swap1\n      sstore\n        /* \"contracts/4_SmartGTFX.sol\":8746:8957  function _transferOwnership(address newOwner) internal {... */\n      jump\t// out\n    stop\n    data_245f15ff17f551913a7a18385165551503906a406f905ac1c2437281a7cd0cfe 4f776e61626c653a206e6577206f776e657220697320746865207a65726f2061646472657373\n    data_9924ebdf1add33d25d4ef888e16131f0a5687b0580a36c21b5c301a6c462effe 4f776e61626c653a2063616c6c6572206973206e6f7420746865206f776e6572\n\n    auxdata: 0xa265627a7a723158208a74c65450eb1c602c7a61b1200a6ee10afb384d17249661663768439a8a337564736f6c63430005110032\n}\n",
				"bytecode": {
					"linkReferences": {},
					"object": "608060405260006100176001600160e01b0361006616565b600080546001600160a01b0319166001600160a01b0383169081178255604051929350917f8be0079c531659141344cd1fd0a4f28419497f9722a3daafe3b4186f6b6457e0908290a35061006a565b3390565b610478806100796000396000f3fe608060405234801561001057600080fd5b50600436106100575760003560e01c8063715018a61461005c5780638da5cb5b14610066578063bd1870a31461008a578063d7972580146100b0578063f2fde38b146100d6575b600080fd5b6100646100fc565b005b61006e61019e565b604080516001600160a01b039092168252519081900360200190f35b610064600480360360208110156100a057600080fd5b50356001600160a01b03166101ad565b610064600480360360208110156100c657600080fd5b50356001600160a01b031661024e565b610064600480360360208110156100ec57600080fd5b50356001600160a01b03166102f5565b610104610359565b6000546001600160a01b03908116911614610154576040805162461bcd60e51b81526020600482018190526024820152600080516020610424833981519152604482015290519081900360640190fd5b600080546040516001600160a01b03909116907f8be0079c531659141344cd1fd0a4f28419497f9722a3daafe3b4186f6b6457e0908390a3600080546001600160a01b0319169055565b6000546001600160a01b031690565b6101b5610359565b6000546001600160a01b03908116911614610205576040805162461bcd60e51b81526020600482018190526024820152600080516020610424833981519152604482015290519081900360640190fd5b6001600160a01b038116600081815260016020526040808220805460ff19169055517f687691c08a3e67a160ba20a32cb1c56791955f12c5ff5d5fcf62bc456ad79ea19190a250565b610256610359565b6000546001600160a01b039081169116146102a6576040805162461bcd60e51b81526020600482018190526024820152600080516020610424833981519152604482015290519081900360640190fd5b6001600160a01b0381166000818152600160208190526040808320805460ff1916909217909155517f169aadf55dc2098830ccf9f334e3ce3933b6e895b9114fc9f49242f2be61fe8e9190a250565b6102fd610359565b6000546001600160a01b0390811691161461034d576040805162461bcd60e51b81526020600482018190526024820152600080516020610424833981519152604482015290519081900360640190fd5b6103568161035d565b50565b3390565b6001600160a01b0381166103a25760405162461bcd60e51b81526004018080602001828103825260268152602001806103fe6026913960400191505060405180910390fd5b600080546040516001600160a01b03808516939216917f8be0079c531659141344cd1fd0a4f28419497f9722a3daafe3b4186f6b6457e091a3600080546001600160a01b0319166001600160a01b039290921691909117905556fe4f776e61626c653a206e6577206f776e657220697320746865207a65726f20616464726573734f776e61626c653a2063616c6c6572206973206e6f7420746865206f776e6572a265627a7a723158208a74c65450eb1c602c7a61b1200a6ee10afb384d17249661663768439a8a337564736f6c63430005110032",
					"opcodes": "PUSH1 0x80 PUSH1 0x40 MSTORE PUSH1 0x0 PUSH2 0x17 PUSH1 0x1 PUSH1 0x1 PUSH1 0xE0 SHL SUB PUSH2 0x66 AND JUMP JUMPDEST PUSH1 0x0 DUP1 SLOAD PUSH1 0x1 PUSH1 0x1 PUSH1 0xA0 SHL SUB NOT AND PUSH1 0x1 PUSH1 0x1 PUSH1 0xA0 SHL SUB DUP4 AND SWAP1 DUP2 OR DUP3 SSTORE PUSH1 0x40 MLOAD SWAP3 SWAP4 POP SWAP2 PUSH32 0x8BE0079C531659141344CD1FD0A4F28419497F9722A3DAAFE3B4186F6B6457E0 SWAP1 DUP3 SWAP1 LOG3 POP PUSH2 0x6A JUMP JUMPDEST CALLER SWAP1 JUMP JUMPDEST PUSH2 0x478 DUP1 PUSH2 0x79 PUSH1 0x0 CODECOPY PUSH1 0x0 RETURN INVALID PUSH1 0x80 PUSH1 0x40 MSTORE CALLVALUE DUP1 ISZERO PUSH2 0x10 JUMPI PUSH1 0x0 DUP1 REVERT JUMPDEST POP PUSH1 0x4 CALLDATASIZE LT PUSH2 0x57 JUMPI PUSH1 0x0 CALLDATALOAD PUSH1 0xE0 SHR DUP1 PUSH4 0x715018A6 EQ PUSH2 0x5C JUMPI DUP1 PUSH4 0x8DA5CB5B EQ PUSH2 0x66 JUMPI DUP1 PUSH4 0xBD1870A3 EQ PUSH2 0x8A JUMPI DUP1 PUSH4 0xD7972580 EQ PUSH2 0xB0 JUMPI DUP1 PUSH4 0xF2FDE38B EQ PUSH2 0xD6 JUMPI JUMPDEST PUSH1 0x0 DUP1 REVERT JUMPDEST PUSH2 0x64 PUSH2 0xFC JUMP JUMPDEST STOP JUMPDEST PUSH2 0x6E PUSH2 0x19E JUMP JUMPDEST PUSH1 0x40 DUP1 MLOAD PUSH1 0x1 PUSH1 0x1 PUSH1 0xA0 SHL SUB SWAP1 SWAP3 AND DUP3 MSTORE MLOAD SWAP1 DUP2 SWAP1 SUB PUSH1 0x20 ADD SWAP1 RETURN JUMPDEST PUSH2 0x64 PUSH1 0x4 DUP1 CALLDATASIZE SUB PUSH1 0x20 DUP2 LT ISZERO PUSH2 0xA0 JUMPI PUSH1 0x0 DUP1 REVERT JUMPDEST POP CALLDATALOAD PUSH1 0x1 PUSH1 0x1 PUSH1 0xA0 SHL SUB AND PUSH2 0x1AD JUMP JUMPDEST PUSH2 0x64 PUSH1 0x4 DUP1 CALLDATASIZE SUB PUSH1 0x20 DUP2 LT ISZERO PUSH2 0xC6 JUMPI PUSH1 0x0 DUP1 REVERT JUMPDEST POP CALLDATALOAD PUSH1 0x1 PUSH1 0x1 PUSH1 0xA0 SHL SUB AND PUSH2 0x24E JUMP JUMPDEST PUSH2 0x64 PUSH1 0x4 DUP1 CALLDATASIZE SUB PUSH1 0x20 DUP2 LT ISZERO PUSH2 0xEC JUMPI PUSH1 0x0 DUP1 REVERT JUMPDEST POP CALLDATALOAD PUSH1 0x1 PUSH1 0x1 PUSH1 0xA0 SHL SUB AND PUSH2 0x2F5 JUMP JUMPDEST PUSH2 0x104 PUSH2 0x359 JUMP JUMPDEST PUSH1 0x0 SLOAD PUSH1 0x1 PUSH1 0x1 PUSH1 0xA0 SHL SUB SWAP1 DUP2 AND SWAP2 AND EQ PUSH2 0x154 JUMPI PUSH1 0x40 DUP1 MLOAD PUSH3 0x461BCD PUSH1 0xE5 SHL DUP2 MSTORE PUSH1 0x20 PUSH1 0x4 DUP3 ADD DUP2 SWAP1 MSTORE PUSH1 0x24 DUP3 ADD MSTORE PUSH1 0x0 DUP1 MLOAD PUSH1 0x20 PUSH2 0x424 DUP4 CODECOPY DUP2 MLOAD SWAP2 MSTORE PUSH1 0x44 DUP3 ADD MSTORE SWAP1 MLOAD SWAP1 DUP2 SWAP1 SUB PUSH1 0x64 ADD SWAP1 REVERT JUMPDEST PUSH1 0x0 DUP1 SLOAD PUSH1 0x40 MLOAD PUSH1 0x1 PUSH1 0x1 PUSH1 0xA0 SHL SUB SWAP1 SWAP2 AND SWAP1 PUSH32 0x8BE0079C531659141344CD1FD0A4F28419497F9722A3DAAFE3B4186F6B6457E0 SWAP1 DUP4 SWAP1 LOG3 PUSH1 0x0 DUP1 SLOAD PUSH1 0x1 PUSH1 0x1 PUSH1 0xA0 SHL SUB NOT AND SWAP1 SSTORE JUMP JUMPDEST PUSH1 0x0 SLOAD PUSH1 0x1 PUSH1 0x1 PUSH1 0xA0 SHL SUB AND SWAP1 JUMP JUMPDEST PUSH2 0x1B5 PUSH2 0x359 JUMP JUMPDEST PUSH1 0x0 SLOAD PUSH1 0x1 PUSH1 0x1 PUSH1 0xA0 SHL SUB SWAP1 DUP2 AND SWAP2 AND EQ PUSH2 0x205 JUMPI PUSH1 0x40 DUP1 MLOAD PUSH3 0x461BCD PUSH1 0xE5 SHL DUP2 MSTORE PUSH1 0x20 PUSH1 0x4 DUP3 ADD DUP2 SWAP1 MSTORE PUSH1 0x24 DUP3 ADD MSTORE PUSH1 0x0 DUP1 MLOAD PUSH1 0x20 PUSH2 0x424 DUP4 CODECOPY DUP2 MLOAD SWAP2 MSTORE PUSH1 0x44 DUP3 ADD MSTORE SWAP1 MLOAD SWAP1 DUP2 SWAP1 SUB PUSH1 0x64 ADD SWAP1 REVERT JUMPDEST PUSH1 0x1 PUSH1 0x1 PUSH1 0xA0 SHL SUB DUP2 AND PUSH1 0x0 DUP2 DUP2 MSTORE PUSH1 0x1 PUSH1 0x20 MSTORE PUSH1 0x40 DUP1 DUP3 KECCAK256 DUP1 SLOAD PUSH1 0xFF NOT AND SWAP1 SSTORE MLOAD PUSH32 0x687691C08A3E67A160BA20A32CB1C56791955F12C5FF5D5FCF62BC456AD79EA1 SWAP2 SWAP1 LOG2 POP JUMP JUMPDEST PUSH2 0x256 PUSH2 0x359 JUMP JUMPDEST PUSH1 0x0 SLOAD PUSH1 0x1 PUSH1 0x1 PUSH1 0xA0 SHL SUB SWAP1 DUP2 AND SWAP2 AND EQ PUSH2 0x2A6 JUMPI PUSH1 0x40 DUP1 MLOAD PUSH3 0x461BCD PUSH1 0xE5 SHL DUP2 MSTORE PUSH1 0x20 PUSH1 0x4 DUP3 ADD DUP2 SWAP1 MSTORE PUSH1 0x24 DUP3 ADD MSTORE PUSH1 0x0 DUP1 MLOAD PUSH1 0x20 PUSH2 0x424 DUP4 CODECOPY DUP2 MLOAD SWAP2 MSTORE PUSH1 0x44 DUP3 ADD MSTORE SWAP1 MLOAD SWAP1 DUP2 SWAP1 SUB PUSH1 0x64 ADD SWAP1 REVERT JUMPDEST PUSH1 0x1 PUSH1 0x1 PUSH1 0xA0 SHL SUB DUP2 AND PUSH1 0x0 DUP2 DUP2 MSTORE PUSH1 0x1 PUSH1 0x20 DUP2 SWAP1 MSTORE PUSH1 0x40 DUP1 DUP4 KECCAK256 DUP1 SLOAD PUSH1 0xFF NOT AND SWAP1 SWAP3 OR SWAP1 SWAP2 SSTORE MLOAD PUSH32 0x169AADF55DC2098830CCF9F334E3CE3933B6E895B9114FC9F49242F2BE61FE8E SWAP2 SWAP1 LOG2 POP JUMP JUMPDEST PUSH2 0x2FD PUSH2 0x359 JUMP JUMPDEST PUSH1 0x0 SLOAD PUSH1 0x1 PUSH1 0x1 PUSH1 0xA0 SHL SUB SWAP1 DUP2 AND SWAP2 AND EQ PUSH2 0x34D JUMPI PUSH1 0x40 DUP1 MLOAD PUSH3 0x461BCD PUSH1 0xE5 SHL DUP2 MSTORE PUSH1 0x20 PUSH1 0x4 DUP3 ADD DUP2 SWAP1 MSTORE PUSH1 0x24 DUP3 ADD MSTORE PUSH1 0x0 DUP1 MLOAD PUSH1 0x20 PUSH2 0x424 DUP4 CODECOPY DUP2 MLOAD SWAP2 MSTORE PUSH1 0x44 DUP3 ADD MSTORE SWAP1 MLOAD SWAP1 DUP2 SWAP1 SUB PUSH1 0x64 ADD SWAP1 REVERT JUMPDEST PUSH2 0x356 DUP2 PUSH2 0x35D JUMP JUMPDEST POP JUMP JUMPDEST CALLER SWAP1 JUMP JUMPDEST PUSH1 0x1 PUSH1 0x1 PUSH1 0xA0 SHL SUB DUP2 AND PUSH2 0x3A2 JUMPI PUSH1 0x40 MLOAD PUSH3 0x461BCD PUSH1 0xE5 SHL DUP2 MSTORE PUSH1 0x4 ADD DUP1 DUP1 PUSH1 0x20 ADD DUP3 DUP2 SUB DUP3 MSTORE PUSH1 0x26 DUP2 MSTORE PUSH1 0x20 ADD DUP1 PUSH2 0x3FE PUSH1 0x26 SWAP2 CODECOPY PUSH1 0x40 ADD SWAP2 POP POP PUSH1 0x40 MLOAD DUP1 SWAP2 SUB SWAP1 REVERT JUMPDEST PUSH1 0x0 DUP1 SLOAD PUSH1 0x40 MLOAD PUSH1 0x1 PUSH1 0x1 PUSH1 0xA0 SHL SUB DUP1 DUP6 AND SWAP4 SWAP3 AND SWAP2 PUSH32 0x8BE0079C531659141344CD1FD0A4F28419497F9722A3DAAFE3B4186F6B6457E0 SWAP2 LOG3 PUSH1 0x0 DUP1 SLOAD PUSH1 0x1 PUSH1 0x1 PUSH1 0xA0 SHL SUB NOT AND PUSH1 0x1 PUSH1 0x1 PUSH1 0xA0 SHL SUB SWAP3 SWAP1 SWAP3 AND SWAP2 SWAP1 SWAP2 OR SWAP1 SSTORE JUMP INVALID 0x4F PUSH24 0x6E61626C653A206E6577206F776E65722069732074686520 PUSH27 0x65726F20616464726573734F776E61626C653A2063616C6C657220 PUSH10 0x73206E6F742074686520 PUSH16 0x776E6572A265627A7A723158208A74C6 SLOAD POP 0xEB SHR PUSH1 0x2C PUSH27 0x61B1200A6EE10AFB384D17249661663768439A8A337564736F6C63 NUMBER STOP SDIV GT STOP ORIGIN "
				},
				"gasEstimates": {
					"creation": {
						"codeDepositCost": "228800",
						"executionCost": "infinite",
						"totalCost": "infinite"
					},
					"external": {
						"lockUser(address)": "infinite",
						"owner()": "1037",
						"renounceOwnership()": "infinite",
						"transferOwnership(address)": "infinite",
						"unlockUser(address)": "infinite"
					}
				},
				"methodIdentifiers": {
					"lockUser(address)": "d7972580",
					"owner()": "8da5cb5b",
					"renounceOwnership()": "715018a6",
					"transferOwnership(address)": "f2fde38b",
					"unlockUser(address)": "bd1870a3"
				}
			},
			"storageLayout": {
				"storage": [
					{
						"astId": 233,
						"contract": "contracts/4_SmartGTFX.sol:UserLock",
						"label": "_owner",
						"offset": 0,
						"slot": "0",
						"type": "t_address"
					},
					{
						"astId": 487,
						"contract": "contracts/4_SmartGTFX.sol:UserLock",
						"label": "blacklist",
						"offset": 0,
						"slot": "1",
						"type": "t_mapping(t_address,t_bool)"
					}
				],
				"types": {
					"t_address": {
						"encoding": "inplace",
						"label": "address",
						"numberOfBytes": "20"
					},
					"t_bool": {
						"encoding": "inplace",
						"label": "bool",
						"numberOfBytes": "1"
					},
					"t_mapping(t_address,t_bool)": {
						"encoding": "mapping",
						"key": "t_address",
						"label": "mapping(address => bool)",
						"numberOfBytes": "32",
						"value": "t_bool"
					}
				}
			},
			"userdoc": {
				"methods": {}
			}
		}
	}
}